:020000040003F7
:10600000F819002051760300637603002D61030028
:106010000000000000000000000000000000000080
:106020000000000000000000000000006776030090
:106030000000000000000000697603006B7603009A
:106040006D7603006B650300AD9603006D7603006B
:106050006D760300000000006D7603006D7603008E
:106060006D7603006D7603006D760300D56803003E
:106070006D7603006D7603006D7603006D76030088
:106080006D7603006D7603006D7603006D76030078
:1060900027650300BF9503004D6A0300556A03009E
:1060A0006D7603006D760300000000000000000024
:1060B00000000000000000000000000000000000E0
:1060C0000348854607F094FE0048004797610300A7
:1060D000F8190020056885F308884068FF2464B239
:1060E000EFF30585002D01D1A6460047254606465B
:1060F00021273FBAF0B40024002500260027F0B481
:10610000F92040B20047000072B600BE00BFFEE7B3
:1061100008B504460E4615462B4622464FA10020E0
:10612000009602F0F4FA2046FFF7EEFF04462246FE
:1061300053A1002002F0EBFA72B600BE00BFFEE7EA
:1061400070475748806800280AD1012081070860FD
:1061500000BF544800680028FBD000205149086067
:106160004F48406900280AD101208107886000BF9C
:106170004C4840680028FBD000204A494860012074
:106180008107086100BF4748C0680028FBD0002095
:106190004449C8607047FFF7D4FF0221162000F081
:1061A00026F81620012181403F4A116000BF62B6E7
:1061B00001F0B7FF3DA24049002002F0A8FAFFF726
:1061C000BFFF00F0B6FF00E020BF07F07AFB002819
:1061D000FAD13A48C069002801D100F001FD002041
:1061E0003649C86100F0F2FF00E020BFFDE710B5BE
:1061F000002819DA324A03071B0F083B9B089B0053
:10620000D2588307DC0EFF23A3409A438B071B0E53
:106210008407E40EA3401A43294B0407240F083CCB
:10622000A408A4001A5118E01F4A03231B02D21825
:1062300083089B00D2588307DC0EFF23A3409A43B8
:106240008B071B0E8407E40EA3401A43164B03244E
:1062500024021B198408A4001A5110BD1B5B306D69
:106260001B5B323B33316D415050204552524F52EF
:106270002025642C204025733A4C25640A00000038
:106280001B5B306D1B5B323B33316D4841524446E2
:1062900041554C542070633D307825780A00000049
:1062A000000400400001004000E100E031303A33DA
:1062B000313A343100000000A4E003000005004042
:1062C0001CED00E010B5002819DAFE4A03071B0F89
:1062D000083B9B089B00D2588307DC0EFF23A3409A
:1062E0009A438B071B0E8407E40EA3401A43F54B19
:1062F0000407240F083CA408A4001A5118E0F24A2D
:1063000003231B02D21883089B00D2588307DC0E9C
:10631000FF23A3409A438B071B0E8407E40EA34080
:106320001A43E94B032424021B198408A4001A51C0
:1063300010BDF8B50446A07B00281CD1617BE34862
:106340008840E249451A607B401C8140DF480F1AB3
:10635000781B0602360ADE4802F0EAF9710800905E
:1063600007F076FCA0684019081871084018000270
:10637000000A60601FE0A07B022801D10A2000E033
:1063800001200546D24802F0D3F90646CF486843BB
:106390000146304607F05CFC6800CC4A5043627B03
:1063A0005043A26880180918C848684308180002BA
:1063B000000A606000BFF8BD1CB502206946487144
:1063C000684602F0D0FC002809D100BF042400BFB9
:1063D000C0A26B210420FFF79BFE00BF00BF00217D
:1063E000684601712521817102F0F6FF002802D074
:1063F000684602F022FD1CBD0146BA48814201DA1E
:1064000000207047B7480A1A01209040B64A128807
:106410001040002801D00120F3E70020F1E730B55B
:1064200089B00546284602F098FD0446002C1ED08F
:106430006079217900020843AA49884217DB617913
:106440002279090211430846FFF7D6FF00280ED033
:10645000B62168464171607922790102114368468C
:10646000C1800321017101A803F0BEF800BF2846D6
:1064700002F0E3FC09B030BD7FB50C4615461E4660
:10648000002C0CD06946994802F0C1F9002806D1C9
:10649000142001218140964A116000BF02E000985B
:1064A00002F0CBFC7FBD10B592480078002801D0E7
:1064B000FFF782FF10BD10B58F494868411E0A02E0
:1064C000120A002116E00B018C4CE358002B10D06F
:1064D0000B011B195B681B1A1B021B0A141A2402EE
:1064E000240AA34205D20B01844C1B195B681A02D3
:1064F000120A491C0829E6D3411E0902090A9142E1
:106500000CD0012109047E4B596000217D4B19609C
:10651000794940310A607C49086003E0012109049F
:10652000774B996010BD38B518E000BF009802F0B5
:10653000B8FC012800D100E000200446002C05D161
:1065400000BF64A2C221FFF7E3FD00BF00BF6F4997
:10655000009809688847009802F06FFC6946634814
:1065600002F089F90028E0D038BD10B502F05BFFD9
:1065700010BD0120704770B504460E4600205D49ED
:1065800008706248046000205749088080215B48F9
:1065900007F0E1FB5E485549086004204860202070
:1065A000886000204861084602F020F902F0D2FB22
:1065B00000BF474802F0F3F80546002D06D000BFA3
:1065C00044A2E6212846FFF7A3FD00BF00BF022139
:1065D0001420FFF777FE142000F05EF9002101205F
:1065E000FFF770FE4B4A4C494C4802F083FE70BDE9
:1065F00010B540480078002804D101203D490870BA
:10660000FFF7DAFE10BDFFB581B005460E4617460E
:106610000498002803D10C2F01DD05B0F0BD002D3A
:1066200001D10020F9E7082E01DB0020F5E7EFF3A8
:106630001080C007C00F72B6009030012F49441877
:106640002068002802D0206802F0F7FB284602F0FC
:10665000C7FB256027730020607327484068A0604F
:106660000498A0732046FFF764FEFFF724FF00980C
:10667000002800D162B60120CFE770B50546082D8D
:106680000DDA28011D494418002060731A4840683B
:10669000A0602046FFF74DFEFFF70DFF00BF70BD65
:1066A00010B504460B2000F0FEF8082C06DA210194
:1066B000124A8818C17B491CC17300BF0B2000F02F
:1066C000EBF810BD1CED00E000E100E0CD0C000097
:1066D000800100202E2E5C7472616E73706F727474
:1066E0002E630000F0FF00000E000020E8000020F4
:1066F00000E200E00C00002000B50040680000202F
:1067000000B3004040B10040080000200400002019
:10671000000100201F64030079640300A7640300E4
:1067200070B504460B2000F0BEF8082C0DDA2001ED
:1067300061494518286802F080FB002028606860E5
:10674000A860E860FFF7B7FE00BF0B2000F0A4F8D8
:1067500070BD7CB559484068851C002480E020014C
:106760005549085800287AD0200140184068281A56
:106770000002000A52490968691A0902090A884296
:106780006DD800216846417120014B49085800909E
:106790000021684601710026200147494018C07B4E
:1067A000032819DA25206946887111E0684602F04D
:1067B00013FE002806D1701CC6B221013E4A505873
:1067C00002F00EFB68468079401CC1B268468171B8
:1067D000684680792728E9DD00202101364A89189A
:1067E000C873200111464018417B20018018407B6E
:1067F000401C2201304BD2185073FF290BD12001CD
:106800001946401880682F4940180002000A2101EB
:106810001A4689188860200127494018407B2101C9
:10682000254A8918097B884205DB2001114640185A
:10683000007BFF2805D121011F4A8818FFF779FD49
:106840000CE021011C4A505802F0F7FA20011A49C5
:1068500040180021016041608160C16000BF641C7C
:10686000082C00D27BE7FFF726FE7CBD002909D06B
:10687000154A831A01229A40144B1B881A43134B62
:106880001A8008E0104A831A01229A400F4B1B8895
:1068900093430E4A13807047C206D20E01219140E5
:1068A0000B4A11607047C206D20E01219140084A7E
:1068B00080321160704700006800002000B5004081
:1068C00008000020009A1900F0FF00000E000020D0
:1068D00000E100E010B53A48006800280BD03948C4
:1068E0004068012109040840002804D000203449F0
:1068F0000860FFF72EFF3248406800280FD031486B
:106900004068012149040840002808D000212C4893
:106910004160012040042B49886000F0DBFC10BD81
:1069200010B5002028498860032000042549403123
:106930004860012025498860086001210B2000F093
:1069400007F80B2001218140214A116000BF10BDD2
:1069500010B5002819DA1F4A03071B0F083B9B08D4
:106960009B00D2588307DC0EFF23A3409A438B077A
:106970001B0E8407E40EA3401A43164B0407240F92
:10698000083CA408A4001A5118E0114A03231B0272
:10699000D21883089B00D2588307DC0EFF23A34044
:1069A0009A438B071B0E8407E40EA3401A43084B3F
:1069B000032424021B198408A4001A5110BD0000EE
:1069C00040B1004000B3004000B5004000B00040BE
:1069D00000E100E01CED00E010B50023F84A536030
:1069E000F84A526812181202120AF74B1524A40131
:1069F0001B195A6001225204F44B5A60F44A117078
:106A000010BD10B5F3A1002001F081FE012040046B
:106A1000EE4988600020EE49087010BD10B5F249BB
:106A20000A6800200FE0012181401140002909D0AF
:106A300041B2CC06E40E0123A340EB4C803423602A
:106A400000BF00BF401C2028EDD310BD10B502F0E0
:106A5000D6F810BD30B58BB0002480E0641C6846C9
:106A6000007F01285ED100BF08988007800F0028B2
:106A700001D1012000E000200546002D05D100BF16
:106A8000DAA2A621FFF744FB00BF00BF00BF07A8A2
:106A9000007B8007800F002801D1012000E000204A
:106AA0000546002D05D100BFD0A2A721FFF730FB7E
:106AB00000BF00BF00BF07A8007A8007800F002832
:106AC00001D1012000E000200546002D05D100BFC6
:106AD000C6A2A821FFF71CFB00BF00BFC7A1002072
:106AE0000A9B089A01F013FE012149070898884281
:106AF0000DD30898002106E00278099B5B5C1A40E0
:106B00000270491C401C0A9A8A42F5D804E000230E
:106B100008A807C802F00BFB6020694608710998B5
:106B2000029018E0BDA10020089A01F0F0FD0121BB
:106B300049070898884205D3FF220999089807F069
:106B400003F903E00999089802F0BCFA612069464C
:106B500008710898029001A802F01FFF00BF07A962
:106B6000B34801F088FE002800D177E7002C06D05A
:106B700062206946087101A802F00FFF00BFAC480F
:106B800001F0EEFE00280BD0AA480078002807D0BC
:106B9000122003F056FC0546286802F0D1FE00BF23
:106BA0000BB030BD30B587B00546284602F0D5F9A8
:106BB0000446002C12D060792179000208439E49D6
:106BC00088420BDD022069460871201D0290207862
:106BD000C01E039001A802F0E0FE00BF07B030BD68
:106BE000F0B585B0064695A1002001F090FD122079
:106BF00003F027FC0446062E0BD004DC002E07D041
:106C0000012E5CD106E0082E4DD00A2E57D102E0AD
:106C100000BF00BF00BF002C39D006F043F90028A8
:106C200035D0834801F09CFE002828D0FFF7F6FEFF
:106C3000864B0FCB6D460FC5684618DF054600BF73
:106C40002F46002F06D000BF68A281493846FFF7C3
:106C50005FFA00BF00BF206813DF054600BF2F4664
:106C6000002F07D000BF61A27949C91C3846FFF741
:106C70004FFA00BF00BF206802F062FE12E075A16B
:106C8000002001F044FD01206A4908700AE0002C50
:106C900004D07CA1002001F03AFD03E07FA1002098
:106CA00001F035FD13E000BF002500BF4FA24B21CE
:106CB000C9000020FFF72CFA00BF00BF00BF32461A
:106CC0007EA1002001F023FD72B600BFFEE700BFE9
:106CD00005B0F0BD10B50446204602F05EFE10BDC2
:106CE000F0B589B0044600200890207825285DD0B2
:106CF0000EDC22285BD006DC022859D0202816D0D2
:106D0000212856D116E1232854D02428F9D1AEE108
:106D1000612850D006DC50284ED051284DD0602834
:106D2000EFD10AE0622849D07028EAD1F3E0207957
:106D3000FFF756FF05F00AFEF1E10020079007A8D3
:106D400002F011F8002802D1042009B0F0BD079824
:106D500002F0B6F80798007800090001801C079936
:106D60000870207A0A3007994870162107988172B6
:106D7000E4210798C172FE2107980173207AC01C94
:106D800007994872A268616807980D3006F0CAFF3B
:106D9000237B627BA17B0798FFF735FC05460798AC
:106DA00002F04BF8002D0AD10320CEE76AE141E161
:106DB00000E1B2E155E19AE098E16DE193E091E004
:106DC00040B1004000B5004000B0004000B30040BA
:106DD000110000201B5B306D53544F502054494D1F
:106DE000454F55540A00000000E100E02E2E5C6281
:106DF0006F6F746C6F616465722E63001B5B306D26
:106E000057524954494E4720746F20307825782EC8
:106E1000286C656E202564290A0000001B5B306D1C
:106E200045524153494E4720307825782E0A0000BC
:106E30009001002010000020EFFF00001B5B306D70
:106E400041424F52542E2E2E0A00000094DE0300C1
:106E50003F0200001B5B306D2D3E57696C6C206754
:106E60006F20746F20617070206F6E636520666C98
:106E70006173682069732066696E69736865642E42
:106E80000A0000001B5B306D2D3E417070206E6F5C
:106E9000742076616C69642E0A0000001B5B306D03
:106EA0002D3E4E6F207365676D656E7420656E7440
:106EB000727920666F756E640A0000001B5B306D8E
:106EC0001B5B323B33316D53595354454D20524572
:106ED0005345542028726561736F6E203078257891
:106EE000290A00001BE12079FFF71AFC17E178213D
:106EF00068464170801CA268616806F013FF207A22
:106F0000401CC1B26846017002F06EFB002801D13E
:106F100003201AE703E10121C903A06806F07AFF04
:106F20000546F84A002306F0BDFE07460221FFF79A
:106F300053FDF4E0FFF765FDF3A1002001F0E7FB4E
:106F40006079012814D0022818D004281DD12046C9
:106F50000C3006F028FF0546A01D06F024FF06466B
:106F6000009563893246EDA1002001F0D0FB0DE0D1
:106F7000E288F1A1002001F0CAFB07E0E379A279E1
:106F8000F1A1002001F0C3FB00E000BF00BF202002
:106F9000F24908700021C943F04801616079EF4966
:106FA00008710A22A11DED48401D06F0BBFE01201C
:106FB0000890B4E0EAA1002001F0A9FB20790128A3
:106FC00014D0022818D004281DD120460C3006F019
:106FD000EAFE0546A01D06F0E6FE0646009563891A
:106FE0003246CEA1002001F092FB0DE0E288D2A152
:106FF000002001F08CFB07E0E379A279D2A1002008
:1070000001F085FB00E000BF00BFD8A10020E269CD
:1070100001F07DFBDBA10020226A01F078FB2079E2
:10702000022806D105F03EFF002802D1022006F01A
:10703000A4FB74E02079022812D1FFF7E2FC2121A1
:10704000684601720A22E11D0D3006F06BFEA1793F
:10705000684601736169069102A8FFF73BFE00BF15
:107060005DE001210520C003FFF7B6FC57E0E3888F
:10707000A288C9A1002001F04AFB0121C803FFF743
:10708000ABFC4CE06079042802D06079012802D181
:107090000020FFF7A5FD42E020798007800F00283F
:1070A00004D1207A8007800F002801D010204CE600
:1070B000207B8007800F002801D0092045E60120B1
:1070C00069460874201D07C805AB07C304A9B64864
:1070D00001F09DFB002805D0B4A1002001F017FBB2
:1070E000042032E6172000F0F4F918E00220694687
:1070F0000874201D07C805AB07C304A9AA4801F0FE
:1071000086FB002805D0A9A1002001F000FB042087
:107110001BE6172000F0DDF901E0062015E600BFB0
:107120000898002803D08D4802F037FC0DE60020B7
:107130000BE610B588B0FFF7F3FB18219A4806F06C
:107140000AFEA84898490860102048600820886016
:10715000084601F04BFB0321172000F0C1F917206E
:1071600001218140A04A116000BF02F0D8FC00213B
:1071700068460172012101739C490491012102A812
:107180000173082141730021817300BF02F005FCE7
:107190000446002C07D000BF954AFF21DB31204672
:1071A000FEF7B6FF00BF00BF01F0FDFC9149924819
:1071B000FFF7E1F901A806F0B3FA68460079002864
:1071C00002D000208D49C86108B010BDF0B58BB069
:1071D00001F0F7FC01206946087505A802F0DDFB07
:1071E000FFF706FA05F05EFE002805D00321052012
:1071F0000004FFF7F1FB6BE081A1002001F087FAAA
:10720000042003F01EF90546122003F01AF9074680
:1072100028788007C00F009028784007C30F28788F
:10722000C207D20F7DA1002001F071FA3868006812
:10723000401C002803D182A13A6801F068FA0220BC
:1072400006F09BFA002801D10BB0F0BD05F0FCFD63
:107250000446002C3BD0204606F08FFA052836D194
:10726000022003F0EEF8064600BF002E01D00120F8
:1072700000E0002001900198002806D100BF5C4A80
:1072800085218900FEF744FF00BF00BF012C02D01A
:10729000042C09D103E03088694608810FE0301DD5
:1072A00007C802AB07C30AE000BF0B20019000BF74
:1072B0004F4A6B49FEF72CFF00BF00BF00BF00BF65
:1072C0000022D24302A9204605F087FB00BF00BF81
:1072D00000BFB9E710B586B0624800788000624907
:1072E0000A5862A1002001F012FA5E4800780128D5
:1072F00004D0022803D0032802D1D1E0CCE0C5E0BD
:10730000D3E0000040420F001B5B306D4E657720DC
:107310004657206576656E740A0000001B5B306D71
:10732000094150503A20253038782E253034783AAB
:10733000253038780A0000001B5B306D0953443A51
:1073400020253034780A00001B5B306D09424C3A2E
:1073500020253032783A253032780A002802002081
:107360001B5B306D42616E6B3A0A00001B5B306D37
:10737000094C6F636174696F6E3A20307825780A22
:10738000000000001B5B306D094C656E6774683A45
:1073900020307825780A00001B5B306D525820257C
:1073A000752F25750A000000900100201B5B306DD1
:1073B0001B5B323B33316D464C41534820464946B6
:1073C0004F2046554C4C203A2820496E6372656127
:1073D000736520746865206669666F2073697A65D5
:1073E0002E0A0000A801002000E100E0E16C03008B
:1073F000EC6D0300D6BE898EA56B0300000500402E
:107400001B5B306D1B5B323B33316D41505020694B
:107410007320696E76616C69642E0A001B5B306DA7
:1074200009494E544143543A2053443A202564209C
:107430004150503A20256420424C3A2025640A00ED
:107440001B5B306D094E6F206170706C69636174F5
:10745000696F6E20617420307825780A0000000082
:107460001F02000011000020140000201B5B306D83
:10747000424C3A2054494D454F55542120414354E4
:10748000494F4E3A2025730A000000000321684648
:1074900001700021017113E02320694608700FE09C
:1074A0000020FFF79DFB06B010BD00BF082400BF01
:1074B000274A28490820FEF72BFE00BF00BF00BF67
:1074C00000BF0020244908706846FFF703FC00BF96
:1074D000E9E7C206D20E01219140204A11607047AF
:1074E00010B5002819DA1E4A03071B0F083B9B083A
:1074F0009B00D2588307DC0EFF23A3409A438B07DF
:107500001B0E8407E40EA3401A43154B0407240FF7
:10751000083CA408A4001A5118E0124A03231B02D5
:10752000D21883089B00D2588307DC0EFF23A340A8
:107530009A438B071B0E8407E40EA3401A43094BA2
:10754000032424021B198408A4001A5110BD000052
:10755000EC6D0300720200001100002000E200E068
:107560001CED00E000E100E032483349086070475C
:107570003248008CC0B2012812D13048808C0007FC
:10758000000F00280CD12D48806AF02108404028C7
:1075900006D12A48C06A0840002801D1012070475E
:1075A0000020FCE72548008CC0B201282CD12348DC
:1075B000808C0007000F002826D12048806AF02127
:1075C0000840002806D11D48C06A0840002801D1A3
:1075D000012070471948806AF0210840102806D120
:1075E0001648C06A0840002801D10120F1E713487D
:1075F000806AF0210840302806D11048C06A08404F
:10760000002801D10120E4E70020E2E710B5FFF7F0
:10761000C9FF002805D00A480A494860C8130A492A
:107620008861FFF7A5FF002802D001200749886084
:1076300010BD00000024F40024000020C00F00F062
:10764000DFFF07C000050040006C0040000600405E
:107650000748026803210A4302600648804706483B
:107660000047FEE7FEE7FEE7FEE7FEE7FEE7000075
:10767000240500400D760300C1600300F3B5CAB0D5
:1076800000210023429319E0429C4B9B1B5D1C068A
:10769000429B5B1C4B9DEB5C1B042343429CA41C44
:1076A0002C5D24022343429CE41C2C5D23438C006C
:1076B0006D462B51491C429B1B1D42931029E3D35D
:1076C00048E08B1E9B006C46E3585B0C8C1EA400AC
:1076D0006D462C59E40323438C1EA4002C59E40C62
:1076E0008D1EAD006E4675596D032C4363408C1E94
:1076F000A4006D462C59A40A6340CC1FA4002C5949
:107700001C190B460F3B9B00EB58DB090D460F3D48
:10771000AD00755D6D062B430D460F3DAD007559EF
:10772000AD0C0E460F3EB6006F46BE59B60335434C
:107730006B400D460F3DAD006E467559ED086B4030
:10774000E4180B46103B9B006D46EB58E3188C0089
:107750002B51491C4029B4D3026D436D4993836D6D
:107760004893C36D4793036E4693436E4593836E70
:107770004493C36E439300214DE0469B9B09469C76
:10778000A4062343469CE40A469D6D052C436340B2
:10779000469C640E469DED012C436340439C1E199C
:1077A000459C469B2340469D449CAC436340F31854
:1077B0008C00AC4D2C591B198C006D462C591B1993
:1077C0004193930894072343540BD5042C436340FF
:1077D000940D95022C431D466540499B1340489CDF
:1077E00014406340489E499C34406340EC184094E8
:1077F000449B4393459B4493469B4593479C419BA5
:10780000E3184693489B4793499B48934992409C71
:10781000419B1A19491C4029AFD3036D9B1803657E
:10782000446D499BE4184465846D489BE418846565
:10783000C46D479BE418C465046E469BE418046657
:10784000446E459BE4184466846E449BE418846649
:10785000C46E439BE418C4664CB0F0BD01460029D9
:1078600001D10E2070470020086400228A64CA6497
:107870007D4808657D4A4A657D4A8A657D4ACA65B4
:107880007D4A0A667D4A4A667D4A8A667D4ACA669C
:107890000020E7E7F0B504460E461746002C03D05B
:1078A000002F03D0002E01D10E20F0BD002518E0DE
:1078B000705D216C6054206C401C2064206C40285A
:1078C0000ED121462046FFF7D9FE012252020021A7
:1078D000A36CE06C9A184841A264E0640020206424
:1078E0006D1CBD42E4D30020DFE7F3B581B0044650
:1078F000002C02D00298002801D10E20FEBD256C7C
:10790000206C38280BD2802228466D1C225403E0BC
:10791000002228466D1C2254382DF9D312E0802213
:1079200028466D1C225403E0002228466D1C225478
:10793000402DF9D321462046FFF7A0FE38212046EE
:1079400006F009FA0821E76CA66C206C06F062FAD2
:107950003A4630184A41E264A064A06CC1B23F20AC
:107960000155E16C0906A06C000A0843C1B23E2033
:107970000155E06C0204A16C080C1043C1B23D201B
:107980000155E06C0202A16C080E1043C1B23C200C
:107990000155E06CC1B23B200155E06C0004010EC2
:1079A0003A200155E06C0002010E39200155E06CCF
:1079B000010E3820015521462046FFF75FFE0025C5
:1079C0004CE0E9001822511A206DC840C1B202985B
:1079D0004155E900511A606DC840C2B2291D029894
:1079E0004254E9001822511AA06DC840C2B229467B
:1079F000083102984254E9001822511AE06DC8403B
:107A0000C2B229460C3102984254E9001822511A98
:107A1000206EC840C2B22946103102984254E90093
:107A20001822511A606EC840C2B229461431029819
:107A30004254E9001822511AA06EC840C2B2294629
:107A4000183102984254E9001822511AE06EC840D9
:107A5000C2B229461C31029842546D1C042DB0D389
:107A600000204BE7A4DE030067E6096A85AE67BB2A
:107A700072F36E3C3AF54FA57F520E518C68059B10
:107A8000ABD9831F19CDE05B10B5F74C0220206104
:107A90006061F6A0A061F849E1610121C90221629B
:107AA0000021A1626162E162F0A0A064F349E16497
:107AB000102121650021A1656165E165F0A1E01D4E
:107AC00006F068F9EFA1204606F064F92020A071C5
:107AD00010BDF7B582B00446174600200190E56856
:107AE00000BF206900900098A84203D90098401B6D
:107AF000461E04E0A1680098281A401C0E1AA068CF
:107B0000401BB04201D9304601E0A068401B064648
:107B1000BE4201D2304600E0384606466168481948
:107B20003246039906F0FEF80198801901900398F7
:107B300080190390BF1BAD19A068A84200D1002591
:107B4000E560002FCDD1019805B0F0BDF7B582B04A
:107B500004461546E668A068871BAF4208D96168ED
:107B600088192A46039906F0DDF87019E06010E0E4
:107B7000019761688819019A039906F0D3F8E81B08
:107B80000190039AD1196068019A06F0CBF8019828
:107B9000E06005B0F0BD38B505460C46FF216846EB
:107BA0000170BA48015D6846417002226946284664
:107BB000FFF78FFF38BD10B501460A69CB689A42BE
:107BC00004D88C68641EE41AA01801E0D41A601E60
:107BD00010BDF7B584B0174600BFA3480078002851
:107BE00001D1FFF751FF00BF1821049848439E4977
:107BF00048314618059801903569F06802900020D8
:107C000003900298854219D9B068441BBC4201D246
:107C1000204600E038460446706841192246019823
:107C200006F080F80398001903900198001901905C
:107C30003F1B2D19B068A84200D100250298441BB3
:107C4000BC4201D2204600E038460446002C0DD04C
:107C5000706841192246019806F064F803980019EB
:107C600003900198001901903F1B2D1903980028DB
:107C700000D03561039807B0F0BDF8B504460D4655
:107C80001646324629462046FFF7A3FF07463846E8
:107C9000F8BDF7B584B015460598039018210498EF
:107CA000484371491831441820690290E6680298E7
:107CB000B0423ED8A068401E871BAF4212D3606816
:107CC0008119761900BF0398007808700398401C4A
:107CD000491C0390681E051EF5D17019E060012053
:107CE00007B0F0BD02983F18AF4231D3A068801BA7
:107CF00001900198A84208D9616888192A46039919
:107D000006F010F87019E06011E061688819019AB6
:107D1000039906F007F801982A1A019B0398C118E5
:107D20006068009005F0FEFF0198281AE0600120CD
:107D3000D6E70298801B471EAF4209D361688819B5
:107D40002A46039905F0EEFF7019E0600120C7E7AD
:107D50000020C5E7F7B582B00746164603980190A4
:107D60001820784340491831401800900098406925
:107D7000002804D0012811D0022826D11EE0009846
:107D8000FFF719FF0546B54201D2002405E034464D
:107D9000324601990098FFF7D9FE18E00098FFF7E6
:107DA0000AFF0546B54201D2284600E030460446A7
:107DB000224601990098FFF7C9FE08E03246019972
:107DC0000098FFF786FE044601E0002400BF00BFD4
:107DD000204605B0F0BDF8B504460D46164600BF76
:107DE00021480078002801D1FFF74EFE00BF32463F
:107DF00029462046FFF7AEFF07463846F8BD70B566
:107E000005460C46204605F0B1FF0646324621469F
:107E10002846FFF7E0FF70BD38B501226946002013
:107E2000FFF72BFF0446012C02D16846047801E0DD
:107E30000024E443204638BD10B500BFFFF7ECFF37
:107E40000028FBDB10BD70B500BF07480078002894
:107E500001D1FFF719FE00BF0348856D406DA842B0
:107E600016D0012415E00000500A00205465726D00
:107E7000696E616C0000000040020020400A002092
:107E800052545400534547474552000028000020F3
:107E90000024204670BD10B5014618204843F84C18
:107EA0000219D3681069181A10BDFFB581B00546D4
:107EB0000E46174600BFF24848380078002801D126
:107EC000FFF7E2FD00BF002400BF18206043EC492B
:107ED00040184068002800D105E0641CE848483894
:107EE0004069A042F1DC00BFE54848384069A04243
:107EF0001BDD18206043E2490D50182060434018F4
:107F000046601820604340188760002218206043B4
:107F100040180261182060434018C2601820604376
:107F2000D74A80180499416101E00024E4432046C7
:107F300005B0F0BDFFB581B005460E46174600BF3F
:107F4000CF4848380078002801D1FFF79DFD00BFD9
:107F5000002400BF18206043C949303940184068E8
:107F6000002800D105E0641CC54848380069A042DB
:107F7000F0DC00BFC24848380069A0421DDD18206F
:107F80006043BF4930390D501820604340184660A7
:107F90001820604340188760002218206043401872
:107FA0000261182060434018C26018206043B44A40
:107FB000303A80180499416101E00024E4432046EE
:107FC00005B0F0BDFFB581B004460E46174600BFB0
:107FD000AB4848380078002801D1FFF755FD00BFB5
:107FE000A74848380069A04225D9002C1AD018208B
:107FF0006043A34930390E50182060434018476051
:10800000182161439E4A303A8918049888600022FA
:10801000182060439A4930394018026118206043A3
:108020004018C26018206043954A303A80180A9977
:108030004161002501E00025ED43284605B0F0BD73
:10804000FFB581B004460E46174600BF8C4848383D
:108050000078002801D1FFF717FD00BF8848483895
:108060004069A04221D9002C17D0182060438449D0
:108070000E50182060434018476018216143804A21
:108080008918049888600022182060437C494018B1
:108090000261182060434018C26018206043784A8B
:1080A00080180A994161002501E00025ED4328462A
:1080B00005B0F0BD70B504460E4600BF70484838A4
:1080C0000078002801D1FFF7DFFC00BF6C4848387A
:1080D0000069A04206D918206043694930390E5022
:1080E000002501E00025ED43284670BD70B504462B
:1080F0000E4600BF624848380078002801D1FFF7DB
:10810000C3FC00BF5E4848384069A04205D918202A
:1081100060435B490E50002501E00025ED432846F1
:1081200070BD10B500BF564848380078002801D10E
:10813000FFF7AAFC00BF10BDF8B5044600BF5048C9
:1081400048380078002801D1FFF79EFC00BF0027C7
:10815000FF2069460870102C21DA4A48005D4870FB
:10816000474D303D287D8007800F022806D14648C4
:10817000047002222846FFF7ACFC12E02846FFF705
:108180001AFD0646022E07D33F48047002226946B4
:108190002846FFF7DBFC04E00027FF4301E000274F
:1081A000FF433846F8BDF3B581B0074600BF3448F9
:1081B00048380078002801D1FFF766FC00BF102F77
:1081C00059DA2F4830380090029805F0CFFD064666
:1081D0000098FFF7F0FC05460098007D8007800FAF
:1081E000002804D0012817D0022840D12FE0301DEC
:1081F000854201D200240EE039460098FFF7CBFCFF
:10820000324602990098FFF764FC04461E48017844
:108210000098FFF7C0FC2DE0042D02D20024E443B7
:1082200014E039460098FFF7B6FC281FB04201D988
:10823000304600E0281F024602990098FFF749FCEB
:108240000446114801780098FFF7A5FC12E0394672
:108250000098FFF7A0FC324602990098FFF739FC1E
:108260000446094801780098FFF795FC02E00024D5
:10827000E44300BF01E00024E4432046FEBD0000CB
:10828000980A0020280000203800002070B504461D
:108290000E46A568681C6168814206D32068465571
:1082A000681CA060E068401CE0606168A0688842CB
:1082B0000DD1A26821682069FFF78DFDA168884271
:1082C00003D00020C043E06001E00020A06070BD4A
:1082D000FFB585B0064617461D460E9C06980290CF
:1082E00001200390019007E03946029805F0B0FCA8
:1082F00002900198401C01900298B842F4D2019873
:10830000854200D901950F98C007C00F00281DD1E4
:10831000002C1BD002210F980840022804D1002D08
:1083200002D13020009001E02020009008E0641E7F
:1083300030460099FFF7AAFFF068002800DA04E051
:10834000002C02D00198A042F1D300BFF0680028B1
:1083500048DB0FE0012D01D96D1E08E00399069856
:1083600005F076FC04900498B84200D203E003982C
:1083700078430390EEE700BF00BF0399069805F02D
:1083800067FC04900399049848430699081A0690DC
:10839000E64A0498115C3046FFF778FFF068002841
:1083A00000DA07E03946039805F052FC0390039881
:1083B0000028E2D100BF0F98C007C00F002811D0DD
:1083C000002C0FD008E0641E20213046FFF75EFF2E
:1083D000F068002800DA04E0002C02D00198A042E6
:1083E000F1D300BF09B0F0BDFFB585B006460F461A
:1083F0000F9D0E9C002F01DA784200E03846039072
:108400000120049007E00799039805F037FC0390DA
:108410000498401C0490079903988842F3DA049961
:108420000898884201D908980490002C06D0002FA3
:1084300003DB04202840042800D1641E02202840C9
:10844000002802D00898002815D0E807C00F00289F
:1084500011D1002C0FD008E0641E20213046FFF718
:1084600015FFF068002800DA04E0002C02D0049820
:10847000A042F1D300BFF06800283ADB002F05DAF4
:108480007F422D213046FFF701FF07E004202840FE
:10849000042803D12B213046FFF7F8FEF0680028AE
:1084A00027DB02202840022818D1E807C00F002847
:1084B00014D10898002811D1002C0FD008E0641EB8
:1084C00030213046FFF7E2FEF068002800DA04E0D1
:1084D000002C02D00498A042F1D300BFF06800281D
:1084E00007DB0195009439463046089B079AFFF751
:1084F000EFFE09B0F0BDF7B59AB00D46144602A8DC
:10850000159040201690002017901A98199000207E
:10851000189000BF2E786D1C002E00D1E4E0252EAF
:1085200079D100270120149000BF2E78232E12D07D
:108530002B2E0CD02D2E02D0302E10D103E0012096
:1085400007436D1C0EE0022007436D1C0AE0042067
:1085500007436D1C06E0082007436D1C02E0002065
:10856000149000BF00BF14980028DED1129000BF05
:108570002E78302E01DB392E00DD08E06D1C0A213B
:10858000129848433146303940181290F0E700BF46
:10859000002013902E782E2E11D16D1C00BF2E7846
:1085A000302E01DB392E00DD08E06D1C0A21139806
:1085B00048433146303940181390F0E700BF2E7819
:1085C00000BF6C2E01D0682E02D12E786D1C00E009
:1085D00000E0F6E700BF702E63D008DC252E72D0D5
:1085E000582E38D0632E09D0642E71D114E0732E2A
:1085F00040D0752E1FD0782E6AD12BE02168081D3F
:108600002060086814901498C0B2019015A80199D0
:10861000FFF73CFE5DE05FE02168081D2060086810
:1086200014901298019700900A2215A8139B149990
:10863000FFF7DAFE4DE02168081D206008681490FD
:108640001298019700900A2215A8139B1499FFF71E
:108650003FFE3EE000BF2168081D206008681490BE
:10866000129801970090102215A8139B1499FFF7F8
:108670002FFE2EE02168081D20600868019000BFD1
:10868000019806780198401C0190002E00D106E068
:10869000314615A8FFF7FAFD18980028F0DA00BF58
:1086A00017E02168081D2060086814900020082148
:1086B0000B4610220091019015A81499FFF708FEAF
:1086C00007E000E004E0252115A8FFF7DFFD00E04A
:1086D00000BF00BF6D1C03E0314615A8FFF7D6FDB3
:1086E0001898002800DB15E700BF189800280BDD5C
:1086F0001798002804D002A9179A1A98FFF76BFB65
:10870000179918984018189018981DB0F0BD0FB41C
:1087100038B5044606A800906A4620460599FFF73A
:10872000EAFE38BC08BC04B018470000A4DF030010
:1087300001460879C0064B685B0918430B681A1A92
:10874000088940048B68DB0B18434B68584008606D
:10875000CB688868C0184860C86880188860086856
:108760008018C860C8687047024601201B4B18601B
:108770000EE000BF1A4800680028FBD01948806846
:10878000C3B2481E80B2014613540020144B186037
:108790000029EED10120114B58600020704778B5B8
:1087A00004460020009004216846FFF7DDFF0546DF
:1087B000002D01D0284678BD0B48206000986060ED
:1087C0000098A0600098E060002603E02046FFF7D4
:1087D000AFFF761C142EF9D30020ECE700D0004048
:1087E00000D1004000D50040ED5EEAF1202100BF3D
:1087F0004B1E19468268DA40D207D20F002AF7D002
:1088000001228A4082600022C26002617047F8B58E
:1088100004460E46002E01D10E20F8BDEFF3108065
:10882000C507ED0F72B6A16820694018E16888425B
:1088300004D1002D00D162B60420EEE7A168491EE4
:10884000E06808406168484321684718606900286B
:1088500004D0314638466269904704E031463846D4
:10886000626805F05FFAE068401CE060002D00D10E
:1088700062B60020D1E7F8B504460D46EFF310804C
:10888000C607F60F72B6E1682069884204D1002E4F
:1088900000D162B60E20F8BD002D15D0A168491E8A
:1088A00020690840616848432168471860690028CA
:1088B00004D0394628466269904704E03946284684
:1088C000626805F02FFA00BF2069401C2061002E6D
:1088D00000D162B60020DEE701460A69C868801A46
:1088E0007047F8B504460D461646002D01D10E20FE
:1088F000F8BDEFF31080C707FF0F72B62046FFF7F1
:10890000EBFFB04204D8002F00D162B60E20EFE793
:1089100020698019A168491E0840616848432168A0
:10892000401800906069002804D0626928460099C8
:10893000904704E062682846009905F0F3F9002F9B
:1089400000D162B60020D3E770B504460D46002280
:1089500029462046FFF7C5FF70BDC1680161704719
:108960000146CA680869904201D101207047002081
:10897000FCE700000146072912D008DC00290DD0D1
:10898000022913D0052915D0062917D10CE0082992
:1089900008D009290CD0112910D10DE00020704712
:1089A0008520FCE78320FAE78220F8E78620F6E7B7
:1089B0008420F4E79020F2E78620F0E78020EEE7BD
:1089C000F0B58FB00446C9A10020FFF7A0FE0E94B9
:1089D000002606E00E98825DC8A10020FFF797FEF2
:1089E000761C2078B042F5D2C7A10020FFF78FFE99
:1089F0006078762835D004DC022807D00E286FD1A5
:108A00001BE077285ED07828F9D197E0822168466C
:108A10004176217801762078012806DD2078421EF3
:108A2000A11C06A8023005F07DF9B9A10020FFF7CE
:108A30006EFE06A800F0D8FDB2E000F0CDFE0020EA
:108A4000C043BA4908600120B949C86100BFBFF3FB
:108A50004F8FB848B849C860BFF34F8F00BF00BF01
:108A6000FEE78421684641766178817603210176AC
:108A70002078052803D0842106A8C1701EE0207943
:108A8000002802D0012811D101E0072510E0627909
:108A9000002A01D0012200E000221146E278A378EA
:108AA00010021843FDF7E2FE002501E0072500BF94
:108AB00000BF2846FFF75EFF06A9C87006A800F0B1
:108AC00093FD6DE0842168464176617881760721C7
:108AD00001762078042804D0842106A8C17029E0FA
:108AE0004DE000272079002802D001280CD101E0B8
:108AF00007260EE0E178A278090211430846FDF747
:108B00007BFC0746002604E007260320694608761A
:108B100000BF00BFE078A1780002084306A9888062
:108B2000217906A88171C7713046FFF723FF06A996
:108B3000C87000BF06A800F057FD31E084216846E8
:108B40004176617881760521017602210170A01CB1
:108B500001902078401E02906846FEF7BBF805465B
:108B6000E078A1780002084306A988802846FFF72C
:108B700001FF06A9C87006A800F036FD10E06FA13D
:108B80000020FFF7C4FD8421684641766178817634
:108B900003210176822106A8C17000F025FD00BFE7
:108BA00000BF0FB0F0BD10B50321152000F064F830
:108BB000152001218140664A116000BF00F0B2FD1E
:108BC00010BD10B588B00421684601708121417044
:108BD000012181705548046808202040C10868467A
:108BE000C17000F0F4FDC1B26846017100F0FCFCF8
:108BF000002802D1042008B010BD0020FBE700B51A
:108C000089B002E001A8FFF7DBFE01A800F0FAFD41
:108C10000028F7D109B000BD10B588B0044620780F
:108C200000280ED0012804D0022806D0042810D134
:108C30000BE0B520694648700CE0B32069464870E7
:108C400008E0B4206946487004E0B62069464870E0
:108C500000E000BF00BF207BC01CC1B268460170AD
:108C6000A1884180227B01A8A16805F05BF86846D5
:108C700000F0BAFC08B010BD10B500281BDA2E4A6F
:108C80001C3203071B0F083B9B089B00D25883072D
:108C9000DC0EFF23A3409A438B071B0E8407E40ED0
:108CA000A3401A43244B1C330407240F083CA40898
:108CB000A4001A5118E0264A03231B02D218830885
:108CC0009B00D2588307DC0EFF23A3409A438B07F7
:108CD0001B0E8407E40EA3401A431D4B03242402F9
:108CE0001B198408A4001A5110BD00001B5B306DD5
:108CF00053657269616C2052583A20001B5B306DDD
:108D000025303278000000001B5B306D0A00000047
:108D10001B5B306D4563686F2E20526573706F6EFC
:108D200064696E672E2E2E0A0000000000040040C9
:108D3000000500400400FA0500ED00E01B5B306D0B
:108D4000556E6B6E6F776E206576656E74210A00C6
:108D500000E100E0002003E00021CC4A1154401C57
:108D60002028F9D3704770B50546002119E0EFF3CC
:108D70001080C407E40F72B6C448405C00280CD1D0
:108D80000120C24A505428204843C14A8018286014
:108D9000002C00D162B6012070BD002C00D162B65B
:108DA000491C2029E3D300BF042600BFB9A24421F7
:108DB0000420FDF7ADF900BF00BF0020ECE770B55F
:108DC0000446B349601A282104F042FF0546202DCD
:108DD00004D228206843AE49401870BD0020FCE74B
:108DE000F8B50546AA49681A282104F031FF04465F
:108DF000202C01D30020F8BDEFF31080C607F60F3A
:108E000072B6A248005D002803D0A048005DFF288C
:108E100009D100BF042700BF9EA262210420FDF7F4
:108E200077F900BF00BF9948005D401C974908557D
:108E3000002E00D162B60120DDE7F8B50646944960
:108E4000701A282104F004FF0446202C01D30020CE
:108E5000F8BDEFF31080C507ED0F72B68B48005DCB
:108E600000280ED100BF082700BF8AA27621082063
:108E7000FDF74EF900BF00BF002D00D162B6002003
:108E8000E6E78248005D401E80490855002D00D16C
:108E900062B67E48005D002801DD0120D8E7002091
:108EA000D6E770B504467A49601A282104F0D0FE4E
:108EB0000546202D01D3002070BD7448405DFBE7BE
:108EC00010B504467C490622E01C04F02BFF7A49C9
:108ED0002439096A890140221140084621789143CA
:108EE00001432170002010BDFFB581B005461F462B
:108EF0000A9E002D02D10E2005B0F0BD2C4609348B
:108F0000172E01DD0920F7E72846FFF7D9FF304685
:108F10000E306870287800090001801C2870F01D50
:108F20002070162060706548A070000AE0700298FA
:108F30002071000A60710398A071000AE071002E90
:108F400009DD002F07D0172E05DC324639462046B2
:108F5000083004F0E7FE0020CEE70246002A00D1E8
:108F60007047114609315078062802DD50782528CF
:108F700001DD0020F4E70FE00B7810460930081AF5
:108F80001B185078801F834201D90020E8E7087839
:108F9000401C4301181A091848781628ECD1C878E3
:108FA0008B7800021843454B9842E5D10846D7E735
:108FB00030B504462046FFF7D0FF0546002D01D10D
:108FC0000B2030BD2046093085420ED02878401C49
:108FD000C1B2002004E02B5C224609321354401C2D
:108FE0008842F8D32546093500BF2878C01D607037
:108FF0000020E6E730B505462846FFF7AEFF0446F9
:10900000002C01D12E4830BD60792179000208433F
:10901000F9E702461146093110E04878162806D1D2
:10902000C8788B7800021843244B984201D0012065
:1090300070470878401C4301181A09185078C01F5F
:1090400013460933C0188842E7D80020F0E710B56E
:1090500004462046FFF7DDFF002802D02046FFF738
:10906000A7FF2046FFF72CFF10BD70B50446084946
:10907000601A282104F0ECFD0546202D04D228209A
:1090800068430349401870BD0020FCE7C80F00206A
:10909000C80A00202E2E5C2E2E5C7262635F6D6506
:1090A00073685C7372635C6D6573685F7061636B3A
:1090B00065742E6300000000A4000010E4FE0000B0
:1090C000FFFF000070B504460D4601221207126929
:1090D00091B201221207126992B25219501E04F085
:1090E000B7FDC6B200201FE002212D4A516000BF2B
:1090F0002C4909680029FBD029498C6000BF294907
:1091000009680029FBD00021254A516000BF25498C
:1091100009680029FBD00121090709690904890CA4
:1091200089000C19411CC8B2B042DDDB70BDFFB52F
:1091300000240022039B9B089B00181800232AE0B0
:109140000D78ED431543EAB20E782546671CFCB254
:10915000154F7E55491C042C1CD10024002A17D021
:1091600001250F4E756000BF0E4D2D68002DFBD000
:109170000D4D2D68056000BF0A4D2D68002DFBD0F8
:109180000025074E756000BF064D2D68002DFBD0F1
:109190000022001D5B1C029DAB42D1D3FFBD00002D
:1091A00000E5014000E401403C0000200020D349DC
:1091B0000860401ED24988600120D249086102201F
:1091C000D149087000BF00BF70477CB5CF48FFF79A
:1091D00083FB044622E06946CC48FFF7B5FB002834
:1091E0001AD168464079022816D10021C748FFF7F6
:1091F00042FBFFF7DBFF00BFC54800690028FBD139
:10920000C449C86064230022D2430021C24D0098A3
:109210002D68A847641E00E002E000BF012CDAD8E8
:1092200000BF7CBD0EB50A2805DC4100091DB84A07
:10923000403A916015E0242805DC4100891DB44ABC
:10924000403A91600DE0B54B0ECB02930192009134
:109250000146253989006A465158AD4A403A916025
:1092600000BF4106490EAA4A51610EBD10B5044621
:109270001320A2490860A079FFF7D4FFA449403920
:109280002068486008209E4948600020A149C860C5
:10929000A3480068000E9E4940398862A0480068D3
:1092A0000002000A00020862607900280BD100BFAA
:1092B00000BF2079C862E079C86001209149086048
:1092C0009149087015E000BF00BF954800689549B6
:1092D000884204D003208E494039086303E001200E
:1092E0008B4940390863012086494860002086493F
:1092F000087010BD70B504460D46164600208A4918
:10930000C8630120C863002081494039C860032038
:1093100008610220886025207D4948618E207C49B3
:10932000403948628148C8617D480068000E886203
:109330007B4800680002000A000208620020C86240
:10934000012008637A4848617A4888617A488863CE
:10935000FF20043048637948C86394206C49486012
:109360006948007803280BD1082068498860744850
:10937000086008204860002048610846FFF736FA78
:1093800002206149087000206249C8600120012163
:1093900081406C4A116000BF00BF012181406A4AD0
:1093A000116000BF694804605B480560684806605A
:1093B0005648FFF7D5FA002803D064480068804774
:1093C00006E0FDF7D6F8002802D0012000F08DF865
:1093D00070BD53490860704770B50446002C01D138
:1093E0000E2070BD6079002804D12079012801DDAC
:1093F0001020F6E721464548FFF709FA002801D07A
:109400000420EEE7EFF31080C507ED0F72B6FDF70D
:10941000B0F8002802D0012000F067F8002D00D13C
:1094200062B60020DDE7FEB53A48C068002843D0A8
:1094300048480068002801D0012000E00020029088
:109440004448C56864263348C069002805D0002018
:109450003049C8612E488068C6B200202D49C860D6
:1094600069462A48FFF707FA044600BF2746002F3F
:1094700007D000BF38A2FF2149313846FCF748FE2B
:1094800000BF00BF68464079012803D06846407994
:10949000022807D133462A461F4F029900983F6899
:1094A000B84703E02A4900980968884700BF00BF11
:1094B00002201549087001E0FFF787FE1248007886
:1094C000022803D01048007803280DD101A90F48C5
:1094D000FFF73AFA002803D101A8FFF7C7FE02E020
:1094E0001A480068804700BFFEBDC206D20E0121A7
:1094F0009140144A803A1160704700000012004009
:10950000001300400010004040000020E80F002041
:10951000401500400011004048000020B4DF030067
:1095200050000020D6BE898EC01F004000D6BE89E4
:1095300006010200250003025B0600005555550098
:109540000010002080E200E000E100E04400002084
:109550004C000020001400402E2E5C2E2E5C726207
:10956000635F6D6573685C7372635C726164696F7D
:109570005F636F6E74726F6C2E63000010B50446EB
:10958000DB49DC48FFF777F9002817D1D848407845
:10959000D9490860D648401CD84908600020D849FD
:1095A000C8610120D7498860D44800680078D6494E
:1095B000C861D2480068401CD049086010BD10B591
:1095C0000020FFF7DBFF10BD10B5D0480078002861
:1095D00009D1CF480078022805D00220CC49087074
:1095E000152000F033F910BD10B58AB00446C1480B
:1095F00004F045FC002802D000200AB010BD002075
:10960000694608702078421C214600A8013004F009
:1096100089FB6946B748FFF7FAF8BD48007800288B
:1096200001D1FFF7D1FF0120E7E730B589B005464A
:10963000B84800680570B7480068401CB549086024
:1096400008460168B4480C1A272C06D2012C2BD9E5
:10965000401E4078401CA04226D8AF49491EAF4862
:10966000FFF7D5F800280FD0032168460171842147
:109670004171A948401E817868468171862101A800
:10968000C170FFF7B1FF02E0162000F0DFF8A34839
:1096900004F0F5FB002804D001209D490870994989
:1096A00048609D489B49086009B030BD10B509E08D
:1096B0000020934988600846806893498969C8B248
:1096C000FFF7B3FF8E4880680028F1D18C48C0694D
:1096D000002826D000208A49C861874801680068B0
:1096E000401E854A106000290AD08448006800782E
:1096F0008549C86181480068401C8049086010E0C5
:1097000001208049C86082480078012802D00020EA
:109710007F4908707748FFF723F9002801D1FFF748
:1097200053FF10BD10B50420724988607C48086062
:1097300027204860002048610846FFF757F80420BA
:109740007649886077480860272048600020486193
:109750000846FFF74BF800206C49087003210B20E6
:1097600000F0BBF8032000026F498860082000F079
:10977000ABF803210A2000F0B0F8092000F0A4F8AB
:1097800009206149C8600B2048610A20086108204F
:10979000886001205C494031C86264485A49486287
:1097A0000420086084206249486000205449886091
:1097B000C8610120534908600321022000F04DF8E0
:1097C0000220012181405B4A116000BF10BD10B52D
:1097D0005248FFF781F810BD10B5EFF31080C407B1
:1097E000E40F72B601204949087001E0FFF75EFFFF
:1097F000474800780028F9D144490870002C00D16E
:1098000062B610BD10B58AB0044669464348FFF7FA
:1098100032F8002802D000200AB010BD6846407817
:10982000002807DD68464078421C00A90131204627
:1098300004F078FA36480078012805D10020344930
:10984000087001202F4908600120E5E7C206D20E0A
:1098500001219140384A1160704710B5002819DA8B
:10986000364A03071B0F083B9B089B00D25883070F
:10987000DC0EFF23A3409A438B071B0E8407E40EE4
:10988000A3401A432D4B0407240F083CA408A4004E
:109890001A5118E0274A03231B02D21883089B00A1
:1098A000D2588307DC0EFF23A3409A438B071B0E7D
:1098B0008407E40EA3401A431E4B032424021B1901
:1098C0008408A4001A5110BD0321052212070723A2
:1098D0001B02D2188300D150704710B58A000523AF
:1098E0001B07072424021B1984001A5110BD000015
:1098F000A811002058100020580000205C00002013
:1099000000210040002000400025004060000020B1
:109910005400002064000020D011002040100020DE
:109920000C110020701000200005005000E0D7014D
:109930000023004000E100E000E200E01CED00E058
:1099400010B504462046FCF7C5FB10BD10B5044613
:10995000AB480068002804D1AAA1FEF7D8FE082071
:1099600010BD2046A64909688847F9E78AB0044631
:109970000E46154633462246ACA100200095FEF760
:10998000C6FE01206946087102940396049501A859
:10999000FFF7DCFF72B600BFFEE710B58AB00446E1
:1099A0002078232879D012DC042854D008DC002841
:1099B0001ED001283ED0022843D0032870D147E0B2
:1099C000202855D0212860D02228F7D163E0322802
:1099D00067D006DC242865D0302867D03128EDD147
:1099E0006EE060287ED0612876D06228E6D186E0DD
:1099F0008349A0680860A07B002801D1012000E015
:109A0000002092490870207B002802D0607B022849
:109A100002DA07200AB010BD7F21C902FF208002B0
:109A200000F0A2FC002801D00320F3E7607B02F0E5
:109A300077FF71E086A10020FEF769FE02F086FF45
:109A40006AE0228991B20122606803F018F8E1E728
:109A500003F0C8F960E0002069460871201D0FC8B6
:109A6000059302AB07C301A8654909688847D1E798
:109A700022797BA100202369FEF749FE2079611D30
:109A8000226902F0AAFFC5E707E02079611D22697B
:109A900002F0C9FFBEE70620BCE703F025FA3BE071
:109AA00034E01BE0207903F068FEB3E7A08800F003
:109AB000C8FCA060A068002801D10520AAE72BE01F
:109AC000A088E268A16800F0EAFCFF2189028842D0
:109AD00003D210209EE705E00CE01DE0A08800F016
:109AE000EEFD19E0606803F062FC0120616800F09F
:109AF00009FE11E00220616800F004FE0CE000F0B5
:109B00002CFE03F0CFFE03F0F7F905E000BFEE22D4
:109B10005EA10620FFF72AFF00BF00207AE70120A0
:109B20000007806B01221207526B5043012252073B
:109B30008018011F5D4808600120444A1070002011
:109B4000704710B58AB0044620216846017104723E
:109B500001A8FFF7FBFE0AB010BDF0B589B00446BE
:109B60000D46164624225249684604F0DBF801945B
:109B7000029503966846FFF7E9FE0746384609B0A6
:109B8000F0BD70B58AB004460D4624224849243100
:109B900001A804F0C7F80294039501A8FFF7D6FEC8
:109BA000064630460AB070BD10B58AB00446702033
:109BB0006946087103940020029001A8FFF7C6FED1
:109BC0000AB010BD00B589B0712069460870002048
:109BD00001906846FFF7BAFE09B000BD10B58AB023
:109BE0000446622168460171047201A8FFF7AEFEC7
:109BF0000AB010BD154800780121484070470000A8
:109C0000007D00201B5B306D1B5B323B33316D45AB
:109C100052524F523A204E6F206576656E7420681E
:109C2000616E646C6572207365740A001B5B306D35
:109C30001B5B323B33316D4552524F523A203078E4
:109C40002578204025733A4C25640A00047D0020C5
:109C50001B5B306D09456E61626C650A0000000097
:109C60001B5B306D09537461727420746172676597
:109C70007420287479706520307825782C206261F2
:109C80006E6B2030782578290A0000002E2E5C6348
:109C90006F72655C626F6F746C6F616465725F6137
:109CA00070705F6272696467652E63009B99030040
:109CB000C0DF03000146002070477047F8B5054635
:109CC0000F462878FF2805D1FCA10020FEF71FFDD4
:109CD0000020F8BD2878441900200090668817E01D
:109CE000204600F04EFD04460120800228188442E0
:109CF0000BD8FC48864201D1BE4206D10098401CD8
:109D0000012149020090884201D90020E1E76688DC
:109D1000BE42E5D1201DDCE710B50446A007800F48
:109D2000002806D000BFC922EFA11020FFF71EFEB9
:109D300000BF0422F3492046FFF70FFF10BD70B5A6
:109D40000446F148006884420DD0EF482246EF49AE
:109D500003680020FEF7DBFC00BFD722E2A1102041
:109D6000FFF704FE00BFEFF31080C507ED0F72B6DA
:109D7000E54800680088E649884207D1E548006860
:109D80000088401CE3490968088007E0E148006852
:109D9000008821884018DF490968088020888000F1
:109DA0000019D949086008460168DB48814202D1A0
:109DB0008038D5490860D44800684088C94988423D
:109DC00012D1D14800680088D14988420CD1CE48D0
:109DD0000068001DCC49086008460168CE488142F1
:109DE00002D18038C8490860002D00D162B670BD2C
:109DF000018889000918C74A116011460A68C649D6
:109E00008A4202D18039C34A1160C2490968BE4AF8
:109E1000126891421AD0BC490968BE4A1268891A70
:109E20008903090CBB4A12681180B7490968B94A0D
:109E30001268914206D2B749096809882031B54AAB
:109E4000126811800021B34A126851807047F8B53A
:109E50000446EFF31080C507ED0F72B6AD480068F9
:109E600000888000A04204D3AA48006840880028E7
:109E700004D0002D00D162B60020F8BDA5480068CE
:109E8000A1490968884214D1A3488038A1490860D3
:109E90009D4908609F480768A003000C3880002097
:109EA00078803846FFF7A4FF002D00D162B638460F
:109EB000E3E7994897490968461AB44227D9954873
:109EC000006800888000801BA0421BD38548914910
:109ED00009684880B003000C8E49096808808E48E4
:109EE00080388C49086008460768A003000C388059
:109EF000002078803846FFF77BFF002D00D162B646
:109F00003846BAE7002D00D162B60020B5E7814897
:109F10000768A003000C3880002078803846FFF7DF
:109F200067FF002D00D162B63846A6E7014600293A
:109F300003D001208004814201D10020704777487E
:109F4000006840788000081AF8E770B50546654952
:109F50002846FFF7B3FE0446002C03D02046FFF747
:109F6000E5FF70BD0020FCE710B504466C480470A6
:109F7000A0006C490A586CA10020FEF7C8FB10BD78
:109F800010B50220FFF7F0FF6EA10020FEF7BFFB27
:109F9000634A916850680422FFF7DFFD002802D071
:109FA00001205F49087610BD70B549E05C48C06883
:109FB00044885748844200D14BE0002C39D02246D7
:109FC00067A10020FEF7A3FB5548C0680088850004
:109FD0004448844200D10425514800694019504941
:109FE0004968012292028918884207D900BFFF22DE
:109FF0008C323DA10320FFF7B9FC00BF484AD1686D
:10A0000010692A46FFF7A9FD002804D05DA10020B1
:10A01000FEF77DFB70BD4248C068414948615CA1C4
:10A020000020FEF774FB3E48006940193C49086176
:10A0300000BF3B49C86800F0A4FB3949C86000BFB5
:10A040003748C068364989680122920289188842D7
:10A05000ACD300BF0120324908760420FFF784FF0B
:10A0600000BFD7E710B52E48007E002800D110BDF4
:10A0700000202B49087608460078012802D00228E3
:10A080000AD106E02649486801218902FFF779FDD7
:10A0900003E0FFF775FF00E000BF00BF00BFE6E789
:10A0A00070B504460D461E480078012878D0022875
:10A0B0007FD0032872D0042871D19DE01B5B306DE6
:10A0C0001B5B323B33316D424C20494E464F3A20A8
:10A0D000494E56414C4944204D4554414441544118
:10A0E0000A000000FF7F00002E2E5C636F72655C2B
:10A0F000626F6F746C6F616465725F696E666F2EFC
:10A100006300000008E00300147D002020E103004C
:10A11000FFFF0000107D0020147E0020087D00203D
:10A12000147E0020207D00201B5B306D494E464F81
:10A1300020434F50592053544154453A2025730A27
:10A14000000000001B5B306D57726974696E6720F8
:10A150006D65746120746F20646573740A0000007B
:10A160001B5B306D577269746520656E747279205F
:10A170003078257820746F20646573742E2E2E201D
:10A18000000000001B5B306D4641494C0A00000096
:10A190001B5B306D4F4B0A0002E00AE029E035E01E
:10A1A000022C05D1F9484068A84201D1FFF7E8FE2A
:10A1B0002DE0012C16D1F5488068A84212D1F4A1F7
:10A1C0000020FEF7A4FA0320FFF7CEFEEF488068D8
:10A1D000001DEE49C86008464068001D0861FFF791
:10A1E000E3FE05E02B462246F0A10020FEF78FFAA1
:10A1F0000DE0FFF7D9FE0AE0012C06D1E3484069E3
:10A20000A84202D10020FFF7AFFE00BF00BF00BF91
:10A2100070BD70B504460D46DC480078002801D0BA
:10A22000082070BD23462A46ECA10020FEF76FFAF5
:10A23000D648446085600120FFF796FEED4800781F
:10A2400000280AD1012189022046FFF79AFC002844
:10A2500006D00120CD49087602E00120CB490876DE
:10A260000020DEE710B5E4480168E4480068FFF725
:10A27000D0FF0446002C02D10320E149087020469B
:10A2800010BD10B5DD480168DB480068FFF7C1FF6D
:10A290000446002C02D10520D9490870204610BD83
:10A2A000F8B505460E4600BFD5480078012804D011
:10A2B000D44AD5490020FFF759FB00BF3146284654
:10A2C000FFF7FCFC0746FFF731FE0446002C03D0E5
:10A2D0002046FFF721FDF8BD0520FCE7FFB581B062
:10A2E0000F461C460A9EE01C8408A400211DB200F3
:10A2F0008818FFF7ACFD0546002D02D1042005B0FB
:10A30000F0BD002E08D02819FF22082103F01CFD03
:10A31000BE49281D00194180E01D8003000C2880E3
:10A320006F802246281D039903F0FCFC00BFE01D4E
:10A3300080088000B100421829460198FFF70DFC03
:10A3400000280ED0E01D80088000B1004218294688
:10A350000198FFF702FCAB4A2232AB490090FFF7AD
:10A3600005FB00BF0020CAE7F8B504460D460020F3
:10A37000A3490870A005800D002803D1A805800D11
:10A38000002801D01020F8BD9B4804609B48056060
:10A390009F48A0490860A049086020209D4909689D
:10A3A000088095480068FFF7D0FD9C490860084682
:10A3B000006800283DD191480068FFF7C6FD0646B9
:10A3C000002E01D10B20DEE700BF012189028A485F
:10A3D0000068FFF7D6FB00280BD0012189028648D0
:10A3E0000068FFF7CEFB0746864A47328649FFF7EB
:10A3F000BDFA00BF00BF301D80490968421A7F487E
:10A4000001687D480068FFF7A8FB00280FD0301DC9
:10A410007A490968421A7948016877480068FFF765
:10A420009CFB0746774A48327749FFF79FFA00BFFF
:10A4300000BF0120724908700020A4E76E48006840
:10A44000704770B504462046FFF734FC0546002DE2
:10A4500001D0284670BD2146FF208002FFF72EFC68
:10A4600005462846F6E710B500BF65480078012884
:10A4700005D0644ABB3264490020FFF777FA00BF79
:10A4800067A10020FEF743F904205D4908705A488F
:10A490000068001D61490860FFF7E4FE10BDF7B5D4
:10A4A00082B00646154600BF55480078012805D001
:10A4B000544A6B3254490020FFF758FA00BF00BFDE
:10A4C000542D05D94F4A6C324F490020FFF74EFA00
:10A4D00000BF00BF514800788007800F002805D0DA
:10A4E0000522D20148490020FFF740FA00BF00BF13
:10A4F0004A480068FF218902884205D8414A6E32E5
:10A5000041490020FFF732FA00BF3046FFF799FFBC
:10A510000190FFF70BFD074640480468002C0AD164
:10A5200000BF384A7B3238490E20FFF71FFA00BFC0
:10A53000002005B0F0BD201D4019001D2E490968FE
:10A54000012292028918884209D300BFA5229200F5
:10A550002D490820FFF70AFA00BF0020E9E7012093
:10A56000244908702B46009031462046039AFFF795
:10A57000B5FE00285AD000BF224A8A322249042060
:10A58000FFF7F4F900BF0020D3E70000147E00209D
:10A590001B5B306D57726974696E6720646174610A
:10A5A00020746F20646573740A0000001B5B306DBB
:10A5B0004D4554415752495445204641494C3A2053
:10A5C0006F703D307825782C20636F6E74657874D9
:10A5D000203D20307825780A000000001B5B306D9C
:10A5E000434F5059494E4720307825782D3E3078DA
:10A5F00025780A00197D0020087D00200C7D0020B0
:10A60000187D002013020000E8A00300FF7F000077
:10A61000947D0020107D0020147D00201C7D0020F2
:10A620001B5B306D52455345540A0000E81D8008FD
:10A63000800056490968401854490860002F10D01E
:10A640003046FFF73AFB3846FFF766FB002808D094
:10A6500000BF4F4A4F490420FFF788F900BF002090
:10A6600067E74A48006858304B490968012292025E
:10A670008918884201D3FFF7F6FE231D324647A111
:10A680000020FEF744F8201D53E7F8B505460E46B6
:10A690002846FFF7D6FE0090FFF748FC0446002C42
:10A6A00001D10520F8BD20888000071F00203B460F
:10A6B0003246294600902046FFF710FEF2E710B51B
:10A6C000044622463AA10020FEF721F82046FFF773
:10A6D000F4FA2146FF208002FFF7E2FD10BD3A4860
:10A6E0000078012800D170470020FCE73648007848
:10A6F000012805D135480078002801D10120704794
:10A700000020FCE770B505460C46012D08D1304805
:10A71000844205D38030844202D22046FFF70FFBEB
:10A7200021462846FFF7BCFC2A480078002813D1B0
:10A7300025480078032802D1FFF7A3FD0CE022484A
:10A740000078052808D114480068FFF7FEFB0F4980
:10A75000086001201C49087070BD10B500201B491D
:10A7600008701B481C4908601C49086000201A49F1
:10A770000968488017480078002801D0FFF772FC6C
:10A7800010BD014608888000401870471C7D0020DD
:10A79000AA020000E8A00300087D00201B5B306DCA
:10A7A00050555420307825782040307825780A009C
:10A7B0001B5B306D494E56414C4944415445203055
:10A7C0007825780A00000000187D0020197D0020FF
:10A7D000947D0020147E0020107D0020147D002038
:10A7E0000146002003E000228300CA50401C0828D4
:10A7F000F9D370470246002106E08800105800286F
:10A8000001D000207047491C0829F6D30120F9E740
:10A8100010B50246481180001058CC06E40E012302
:10A82000A340184010BD02460B46591E00E0491EC9
:10A83000002903DB880010580028F8D0481C704716
:10A84000F3B581B0074638460299FFF7ECFF06469C
:10A85000002E00D1FEBD701E80003D58002401E096
:10A860006D08641C002DFBD1701E40010019F1E73A
:10A8700010B50246002004E08300CB588400135139
:10A88000401C0828F8D310BD10B502460B4607211E
:10A8900011E0880010588C001C59A04201D90120F9
:10A8A00010BD880010588C001C59A04202D2002014
:10A8B000C043F5E7491E0029EBDA0020F0E730B588
:10A8C00002460B460024072106E0880010588D0040
:10A8D0005D5968400443491E0029F6DA002C01D175
:10A8E000012030BD0020FCE710B5014600232030D8
:10A8F00005E0026854081C430460D30700BF024609
:10A90000001F8A42F5D810BDF0B504460B4600255D
:10A91000002114E08E009E598F00D759F619701946
:10A920008E009E59864207D08E009E59864201D9DC
:10A93000012600E0002635468E00A051491C08295A
:10A94000E8D32846F0BDF0B504460B4600250021AB
:10A9500014E08E009E598F00D759F61B701B8E0095
:10A960009E59864207D08E009E59864201D201260A
:10A9700000E0002635468E00A051491C0829E8D386
:10A980002846F0BDFFB581B00299019803F042FA64
:10A9900006460F460498006800220399096813468A
:10A9A0000A431843144605462846A419784105462B
:10A9B0000A9803682846A11BB84101D2012000E093
:10A9C000002019180A980160049805600398046033
:10A9D00005B0F0BDF7B584B006460F4600200390E1
:10A9E0000290019000241AE000250CE001A8621BEF
:10A9F00093000090069AD158AA00B85802AB03AA57
:10AA0000FFF7C0FF6D1CA542F0D9A100039870505C
:10AA1000029803900198029000200190641C082C79
:10AA2000E2D308241AE0E51F0CE001A8621B9300A2
:10AA30000090069AD158AA00B85802AB03AAFFF7B3
:10AA4000A1FF6D1C082DF0D3A1000398705002984F
:10AA500003900198029000200190641C0F2CE2D317
:10AA60000398F06307B0F0BDFFB581B005460E4610
:10AA70001C4631462846039AFFF746FF0746002F3B
:10AA800005D121462846FFF7FFFE002804DB2246B9
:10AA900029462846FFF757FF05B0F0BDFFB581B046
:10AAA00004460E461D4631462046039AFFF74BFFEB
:10AAB0000746002F04D02A4621462046FFF724FFF0
:10AAC00005B0F0BD70B588B006460C46214630464C
:10AAD000FFF7CEFE0020029001900090E06A039004
:10AAE000206B0490606B0590A06B0690E06B079064
:10AAF0006A4669466846FFF707FF05466A463146DB
:10AB00003046FFF701FF4519206B0390606B0490FE
:10AB1000A06B0590E06B0690002007906A4669469E
:10AB20006846FFF7F1FE45196A4631463046FFF7A1
:10AB3000EBFE4519206A0090606A0190A06A0290BD
:10AB40000020059004900390A06B0690E06B0790A6
:10AB50006A4631463046FFF7D7FE4519606A0090D5
:10AB6000A06A0190E06A0290606B0390A06B049071
:10AB7000E06B0590606B0690206A07906A4631464C
:10AB80003046FFF7C1FE4519E06A0090206B019046
:10AB9000606B02900020059004900390206A06905C
:10ABA000A06A07906A4631463046FFF7CCFE2D1A60
:10ABB000206B0090606B0190A06B0290E06B0390A3
:10ABC000002005900490606A0690E06A07906A464B
:10ABD00031463046FFF7B7FE2D1A606B0090A06B30
:10ABE0000190E06B0290206A0390606A0490A06A72
:10ABF000059000200690206B07906A46314630464B
:10AC0000FFF7A1FE2D1AA06B0090E06B01900020D1
:10AC10000290606A0390A06A0490E06A05900020A8
:10AC20000690606B07906A4631463046FFF78BFE10
:10AC30002D1A002D09DA00BFF64A31463046FFF7DB
:10AC400063FE4519002DF7DB0EE005E0F14A3146C1
:10AC50003046FFF778FE2D1A002DF7D13146ED482A
:10AC6000FFF712FE0128F1D108B070BD70B590B0A9
:10AC700004460D461646324629466846FFF7AAFEA8
:10AC800069462046FFF71EFF10B070BDF7B5A0B0B3
:10AC90000E4617463046FFF7ADFD002804D0209839
:10ACA000FFF79EFD23B0F0BD314618A8FFF7E0FD89
:10ACB000394610A8FFF7DCFD08A8FFF791FD012039
:10ACC00008906846FFF78CFD99E000241898C007AB
:10ACD000C00F002818D118A8FFF706FE0898C00773
:10ACE000C00F002805D03A4608A908A8FFF70CFEB7
:10ACF000044608A8FFF7F8FD002CE5D00121C9079C
:10AD00000F9808430F907AE01098C007C00F0028F2
:10AD100018D110A8FFF7E8FD0098C007C00F002861
:10AD200005D03A4669466846FFF7EEFD0446684698
:10AD3000FFF7DAFD002C62D00121C907079808430C
:10AD400007905CE0002D2DDD10AA18A918A8FFF7C8
:10AD5000FAFD18A8FFF7C8FD694608A8FFF794FD9B
:10AD6000002804DA3A4608A908A8FFF7CDFD6A468C
:10AD700008A908A8FFF7E7FD0898C007C00F00283A
:10AD800005D03A4608A908A8FFF7BEFD044608A862
:10AD9000FFF7AAFD002C32D00121C9070F98084304
:10ADA0000F902CE018AA10A910A8FFF7CCFD10A84E
:10ADB000FFF79AFD08A96846FFF766FD002804DA48
:10ADC0003A4669466846FFF79FFD08AA6946684605
:10ADD000FFF7B9FD0098C007C00F002805D03A461C
:10ADE00069466846FFF790FD04466846FFF77CFD1C
:10ADF000002C04D00121C90707980843079010A927
:10AE000018A8FFF741FD051E00D05EE708A92098AD
:10AE1000FFF72EFD00BF45E7F0B591B004460D46A3
:10AE200016463046FFF7E6FC002801D011B0F0BD11
:10AE30002A46294609A8FFF719FF09AA214601A8B1
:10AE4000FFF714FF09AA09A909A8FFF70FFF324667
:10AE500029462846FFF70AFF324631463046FFF7BB
:10AE600005FF6C4B324621462046FFF7FDFD694B3E
:10AE7000324631463046FFF7F7FD664B32462146F3
:10AE80003046FFF70BFE324621462046FFF7EEFE26
:10AE9000604B224621463046FFF7E6FD5D4B3246C9
:10AEA00021462046FFF7E0FD00212046FFF7B0FCD9
:10AEB00000280DD0574A21462046FFF725FD0746BA
:10AEC0002046FFF711FDF907E0690843E06102E061
:10AED0002046FFF709FD224621463046FFF7C6FE11
:10AEE0004C4B01AA31463046FFF7D8FD494B01AA29
:10AEF00031463046FFF7D2FD464B324601A901A844
:10AF0000FFF7CCFD01AA21462046FFF7AFFE414BDB
:10AF100009AA214609A8FFF7C1FD31462046FFF7DF
:10AF2000A7FC29463046FFF7A3FC09A92846FFF7EE
:10AF30009FFC00BF7AE770B588B004460D46164600
:10AF4000324631466846FFF791FE6A462146204662
:10AF5000FFF78CFE324669466846FFF787FE6A4671
:10AF600029462846FFF782FE08B070BDF0B589B0CB
:10AF700005460E4617461C46264B2A46394601A86A
:10AF8000FFF78CFD01AA01A901A8FFF76FFE01AA36
:10AF900029462846FFF76AFE01AA39463846FFF7D8
:10AFA00065FE1C4B324621462046FFF777FD2246C0
:10AFB000214601A8FFF75AFE164B2A4601A901A80F
:10AFC000FFF76CFD134B3A4601A901A8FFF766FD98
:10AFD000104B2A4639463846FFF760FD3A4631465F
:10AFE0003046FFF743FE0B4B01AA29463846FFF7D0
:10AFF00055FD3A4621462046FFF738FE054B3246BE
:10B0000021462046FFF74AFD01A93846FFF730FCEC
:10B0100009B0F0BD0CE0030030B502460B4600203D
:10B0200010E00724241AA400E1180C7824064D78B7
:10B030002D042C438D782D022C43CD782C43850094
:10B040005451401C0828ECD330BD10B504462046AE
:10B05000FFF74AFC218CC907E0690843E0612046FC
:10B060002030FFF741FC10BDF0B504460B4600252B
:10B07000002114E08E009E598F00D759F61B701BDB
:10B080008E009E59864207D08E009E59864201D27C
:10B09000012600E0002635468E00A051491C1029EB
:10B0A000E8D32846F0BDF7B5B2B0064602A8009036
:10B0B00022A80190349A3399FFF78CFC9D491AA875
:10B0C000FFF7D6FB12A8FFF78BFB0124002516E043
:10B0D000A2006B4699580122121B9200985812AA9E
:10B0E000FFF7C2FF074620467840002801D1012023
:10B0F00000E00020044612A8FFF7A7FF6D1CFF2008
:10B1000001308542E4DDA0006A4611583046FFF761
:10B11000AFFB35B0F0BD02468A4201DD10467047F4
:10B120000846FCE7F7B5F6B0002015900D904EA844
:10B130007699FFF771FF7699203156A8FFF76CFFDB
:10B140000EA87899FFF768FF7899203106A8FFF7D5
:10B1500063FF0EA8FFF74EFB002804D106A8FFF7F7
:10B1600049FB002802D0002079B0F0BD0EA971483B
:10B17000FFF78AFB012805D106A96E48FFF784FB7B
:10B18000012801D00020EFE76A4A06A95EA8FFF770
:10B190007DFD002075906EA87799FFF73DFF5EAAB0
:10B1A0006EA96EA8FFF77FFF5EAA0EA966A8FFF73B
:10B1B0007AFF4EA93EA8FFF75BFB56A946A8FFF70A
:10B1C00057FB5D4926A8FFF753FB5B4920311EA8BA
:10B1D000FFF74EFB594B26AA3EA95EA8FFF75EFC7F
:10B1E00046AB3EAA1EA926A8FFF7C0FE534A5EA999
:10B1F0005EA8FFF74BFD5EAA46A93EA8FFF79BFE9F
:10B200004F4B0FCB02AC0FC44EA804903EA8059044
:10B21000082166A8FFF714FB074608216EA8FFF770
:10B220000FFB39460190FFF776FF0546691E6EA8B1
:10B23000FFF7EEFA002801D0012700E00027691E81
:10B2400066A8FFF7E5FA002801D0012000E0002001
:10B2500040000743B80002A90C58214636A8FFF762
:10B2600007FB214620312EA8FFF702FB5EA8FFF75F
:10B27000B7FA01205E90AE1E3FE05EAA2EA936A866
:10B28000FFF7CAFD31466EA8FFF7C2FA002801D0C9
:10B29000012700E00027314666A8FFF7B9FA002829
:10B2A00001D0012000E000204000384301900198C7
:10B2B000810002A84458002C1ED0214626A8FFF782
:10B2C000D7FA214620311EA8FFF7D2FA5EAA1EA99E
:10B2D00026A8FFF730FE194B26AA36A916A8FFF7B5
:10B2E000DDFB2EAB36AA1EA926A8FFF73FFE16AA45
:10B2F0005EA95EA8FFF7BAFC761E002EBDDA0F4AE3
:10B300005EA95EA8FFF7C2FC5EAA2EA936A8FFF7C9
:10B3100012FE36A90748FFF7B7FA012804D0054AFC
:10B3200036A936A8FFF70FFB0EA936A8FFF7C7FA14
:10B330001AE700006CE003002CE003000CE00300BF
:10B340008CE0030010B50420FFF77BF8FE4908618C
:10B350000220FFF776F8FC4908601220FFF771F829
:10B36000F949C8601120FFF76CF8F7498860102090
:10B37000FFF767F8F44948600120FFF762F8F249E7
:10B38000486108460069FF21890288420FD3EE48D0
:10B39000006888420BD3EC48C068884207D3EA486B
:10B3A0004068884203D3E8488068884238D2E7A1E1
:10B3B0000020FDF7ACF9E4480069FF2189028842CA
:10B3C00003D2ECA10020FDF7A2F9DF480068FF21BD
:10B3D0008902884203D2EEA10020FDF798F9DA48ED
:10B3E000C068FF218902884203D2F0A10020FDF746
:10B3F0008EF9D5484068FF218902884203D2F3A123
:10B400000020FDF784F9D0488068FF218902884236
:10B4100003D2F6A10020FDF77AF90820FEF791FB90
:10B4200010BD70B504462046083002F0BCFC06464C
:10B43000701C002800D1002620460C3002F0B3FC1E
:10B4400080003107090F4018401E0009451C617C2F
:10B45000227C08021043002809D0627C237C110260
:10B4600019430846C917090F091809114D19E7486A
:10B47000854200D90546284670BD70B504460D4684
:10B48000E3480470A000E3490A582B46E2A10020DB
:10B49000FDF73DF970BD0146012907D0022903D00F
:10B4A000042905D1012070470320FCE70220FAE7B8
:10B4B0000020F8E730B589B004460D4624216846DF
:10B4C00001708480C580FEF741FA09B030BDF0B547
:10B4D00089B004460D4616461F466020694608702E
:10B4E00001940295684606734773D348017868460D
:10B4F0008173FEF72BFAD0480078401CC0B2CE49C9
:10B500000870CE490978884202DB0120CA490870D8
:10B5100009B0F0BD10B5A6B0C9A10020FDF7F7F83D
:10B5200089484069002805D1CCA1FDF7F0F8012039
:10B5300026B010BDD248C069002804D1D1A1FDF7C2
:10B54000E6F80020F4E702A8FCF788F90122CC49CC
:10B55000491D02A8FCF79EF90422C949103102A82E
:10B56000FCF798F90422C649183102A8FCF792F9B1
:10B5700000200190012201A902A8FCF78BF9C04824
:10B58000407901280AD002280FD0042814D10A22B9
:10B59000BB49663102A8FCF77DF90EE00222B849EA
:10B5A000663102A8FCF776F907E00222B449663159
:10B5B00002A8FCF76FF900E000BF00BF02A801F08D
:10B5C000DCFE1EA902A8FCF790F95F49AC4A2032C4
:10B5D00048691EA9FFF7A6FD002801D0012000E060
:10B5E00000200446002C04D0ADA10020FDF78FF808
:10B5F00003E0ADA10020FDF78AF8204698E7F0B5FA
:10B600008FB00446182109A802F0A5FBFF260227E7
:10B610000025012C40DB032C3EDCE81E69468884B3
:10B6200009A8C078C008C000954909794907490FA1
:10B63000084309A9C87009A8C0780821884390491F
:10B640006031497CC90008221140084309A9C8702B
:10B650008B4908680AA902F0B0FB09A8C07810213C
:10B6600088436B490978072901D1012100E00021B5
:10B67000090110221140084309A9C8700A22804913
:10B6800066310BA802F04EFBFF267D4800790028AA
:10B6900001D1022700E00127002C06D0012C11D097
:10B6A000022C17D0032C25D11CE010250120C0430B
:10B6B0006946888424480E22016809A8023002F0F5
:10B6C00031FB17E0122508A9887900090001001D47
:10B6D00088710FE00A2508A9887900090001401C3B
:10B6E000887107E00A2508A9887900090001801CF3
:10B6F000887100BF00BF60216846017009A80190F1
:10B70000029568460773467300218173FEF71EF9A0
:10B7100061216846017009A8019002956846FEF70C
:10B7200015F9A00063490A5863A10020FCF7EFFF58
:10B73000012C07DB032C05DC08A880790007800EAC
:10B740006449C9E0CDE00000A47E00201B5B306DA1
:10B750004D697373696E67206120637269746963F0
:10B76000616C20696E666F20706F696E7465720A15
:10B77000000000001B5B306D1B5B323B33316D4DB5
:10B78000495353494E4720464C4147530A00000055
:10B790001B5B306D1B5B323B33316D4D495353495D
:10B7A0004E4720465749440A000000001B5B306D9D
:10B7B0001B5B323B33316D4D495353494E47205348
:10B7C00045474D454E54204150500A001B5B306D9B
:10B7D0001B5B323B33316D4D495353494E47205328
:10B7E00045474D454E542053440A00001B5B306DC5
:10B7F0001B5B323B33316D4D495353494E47205308
:10B8000045474D454E5420424C0A0000FFFF0000C2
:10B81000347D0020387D00201B5B306D1B5B323B8C
:10B8200033326D4E45572053544154453A202573C9
:10B8300020284C2575290A00807D0020367D0020B7
:10B840001B5B306D566572696679696E6720736936
:10B85000676E61747572652E2E2E20001B5B306D35
:10B860004E6F206B65792028544841542753204F50
:10B870004B41592054484F554748290A00000000C1
:10B88000307E00201B5B306D4E6F207369676E61E8
:10B890007475726520284641494C555245290A0065
:10B8A0001B5B306D4F4B0A001B5B306D4641494CB2
:10B8B0000A0000005C7D00201B5B306D4245414367
:10B8C0004F4E205345543A20545950452025730A71
:10B8D000000000006C7D00200A58FBA10020FCF74E
:10B8E00016FF0FB0F0BD70B504460D4603230022CD
:10B8F00029462046FFF7EBFD204602F06EF970BDA9
:10B9000030B58FB0F64903C90E910D90F5A00068CF
:10B910000C90F5480068801C0990F34800680A9074
:10B92000F1480068001D0B90002428E061000DAA7A
:10B93000505AFEF786FD0546002D1FD002216846AD
:10B9400001700CA8015D684601710CA8025D2946D2
:10B9500008312A3801F0C2FF0CA8025DA00009AB33
:10B96000195804A801F0BAFF29680791696808917D
:10B97000A97C68464171FDF7E9FF00BF641C032CF8
:10B98000D4D30FB030BD10B50020FFF738FEFF2133
:10B99000DB310120FFF771FD7421D44802F0DBF99F
:10B9A00010BD70B504460D460020D049087188616D
:10B9B0008860411ECD484030418400218184203080
:10B9C00001740020C949C8610860084644712246D4
:10B9D0002946663001F082FFFF21EC310220FFF79B
:10B9E0004CFD2046FFF757FD0646FFF708FE70BDE9
:10B9F00070B504466078217800020843BC4988424B
:10BA00000BD1E0784007400F002806D0A07800074F
:10BA1000000FB6494979884207D000BFFF22F732AC
:10BA2000B4A10720FDF7A2FF00BF201D02F0BBF963
:10BA3000AE490860E0784007400F0871E0780007E1
:10BA4000C10FAA4860304174FF21FC310320FFF789
:10BA500014FDA6494879FFF71EFD0546FFF7CFFD07
:10BA600070BDF0B5A7B0A8490420FFF706FDFF227E
:10BA7000042112A802F068F99C484079012804D0FA
:10BA800002280CD004280FD104E01298400840008E
:10BA9000129009E0042112988843129004E00221D8
:10BAA00012988843129000BF00BF9048C0688F4929
:10BAB000896888427ED02120FEF7C3FC0F902220A7
:10BAC000FEF7BFFC10902420FEF7BBFC1190002570
:10BAD000ED4300243CE0A0000FA90858002836D010
