:020000040001F9
:10800000203B0020D1810100E38101008D89010026
:108010000000000000000000000000000000000060
:10802000000000000000000000000000E7810100E7
:108030000000000000000000E9810100EB81010068
:10804000ED810100ED810100E58C0100ED81010071
:10805000ED8101000000000005880100ED810100B4
:10806000ED810100D58C0100ED810100ED81010061
:10807000ED810100ED810100ED810100ED81010044
:10808000798D0100318C0100FD8B0100ED81010033
:10809000598C0100ED810100618C0100ED8101002E
:1080A000ED810100ED8101000000000000000000F2
:1080B00000000000000000000000000000000000C0
:1080C00000F002F800F038F80CA030C80838241886
:1080D0002D18A246671EAB4654465D46AC4201D100
:1080E00000F02AF87E460F3E0FCCB64601263342FA
:1080F00000D0FB1AA246AB46334318476CAB0000D6
:108100008CAB00000023002400250026103A01D388
:1081100078C1FBD8520700D330C100D50B6070473F
:1081200010B5642902D100F0D7F810BD002010BDB1
:108130001FB51FBD10B510BD00F007FB1146FFF7BE
:10814000F7FF04F003FC00F01FFB03B4FFF7F2FF9E
:1081500003BC00F025FB0000401E00BF00BF00BFB5
:1081600000BF00BF00BF00BF00BF00BF00BF00BF17
:1081700000BFF1D170470000401E00BF00BF00BF2C
:1081800000BF00BF00BF00BF00BF00BF00BF00BFF7
:1081900000BFF1D17047000070B505460C46164689
:1081A00002E00FCC0FC5103E102EFAD2082E02D3DB
:1081B00003CC03C5083E042E07D301CC01C5361FEE
:1081C00003E021782970641C6D1C761EF9D270BD05
:1081D0000A48026803210A430260094880470948A7
:1081E0000047FEE7FEE7FEE7FEE7FEE7FEE70000EA
:1081F00005480649044A064B704700002405004024
:108200009D8C0100C180010020330020203B002014
:10821000203300204343514330B55C18010C130C4C
:108220000D4692B25D4380B251432C190546554329
:108230000A0C09044D1962415843010C000440190D
:10824000514130BD0FB41CB5074B06AA7B446946AB
:108250000090059800F04DFA0020694600F05CFAA5
:108260001CBC08BC04B01847C9040000F8B50E4691
:108270000446002020622046E1688847002829D073
:10828000252802D06268A16820E0E1682046002726
:10829000884705001ED028464138192802D80127F2
:1082A000FF0220353246204627602946FFF738FF77
:1082B000002808D0012804D0F61DF608F60008367C
:1082C000D9E7361DD7E762682846A1689047206A3B
:1082D000401CCFE7206AF8BDF7B500257529106866
:1082E000009914A611D0C046C046002802DA4042C8
:1082F00011A608E0009909688A0701D50FA602E0D7
:10830000490704D50EA6012501E0C046C046009FDE
:108310000024243704E000F004FA30313955641C9D
:108320000028F8D12B4632462146009800F084F907
:10833000FEBD0000000000002D0000002B0000002A
:1083400020000000034610B50B439B070FD1042A01
:108350000DD308C810C9121FA342F8D018BA21BA09
:10836000884201D9012010BD0020C04310BD002A61
:1083700003D0D30703D0521C07E0002010BD0378C0
:108380000C78401C491C1B1B07D103780C78401C3F
:10839000491C1B1B01D1921EF1D1184610BD0000D3
:1083A00030B5441C03E00178401C00290DD0810742
:1083B000F9D10B4BDD0104C8D11A91432940FAD001
:1083C000001B0A0603D0C01E30BD001B30BD0A04CE
:1083D00001D0801E30BD0902FCD0401E30BD00001F
:1083E00001010101F8B5042A2CD3830712D00B78C0
:1083F000491C0370401C521E83070BD00B78491C8C
:108400000370401C521E830704D00B78491C037074
:10841000401C521E8B079B0F05D0C91ADF0020237A
:10842000DE1B08C90AE0FFF7B7FEF8BD1D4608C904
:10843000FD401C46B4402C4310C0121F042AF5D244
:10844000F308C91A521EF0D40B78491C0370401C63
:10845000521EEAD40B78491C0370401C012AE4D454
:1084600009780170F8BD01E004C0091F0429FBD29E
:108470008B0701D50280801CC90700D002707047AD
:1084800000290BD0C30702D00270401C491E0229EC
:1084900004D3830702D50280801C891EE3E70022F3
:1084A000EEE70022DFE70378C27819464378120628
:1084B0001B0219438378C0781B0419431143090236
:1084C000090A000608437047020A08704A70020C45
:1084D0008A70020ECA707047002203098B422CD3A7
:1084E000030A8B4211D300239C464EE003460B4304
:1084F0003CD4002243088B4231D303098B421CD366
:10850000030A8B4201D394463FE0C3098B4201D357
:10851000CB01C01A524183098B4201D38B01C01A8F
:10852000524143098B4201D34B01C01A5241030906
:108530008B4201D30B01C01A5241C3088B4201D3B5
:10854000CB00C01A524183088B4201D38B00C01A62
:10855000524143088B4201D34B00C01A5241411A89
:1085600000D201465241104670475DE0CA0F00D06C
:108570004942031000D34042534000229C46030965
:108580008B422DD3030A8B4212D3FC22890112BAEB
:10859000030A8B420CD3890192118B4208D38901C3
:1085A00092118B4204D389013AD0921100E08909DB
:1085B000C3098B4201D3CB01C01A524183098B42BC
:1085C00001D38B01C01A524143098B4201D34B01A5
:1085D000C01A524103098B4201D30B01C01A524108
:1085E000C3088B4201D3CB00C01A524183088B428F
:1085F00001D38B00C01A5241D9D243088B4201D318
:108600004B00C01A5241411A00D201466346524102
:108610005B10104601D34042002B00D54942704701
:1086200063465B1000D3404201B50020C046C046FF
:1086300002BD704770477047FFB504460D4681B0D4
:10864000243000902168880604D51022E069914307
:10865000216000E00120A84201DD471B00E0002767
:108660000498A1697A191018081AA0612078C00628
:1086700002D42046C046C046002608E0039862683F
:10868000A168805D9047206A401C761C2062049897
:108690008642F3DB2078C0060AD52046C046C04695
:1086A00006E06268A16830209047206A401C206282
:1086B00038467F1E0028F4DC07E000986268A16855
:1086C000405D9047206A401C206228466D1E0028AD
:1086D000F3DC2046C046C0462078000602D50220C2
:1086E00005B0F0BD0120FBE701694A1C0261087872
:1086F000704700B58FB002910021059105490193A3
:1087000079440391114604906846FFF7AFFD0FB01E
:1087100000BD0000E5FFFFFF0A681070521C0A60F0
:10872000704701468008081A02091018020A10183A
:10873000020C1018C008820012185200891A01E0B9
:10874000401C0A390A29FBD27047754600F024F80C
:10875000AE46050069465346C008C000854618B0BD
:1087600020B5FFF745FD60BC00274908B646002646
:10877000C0C5C0C5C0C5C0C5C0C5C0C5C0C5C0C5D1
:10878000403D49008D46704710B50446C046C0467E
:108790002046FFF7DAFC10BD00487047C0320020C9
:1087A00001491820ABBEFEE726000200704770B5F5
:1087B0008C180578401C6B075B0F01D10378401CB7
:1087C0002A1106D10278401C03E00678401C0E7086
:1087D000491C5B1EF9D12B0705D40023521E0DD472
:1087E0000B70491CFAE70378401CCB1A921C03E07B
:1087F0001D780D70491C5B1C521EF9D5A142D8D3BF
:10880000002070BDF0B587B0002600200690FF2044
:10881000013005900125002417E0059806F0D0F8F6
:1088200000280CD00120A04055494968014000298A
:1088300005D0059806F0BCF83046284306466D0082
:108840000598001D80B20590641C042CE5D3FF2020
:108850007D3006F0B5F800280AD0FF207D3006F004
:10886000A7F80120C007064300BF464800690690EC
:108870003007000F00282AD00125002425E02846D3
:10888000304000281FD000BF3F4851210901401847
:10889000A10040581F2109020840000A049000BFAF
:1088A0003948512109014018A10040580321090409
:1088B0000840000C0390204601F0F4FF074603999E
:1088C0000498B84700BF6D00641C042CD7D3F00F88
:1088D000C007002852D000244EE0204606F074F96C
:1088E0000490C021049888430746049808408011EA
:1088F00003900120B8400546384606F079F9002873
:1089000039D0384602F012F8019001F0CBFF029006
:10891000029800282ED000BF052000070721090279
:108920004018B9004058032109040840000C019088
:1089300006982840002802D00198022806D0069800
:108940002840002815D10198032812D10398032844
:108950000BD10198022801D1032000E002200090F1
:108960003846009905F0CBFF00BF3846029A0399BC
:10897000904700BF00BF641C082CAED307B0F0BD09
:1089800000630040000500500060004002F0AAFBB8
:10899000C206D20E01219140014A116070470000C9
:1089A00080E200E0C206D20E01219140014A11602E
:1089B0007047000000E100E0C206D20E01219140A4
:1089C000014A11607047000000E100E0C206D20ECB
:1089D00001219140014A11607047000000E200E06F
:1089E000C206D20E01219140014A11607047000079
:1089F00000E200E0C206D20E01219140014A11605E
:108A00007047000000E200E0C206D20E0121914052
:108A1000014A11607047000000E200E010B5002834
:108A200019DA1A4A03071B0F083B9B089B00D25810
:108A30008307DC0EFF23A3409A438B071B0E84079A
:108A4000E40EA3401A43114B0407240F083CA4086A
:108A5000A4001A5118E00E4A03231B02D2188308FF
:108A60009B00D2588307DC0EFF23A3409A438B0759
:108A70001B0E8407E40EA3401A43054B0324240273
:108A80001B198408A4001A5110BD00001CED00E061
:108A900000E100E010B5002819DA1A4A03071B0F9D
:108AA000083B9B089B00D2588307DC0EFF23A340A2
:108AB0009A438B071B0E8407E40EA3401A43114B05
:108AC0000407240F083CA408A4001A5118E00E4A19
:108AD00003231B02D21883089B00D2588307DC0EA5
:108AE000FF23A3409A438B071B0E8407E40EA34089
:108AF0001A43054B032424021B198408A4001A51AD
:108B000010BD00001CED00E000E100E010B5002801
:108B100019DA1A4A03071B0F083B9B089B00D2581F
:108B20008307DC0EFF23A3409A438B071B0E8407A9
:108B3000E40EA3401A43114B0407240F083CA40879
:108B4000A4001A5118E00E4A03231B02D21883080E
:108B50009B00D2588307DC0EFF23A3409A438B0768
:108B60001B0E8407E40EA3401A43054B0324240282
:108B70001B198408A4001A5110BD00001CED00E070
:108B800000E100E010B5002819DA1A4A03071B0FAC
:108B9000083B9B089B00D2588307DC0EFF23A340B1
:108BA0009A438B071B0E8407E40EA3401A43114B14
:108BB0000407240F083CA408A4001A5118E00E4A28
:108BC00003231B02D21883089B00D2588307DC0EB4
:108BD000FF23A3409A438B071B0E8407E40EA34098
:108BE0001A43054B032424021B198408A4001A51BC
:108BF00010BD00001CED00E000E100E010B510E049
:108C00000024094802F082FA044309F0D7F800284A
:108C100003D0064802F07AFA0443002C00D101E0A8
:108C200000BFEDE700BF10BDF02B0020A82C0020F6
:108C300010B50020074908600021064841608160A6
:108C4000C1600020034940390860486008F0DAFE3E
:108C500010BD00004011014010B508F0C9FB10BD67
:108C600070B50C480068002811D00A480068804799
:108C7000044600BF2546002D07D000BF064AFF214D
:108C80002A31284600F0FAF900BF00BF01E003F0E6
:108C9000F5F970BDA4210020102C020010B503F0DE
:108CA0009FFA002805D0074807494860C8130749BC
:108CB000886103F079FA002802D001200449886015
:108CC00010BD0000DFFF07C000050040006C004041
:108CD0000006004010B50021014805F0BDFC10BDA4
:108CE0000090004010B509E000201C49886008464B
:108CF00080681B498969C8B201F0B4FE17488068D2
:108D00000028F1D11548C069002826D00020134959
:108D1000C861144801680068401E124A10600029AA
:108D20000AD01148006800780D49C8610E480068F3
:108D3000401C0D49086010E001200C49C8600C4837
:108D40000078012802D0002009490870094802F083
:108D5000E1FA002801D107F02DF910BD00210040F3
:108D60000025004044210020482100200020004030
:108D700040210020502A002010B501200A494968EE
:108D80000140002901D0012100E00021012909D181
:108D900000BF00200902054A8918086000BF044886
:108DA0000068804710BD0000000301400000014042
:108DB0009821002030B47446641E2578641CAB42B0
:108DC00004D3635D5B00E31830BC18471D46F8E729
:108DD0001CB5044903C901910090684604F040FCA9
:108DE0001CBD0000602B0200124A1268002A07D046
:108DF000104B02681B681B68D21A0F4B9A4205D9A8
:108E00000C4A126802610B4A10607047094A1168E7
:108E100000E009690A69002A06D00A691268036835
:108E2000D21A054B9A42F4D80A690261086100BF60
:108E3000EBE7000074210020FFFFFF7FF8B5044638
:108E40000F4615460026002028702078002809D0FB
:108E50002A463946204604F0B7FB0646002E01D0CC
:108E60003046F8BDA078002808D02946384600F0E2
:108E70005DFC0646002E01D03046F2E7E07800287F
:108E80000ED002212A78501C2870B95401212A786A
:108E9000501C2870B954E1782A78501C2870B954B5
:108EA000606800280BD00020616808562A463946C1
:108EB00009F0C6F90646002E01D03046D1E72089D8
:108EC00000280CDD3B460622022120460830009592
:108ED00009F07FFA0646002E01D03046C1E7208A0D
:108EE00000280CDD3B460722032120461030009568
:108EF00009F06FFA0646002E01D03046B1E7208B0C
:108F000000280CDD3B461522142120461830009520
:108F100009F05FFA0646002E01D03046A1E7206A2C
:108F2000002809D02A463946206A01F0A9FE0646E3
:108F3000002E01D0304694E7606A002809D02A4606
:108F40003946606A03F096FD0646002E01D0304691
:108F500087E72C20005D002809DD2A463946204697
:108F600007F0D4FB0646002E01D0304679E73046A4
:108F700077E70146C87804221040002801D1072075
:108F800070470020FCE70000014600BF064A506819
:108F90000122D2058243044B9A600122D20502408D
:108FA000DA6000BF704700000005005010B50024D3
:108FB00007E0E100064A1268505C012104F088FCD9
:108FC000641C044800788442F3D3002010BD0000E4
:108FD000BC210020C0210020FEB506460C461746E5
:108FE000052F01D20720FEBD04F07CFD002806D12C
:108FF00004F050FD0546002D01D02846F3E7164841
:10900000066016480470164807600020154908607D
:109010001549086015E0E0008019019013480068C8
:109020000090019880786946487001990878104A44
:10903000694604F0A5FC0546002D01D02846D2E77C
:1090400000BF2046611ECCB20028E4D1094A0021AD
:10905000094800F061FAC6E7BC210020C0210020C9
:10906000C4210020CC210020D0210020002C0200AF
:1090700099B5010015AF0100C821002002F032F8B7
:1090800070B50446606840790D490D5C0126FF2DDE
:1090900013D0FE2D12D02946606805F0CBF9616827
:1090A00049798900074A5158884207D1FF206168F1
:1090B0004979034A5054002600E00026304670BD2E
:1090C000D4210020D8210020F7B5054614462846B3
:1090D00000F0FAF8604307466421FFF7FDF9064601
:1090E000B2B22846019900F001F8FEBDF8B5044679
:1090F0000F46164625680C2078434019009023201F
:10910000405D022801D00820F8BD00984068B042B8
:1091100008D1E869002803D062685079E969884776
:109120000020F1E72046FFF7ABFF002801D0112017
:10913000EAE7FE20616849791F4A50540098406868
:10914000002804D000984068A969884210D3002EF6
:1091500002D0A869B04205D832463946204605F00B
:10916000D1FE15E032463946204605F013FF0FE0E8
:10917000002E02D0A869B04205D8324639462046B2
:1091800005F0A4FF04E032463946204606F034F8E4
:109190002068C06900280DD0022061684979490023
:1091A000064A8918C85500BF0221606805F09BF97E
:1091B00000BF00BF0020A7E7D4210020DC21002051
:1091C000FFB585B005460E461746286804900C206A
:1091D00070430499441804982030C078002802D0C5
:1091E000082009B0F0BD002060600898A0723448E3
:1091F000006802900C20704329680818807A0028C3
:1092000001D1012000E000206946487202A93846D9
:1092100004F072FC03900398002801D00420E0E7DA
:109220000C20704304990F500898002803D038464A
:1092300005F098FB02E0384605F0ACFB00200190F9
:109240000DE021460831019A881804F047FD0028F6
:1092500001D00420C5E70198401CC0B201900198DC
:109260000228EEDB207A04F0EDFD607A04F0EAFDDE
:10927000206804F0B9FC01903146686805F016F9E1
:109280000090207A019A009904F0B0FD206804F063
:10929000ABFC01900221686805F008F90090607A43
:1092A000019A009904F0A2FD0120E0720020696893
:1092B00049794900034A8918885500BF91E70000A1
:1092C000042C0200DC21002001460A68108B80B2C9
:1092D00070470000F8B504462768002520E00C2000
:1092E0006843C6190020616849794900174A8918FE
:1092F0004855F07A002812D00C236B432268D2180C
:10930000927A002A01D1012200E000221146306841
:1093100004F09EFC306804F075FC002070606D1C49
:10932000022DDCD3FF2061684979094A50546168F5
:109330000868012105F00EFC606805F094F860688B
:1093400005F0F2F802212320C155F8BDDC210020F0
:10935000D4210020F7B586B005460E46002E02D176
:109360000B2009B0F0BD2C682320005D002801D03F
:109370000820F6E705F03EF80746002F03D0852FBA
:1093800001D00420EDE704F0ADFB002806D104F085
:1093900081FB0746002F01D00320E2E7FF212020B8
:1093A00001552120015522200155002014E0002202
:1093B0000C2141430919CA72FF220C2141430919AA
:1093C0000A720C21414309194A720022D2430C212E
:1093D00041436250411CC8B20228E8DB00200190E2
:1093E00010E021462031019A881804F077FC00280B
:1093F00004D0284605F0E9FC0420B2E70198401C9F
:10940000C0B2019001980228EBDB2046223004F024
:10941000CDFE002804D0284605F0D7FC0420A0E7A4
:10942000002001901FE0019880003058401C002867
:1094300015D0304608300199435C880032582846E0
:10944000FFF7BEFE0746002F04D0284605F0BDFCFE
:10945000384686E7002228460199FFF747FE019823
:10946000401CC0B2019001980228DCDB3069002169
:10947000092201E04008491C224B984201D991423F
:10948000F8D3CBB20593204903C9049103906846F1
:10949000059B03736868407904901C4A03A96868B7
:1094A00005F070F80746002F04D0284605F08DFC23
:1094B000384656E73169686805F036F90290029837
:1094C000A061686804F0CFFF012000906868042361
:1094D00001900221029A05F035F80221686804F033
:1094E000F7FF0898E06168684079800008490D50EE
:1094F000FF2069684979074A50540121232001550A
:1095000000202EE7FF0F0000082C020099EE01005A
:10951000E0210020D421002070B503460C461948F4
:109520000068002801D1082070BD002A01D1072061
:10953000FAE7002B01D10720F6E700211CE02420E8
:109540004843104D2D68285C002814D101252420A3
:1095500048430C4E3668355424204843094D2D6845
:109560004019447024204843064D2D6840198261FB
:1095700019600020D8E7491C034800788142DEDBEF
:109580000420D1E7E8210020E4210020FFB581B0CC
:109590000E4617461C4620468107890F002901D137
:1095A000012100E00021002902D1072005B0F0BD13
:1095B000002C01D10720F9E706F0A4FC26490A98FF
:1095C0000860264806702648046000250CE000214B
:1095D00024206843224A1268115424206843204AF8
:1095E0001268801801756D1CB542F0DB24207043B1
:1095F000041903201B4908701B4804601834002517
:109600000CE0E900184A12688818002101704170C6
:1096100087704460182179430C196D1C032DF0DB11
:109620000020C04311490860002011490870114909
:1096300008701420FFF7ACF903211420FFF7A2FAF9
:109640001420FFF7B9F9019806F032FC06F02AFC65
:10965000094908600020A9E708220020E421002031
:10966000E8210020EC210020F0210020F42100203E
:109670000422002005220020F8210020FEB5044627
:109680000D46164616480068002801D10820FEBD88
:1096900014480078844201D2052D01D20720F6E754
:1096A000242060430E490968085C012801D0082085
:1096B000EDE7242060430A490968401840780128F2
:1096C00001D1284600E00020074608F059FE3B463D
:1096D0002A4621460096019008F04AF9D7E7000093
:1096E000E8210020E421002070B504460D48006800
:1096F000002801D1082070BD0B480078844201D3B6
:109700000720F8E72420604306490968085C01281F
:1097100001D00820EFE708F033FE0546214608F0A7
:1097200051F9E8E7E8210020E4210020F8B50546DA
:109730000C462078001D1F2801DD0C20F8BD68466E
:1097400079DF0646002E01D03046F7E70321227864
:10975000501C2070A95419212278501C2070A95443
:10976000207841196846008808F08BFD2178401860
:1097700020700020E2E7000070B50022FF218A314E
:1097800037480068FFF77AFF044600BF2546002DE2
:1097900006D000BF33A2F72189002846FFF76EFCF0
:1097A00000BF0022324933480068FFF767FF0446D4
:1097B00000BF2546002D05D000BF2AA22E4928460D
:1097C000FFF75CFC00BF00222C492D480068FFF722
:1097D00055FF044600BF2546002D06D000BF21A23C
:1097E0002549C91C2846FFF749FC00BF002225492E
:1097F00025480068FFF742FF044600BF2546002DBC
:1098000006D000BF17A21C49891D2846FFF736FC69
:1098100000BF00221D491E480068FFF72FFF0446C5
:1098200000BF2546002D06D000BF0EA27D21C90035
:109830002846FFF723FC00BF00221649164800689F
:10984000FFF71CFF044600BF2546002D06D000BFD1
:1098500004A209490C312846FFF710FC00BF70BD77
:10986000182000202E2E5C6D61696E2E63000000B2
:10987000A480000024200020DF030000A4100000CA
:10988000002000200A170000142000201F450000BF
:109890001C2000205C4F0000202000200146880B87
:1098A0008003002801D1012070470020FCE7000060
:1098B00070B5044620780300FFF77CFA0504401CCD
:1098C000343A59000321C9036068884204D3012156
:1098D00049076068884209D900BF102500BF25A24A
:1098E00053211020FFF7CAFB00BF00BF6168A068CA
:1098F00088473DE00321C9036068884204D3012101
:1099000049076068884209D900BF102500BF19A225
:109910005B211020FFF7B2FB00BF00BF6168A068A9
:10992000884725E0237C201D07C807F073FA1FE055
:10993000E279A179A08802F017F819E00321C903A0
:109940006068884204D3012149076068884209D9C8
:1099500000BF102500BF07A278211020FFF78EFB63
:1099600000BF00BF6268E168A068904700E000BFE8
:1099700000BF70BD2E2E5C2E2E5C2E2E5C7262639C
:109980005F6D6573685C7372635C6576656E745F4A
:1099900068616E646C65722E6300000070B50446E9
:1099A00007F03EFE0646204606F052FA2046FFF734
:1099B0001BFAEFF31080C507ED0F72B60748406839
:1099C000401E06494860002D00D162B6304601F0C5
:1099D00057FD304607F05AF870BD00007421002092
:1099E00070B588B005462E46304603F0CFFB0446DE
:1099F00000200090002C27D06179227909021143C0
:109A00000846694608F050FF00281DD168460078D6
:109A1000002819D004206946087160792179000274
:109A20000843694608812046083003902078C01F0B
:109A3000C1B201A8017307F0F3FD059001A806F07B
:109A400015F801A803F063F8304603F057FC08B09E
:109A500070BDF3B593B00D4600211291119113988A
:109A6000002814D01398FFF784FA0446002C02D083
:109A7000204615B0F0BD12AA09A91398FFF7DEF928
:109A80000446002C01D02046F3E709AE00E0002692
:109A9000002D13D0284607F0E3F80446002C01D02F
:109AA0002046E6E711AA01A92846FFF7C7F90446B0
:109AB000002C01D02046DCE701AF00E0002710A811
:109AC00003793A46017A304672DFD2E77FB5044621
:109AD00000BF0121684681735D49818100BF5D4AF5
:109AE00003A90120A0DF0546002D02D0284604B0BE
:109AF00070BD208800280DDD57480090228823463D
:109B00003C335648616800F017FF0546002D01D030
:109B10002846ECE7208900280EDD51480090228974
:109B200023463C334D48401FE16800F005FF0546E1
:109B3000002D01D02846DAE7208A00280EDD4948AA
:109B40000090228A23463C334448001F616900F09C
:109B5000F3FE0546002D01D02846C8E7208B0028DB
:109B60000EDD41480090228B23463C333B48801E4B
:109B7000E16900F0E1FE0546002D01D02846B6E778
:109B8000208C00280EDD39480090228C23463C337F
:109B90003248C01E616A00F0CFFE0546002D01D09C
:109BA0002846A4E7208D00280EDD31480090228D44
:109BB00023463C332948401EE16A00F0BDFE0546BD
:109BC000002D01D0284692E7206B002813D001A871
:109BD000216B07F093F8274823463C33082201A95C
:109BE00000901E48801F00F0A7FE0546002D01D002
:109BF00028467CE700BF606B00280FD01E4800900D
:109C0000606B027923463C3301681448401C00F025
:109C100093FE0546002D01D0284668E7A06B00287A
:109C200013D001A8A16B05F01DF8144823463C335E
:109C3000072201A900900948273000F07DFE054663
:109C4000002D01D0284652E700BF00204FE700005A
:109C50000A1800000E22002010220020292A0000ED
:109C6000182200202022002028220020302200205C
:109C700038220020402200204822002050220020CC
:109C800070B50446208810380300FFF793F80906E2
:109C9000071E0A1E1E1E1D1C1E0017E00C4873DF47
:109CA00014E000BFA08800230A4A19467FDF05465A
:109CB000002D06D000BF08A272212846FFF7DEF96A
:109CC00000BF00BF02E001E000E000BF00BF70BDC8
:109CD00058200020702000202E2E5C6E72665F617E
:109CE00064765F636F6E6E2E6300000010B50446ED
:109CF000208850280BD0512802D0522808D100E0EB
:109D000007E0A08800231A461946A9DF01E000E019
:109D100000BF00BF10BD0000F8B504460D4628681E
:109D200020600020C043608228792075FF202074C5
:109D300000BF0121684681700849018000BF221DD3
:109D400069460120A0DF0646002E01D03046F8BD4E
:109D50002946204602F0A2FBF9E70000AA550000C0
:109D600033B587B004460025207C08A909788842CD
:109D700032D00020059006900121684681820021A2
:109D8000C18208A8069000782074E188608A05AA3C
:109D9000A4DF0546002D02D0284609B030BD608AF8
:109DA0000E49884217D0207D002814D00020019051
:109DB000029003900490E1886846818001218171BE
:109DC000C18A018105A8039006980490608A01A9C0
:109DD000A6DF054600E008252846DEE7FFFF000075
:109DE00070B504460D462846FEF7DAFA2080656015
:109DF00070BD0000F8B505460E46002432782146B5
:109E0000641C6A5472782146641C6A5400BF022C98
:109E100001D1012000E000200746002F05D100BF3E
:109E200003A22021FFF72AF900BF00BF2046F8BD9A
:109E30002E2E5C2E2E5C2E2E5C2E2E5C2E2E5C2E5C
:109E40002E5C636F6D706F6E656E74735C626C65B3
:109E50005C636F6D6D6F6E5C626C655F7372765F75
:109E6000636F6D6D6F6E2E630000000033B587B0B9
:109E700004460025207C08A90978884232D00020B9
:109E8000059006900121684681820021C18208A8C0
:109E9000069000782074E188608A05AAA4DF054650
:109EA000002D02D0284609B030BD608A0E49884294
:109EB00017D0207D002814D000200190029003903C
:109EC0000490E1886846818001218171C18A018105
:109ED00005A8039006980490608A01A9A6DF0546AC
:109EE00000E008252846DEE7FFFF0000F8B504463D
:109EF0000D46286820600020C043608228792075C4
:109F0000FF20207400BF012168468170084901804C
:109F100000BF221D69460120A0DF0646002E01D0A9
:109F20003046F8BD2946204607F090F8F9E70000D2
:109F300055AA000010B50446162004F01BFD0320AE
:109F400008F0A8F910BD0000F3B581B00646002561
:109F5000002400E0641C042C04D2A0002949085805
:109F6000B042F7D1042C42D20298002825D0012813
:109F700002D002283AD133E06000201822490D5C5B
:109F8000600020184018407800280ED01F48006854
:109F90000A22504301461E4A1E480068FFF76EFB26
:109FA0000746002F01D11A48067060002018164994
:109FB000401880781849085518E016480068FFF7DF
:109FC00093FB1548005D610061180F4A8918897874
:109FD000884204D16000201811464018857805E0B9
:109FE0006000201808494018457800BF00BF002DC8
:109FF00007D00A480068002803D0284607490968A6
:10A000008847FEBD8C2B0200942800207C20002075
:10A010009420002090200020952000208C200020FB
:10A0200070B505460D2D06D00E2D05D00F2D66D02E
:10A03000102D66D164E000BF3348007800282DD091
:10A0400000203149087008F051F906F043FD002264
:10A050002E492F480068FFF711FB044600BF264633
:10A06000002E06D000BF2BA2DD2189003046FFF76D
:10A0700005F800BF05F0DBFE0022294929480068E9
:10A08000FFF7FCFA044600BF2646002E05D000BFAD
:10A0900020A225493046FEF7F1FF2FE001201A49A2
:10A0A0000870642008F022F905F0C9FE00221C495E
:10A0B0001C480068FFF7E2FA044600BF2646002E5F
:10A0C00006D000BF13A2184910313046FEF7D6FF64
:10A0D00000BF06F0FFFC00220C490D480068FFF7A6
:10A0E000CDFA044600BF2646002E06D000BF09A2C6
:10A0F0000D4916313046FEF7C1FF00BF02E001E016
:10A1000000E000BF00BF70BD542000202781010087
:10A11000282000202E2E5C6D61696E2E63000000E9
:10A12000850B0000042000207903000030B50346B1
:10A130000020042B24D2012A07D1012903D11C4677
:10A140000D34E4B200E00024224600290FD001299A
:10A1500002D0022911D104E05C001C19094D2A55D6
:10A160000DE05C001C19074D6419627007E05C008B
:10A170001C19044D6419A27001E0072000BF00E023
:10A18000072030BD94280020F7B505460E46002470
:10A190002748066027480560274902980860022082
:10A1A0002840002822D0002706E001221146384628
:10A1B000FFF7BCFF04467F1C042F01D2002CF4D013
:10A1C000002C05D1720804211C48FEF705FF044647
:10A1D000002C02D1FEF7EAFE0446002C05D1184AF5
:10A1E00000211848FFF798F9044600BFE807C00FA0
:10A1F00000280AD000BF0F204005134988600020C6
:10A20000C86000BF0F2040058861002C05D10F4AAF
:10A2100000210F48FFF780F90446002C05D10D4AB4
:10A2200001210D48FFF778F904462046FEBD0000E5
:10A230007C200020802000208C2000209C2B02000D
:10A2400035A80100902000200005005009C401003D
:10A2500084200020898F010088200020F8B5044662
:10A26000002500262300FEF7A5FD180D18195C9F98
:10A27000F7F5F4F3F2F1F0EFEEEDECEBEAE9E8E7F5
:10A28000E6E5E4E300BF0B204005FB4988600020C1
:10A29000C86000BFF94804704FE200BF00BF05204E
:10A2A0008005F54988600020C86000BF0846406806
:10A2B0000F214905484001214905084000280FD0D9
:10A2C00000BF0846EC4988600020C86000BF022C2F
:10A2D00002D1E120C00001E07D20400106460EE0F1
:10A2E00000BF01204005E449C8600020886000BF2D
:10A2F000022C01D1C82001E0FF2091300646DF4842
:10A30000047064213046FEF7E7F8DD4909684843E8
:10A31000074600223946DB480068FFF7AFF90546DB
:10A320000BE200BF05208005D34988600020C8608B
:10A3300000BF084640680F214905484001214905F2
:10A34000084000280FD000BF0846CB498860002095
:10A35000C86000BF032C02D11920400101E07D201C
:10A36000400106460EE000BF01204005C249C8601A
:10A370000020886000BF032C01D1C82001E0FF202D
:10A3800091300646BD48047064213046FEF7A4F8BB
:10A39000BB4909684843074600223946B948006866
:10A3A000FFF76CF90546C8E100BF05208005B249FA
:10A3B00088600020C86000BF084640680F2149053A
:10A3C000484001214905084000280FD000BF084639
:10A3D000A94988600020C86000BF042C02D17D20FC
:10A3E000400101E07D20400106460FE000BF012052
:10A3F0004005A149C8600020886000BF042C02D13C
:10A40000FF20913001E0FF20913006469B48047008
:10A4100064213046FEF760F89949096848430746C9
:10A420000022394697480068FFF728F9054684E17D
:10A4300082E176E174E161E14EE13BE12FE1F4E09C
:10A44000F2E0F0E0EEE0ECE0E2E0C9E0B2E099E05A
:10A4500082E06FE042E0FFE700BF0520800586490B
:10A4600088600020C86000BF084640680F21490589
:10A47000484001214905084000280ED000BF084689
:10A480007D4988600020C86000BF052C01D1C8202C
:10A4900001E07D20400106460EE000BF012040059E
:10A4A0007549C8600020886000BF052C01D1C82014
:10A4B00001E0FF2091300646704804706421304668
:10A4C000FEF70AF86E4909684843074600223946F4
:10A4D0006C480068FFF7D2F805462EE100BF052062
:10A4E0008005654988600020C86000BF0846406854
:10A4F0000F2149054840012149050840002806D0A0
:10A5000000BF08465C4988600020C86007E000BFC3
:10A51000012040055849C8600020886000BF5748A6
:10A52000047057480022016856480068FFF7A6F8F3
:10A53000054602E100BF052080054F4988600020E4
:10A54000C86000BF00BF01204005C86000208860CF
:10A5500000BF4A480470F0E000BF47494868012145
:10A5600089058143444A9160012189050140D160F8
:10A5700000BF43480022016842480068FFF77EF8A8
:10A580000546DAE000BF3C4948680121890581435E
:10A59000394A9160012189050140D16000BF3848E6
:10A5A000006882008118002236480068FFF766F8CC
:10A5B0000546C2E000BF3049486801218905814352
:10A5C0002D4A9160012189050140D16000BF2C48CE
:10A5D000002201682B480068FFF750F80546ACE000
:10A5E00000BF25494868012189058143224A9160BD
:10A5F000012189050140D16000BF21480068820027
:10A60000811800221F480068FFF738F8054694E0DB
:10A6100000BF0F2040051849C8600020886000BFB7
:10A620008BE000BF00BF00BF00BF17480068FFF706
:10A630005BF805461120061B002E27D0002D25D1E2
:10A64000012E10D9C821714308466421FDF744FF4B
:10A650000B49096848430746002239460A48006802
:10A66000FFF70CF8054600BF0120C0050249C8608D
:10A670000020886012E000000005005078200020D3
:10A680007C200020842000208820002000BF0120A2
:10A69000C0052B4988600020C86000BF4DE000BFA6
:10A6A0000F204005264988600020C86000BF25486B
:10A6B000047042E000BF0720800521498860002027
:10A6C000C86000BF00BF01204005C860002088604E
:10A6D00000BF1C48047030E000BF0D204005184941
:10A6E00088600020C86000BF00BF01208005C860EE
:10A6F0000020886000BF134804701EE000BF0320E4
:10A70000C0050F4988600020C86000BF00BF03205B
:10A710004005C8600020886000BF0A4804700CE053
:10A7200000BF00BF0F2040050549C86000208860B9
:10A7300000BF0448047000E000BF00BF2846F8BD19
:10A74000000500507820002030B585B0142218494B
:10A750006846FDF721FD012069460872012168461F
:10A760004172002269461348FEF7F4FD044600BF1B
:10A770002546002D06D000BF0FA28121C900284622
:10A78000FEF77CFC00BF0B48FEF7A4FD00BF64226F
:10A7900000210848FEF798FC1128F8D000BF642279
:10A7A00001210448FEF790FC1128F8D005B030BD17
:10A7B000682B0200582B02002E2E5C6D61696E2EF4
:10A7C000630000003EB50024134A07CA6B4607C366
:10A7D0001249684604F040F8044600BF2546002DA3
:10A7E00005D000BF0EA211492846FEF747FC00BF66
:10A7F0000F4803F0A7FF044600BF2546002D06D0F2
:10A8000000BF07A20949891C2846FEF737FC00BF94
:10A8100004F010F83EBD00007C2B0200D92A020093
:10A820002E2E5C6D61696E2E63000000170400001F
:10A830005520002010B5044620780221FFF784FB44
:10A8400010BD000070B5094A09490220FFF79CFCC1
:10A85000044600BF2546002D05D000BF05A20849CB
:10A860002846FEF70BFC00BF70BD000021A00100D0
:10A87000CD0C00002E2E5C6D61696E2E6300000011
:10A88000F70300000022D24383000549CA50042880
:10A8900004DB1346011F024A503253547047000034
:10A8A0006832002001468A00014880587047000045
:10A8B00068320020F7B585B00B460020C0430490F5
:10A8C000002A01D0002000E004200390002A01D0DB
:10A8D000042000E00C20029003991EE08C00124836
:10A8E0000059401C002817D10846059C009301928E
:10A8F00046B20D4D30352E558600303D009BAB5194
:10A90000019A002A04D166B2051F074F50377E55C1
:10A9100000BF48B2049003E0491C02988142DDD395
:10A9200000BF049808B0F0BD68320020014601481D
:10A930004056704798320020F0B58FB007460D465C
:10A9400014461E4600BF002D01D0012000E000206B
:10A9500000900098002805D100BF31A26D21FEF7BC
:10A960008DFB00BF00BF00BF002C01DD012000E017
:10A97000002000900098002805D100BF28A26E2179
:10A98000FEF77CFB00BF00BF1C2107A8FDF789FD77
:10A990006946087F02218843801C694608770020A9
:10A9A00008900A900B900C900D9000BF012108A810
:10A9B00081766846078700BF00200190317868469D
:10A9C000017171784171807906218843811C684644
:10A9D00081718079082188430146684681718079B8
:10A9E00010218843014668468171807941084900F9
:10A9F00068468171142102A8FDF753FD0EA802904C
:10AA000001A8039068460482002141828482069551
:10AA100002AA07A912480088149BA2DF0FB0F0BD5C
:10AA20002E2E5C2E2E5C2E2E5C2E2E5C2E2E5C2E60
:10AA30002E5C636F6D706F6E656E74735C626C65B7
:10AA40005C626C655F73657276696365735C626C8A
:10AA5000655F6469735C626C655F6469732E630033
:10AA60000E22002030B589B00546234800680570E5
:10AA700021480068401C20490860084601681F48BA
:10AA80000C1A272C06D2012C33D9401E4078401CCA
:10AA9000A0422ED81949491E194800F0BCFC0028D4
:10AAA0000FD0032168460171842141711348401E73
:10AAB000817868468171862101A8C17005F078FD12
:10AAC0000AE00220694608740E48059000210691AC
:10AAD00004A800F0A7FB00BF094800F024FC0028F0
:10AAE00004D0012008490870084948600348024919
:10AAF000086009B030BD000050210020C82B0020A4
:10AB0000382A0020F9CA010040210020002000401E
:10AB100070B504460D46201DFDF7C5FC281A1A49DC
:10AB200088422FD8204607F0A9FA00282AD02046CC
:10AB30000830FDF7B8FC15490968154A12685143F9
:10AB400088420AD220460830FDF7ADFC4600214677
:10AB500008313046FDF7B8FC09E00C4909680C4A99
:10AB600012685143084621460831FDF7ADFC00202C
:10AB7000207320460830FDF796FC4619211D30460B
:10AB8000FDF7A2FC70BD0000FFFFFF7F2421002025
:10AB900020210020FEB51E480068401C002834D04B
:10ABA0001B480068242148431A4909684018456831
:10ABB00005F078F90190184804682146019806F0DC
:10ABC00029FBC61C15480078002801D105F07CF946
:10ABD000AE4201D2284600E0304604192402240A7D
:10ABE00020460F49086000BF05F05CF9009001990C
:10ABF000009806F00FFBC71C2046019906F00AFBDF
:10AC0000874201D906F04CFF01E005F07BF9FEBD5B
:10AC1000F4210020E8210020F82100200C2200204F
:10AC20004015014001460888062808DB08881922DB
:10AC3000D201904205DD0888104A904201D00720D9
:10AC400070474888062808DB48881922D2019042BC
:10AC500005DD4888094A904201D00720F0E70888BE
:10AC6000064A904208D04888904205D008884A8811
:10AC7000904201DD0720E3E70020E1E7FFFF00004D
:10AC8000F8B506460D4614462078801D1F2801D9C8
:10AC90000C20F8BD3046FFF7C5FF0746002F01D056
:10ACA0003846F6E705212278501C2070A95412215D
:10ACB0002278501C2070A95422785119308807F04E
:10ACC000E0FA21784018207022785119708807F036
:10ACD000D8FA2178401820700020DAE710B514481F
:10ACE0004068C105C90D002920D00A46103A50B26B
:10ACF00000280DDA0E4B1C330407240F083CA4086F
:10AD0000A4001B598407E40EE3401B069B0F0BE0D5
:10AD1000084B032424021B198408A4001B59840730
:10AD2000E40EE3401B069B0FD8B210BD0420FCE7E5
:10AD300000ED00E000E100E010B514484068C105F6
:10AD4000C90D002920D00A46103A50B200280DDA69
:10AD50000E4B1C330407240F083CA408A4001B5905
:10AD60008407E40EE3401B069B0F0BE0084B032413
:10AD700024021B198408A4001B598407E40EE34035
:10AD80001B069B0FD8B210BD0420FCE700ED00E0CD
:10AD900000E100E010B514484068C105C90D002964
:10ADA00020D00A46103A50B200280DDA0E4B1C3360
:10ADB0000407240F083CA408A4001B598407E40ED0
:10ADC000E3401B069B0F0BE0084B032424021B19D6
:10ADD0008408A4001B598407E40EE3401B069B0F64
:10ADE000D8B210BD0420FCE700ED00E000E100E077
:10ADF00070B53148068815E0142070432F4940187B
:10AE0000006900280DD1142171432C4A88180021B3
:10AE100007F078F928480088401C27490880B0B21C
:10AE200070BD761C022EE7D3254804680CE000BFF5
:10AE30000A20604323494018C0884404640C00BFC2
:10AE4000032C01D10220EBE70A2060431D49401882
:10AE500000890228EBD00A2060434018C088C00B4C
:10AE60000028E4D10A2060434018058900BF022D64
:10AE700001D2012000E000200646002E05D100BFCF
:10AE800011A28E21FEF7FAF800BF00BF02210A20AE
:10AE900060430C4A8018018114216943074A8818CD
:10AEA00000F026F814216943044A8818002107F0AD
:10AEB00029F9A8B2B4E700006C2100203C32002040
:10AEC000682100201C3200202E2E5C2E2E5C2E2E9F
:10AED0005C7262635F6D6573685C7372635C68610A
:10AEE0006E646C655F73746F726167652E630000DA
:10AEF00010B50446002C00D110BD2069002804D0F4
:10AF0000206902F0FBF900202061204607F093F849
:10AF100000BFF1E7F8B5002535E0E8001C490968F5
:10AF2000441821780120884006461A4800683040BD
:10AF3000002826D017480068B043164908602078DA
:10AF400002F098FD074621780120884012490968DF
:10AF50000840227839469140884211D16078012812
:10AF600000D100E000207840012148400090606856
:10AF7000002804D0009BD9B220786268904700BFB7
:10AF800000BF681CC5B2054800788542C5DBF8BD26
:10AF9000BC210020D0210020CC210020C021002095
:10AFA00010B504460F49104800F004FA002817D1E4
:10AFB0000C4840780D4908600A48401C0C4908605C
:10AFC00000200C49C86101200B49886008480068CE
:10AFD00000780A49C86106480068401C04490860B6
:10AFE00010BD0000A02B0020502A0020442100208A
:10AFF00048210020002100400020004000250040A2
:10B00000014614480078144A127890421DD0114825
:10B010000078401C0F4A107010460078022801D1B9
:10B02000002010700B48007880000C4A105808600F
:10B030000B4A086812688018094A106010460068B8
:10B040000002000A1060012070470020086000BF65
:10B05000FAE700000422002005220020FC21002045
:10B06000F82100200121014A11707047FF200020C3
:10B0700010B506490968064A126851430846054951
:10B08000FDF72AFA7D21C900401810BDF0200020EC
:10B090000421002040420F000146072912D008DC9D
:10B0A00000290DD0022913D0052915D0062917D162
:10B0B0000CE0082908D009290CD0112910D10DE085
:10B0C000002070478520FCE78320FAE78220F8E71C
:10B0D0008620F6E78420F4E79020F2E78620F0E768
:10B0E0008020EEE70121002001F0E4F8012108466C
:10B0F00001F0E0F80121022001F0DCF80121032039
:10B1000001F0D8F872B600E020BFFDE730B585B099
:10B1100004466946204600F04DF90546002D05D14C
:10B120006846FEF7C5FB012005B030BD0020FBE7F7
:10B13000EFF31080C107C90F72B6094802680068B2
:10B14000401C074B1860002A06D1122001228240C1
:10B15000044B1A6000BF00BF002900D162B67047DF
:10B160005821002080E100E010B5EFF31080C40703
:10B17000E40F72B606480068401E054908600028C2
:10B1800002D11220FDF70EFC002C00D162B610BDDA
:10B190005821002010B514480078002800D010BDB8
:10B1A0000820124988601248086014204860002076
:10B1B0004861084600F09DF808200E4988600E4856
:10B1C00008601420486000204861084600F091F8AB
:10B1D0001220FDF7E7FB03211220FDF75BFC0120A5
:10B1E0000149087000BFDAE754210020F02B00204D
:10B1F000082C0020A82C0020C02C002010B50748E7
:10B2000000F088F8002804D0054800F083F80028F2
:10B2100002D11220FDF7EEFB10BD0000F02B002044
:10B22000A82C002070B50446002C01D10E2070BD62
:10B23000002620780300FDF7BDFD0509070405067B
:10B240000B0000BF00BF00BF0A4E03E00A4E01E042
:10B250000720ECE700BF2146304600F0DCF8054649
:10B26000002D01D02846E2E71220FDF7C3FB0020A5
:10B27000DDE70000F02B0020A82C0020F0B50346ED
:10B28000002426E0164E366824277E43154F3F687B
:10B29000F01946689E4203D94668F61A46601DE0DA
:10B2A00046689B1B466834190026466006750C4E9E
:10B2B00035680B4F066A3E600669002E08D00E19ED
:10B2C0003602360A86600669C66016680662156030
:10B2D00000BF03480068401C0028D3D100BFF0BD68
:10B2E000F4210020E821002001460A69C868801A7C
:10B2F0007047202100BF4B1E19468268DA40D207F2
:10B30000D20F002AF7D001228A4082600022C26058
:10B31000026170470146CA680869904201D1012064
:10B3200070470020FCE701468A6808698018CA68EF
:10B33000904201D1012070470020FCE770B504461F
:10B340000D4600222946204600F001F870BDF8B5F0
:10B3500004460D461646002D01D10E20F8BDEFF330
:10B360001080C707FF0F72B62046FFF7BDFFB0423F
:10B3700004D8002F00D162B60E20EFE720698019B3
:10B38000A168491E08406168484321684018009040
:10B390006069002804D0626928460099904704E05B
:10B3A000626828460099FDF71DF8002F00D162B6AB
:10B3B0000020D3E7F8B504460D46EFF31080C6072A
:10B3C000F60F72B6E1682069884204D1002E00D1E0
:10B3D00062B60E20F8BD002D15D0A168491E206967
:10B3E000084061684843216847186069002804D014
:10B3F000394628466269904704E039462846626823
:10B40000FCF7F0FF00BF2069401C2061002E00D136
:10B4100062B60020DEE7F8B504460E46002E01D1E4
:10B420000E20F8BDEFF31080C507ED0F72B6A168CE
:10B4300020694018E168884204D1002D00D162B62D
:10B440000420EEE7A168491EE068084061684843AF
:10B45000216847186069002804D03146384662697F
:10B46000904704E0314638466268FCF7BBFFE0686D
:10B47000401CE060002D00D162B60020D1E7000042
:10B4800030B585B005461F484068002801D005B09A
:10B4900030BD27E01B4804680120694608706068D9
:10B4A0000190E168039102956846FFF7BBFE002812
:10B4B00000D0ECE713492069086000202061A068F3
:10B4C00000280ED000BFA1682068401820602846E0
:10B4D00064302168081A0C498842F4D82046FDF7E8
:10B4E00083FC00BF07480068002808D005480068B2
:10B4F000016828466430081A03498842CAD800BF48
:10B50000C5E7000074210020FFFFFF7F10B5152064
:10B51000182108E0032205231B07072424021B1916
:10B5200084001A51401C8842F4D900BF002404E072
:10B530002046153003F01EFA641C042CF8D31620A4
:10B5400003F000FA0D2003F0C8F90D2003F0FAF91A
:10B550000E2003F0C2F90E2003F0F4F91A2003F0D4
:10B56000BCF91A2003F0EEF91B2003F0B6F91B20FA
:10B5700003F0E8F90B2003F0B0F90B2003F0E2F937
:10B580000C210320820005231B07072424021B191A
:10B590008C001A5100BF10BDF8B505460F460120BA
:10B5A000A840044618480068FEF79EF80646002E9C
:10B5B00000D0F8BD15480068204000281DD128465D
:10B5C00002F058FA002805D01148006820431049BD
:10B5D000086004E00E480068A0430D4908600B486D
:10B5E000006820430949086000220A4801680648AB
:10B5F0000068FEF743F8064604E004480068A043EC
:10B600000249086000BFD4E7C8210020D0210020F3
:10B61000CC210020C4210020014601208840704731
:10B6200070B505460E46FFF783FD002E14D01D4869
:10B630000088A84210D11C48008803280CDA1A4858
:10B6400000880A2148431949085AA84204D1FFF743
:10B650008BFD1548008870BD1548008884B210E045
:10B6600014480068A04203D1FFF77EFD0320F2E7F3
:10B6700000BF0A2060430D49401880884404640CD0
:10B6800000BF0A2060430949085AA842E8D1002EA9
:10B6900003D00448058004480480FFF765FD204678
:10B6A000D9E70000702100206E2100201C3200200C
:10B6B000642100206821002070B50546012128463C
:10B6C000FFF7AEFF0446032C43D18348008884B2C1
:10B6D0000CE000BF0A20604380494018C088440441
:10B6E000640C00BF032C01D1204670BD0A206043CA
:10B6F0007A494018C088C00B0028EAD10A2060436C
:10B700000D520A206043401880880121C9038843F4
:10B710000A216143714A8918888000210A20604308
:10B72000801841800A206043114640180089022891
:10B730000FD00A2161438918098914225143684AAC
:10B740008818FFF7D5FB02210A206043634A80185E
:10B75000018161480068844225D0624800688442C3
:10B7600037D00A2060435D49401880884004400C6F
:10B770000A21484359494018C088C00BC0030A2118
:10B780006143564A8918C9884904490C08430A216B
:10B790006143891889884904490C0A2251434F4A58
:10B7A0008918C88015E00A2060434C494018C088B9
:10B7B0004004400C484908600A206043474940184B
:10B7C0008088C00BC003C01C0A216143434A89180A
:10B7D00088804448006884425AD00A2060433F4928
:10B7E0004018C0884004400C03281FD00A20604342
:10B7F0004018C0884004400C0A214843374940188B
:10B800008088C00BC0030A216143344A89188988A3
:10B810004904490C08430A2161438918C98849042D
:10B82000490C0A2251432D4A891888800A20604316
:10B830002A494018C088C00BC003C01C0A216143BC
:10B84000264A8918C8800A2060431146401880881B
:10B85000C00BC003234909884904490C08430A2145
:10B860006143891888801F4800680A2148431146AF
:10B870004018C088C00BC0036104490C0843194933
:10B8800009680A225143154A8918C880154804607E
:10B89000144800680A21484310494018C088C00B6A
:10B8A000C003C01C0F4909680A2251430B4A89187A
:10B8B000C880094800680A2148431146401880881A
:10B8C000C00BC003C01C044909680A225143034A43
:10B8D00089188880204608E7682100201C32002053
:10B8E0003C32002064210020F8B507460E4615467C
:10B8F000032E01DB0720F8BD002D01D10E20FAE751
:10B900001748874201D11020F5E7FFF711FC00210D
:10B910003846FFF785FE0446032C03D1FFF724FCCD
:10B920000520E8E7002E02D0012E10D107E00A2002
:10B9300060430C494018C088C00B28700BE00A20F7
:10B940006043084940188088C00B287003E0FFF767
:10B950000BFC0720CFE700BFFFF706FC0020CAE77B
:10B96000FFFF00001C320020F7B582B00E461546DE
:10B97000032E02DB072005B0F0BD6649029888421D
:10B9800001D11020F7E701210298FFF749FE044694
:10B99000002E04D0012E1FD0022E6ED139E0032CD0
:10B9A00007D10298FFF788FE0446032C01D104203A
:10B9B000E1E70A20604358494018C0880121C903C3
:10B9C0008843E9030122D203114008430A2161435D
:10B9D000514A8918C88099E0032C07D10298FFF7D3
:10B9E0006BFE0446032C01D10420C4E70A20604307
:10B9F0004949401880880121C9038843E90301228D
:10BA0000D203114008430A216143434A89188880C0
:10BA10007CE0002D18D0032C01D10020ABE70A20D8
:10BA200060433D4940180089022801D10020A2E767
:10BA30000A216143384A8918098914225143374A37
:10BA4000881806F0F5FA5EE00020019001A801F0E8
:10BA50005BFB002801D104208DE70020034602464D
:10BA600000900299019801F0E1FB0746002F05D0F4
:10BA7000019801F043FC38467DE745E0032C04D1F2
:10BA8000019800F0E7FE002075E70A206043224994
:10BA90004018008902280FD1FFF7AAF90A21614353
:10BAA0001D4A891808810A20604311464018008900
:10BAB000022801D104205EE70A206043164940189D
:10BAC000008914214843154940180069002803D013
:10BAD000019801F013FC0AE00A2060430E4A801826
:10BAE0000089142250430D4A8018019901610A21EE
:10BAF0006143094A8918098914225143074A881861
:10BB000006F099FA00BF01E0072034E700BF0020EB
:10BB100031E70000FFFF00001C3200203C32002013
:10BB200070B586B004460E4615460421684601717C
:10BB3000048101A88671C571FFF774FB06B070BD62
:10BB400070B506460D46002D01D10E2070BD0020B7
:10BB5000286068601D48864201D11020F6E7FFF793
:10BB6000E7FA00213046FFF75BFD0446032C03D1C2
:10BB7000FFF7FAFA0520E9E70A2060431449401864
:10BB8000408828800A20604340180089022818D085
:10BB90000A2161430E4A89180989142251430D4A2A
:10BBA0008918086901F0F4FB00280AD00A206043D4
:10BBB0000749401800891421484306494018006984
:10BBC0006860FFF7D1FA0020C0E70000FFFF000027
:10BBD0001C3200203C320020F8B507460E46002EED
:10BBE00001D10E20F8BD2A48874201D11020F9E783
:10BBF00001213846FFF714FD0446032C07D13846CF
:10BC0000FFF75AFD0446032C01D10420EAE70A207D
:10BC10006043204940180589022D0BD1FFF7E8F851
:10BC20000546022D01D10420DCE70A2060431949B2
:10BC30004018058105F0F4FC14216943164A009070
:10BC40008818009906F05EFA31880A206043114A8C
:10BC500080184180142068430F494018006900286B
:10BC600006D0142169430C4A8918086901F046FB83
:10BC7000706801F08DFB0A206043064A8018008935
:10BC800014225043044A8018716801610020A9E71A
:10BC9000FFFF00001C3200203C32002070B505463A
:10BCA000FFF746FA284600F0AFF80446002C03D010
:10BCB000FFF75AFA204670BD002006E0002214214A
:10BCC00041433E4BC9180A61401C0228F6D30020AC
:10BCD00046E00022D2430A214143394B5A52002206
:10BCE0000A214143C9184A800A2141431A4689184A
:10BCF000C9880122D20391430A224243D218D1803B
:10BD00000A2141431A46891889880122D2039143A6
:10BD10000A224243D218918002220A214143C918C3
:10BD20000A810A2141431A468918C988C90BC903E7
:10BD3000421E5204520C11430A224243D218D180AF
:10BD40000A2141431A4689188988C90BC903421C34
:10BD50005204520C11430A224243D2189180401CD3
:10BD60000328B6D30020174908600220164908604E
:10BD7000144800680A21484311494018C088C00B84
:10BD8000C003C01C0F4909680A2251430C4A891894
:10BD9000C8800D4800680A21484311464018808831
:10BDA000C00BC003C01C084909680A225143044A59
:10BDB00089188880FFF7D8F900207CE73C32002002
:10BDC0001C320020642100206821002030B585B09D
:10BDD0000446002C02D10E2005B030BD0220694679
:10BDE0000870029407480190204601F0D1FA684695
:10BDF000FFF718FA0546002D02D0204601F07EFA22
:10BE00002846E9E755C8010010B5044607488442B2
:10BE100002D30748844201D9072010BD0322012123
:10BE2000C902204606F058F90020F6E78813000002
:10BE30000087930370B50546002600202870002473
:10BE40001FE014216143114A881806F017F90028F1
:10BE500016D0142060430D494018006900280FD007
:10BE60002878002806D0142060430858801B084911
:10BE7000884205D9012028701420604303490E58D8
:10BE8000641C022CDDD3304670BD00003C32002023
:10BE9000FFFFFF7FF8B506460F461048864201D1E6
:10BEA0001020F8BD01213046FFF7BAFB0446032CF1
:10BEB00001D10520F5E70A206043094940180589AA
:10BEC000022D01D10520ECE714216943054A8818A9
:10BED000394606F0DBF80020E3E70000FFFF000032
:10BEE0001C3200203C320020F8B506460F461048B0
:10BEF000864201D11020F8BD01213046FFF790FBAA
:10BF00000446032C01D10520F5E70A2060430949C6
:10BF100040180589022D01D10520ECE71421694361
:10BF2000054A8818394606F0C5F80020E3E7000006
:10BF3000FFFF00001C3200203C320020F8B506460E
:10BF40000F461048864201D11020F8BD012130462D
:10BF5000FFF766FB0446032C01D10520F5E70A2014
:10BF60006043094940180589022D01D10520ECE7FD
:10BF700014216943054A8818394606F0DBF8002089
:10BF8000E3E70000FFFF00001C3200203C320020ED
:10BF9000F7B582B004461546002600275DE004E0B0
:10BFA00030480088801E2F4908802E4800880228CB
:10BFB000F6DA2C480088142148432B4940180069C0
:10BFC000002844D02749098814225143264A88185A
:10BFD00006F054F800283AD022480088142148433B
:10BFE00021490858201A2149884230D8002101915E
:10BFF0001C490988142251431B4A8818224601A96A
:10C0000006F0AEF86846007900281FD01549098867
:10C0100014225143144A8918086901F0B9F91148EA
:10C020000088142148431049401802693046761CA4
:10C030008100039842502868B04207D1094800881F
:10C04000401C08490880002005B0F0BD00BF05482D
:10C050000088401C034908807F1C022F9FD32E605C
:10C060000020F1E7722100203C320020FFFFFF7F1B
:10C0700010B5044602F0FEFC10BD0000F8B52948DA
:10C080000078002800D1F8BD27480068002801D1B9
:10C09000012000E00020054624480068002801D166
:10C0A000012000E00020064600BF002D14D16846A4
:10C0B00051DF0446052C01D101250CE0002C06D0EF
:10C0C00000BF1B4A65212046FCF7D8FF03E0164954
:10C0D00000980968884700BF002E1AD115480088CB
:10C0E000009069461448006861DF0446052C01D1C0
:10C0F00001260DE0002C06D000BF0D4A7C21204611
:10C10000FCF7BCFF04E00C48006808490968884750
:10C1100000BF002D02D0002E00D000E0C5E700BF18
:10C1200000BFB0E7A8210020B8210020B4210020E2
:10C13000102C0200B0210020AC21002010B50446D4
:10C14000204601F02BFF044909680840002801D06F
:10C15000012010BD0020FCE78421002010B504461A
:10C160002046FFF759FA044909780840002801D011
:10C17000012010BD0020FCE78821002070B5044696
:10C18000204601F00BFF0546FDF788FB70BD10B59A
:10C1900004462046FFF740FA8007800F002801D0B0
:10C1A000012010BD0020FCE70C48008CC0B2012823
:10C1B00012D10A48808C0007000F00280CD10748D4
:10C1C000806AF0210840402806D10448C06A08402F
:10C1D000002801D1012070470020FCE7C00F00F0CB
:10C1E0001948008CC0B201282CD11748808C000758
:10C1F000000F002826D11448806AF021084000284A
:10C2000006D11148C06A0840002801D101207047BA
:10C210000D48806AF0210840102806D10A48C06AFB
:10C220000840002801D10120F1E70748806AF02189
:10C230000840302806D10448C06A0840002801D1CF
:10C240000120E4E70020E2E7C00F00F010B504464B
:10C25000204601F0A3FE8004800C002801D00120BC
:10C2600010BD0020FCE7000070B50646304606F021
:10C2700011F8162002F066FB0022094909480068FF
:10C28000FDF7FCF9044600BF2546002D06D000BF8F
:10C2900005A2FF215D312846FCF7F0FE00BF70BD0E
:10C2A00066060000082000202E2E5C6D61696E2E4F
:10C2B00063000000002906D1024615320123934095
:10C2C000044A936005E00246153201239340014A77
:10C2D000D36070470005005010B504461D48007833
:10C2E000002835D01B480078012831D01948007843
:10C2F00002282DD017480078032828D115488079C6
:10C30000002812D0134841884088401E114A5080AE
:10C3100000291DD1162002F02DFB00200D49887147
:10C32000642088800120488012E00A488188808843
:10C33000401E084A908000290AD1162002F002FB14
:10C3400001200449887148806420888000E000BF93
:10C3500010BD00004A20002070B50646162002F0ED
:10C3600009FB002017498871032008703C20888051
:10C37000012048800022144914480068FDF77EF926
:10C38000044600BF2546002D06D000BF10A2FF21A5
:10C39000EB312846FCF772FE00BF0022FF218A31F4
:10C3A0000E480068FDF76AF9044600BF2546002DD7
:10C3B00006D000BF06A2FF21ED312846FCF75EFE45
:10C3C00000BF70BD4A2000200A1700001420002082
:10C3D0002E2E5C6D61696E2E630000001820002017
:10C3E00010B5084801F04AFA152002F0ABFA162001
:10C3F00002F0C0FA172002F0A5FA182002F0A2FA03
:10C4000010BD0000DC05000010B5044605480078AA
:10C41000C007C00F002803D003480078FDF71EFFB7
:10C4200010BD0000802000207820002070B5064656
:10C43000082001F03DF911490860084605681048D8
:10C4400045437D2109012846FCF746F80546E9B237
:10C450000C48FDF785FC0446002C0ED0082C0CD0AF
:10C460000948844209D00948844206D000BF08A286
:10C47000034988312046FCF701FE70BD3C200020B6
:10C480000F02000070220020043000000134000080
:10C490002E2E5C6D61696E2E63000000F0B591B0C8
:10C4A00004460D46207D002819D00020099000BFC9
:10C4B00008A8007901090901491C08A8017100793F
:10C4C000F0218843103008A9087100BF697B08A8D3
:10C4D0004171807906218843801C08A988711C213C
:10C4E0000AA8FBF7DEFF08A8007A02218843811C16
:10C4F00008A80172007A10218843217D002901D00B
:10C50000012100E00021090110221140084308A97F
:10C51000087200200B900D900E90207D002801D015
:10C5200009A800E000200F900020109000BF01211A
:10C53000684681734949818100BF00200290A97B30
:10C5400068460172E97B4172807A06218843811C2A
:10C5500068468172807A0821884301466846817264
:10C56000807A10218843014668468172807A4108AA
:10C57000490068468172297B0191142104A8FBF7C8
:10C5800090FF03A8049002A805900121684601834A
:10C59000002141830121818301A80890A088A31D67
:10C5A00004AA0AA9A2DF0646002E02D0304611B026
:10C5B000F0BDA86800284DD000BF012168468173F6
:10C5C0002749818100BF00200290287C69460872BB
:10C5D00000BF6846407A0109090168464172407A05
:10C5E000F02188436946487200BF6846807A062178
:10C5F0008843811C68468172807A082188430146FD
:10C6000068468172807A10218843014668468172AB
:10C61000807A4108490068468172A968FDF7EAFB03
:10C620000746142104A8FBF73CFF03A8049002A8C6
:10C6300005906846078300214183018B8183089020
:10C64000E08822460E3204A9A3DF0646002E03D05E
:10C650003046ACE70020E0810020A8E7AB550000A1
:10C6600008290000FEB52B48006801902A48007890
:10C67000009040E00098C0002849096844182578D7
:10C6800035E01820684361680F18681CC5B2A078AF
:10C69000A84200D100253878022802D0032823D1EF
:10C6A0000EE02421786848431D4909684618307D0A
:10C6B000002804D0786804F03BFF0020307514E0B7
:10C6C0000CE01449096824225143154A126888185D
:10C6D000002101750F4A016A116000BF0D48006812
:10C6E000401C0028EDD100E000BF00BF00BF607813
:10C6F000A842C6D100BF0098411EC9B200910028CF
:10C70000B8D1044801680198814201D00120FEBDE2
:10C710000020FCE7F4210020EC210020F021002083
:10C72000E8210020FEB507464348006802904348D0
:10C730000078019071E00198C000414909684518EE
:10C7400063E0781C002807D03E46242070433D4912
:10C7500009684418276A29E02978182359436A6828
:10C7600050182978491C29702978AA78914201D15A
:10C7700000212970466824217143324A12688C18BE
:10C780000178012902D1217D002900D03DE0816896
:10C79000A160C168E160016921614169E1612A49E3
:10C7A0000978002901D00021A16000BF2749A068B5
:10C7B0000968401A0002000A2549884208D2234924
:10C7C000A068096804F026FDE1684018606011E087
:10C7D0001E48A168006804F01DFD0090E168009803
:10C7E000814204D9E1680098081A606001E00020E5
:10C7F000606000BF0020A060E06001202075801E06
:10C800002062304604F026FE00BF781C002898D134
:10C8100028786978884294D100BF0198411EC9B236
:10C820000191002887D1044801680298814201D013
:10C830000120FEBD0020FCE7F4210020EC210020B7
:10C84000F0210020E82100200D220020F821002006
:10C85000FFFF7F00FEB505462E46304600F096FCF1
:10C860000446002C29D0E079A179000208436946EA
:10C870000880019661792279090211430846012155
:10C88000FEF7CEFE0746032F09D00A2078430D4954
:10C890004018408869460880684605F04DFE6846A5
:10C8A0000088A071000AE0716179227909021143C0
:10C8B00008466946FFF790F900BF304600F01EFDBC
:10C8C000FEBD00001C320020F8B5064613246000AF
:10C8D0001C49085A07B2B74205DD201F64214843AE
:10C8E00005B22846F8BD00BF601E04B260001549BD
:10C8F000085AC01907B2B7421FDDB81B642148436C
:10C9000005B260000F4A115A2846FBF7EFFD05B249
:10C91000042C06DB201F6421484345196D046D0C6F
:10C9200009E0642060434519FF209130451B012038
:10C93000C003284305B22846D4E7002CD4D1024DC9
:10C940002846CFE7F02A02009081FFFF8EB0FEF765
:10C95000DDFDFFF745FD05F0A9F8FDF773FFFDF7D5
:10C96000F3FEFCF735FAFDF72DFF00BF0023482248
:10C970003849052004F0F0F8054600BF2E46002E89
:10C9800005D000BF34A237493046FCF777FB00BF23
:10C9900000BF354804F0D4F8344804F011F900F031
:10C9A000B0F83348099064200B90262108A8017242
:10C9B00005200C90002108A801750D98009009A889
:10C9C0000FC803F0ABF8044600BF2546002D06D083
:10C9D00000BF21A2234914312846FCF74FFB00BFBA
:10C9E000002510E0A8B203F0ADF9044600BF2646CA
:10C9F000002E06D000BF18A21A491A313046FCF7A3
:10CA00003DFB00BF6D1C022DECD300F0A7FE00BF64
:10CA100000F0ADF80546002D06D000BF0EA211496A
:10CA200020312846FCF72AFB00BF03F0B5FEFCF7D7
:10CA3000BDFAFCF7A1FE0BE002A802F0E5FF00281A
:10CA400005D102A802F0F6FF02A803F047F848DF7C
:10CA5000F2E700001C2800202E2E5C6D61696E2E0E
:10CA6000630000007B040000FDFF01008DFC01005D
:10CA7000D6BE898EF8B505460E4614462879801C28
:10CA8000C7B22078801CC0191F2801DD0C20F8BD1A
:10CA9000781CC1B22278501C2070B154FF2122783A
:10CAA000501C2070B15422789119288805F0E9FBB8
:10CAB000217840182070A88800280EDDA86800287A
:10CAC00001D10720E3E7AA8823789819A968FBF722
:10CAD00089FC20782979401820700020D7E700B51C
:10CAE00089B002E001A803F092FA01A803F02EFD3C
:10CAF0000028F7D109B000BD10B50446FFF7EFFFDD
:10CB000010BD10B5FEF746FB03F078FD10BD10B563
:10CB100088B00446207800280ED0012804D00228CE
:10CB200006D0042810D10BE0B520694648700CE00F
:10CB3000B3206946487008E0B4206946487004E0B4
:10CB4000B6206946487000E000BF00BF207BC01CD3
:10CB5000C1B268460170A1884180227B01A8A1680A
:10CB6000FBF740FC684603F023FD08B010BD00B59C
:10CB700089B00421684601718121417102218171CE
:10CB80003DDF082100980840C10801A8C17003F0EA
:10CB900007FDC1B201A8017103F00AFD002802D10E
:10CBA000042009B000BD0020FBE7704730B587B016
:10CBB00004460D461121684601704470857000F0EE
:10CBC00003F807B030BD000030B587B004462548F3
:10CBD00000882549884202D1244807B030BD244846
:10CBE0008078002802D12148401EF6E706A862DFBF
:10CBF000C5B2002D01D01120EFE76846007E002865
:10CC000002D11A48801CE8E71948818968460181E9
:10CC10000121817200218181207802280FD004DC5B
:10CC2000002807D0012811D108E011280BD01228C4
:10CC30000CD105E0E078001D01900AE000BF00BFC4
:10CC40000520019005E00320019002E00120019001
:10CC500000BF00BF01A80490059402A90148008804
:10CC6000A6DFBAE732210020FFFF000002300000FB
:10CC7000242A0020F0B585B005460E4617460195DA
:10CC80000297684606730121817012490180124A99
:10CC900069460120A0DF0446002C02D0032005B025
:10CCA000F0BD0E490E4863DF0446002C01D020463B
:10CCB000F5E701A800F082F90446002C01D02046D7
:10CCC000EDE700F0D3FB0446002C01D02046E6E758
:10CCD0000020E4E7E4FE0000242A002030210020A8
:10CCE000C82B0200F0B589B00546288850287DD1B0
:10CCF000E8889B498989884279D12C46203420785C
:10CD0000002804D0012841D0022871D190E0A178F8
:10CD10006278080210439349884204D12078F221B6
:10CD2000FFF744FFECE0E278A37867781902394313
:10CD30000846211D05F042FC0646002E21D1694619
:10CD40000872201D0490E17802A80173A17862782E
:10CD50000802104369468881012102A8C18204F0BB
:10CD60005FFC089002A802F081FE002804D0207821
:10CD7000F021FFF71BFF03E020788021FFF716FF6B
:10CD800003E02078F021FFF711FFB9E0E0780028F8
:10CD900002D0012845D118E02279002A01D00122D1
:10CDA00000E000221146A37866781802304305F0AF
:10CDB0006FFE002804D02078F221FFF7F7FE35E05F
:10CDC00020788021FFF7F2FE30E02079002815D08E
:10CDD000A278637811021943084605F0BFFD0028C8
:10CDE00007D02078F221FFF7E1FE1FE0A8E089E0FC
:10CDF00081E020788021FFF7D9FE11E0A2786378E6
:10CE000011021943084605F08BFD002804D0207854
:10CE1000F221FFF7CBFE09E020788021FFF7C6FE64
:10CE200004E02078F321FFF7C1FE00BF00BF67E0F8
:10CE3000E078002802D0012856D131E0A17862784C
:10CE4000080210434749884204D12078F221FFF7B5
:10CE5000ADFE4EE000200890A278637811021943DD
:10CE6000084608A905F0F6FD002804D02078F12135
:10CE7000FFF79CFE3DE0122168460171A1786078C1
:10CE80000902014368464171090A8171E17801A8EC
:10CE9000C17008A8017801A80171FFF795FE28E08C
:10CEA000A278637811021943084608A905F0ACFD81
:10CEB000002804D02078F221FFF778FE19E0122133
:10CEC00068460171A17860780902014368464171A2
:10CED000090A8171E17801A8C17008A8017801A848
:10CEE0000171FFF771FE04E02078F321FFF75EFE89
:10CEF00000BF00BF04E02078F421FFF757FE00BF19
:10CF000000BF2BE0E88816498988884209D12C4661
:10CF10002034217A206804F011F8606805F082FB63
:10CF20001CE0E9880E48008A814217D12020405D2C
:10CF3000002801D0012000E00020094988700DE0A0
:10CF40002888102803D1A8880749088006E0288887
:10CF5000112803D10020C0430349088009B0F0BD67
:10CF6000242A0020FFFF00003221002070B588B085
:10CF700005460E461446172C02DD092008B070BD88
:10CF80000B4800880B49884210D000216846017187
:10CF90004571290A817101A8C4702246314602A850
:10CFA000FBF720FA01A8FFF70FFEE7E70248E5E7E5
:10CFB00032210020FFFF00000230000030B593B0A6
:10CFC00004460020129000BF10A8007A0109090150
:10CFD000491C10A80172007AF0218843103010A972
:10CFE000087200BF00BF10A8407A01090901491C5E
:10CFF00010A84172407AF0218843103010A948727D
:10D0000000BF10A8807A06218843811C10A8817275
:10D010001C210BA8FBF745FA08A8007B02218843D6
:10D02000811C08A80173007B10218843411808A8BF
:10D03000017300200E9012A8109000200C900F9009
:10D040000A9008A8007AF02188430146103108A808
:10D050000172007A01090901491C08A80172407A8D
:10D06000F02188430146103108A84172407A010935
:10D070000901491C08A84172807A082188430146A9
:10D0800008A88172807A10218843014608A881721D
:10D09000807A4108490008A88172807A0621884375
:10D0A000811C08A881721648017808A881710421A2
:10D0B000684681842068069060680790217A08A8F5
:10D0C0000170142101A8FBF7ECF909216846818160
:10D0D0000021C1810921018209A8019006A80590BB
:10D0E0000AA80290074908880B1D01AA0BA9A2DF14
:10D0F0000546002D02D0032013B030BD0020FBE711
:10D1000030210020242A002070B50546002119E0B6
:10D11000EFF31080C407E40F72B61148405C00289A
:10D120000CD101200E4A5054282048430D4A801843
:10D130002860002C00D162B6012070BD002C00D107
:10D1400062B6491C1D29E3D300BF042600BF06A216
:10D1500044210420FBF792FF00BF00BF0020ECE752
:10D16000FC310020742D00202E2E5C2E2E5C2E2EE5
:10D170005C7262635F6D6573685C7372635C6D653E
:10D1800073685F7061636B65742E63000246002AEA
:10D1900000D17047114609315078062802DD5078D9
:10D1A000252801DD0020F4E70FE00B781046093058
:10D1B000081A1B185078801F834201D90020E8E725
:10D1C0000878401C4301181A091848781628ECD131
:10D1D000C8788B7800021843024B9842E5D1084684
:10D1E000D7E70000E4FE000030B504462046FFF714
:10D1F000CDFF0546002D01D10B2030BD2046093062
:10D2000085420ED02878401CC1B2002004E02B5C7F
:10D21000224609321354401C8842F8D3254609356A
:10D2200000BF2878C01D60700020E6E7FFB581B020
:10D2300005461F460A9E002D02D10E2005B0F0BD06
:10D240002C460934172E01DD0920F7E7284600F0A7
:10D25000E3F830460E306870287800090001801C21
:10D260002870F01D2070162060700D48A070000A14
:10D27000E07002982071000A60710398A071000AA2
:10D28000E071002E09DD002F07D0172E05DC324695
:10D29000394620460830FBF7A5F80020CEE700000D
:10D2A000E4FE000002461146093110E048781628D5
:10D2B00006D1C8788B7800021843094B984201D0F8
:10D2C000012070470878401C4301181A091850784B
:10D2D000C01F13460933C0188842E7D80020F0E782
:10D2E000E4FE0000002003E00021034A1154401C2A
:10D2F0001D28F9D370470000FC310020F8B5064620
:10D300001849701A2821FBF7E7F804461D2C01D3B1
:10D310000020F8BDEFF31080C507ED0F72B612487C
:10D32000005D00280ED100BF082700BF0FA27621A4
:10D330000820FBF7A3FE00BF00BF002D00D162B69E
:10D340000020E6E70848005D401E07490855002D0B
:10D3500000D162B60448005D002801DD0120D8E755
:10D360000020D6E7742D0020FC3100202E2E5C2EEC
:10D370002E5C2E2E5C7262635F6D6573685C7372E7
:10D38000635C6D6573685F7061636B65742E6300C9
:10D39000F8B505461549681A2821FBF79DF804469B
:10D3A0001D2C01D30020F8BDEFF31080C607F60F47
:10D3B00072B60F48005D002803D00D48005DFF28BD
:10D3C00009D100BF042700BF0AA262210420FBF795
:10D3D00055FE00BF00BF0648005D401C04490855CB
:10D3E000002E00D162B60120DDE70000742D002080
:10D3F000FC3100202E2E5C2E2E5C2E2E5C72626381
:10D400005F6D6573685C7372635C6D6573685F7094
:10D4100061636B65742E63007CB50446684671DFFA
:10D420000546002D01D028467CBD20784021884348
:10D43000694609788901402211400843207006227C
:10D4400000A90131E01CFAF7CDFF0020ECE710B590
:10D4500004462046FFF726FF002802D02046FFF7AB
:10D46000C3FE2046FFF7D8FF10BD000010B590B0F6
:10D470001C2109A8FBF715F808A8007904218843A6
:10D48000011D08A80171007910218843411808A8DE
:10D49000017100200E900F900A900D90089008A83E
:10D4A0004078F02188430146103108A84170407847
:10D4B00001090901491C08A84170807806218843A8
:10D4C000811C08A88170807808218843014608A83B
:10D4D0008170807810218843014608A88170807887
:10D4E00041084900491C08A8817014480178684621
:10D4F00081770521818300210191142102A8FAF787
:10D50000D0FF012168460182002141821B218182D6
:10D5100008A8039007A8029001A806900849088867
:10D520000B460C3302AA09A9A2DF0446002C02D044
:10D53000032010B010BD0020FBE7000030210020C8
:10D54000242A002070B50646304604F0A3FE1620BB
:10D5500001F0F8F90022144914480068FCF78EF82D
:10D56000044600BF2546002D06D000BF10A2FF21B3
:10D5700065312846FBF782FD00BF1048002101807D
:10D5800002460F490F480068FCF778F8044600BFD0
:10D590002546002D06D000BF05A2FF21693128468F
:10D5A000FBF76CFD00BF70BD48E101000C200020BE
:10D5B0002E2E5C6D61696E2E6300000052200020EB
:10D5C000E10A000010200020F7B584B004460F46A1
:10D5D00006980678B01C1F2803DC6078801C1F2882
:10D5E00002DD0C2007B0F0BD1F20801B801E85B21D
:10D5F0000295B11C781802A97DDF039003980028DA
:10D6000001D00398EEE72078022808D16846008907
:10D61000A84204DC09200190684605890BE0082037
:10D6200001906078002804D06078A84201DC657819
:10D6300001E068460589681CC2B23046711CCEB252
:10D640003A543046721CD6B2019939540698017882
:10D65000A81C0818C1B2069801700020C2E700009B
:10D6600070B50446002520788007800F0543607858
:10D6700080001C210840054360684001602108408B
:10D680000543C90260680840002802D0606808406D
:10D690000543002000F038F804484068FF210902E3
:10D6A000084028430149486070BD000000750040F3
:10D6B00070B50546284600F027F800BF01200F4945
:10D6C000086000BF00BF00BF0D480068002801D0FF
:10D6D000012000E000200028F5D000BF002008490C
:10D6E000086000BF00BF0748846800BF00BF01207A
:10D6F0000249486000BF204670BD00000070004035
:10D7000000710040007500400102084A5268FF2382
:10D710001B029A431143054A5160002802D001219F
:10D72000116002E00021014A11607047007500405D
:10D7300010B504462088F0210840102802D0502857
:10D7400008D103E02046FCF79BFA04E02046FCF7F2
:10D75000CDFA00E000BF00BF10BD000070B596B06C
:10D760000020159010A9087414A860DF0446002C4E
:10D770000DD0082C0BD000BF2646002E06D000BFCF
:10D7800032A296213046FBF779FC00BF00BF062588
:10D7900030213348FAF785FE3148C5700220304900
:10D7A000087030480068139011A871DF044600BF6C
:10D7B0002646002E06D000BF24A2A9213046FBF742
:10D7C0005DFC00BF00BF11A84079000211A9897952
:10D7D0000843024624A101A8FAF734FD01A8FAF78C
:10D7E000DFFD86B2324601A913A87CDF044600BFE4
:10D7F0002646002E06D000BF14A2B0213046FBF70B
:10D800003DFC00BF00BF00211548FCF722F904468B
:10D8100000BF2646002E06D000BF0CA2B421304621
:10D82000FBF72CFC00BF00BF134873DF044600BFAA
:10D830002646002E06D000BF04A2B8213046FBF7D2
:10D840001DFC00BF00BF16B070BD00002E2E5C6E28
:10D8500072665F6164765F636F6E6E2E63000000B8
:10D8600064280020882B02004C696768745377692C
:10D8700074636820232564005820002001B505E06A
:10D880000098401E00900348FAF766FC00980028B4
:10D89000F6D108BDE703000070B504460D462946E1
:10D8A0002046FBF733F900BFE106C90E012088408E
:10D8B0000549086000BF00BFE106C90E012088408D
:10D8C0000249086000BF70BD80E200E000E100E0B6
:10D8D000FEB505460E46284601F08AF9002822D0FA
:10D8E0002846FDF723F8001F009001F06DF9074668
:10D8F000BC11032C0CD100BF1F4800690121A940B5
:10D900000840002801D0032000E00220019005E03B
:10D91000012C01D1022000E003200190284601994A
:10D9200000F0EDFF27E0284601F06EF9002822D034
:10D930002846FCF7FBFF0446A000FF30013087B209
:10D9400020460E495122120189188200895801226D
:10D9500011430A4A51231B01D2188300D15000BF42
:10D96000384601F025F8002E04D00121A1400846D8
:10D9700001F032F800BFFEBD00050050006000401D
:10D98000F7B582B004460E4600200190204601F013
:10D9900021F9002802D0082001905FE0F2782046AB
:10D9A0000499FCF787FF0546681C002853D0B0781F
:10D9B000002810D000BFA1002A4A89180968022255
:10D9C0009143084605210907072212028918A2007F
:10D9D000885000BF0AE070788100052212070723F3
:10D9E0001B02D218A300D15000BF00BFF07800285E
:10D9F00026D037781C48512109014018A900405809
:10DA00001A4908401849512212018918AA00885061
:10DA10001548512109014018A900415820021F2230
:10DA2000120210403A0403231B041A40104301431E
:10DA30000D48512212018018AA00815000BF0CE04D
:10DA4000281F0B49085C31788901084342B2281F1E
:10DA500007490A5401E00420019000BF019805B075
:10DA6000F0BD00000007005000600040FFE0FCFF38
:10DA7000B8320020014600BF05480069C840C00711
:10DA8000C00F002801D0012070470020FCE70000F3
:10DA90000005005010B512480078002801D0082079
:10DAA00010BD002404E0204601F0BEF8601CC4B2A2
:10DAB000202CF8DB002404E02046FCF7E3FE601C89
:10DAC000C4B20C2CF8DB01210620FFF7E5FE012093
:10DAD000C00700F081FF0120014908700020DFE746
