:020000040001F9
:1080000050400020B1810100C3810100B989010005
:108010000000000000000000000000000000000060
:10802000000000000000000000000000C781010007
:108030000000000000000000C9810100CB810100A8
:10804000CD810100CD81010091900100CD81010021
:10805000CD8101000000000031880100CD810100C8
:10806000CD81010081900100CD810100CD81010011
:10807000CD810100CD810100CD810100CD810100C4
:10808000CD8101007D8C0100498C0100CD81010072
:1080900005900100CD8101000D900100CD8101000E
:1080A000CD810100CD810100000000000000000032
:1080B00000000000000000000000000000000000C0
:1080C00000F002F800F038F80CA030C80838241886
:1080D0002D18A246671EAB4654465D46AC4201D100
:1080E00000F02AF87E460F3E0FCCB64601263342FA
:1080F00000D0FB1AA246AB4633431847F47E00007B
:10810000147F00000023002400250026103A01D32C
:1081100078C1FBD8520700D330C100D50B6070473F
:1081200010B5642902D100F0C7F810BD002010BDC1
:108130001FB51FBD10B510BD00F01DFB1146FFF7A8
:10814000F7FF03F095FE00F035FB03B4FFF7F2FFF5
:1081500003BC00F03BFB0000401E00BF00BF00BF9F
:1081600000BF00BF00BF00BF00BF00BF00BF00BF17
:1081700000BFF1D17047000070B505460C461646A9
:1081800002E00FCC0FC5103E102EFAD2082E02D3FB
:1081900003CC03C5083E042E07D301CC01C5361F0E
:1081A00003E021782970641C6D1C761EF9D270BD25
:1081B0000A48026803210A430260094880470948C7
:1081C0000047FEE7FEE7FEE7FEE7FEE7FEE700000A
:1081D00005480649044A064B704700002405004044
:1081E00049900100C180010050380020504000201B
:1081F000503800204343514330B55C18010C130C38
:108200000D4692B25D4380B251432C190546554349
:108210000A0C09044D1962415843010C000440192D
:10822000514130BD0FB41CB5074B06AA7B446946CB
:108230000090059800F073FA0020694600F082FA79
:108240001CBC08BC04B0184715050000F8B50E4664
:108250000446002020622046E1688847002829D093
:10826000252802D06268A16820E0E1682046002746
:10827000884705001ED028464138192802D8012712
:10828000FF0220353246204627602946FFF748FF87
:10829000002808D0012804D0F61DF608F60008369C
:1082A000D9E7361DD7E762682846A1689047206A5B
:1082B000401CCFE7206AF8BDF7B500257529106886
:1082C000009914A611D0C046C046002802DA4042E8
:1082D00011A608E0009909688A0701D50FA602E0F7
:1082E000490704D50EA6012501E0C046C046009FFF
:1082F0000024243704E000F02AFA30313955641C98
:108300000028F8D12B4632462146009800F0AAF901
:10831000FEBD0000000000002D0000002B0000004A
:1083200020000000034610B50B439B070FD1042A21
:108330000DD308C810C9121FA342F8D018BA21BA29
:10834000884201D9012010BD0020C04310BD002A81
:1083500003D0D30703D0521C07E0002010BD0378E0
:108360000C78401C491C1B1B07D103780C78401C5F
:10837000491C1B1B01D1921EF1D1184610BD0000F3
:10838000034670B502460B439B070FD10E4CE60126
:1083900000E008C208C91D1B9D433542F9D0D9B27F
:1083A0001170521C00290DD01B0AF8E70B78491CEC
:1083B0001370521C002B05D00B78491C1370521CF3
:1083C000002BF3D170BD00000101010130B5441C48
:1083D00003E00178401C00290DD08107F9D10B4B37
:1083E000DD0104C8D11A91432940FAD0001B0A06C6
:1083F00003D0C01E30BD001B30BD0A0401D0801E5A
:1084000030BD0902FCD0401E30BD00000101010159
:10841000F8B5042A2CD3830712D00B78491C0370BB
:10842000401C521E83070BD00B78491C0370401C64
:10843000521E830704D00B78491C0370401C521E47
:108440008B079B0F05D0C91ADF002023DE1B08C94C
:108450000AE0FFF791FEF8BD1D4608C9FD401C4625
:10846000B4402C4310C0121F042AF5D2F308C91AD5
:10847000521EF0D40B78491C0370401C521EEAD4E3
:108480000B78491C0370401C012AE4D40978017060
:10849000F8BD01E004C0091F0429FBD28B0701D5F8
:1084A0000280801CC90700D00270704700290BD0E1
:1084B000C30702D00270401C491E022904D383075F
:1084C00002D50280801C891EE3E70022EEE700222D
:1084D000DFE70378C2781946437812061B02194376
:1084E0008378C0781B04194311430902090A000666
:1084F00008437047020A08704A70020C8A70020E24
:10850000CA707047002203098B422CD3030A8B42A6
:1085100011D300239C464EE003460B433CD400227B
:1085200043088B4231D303098B421CD3030A8B428D
:1085300001D394463FE0C3098B4201D3CB01C01A5B
:10854000524183098B4201D38B01C01A5241430926
:108550008B4201D34B01C01A524103098B4201D314
:108560000B01C01A5241C3088B4201D3CB00C01A81
:10857000524183088B4201D38B00C01A52414308F9
:108580008B4201D34B00C01A5241411A00D201461E
:108590005241104670475DE0CA0F00D049420310B7
:1085A00000D34042534000229C4603098B422DD306
:1085B000030A8B4212D3FC22890112BA030A8B42AE
:1085C0000CD3890192118B4208D3890192118B42FD
:1085D00004D389013AD0921100E08909C3098B4282
:1085E00001D3CB01C01A524183098B4201D38B01C5
:1085F000C01A524143098B4201D34B01C01A524168
:1086000003098B4201D30B01C01A5241C3088B42AC
:1086100001D3CB00C01A524183088B4201D38B0097
:10862000C01A5241D9D243088B4201D34B00C01A21
:108630005241411A00D20146634652415B10104636
:1086400001D34042002B00D54942704763465B107E
:1086500000D3404201B50020C046C04602BD70476D
:1086600070477047FFB504460D4681B02430009036
:108670002168880604D51022E0699143216000E05A
:108680000120A84201DD471B00E000270498A169F2
:108690007A191018081AA0612078C00602D4204662
:1086A000C046C046002608E003986268A168805D65
:1086B0009047206A401C761C206204988642F3DBB7
:1086C0002078C0060AD52046C046C04606E062684B
:1086D000A16830209047206A401C206238467F1EE7
:1086E0000028F4DC07E000986268A168405D9047CC
:1086F000206A401C206228466D1E0028F3DC2046BC
:10870000C046C0462078000602D5022005B0F0BD64
:108710000120FBE701694A1C02610878704700B537
:108720008FB002910021059105490193794403918D
:10873000114604906846FFF789FD0FB000BD0000A8
:10874000E5FFFFFF0A681070521C0A60704701467F
:108750008008081A02091018020A1018020C1018D2
:10876000C008820012185200891A01E0401C0A3920
:108770000A29FBD27047754600F024F8AE46050082
:1087800069465346C008C000854618B020B5FFF7BB
:108790001FFD60BC00274908B6460026C0C5C0C5FD
:1087A000C0C5C0C5C0C5C0C5C0C5C0C5403D4900E5
:1087B0008D46704710B50446C046C0462046FFF7B8
:1087C000C4FC10BD00487047EC3700200149182058
:1087D000ABBEFEE726000200704770B58C18057826
:1087E000401C6B075B0F01D10378401C2A1106D196
:1087F0000278401C03E00678401C0E70491C5B1E8A
:10880000F9D12B0705D40023521E0DD40B70491C3F
:10881000FAE70378401CCB1A921C03E01D780D7018
:10882000491C5B1C521EF9D5A142D8D3002070BD53
:10883000F0B587B0002600200690FF20013005909B
:108840000125002417E0059804F0BAFB00280CD09D
:108850000120A040554949680140002905D00598EC
:1088600004F0A6FB3046284306466D000598001D1F
:1088700080B20590641C042CE5D3FF207D3004F009
:108880009FFB00280AD0FF207D3004F091FB0120DF
:10889000C007064300BF4648006906903007000F36
:1088A00000282AD00125002425E028463040002851
:1088B0001FD000BF3F48512109014018A100405876
:1088C0001F2109020840000A049000BF39485121C5
:1088D00009014018A1004058032109040840000C78
:1088E0000390204601F0F2FD074603990498B8472B
:1088F00000BF6D00641C042CD7D3F00FC007002804
:1089000052D000244EE0204604F0C8FB0490C02161
:10891000049888430746049808408011039001207A
:10892000B8400546384604F0CDFB002839D038461B
:1089300001F010FE019001F0C9FD0290029800289C
:108940002ED000BF05200007072109024018B900FA
:108950004058032109040840000C01900698284063
:10896000002802D00198022806D006982840002846
:1089700015D10198032812D1039803280BD101982F
:10898000022801D1032000E002200090384600991F
:1089900004F0D3FA00BF3846029A0399904700BF0B
:1089A00000BF641C082CAED307B0F0BD00630040CC
:1089B000000500500060004002A1002000F008FA0D
:1089C00002F0B2F8486172644661756C745F486188
:1089D0006E646C65722E0D0A20200000C206D20E55
:1089E00001219140014A11607047000080E200E0DF
:1089F000C206D20E01219140014A11607047000069
:108A000000E100E0C206D20E01219140014A11604E
:108A10007047000000E100E0C206D20E0121914043
:108A2000014A11607047000000E200E0C206D20E69
:108A300001219140014A11607047000000E200E00E
:108A4000C206D20E01219140014A11607047000018
:108A500000E200E0C206D20E01219140014A1160FD
:108A60007047000000E200E010B5002819DA1A4A49
:108A700003071B0F083B9B089B00D2588307DC0EA3
:108A8000FF23A3409A438B071B0E8407E40EA340E9
:108A90001A43114B0407240F083CA408A4001A51E0
:108AA00018E00E4A03231B02D21883089B00D258F9
:108AB0008307DC0EFF23A3409A438B071B0E84071A
:108AC000E40EA3401A43054B032424021B19840817
:108AD000A4001A5110BD00001CED00E000E100E010
:108AE00010B5002819DA1A4A03071B0F083B9B0828
:108AF0009B00D2588307DC0EFF23A3409A438B07C9
:108B00001B0E8407E40EA3401A43114B0407240FE5
:108B1000083CA408A4001A5118E00E4A03231B02C3
:108B2000D21883089B00D2588307DC0EFF23A34092
:108B30009A438B071B0E8407E40EA3401A43054B90
:108B4000032424021B198408A4001A5110BD00003C
:108B50001CED00E000E100E010B5002819DA1A4A27
:108B600003071B0F083B9B089B00D2588307DC0EB2
:108B7000FF23A3409A438B071B0E8407E40EA340F8
:108B80001A43114B0407240F083CA408A4001A51EF
:108B900018E00E4A03231B02D21883089B00D25808
:108BA0008307DC0EFF23A3409A438B071B0E840729
:108BB000E40EA3401A43054B032424021B19840826
:108BC000A4001A5110BD00001CED00E000E100E01F
:108BD00010B5002819DA1A4A03071B0F083B9B0837
:108BE0009B00D2588307DC0EFF23A3409A438B07D8
:108BF0001B0E8407E40EA3401A43114B0407240FF5
:108C0000083CA408A4001A5118E00E4A03231B02D2
:108C1000D21883089B00D2588307DC0EFF23A340A1
:108C20009A438B071B0E8407E40EA3401A43054B9F
:108C3000032424021B198408A4001A5110BD00004B
:108C40001CED00E000E100E010B510E00024094850
:108C500001F07EFF044306F05FFB002803D00648C6
:108C600001F076FF0443002C00D101E000BFEDE7E6
:108C700000BF10BD942800204C29002010B5002012
:108C8000074908600021064841608160C1600020FA
:108C9000034940390860486006F056FA10BD0000EC
:108CA00040110140FFB581B004460E46174600BF93
:108CB0001A480078002801D100F034FA00BF1748A4
:108CC0000069A04225D9002C1AD01820604313490E
:108CD00018310E5018206043401847601821614336
:108CE0000E4A1832891804988860002218206043C0
:108CF0000A49183140180261182060434018C260C8
:108D000018206043054A183280180A9941610025ED
:108D100001E00025ED43284605B0F0BD7437002082
:108D2000F8B504460D46164600BF074800780028EF
:108D300001D100F0F7F900BF32462946204600F085
:108D400005F807463846F8BD74370020F7B582B0FD
:108D50000746164603980190182078431B4940188F
:108D6000009000984069002804D0012811D0022802
:108D700026D11EE0009800F00DFA0546B54201D25A
:108D8000002405E0344632460199009800F085FB46
:108D900018E0009800F0FEF90546B54201D22846D9
:108DA00000E03046044622460199009800F075FB29
:108DB00008E032460199009800F032FB044601E0D9
:108DC000002400BF00BF204605B0F0BD8C37002056
:108DD0000FB438B5044606A800906A4620460599A7
:108DE00000F004F838BC08BC04B01847F7B59AB0D6
:108DF0000D46144602A815904020169000201790AA
:108E00001A9819900020189000BF2E786D1C002E23
:108E100000D1E4E0252E79D100270120149000BF75
:108E20002E78232E12D02B2E0CD02D2E02D0302EA9
:108E300010D103E0012007436D1C0EE00220074320
:108E40006D1C0AE0042007436D1C06E00820074360
:108E50006D1C02E00020149000BF00BF1498002891
:108E6000DED1129000BF2E78302E01DB392E00DDCE
:108E700008E06D1C0A2112984843314630394018E9
:108E80001290F0E700BF002013902E782E2E11D103
:108E90006D1C00BF2E78302E01DB392E00DD08E07E
:108EA0006D1C0A21139848433146303940181390FD
:108EB000F0E700BF2E7800BF6C2E01D0682E02D1E3
:108EC0002E786D1C00E000E0F6E700BF702E63D046
:108ED00008DC252E72D0582E38D0632E09D0642E8F
:108EE00071D114E0732E40D0752E1FD0782E6AD128
:108EF0002BE02168081D2060086814901498C0B207
:108F0000019015A8019900F069FA5DE05FE0216821
:108F1000081D2060086814901298019700900A229A
:108F200015A8139B149900F043F94DE02168081D22
:108F30002060086814901298019700900A2215A8E2
:108F4000139B149900F0BCF93EE000BF2168081D96
:108F5000206008681490129801970090102215A8BC
:108F6000139B149900F0ACF92EE02168081D2060D5
:108F70000868019000BF019806780198401C019094
:108F8000002E00D106E0314615A800F027FA189807
:108F90000028F0DA00BF17E02168081D206008688B
:108FA0001490002008210B4610220091019015A872
:108FB000149900F085F907E000E004E0252115A8E8
:108FC00000F00CFA00E000BF00BF6D1C03E031466A
:108FD00015A800F003FA1898002800DB15E700BF79
:108FE000189800280BDD1798002804D002A9179ABA
:108FF0001A98FFF795FE1799189840181890189826
:109000001DB0F0BD10B505F095FD10BD70B50C4854
:109010000068002811D00A4800688047044600BF55
:109020002546002D07D000BF064AFF212A312846D9
:1090300000F0B0FB00BF00BF01E002F011FD70BD09
:109040003421002098FF010010B502F085FD0028B2
:1090500005D0074807494860C8130749886102F0EE
:109060005FFD002802D001200449886010BD000087
:10907000DFFF07C000050040006C00400006004014
:1090800010B50021014803F00FFF10BD0090004013
:1090900010B509E000201C498860084680681B491B
:1090A0008969C8B201F05CFA174880680028F1D1DC
:1090B0001548C069002826D000201349C86114480B
:1090C00001680068401E124A106000290AD0114849
:1090D000006800780D49C8610E480068401C0D49C1
:1090E000086010E001200C49C8600C480078012895
:1090F00002D0002009490870094801F02DFE00281F
:1091000001D104F01FFE10BD0021004000250040E9
:10911000EC200020F020002000200040E82000206B
:10912000F426002010B5124C02202061606111A0CD
:10913000A0611349E1610121C90221620021A162FC
:109140006162E1620BA0A0640E49E1641021216517
:109150000021A1656165E1650BA1E01DFFF710F934
:109160000AA12046FFF70CF92020A07110BD0000D5
:10917000743700205465726D696E616C00000000E8
:10918000642F002064370020525454005345474751
:109190004552000010B501460A69CB689A4204D8CE
:1091A0008C68641EE41AA01801E0D41A601E10BD79
:1091B000FFB585B006460F460F9D0E9C002F01DAC5
:1091C000784200E0384603900120049007E00799B8
:1091D0000398FFF7A1F903900498401C04900799A5
:1091E00003988842F3DA04990898884201D90898CC
:1091F0000490002C06D0002F03DB04202840042814
:1092000000D1641E02202840002802D008980028BF
:1092100015D0E807C00F002811D1002C0FD008E0AE
:10922000641E2021304600F0D9F8F068002800DAEA
:1092300004E0002C02D00498A042F1D300BFF068F3
:1092400000283ADB002F05DA7F422D21304600F05E
:10925000C5F807E004202840042803D12B2130461C
:1092600000F0BCF8F068002827DB02202840022824
:1092700018D1E807C00F002814D10898002811D190
:10928000002C0FD008E0641E3021304600F0A6F814
:10929000F068002800DA04E0002C02D00498A04214
:1092A000F1D300BFF068002807DB01950094394630
:1092B0003046089B079A00F003F809B0F0BD0000A3
:1092C000FFB585B0064617461D460E9C06980290CF
:1092D00001200390019007E039460298FFF712F948
:1092E00002900198401C01900298B842F4D2019873
:1092F000854200D901950F98C007C00F00281DD1E5
:10930000002C1BD002210F980840022804D1002D08
:1093100002D13020009001E02020009008E0641E7F
:109320003046009900F05AF8F068002800DA04E0AE
:10933000002C02D00198A042F1D300BFF0680028B1
:1093400048DB0FE0012D01D96D1E08E00399069856
:10935000FFF7D8F804900498B84200D203E00398CD
:1093600078430390EEE700BF00BF03990698FFF72C
:10937000C9F804900399049848430699081A06907E
:10938000154A0498115C304600F028F8F06800286F
:1093900000DA07E039460398FFF7B4F80390039822
:1093A0000028E2D100BF0F98C007C00F002811D0DD
:1093B000002C0FD008E0641E2021304600F00EF88B
:1093C000F068002800DA04E0002C02D00198A042E6
:1093D000F1D300BF09B0F0BD84FF010070B50446B1
:1093E0000E46A568681C6168814206D32068465510
:1093F000681CA060E068401CE0606168A06888426A
:109400000DD1A26821682069FFF78AFCA168884213
:1094100003D00020C043E06001E00020A06070BDE8
:10942000F7B582B00446174600200190E56800BFFA
:10943000206900900098A84203D90098401B461E5E
:1094400004E0A1680098281A401C0E1AA068401B6E
:10945000B04201D9304601E0A068401B0646BE423A
:1094600001D2304600E03846064661684819324667
:109470000399FEF7CDFF0198801901900398801998
:109480000390BF1BAD19A068A84200D10025E5607C
:10949000002FCDD1019805B0F0BDF7B582B00446DC
:1094A0001546E668A068871BAF4208D9616888192D
:1094B0002A460399FEF7ACFF7019E06010E00197AF
:1094C00061688819019A0399FEF7A2FFE81B0190D1
:1094D000039AD1196068019AFEF79AFF0198E0603B
:1094E00005B0F0BD30B47446641E2578641CAB42F0
:1094F00004D3635D5B00E31830BC18471D46F8E7F2
:10950000124A1268002A07D0104B02681B681B68B9
:10951000D21A0F4B9A4205D90C4A126802610B4AC3
:1095200010607047094A116800E009690A69002A59
:1095300006D00A6912680368D21A054B9A42F4D819
:109540000A690261086100BFEBE700001C210020EE
:10955000FFFFFF7FF8B504460F46154600260020A2
:1095600028702078002809D02A463946204603F082
:1095700075FA0646002E01D03046F8BDA0780028C6
:1095800008D02946384600F021FA0646002E01D0C0
:109590003046F2E7E07800280ED002212A78501CED
:1095A0002870B95401212A78501C2870B954E178E8
:1095B0002A78501C2870B954606800280BD000200D
:1095C000616808562A46394606F0E8F80646002E35
:1095D00001D03046D1E7208900280CDD3B46062229
:1095E000022120460830009506F022F90646002E9A
:1095F00001D03046C1E7208A00280CDD3B46072217
:10960000032120461030009506F012F90646002E80
:1096100001D03046B1E7208B00280CDD3B461522F7
:10962000142120461830009506F002F90646002E57
:1096300001D03046A1E7206A002809D02A463946E1
:10964000206A01F09BF80646002E01D0304694E7D0
:10965000606A002809D02A463946606A02F096FC02
:109660000646002E01D0304687E72C20005D0028FA
:1096700009DD2A463946204604F010FF0646002E32
:1096800001D0304679E7304677E70146C8780422B2
:109690001040002801D1072070470020FCE700009F
:1096A000014600BF064A50680122D2058243044B9E
:1096B0009A600122D2050240DA6000BF70470000C4
:1096C0000005005010B5002407E0E100064A1268CA
:1096D000505C012103F0CEFA641C044800788442F7
:1096E000F3D3002010BD00004C21002050210020A9
:1096F000FEB506460C461746052F01D20720FEBDD3
:1097000003F0C2FB002806D103F096FB0546002DAE
:1097100001D02846F3E7164806601648047016483C
:1097200007600020154908601549086015E0E00051
:10973000801901901348006800900198807869466C
:10974000487001990878104A694603F0EBFA05461B
:10975000002D01D02846D2E700BF2046611ECCB2C2
:109760000028E4D1094A0021094800F025F8C6E79D
:109770004C21002050210020542100205C21002099
:109780006021002094FF010091AF010059A9010060
:109790005821002002A10020FFF71AFB01F0C4F9B4
:1097A0006170705F6572726F725F68616E646C6524
:1097B000722E0D0A2020000070B503460C46194891
:1097C0000068002801D1082070BD002A01D10720BF
:1097D000FAE7002B01D10720F6E700211CE0242046
:1097E0004843104D2D68285C002814D10125242001
:1097F00048430C4E3668355424204843094D2D68A3
:109800004019447024204843064D2D684019826158
:1098100019600020D8E7491C034800788142DEDB4C
:109820000420D1E76821002064210020FFB581B029
:109830000E4617461C4620468107890F002901D194
:10984000012100E00021002902D1072005B0F0BD70
:10985000002C01D10720F9E704F01CFA26490A98E8
:109860000860264806702648046000250CE00021A8
:1098700024206843224A1268115424206843204A55
:109880001268801801756D1CB542F0DB242070430E
:10989000041903201B4908701B4804601834002574
:1098A0000CE0E900184A1268881800210170417024
:1098B00087704460182179430C196D1C032DF0DB6F
:1098C0000020C04311490860002011490870114967
:1098D00008701420FFF782F803211420FFF778F9AD
:1098E0001420FFF78FF8019804F0AAF904F0A2F908
:1098F000094908600020A9E7882100206421002090
:10990000682100206C21002070210020742100209B
:10991000842100208521002078210020FEB5044606
:109920000D46164616480068002801D10820FEBDE5
:1099300014480078844201D2052D01D20720F6E7B1
:10994000242060430E490968085C012801D00820E2
:10995000EDE7242060430A4909684018407801284F
:1099600001D1284600E00020074605F038FF3B46BD
:109970002A4621460096019005F09CFBD7E700009F
:10998000682100206421002070B504460D4800685D
:10999000002801D1082070BD0B480078844201D313
:1099A0000720F8E72420604306490968085C01287D
:1099B00001D00820EFE705F012FF0546214605F02B
:1099C000A3FBE8E76821002064210020F8B50546E4
:1099D0000C462078001D1F2801DD0C20F8BD6846CC
:1099E00079DF0646002E01D03046F7E703212278C2
:1099F000501C2070A95419212278501C2070A954A1
:109A0000207841196846008805F0E0FE217840186A
:109A100020700020E2E7000070B5044620780300C3
:109A2000FFF760FD0504401C343A59000321C903C7
:109A30006068884204D3012149076068884209D9D7
:109A400000BF102500BF25A253211020FFF7A2FE62
:109A500000BF00BF6168A06888473DE00321C903DB
:109A60006068884204D3012149076068884209D9A7
:109A700000BF102500BF19A25B211020FFF78AFE4E
:109A800000BF00BF6168A068884725E0237C201DD7
:109A900007C804F07DFE1FE0E279A179A08801F0FB
:109AA0005BFC19E00321C9036068884204D30121EB
:109AB00049076068884209D900BF102500BF07A286
:109AC00078211020FFF766FE00BF00BF6268E168E2
:109AD000A068904700E000BF00BF70BD2E2E5C2E36
:109AE0002E5C2E2E5C7262635F6D6573685C7372B0
:109AF000635C6576656E745F68616E646C65722E1A
:109B00006300000070B5044605F02CF906462046B7
:109B100004F066F82046FFF7F3FCEFF31080C5076A
:109B2000ED0F72B607484068401E06494860002D98
:109B300000D162B6304601F0C5F9304604F044FD6C
:109B400070BD00001C21002070B588B005462E466F
:109B5000304602F0A7FD044600200090002C27D0DC
:109B600061792279090211430846694606F0CAF86C
:109B700000281DD168460078002819D004206946C5
:109B800008716079217900020843694608812046FE
:109B9000083003902078C01FC1B201A8017305F0FE
:109BA000E1F8059001A803F047FE01A802F03BFA96
:109BB000304602F02FFE08B070BDF3B593B00D46ED
:109BC0000021129111911398002814D01398FFF7D7
:109BD0005CFD0446002C02D0204615B0F0BD12AA50
:109BE00009A91398FFF7B6FC0446002C01D02046C3
:109BF000F3E709AE00E00026002D13D0284604F05C
:109C00005DFD0446002C01D02046E6E711AA01A91B
:109C10002846FFF79FFC0446002C01D02046DCE7D5
:109C200001AF00E0002710A803793A46017A3046D8
:109C300072DFD2E770B50446208810380300FFF7C2
:109C400051FC0906071E0A1E1E1E1D1C1E0017E0E1
:109C50000C4873DF14E000BFA08800230A4A1946AD
:109C60007FDF0546002D06D000BF08A272212846DE
:109C7000FFF790FD00BF00BF02E001E000E000BF81
:109C800000BF70BD00200020182000202E2E5C6E2A
:109C900072665F6164765F636F6E6E2E63000000B4
:109CA00010B50446208850280BD0512802D05228E5
:109CB00008D100E007E0A08800231A461946A9DF72
:109CC00001E000E000BF00BF10BD0000F3B581B0AF
:109CD00006460025002400E0641C042C04D2A000E9
:109CE00029490858B042F7D1042C42D202980028E2
:109CF00025D0012802D002283AD133E06000201894
:109D000022490D5C600020184018407800280ED0D1
:109D10001F4800680A22504301461E4A1E48006838
:109D2000FFF7FCFD0746002F01D11A4806706000BE
:109D300020181649401880781849085518E0164828
:109D40000068FFF721FE1548005D610061180F4AA9
:109D500089188978884204D160002018114640187B
:109D6000857805E06000201808494018457800BF54
:109D700000BF002D07D00A480068002803D02846FD
:109D8000074909688847FEBD24FF010038250020E7
:109D9000242000203C200020382000203D200020EE
:109DA0003420002010B504460D2C06D00E2C0CD00B
:109DB0000F2C12D0102C1AD114E00EA10020FFF7A6
:109DC00007F8152003F0DCF812E00FA10020FEF7E1
:109DD000FFFF172003F0D4F80AE010A10020FEF7DF
:109DE000F7FF05E012A10020FEF7F2FF00E000BF40
:109DF00000BF10BD4253505F4556454E545F4B4522
:109E0000595F302E0D0A00004253505F4556454EB3
:109E1000545F4B45595F312E0D0A00004253505F8D
:109E20004556454E545F4B45595F322E0D0A000092
:109E30004253505F4556454E545F4B45595F332E54
:109E40000D0A000030B503460020042B24D2012A5D
:109E500007D1012903D11C460D34E4B200E00024EF
:109E6000224600290FD0012902D0022911D104E095
:109E70005C001C19094D2A550DE05C001C19074DAA
:109E80006419627007E05C001C19044D6419A2702B
:109E900001E0072000BF00E0072030BD382500208A
:109EA000F7B505460E46002427480660274805609A
:109EB00027490298086002202840002822D0002765
:109EC00006E0012211463846FFF7BCFF04467F1C1E
:109ED000042F01D2002CF4D0002C05D172080421EB
:109EE0001C48FFF705FC0446002C02D1FFF7EAFBF3
:109EF0000446002C05D1184A00211848FFF75CFCE5
:109F0000044600BFE807C00F00280AD000BF0F209A
:109F10004005134988600020C86000BF0F2040053D
:109F20008861002C05D10F4A00210F48FFF744FC3F
:109F30000446002C05D10D4A01210D48FFF73CFCD9
:109F400004462046FEBD00002420002028200020DA
:109F50003420002034FF010061A4010038200020DB
:109F600000050050E9BB01002C200020A196010053
:109F700030200020F8B50446002500262300FFF716
:109F8000B1FA180D18195C9FF7F5F4F3F2F1F0EF40
:109F9000EEEDECEBEAE9E8E7E6E5E4E300BF0B20F1
:109FA0004005FB4988600020C86000BFF948047084
:109FB0004FE200BF00BF05208005F5498860002002
:109FC000C86000BF084640680F214905484001218C
:109FD0004905084000280FD000BF0846EC498860BA
:109FE0000020C86000BF022C02D1E120C00001E0C7
:109FF0007D20400106460EE000BF01204005E449F7
:10A00000C8600020886000BF022C01D1C82001E098
:10A01000FF2091300646DF48047064213046FEF789
:10A0200071FADD4909684843074600223946DB4892
:10A030000068FFF773FC05460BE200BF05208005B2
:10A04000D34988600020C86000BF084640680F21DF
:10A050004905484001214905084000280FD000BFAC
:10A060000846CB4988600020C86000BF032C02D19D
:10A070001920400101E07D20400106460EE000BFAE
:10A0800001204005C249C8600020886000BF032C41
:10A0900001D1C82001E0FF2091300646BD48047080
:10A0A00064213046FEF72EFABB490968484307464B
:10A0B00000223946B9480068FFF730FC0546C8E180
:10A0C00000BF05208005B24988600020C86000BF3D
:10A0D000084640680F2149054840012149050840CC
:10A0E00000280FD000BF0846A94988600020C8603A
:10A0F00000BF042C02D17D20400101E07D20400101
:10A1000006460FE000BF01204005A149C8600020BD
:10A11000886000BF042C02D1FF20913001E0FF20B5
:10A12000913006469B48047064213046FEF7EAF9F8
:10A13000994909684843074600223946974800680C
:10A14000FFF7ECFB054684E182E176E174E161E131
:10A150004EE13BE12FE1F4E0F2E0F0E0EEE0ECE094
:10A16000E2E0C9E0B2E099E082E06FE042E0FFE7C0
:10A1700000BF05208005864988600020C86000BFB8
:10A18000084640680F21490548400121490508401B
:10A1900000280ED000BF08467D4988600020C860B6
:10A1A00000BF052C01D1C82001E07D2040010646FA
:10A1B0000EE000BF012040057549C860002088609E
:10A1C00000BF052C01D1C82001E0FF2091300646D8
:10A1D0007048047064213046FEF794F96E490968AE
:10A1E00048430746002239466C480068FFF796FB53
:10A1F00005462EE100BF05208005654988600020E6
:10A20000C86000BF084640680F2149054840012149
:10A2100049050840002806D000BF08465C49886010
:10A220000020C86007E000BF012040055849C86011
:10A230000020886000BF574804705748002201681A
:10A2400056480068FFF76AFB054602E100BF05209B
:10A2500080054F4988600020C86000BF00BF012012
:10A260004005C8600020886000BF4A480470F0E0E4
:10A2700000BF47494868012189058143444A9160EC
:10A28000012189050140D16000BF434800220168D7
:10A2900042480068FFF742FB0546DAE000BF3C4950
:10A2A0004868012189058143394A91600121890566
:10A2B0000140D16000BF3848006882008118002248
:10A2C00036480068FFF72AFB0546C2E000BF304968
:10A2D00048680121890581432D4A91600121890542
:10A2E0000140D16000BF2C48002201682B48006863
:10A2F000FFF714FB0546ACE000BF25494868012183
:10A3000089058143224A9160012189050140D1607C
:10A3100000BF214800688200811800221F480068A1
:10A32000FFF7FCFA054694E000BF0F2040051849EE
:10A33000C8600020886000BF8BE000BF00BF00BF86
:10A3400000BF17480068FFF71FFB05461120061BDA
:10A35000002E27D0002D25D1012E10D9C821714300
:10A3600008466421FEF7CEF80B49096848430746C2
:10A37000002239460A480068FFF7D0FA054600BFB8
:10A380000120C0050249C8600020886012E000007A
:10A390000005005020200020242000202C20002038
:10A3A0003020002000BF0120C0052B49886000201C
:10A3B000C86000BF4DE000BF0F20400526498860FF
:10A3C0000020C86000BF2548047042E000BF07209D
:10A3D0008005214988600020C86000BF00BF0120BF
:10A3E0004005C8600020886000BF1C48047030E051
:10A3F00000BF0D204005184988600020C86000BFDC
:10A4000000BF01208005C8600020886000BF13489D
:10A4100004701EE000BF0320C0050F4988600020C3
:10A42000C86000BF00BF03204005C86000208860EE
:10A4300000BF0A4804700CE000BF00BF0F204005B9
:10A440000549C8600020886000BF0448047000E02F
:10A4500000BF00BF2846F8BD0005005020200020A6
:10A4600010B5044620780221FFF730FC10BD000033
:10A4700070B5094A09490320FFF712FD044600BFE1
:10A480002546002D06D000BF05A2FF214F312846EA
:10A49000FFF780F900BF70BDA59D0100CD0C000045
:10A4A0002E2E5C6D61696E2E630000000022D24387
:10A4B00083000549CA50042804DB1346011F024AE1
:10A4C00050325354704700000C2F002001468A0080
:10A4D00001488058704700000C2F0020F7B585B068
:10A4E0000B460020C0430490002A01D0002000E069
:10A4F00004200390002A01D0042000E00C200290E8
:10A5000003991EE08C0012480059401C002817D106
:10A510000846059C0093019246B20D4D30352E55EC
:10A520008600303D009BAB51019A002A04D166B2EF
:10A53000051F074F50377E5500BF48B2049003E017
:10A54000491C02988142DDD300BF049808B0F0BDD9
:10A550000C2F002001460148405670473C2F002038
:10A5600030B589B005462348006805702148006869
:10A57000401C20490860084601681F480C1A272C17
:10A5800006D2012C33D9401E4078401CA0422ED860
:10A590001949491E194800F060FC00280FD003211A
:10A5A00068460171842141711348401E81786846D4
:10A5B0008171862101A8C17003F0C2FE0AE0022069
:10A5C000694608740E4805900021069104A800F021
:10A5D0004BFB00BF094800F0C8FB002804D0012055
:10A5E000084908700849486003480249086009B0F2
:10A5F00030BD0000F82000206C280020DC26002060
:10A6000011C00100E82000200020004070B5044681
:10A610000D46201DFDF75DFF281A1A4988422FD8E4
:10A62000204604F0D9FF00282AD020460830FDF744
:10A6300050FF15490968154A1268514388420AD2E9
:10A6400020460830FDF745FF4600214608313046D8
:10A65000FDF750FF09E00C4909680C4A12685143A4
:10A66000084621460831FDF745FF002020732046AB
:10A670000830FDF72EFF4619211D3046FDF73AFF41
:10A6800070BD0000FFFFFF7FCC200020C82000200D
:10A69000FEB51E480068401C002834D01B480068E6
:10A6A000242148431A4909684018456803F0C2FA52
:10A6B0000190184804682146019804F04DF9C61C21
:10A6C00015480078002801D103F0C6FAAE4201D245
:10A6D000284600E0304604192402240A20460F4987
:10A6E000086000BF03F0A6FA00900199009804F0FA
:10A6F00033F9C71C2046019904F02EF9874201D98D
:10A7000004F070FD01E003F0C5FAFEBD74210020E5
:10A7100068210020782100208C2100204015014074
:10A7200001460888062808DB08881922D2019042D1
:10A7300005DD0888104A904201D0072070474888FC
:10A74000062808DB48881922D201904205DD488896
:10A75000094A904201D00720F0E70888064A904253
:10A7600008D04888904205D008884A88904201DD88
:10A770000720E3E70020E1E7FFFF0000F8B5064609
:10A780000D4614462078801D1F2801D90C20F8BDE5
:10A790003046FFF7C5FF0746002F01D03846F6E7E1
:10A7A00005212278501C2070A95412212278501CB7
:10A7B0002070A95422785119308805F007F82178C3
:10A7C0004018207022785119708804F0FFFF21781A
:10A7D000401820700020DAE710B514484068C10521
:10A7E000C90D002920D00A46103A50B200280DDACF
:10A7F0000E4B1C330407240F083CA408A4001B596B
:10A800008407E40EE3401B069B0F0BE0084B032478
:10A8100024021B198408A4001B598407E40EE3409A
:10A820001B069B0FD8B210BD0420FCE700ED00E032
:10A8300000E100E070B53148068815E0142070434F
:10A840002F494018006900280DD1142171432C4A6A
:10A850008818002104F004FF28480088401C27497C
:10A860000880B0B270BD761C022EE7D3254804687C
:10A870000CE000BF0A20604323494018C08844040C
:10A88000640C00BF032C01D10220EBE70A206043D7
:10A890001D49401800890228EBD00A206043401867
:10A8A000C088C00B0028E4D10A2060434018058905
:10A8B00000BF022D01D2012000E000200646002E3C
:10A8C00005D100BF11A28E21FEF764FF00BF00BFBB
:10A8D00002210A2060430C4A801801811421694337
:10A8E000074A881800F026F814216943044A88189A
:10A8F000002104F0B5FEA8B2B4E700001421002046
:10A90000E02E002010210020C02E00202E2E5C2ED4
:10A910002E5C2E2E5C7262635F6D6573685C737271
:10A92000635C68616E646C655F73746F72616765A8
:10A930002E63000010B50446002C00D110BD206924
:10A94000002804D0206901F065FF00202061204626
:10A9500004F01FFE00BFF1E7F8B5002535E0E80080
:10A960001C490968441821780120884006461A4885
:10A9700000683040002826D017480068B0431649C8
:10A980000860207802F048FA0746217801208840C4
:10A99000124909680840227839469140884211D10D
:10A9A0006078012800D100E0002078400121484073
:10A9B00000906068002804D0009BD9B220786268BB
:10A9C000904700BF00BF681CC5B2054800788542AB
:10A9D000C5DBF8BD4C210020602100205C21002057
:10A9E0005021002010B504460F49104800F004FA29
:10A9F000002817D10C4840780D4908600A48401CCF
:10AA00000C49086000200C49C86101200B4988608E
:10AA10000848006800780A49C86106480068401C78
:10AA20000449086010BD000044280020F4260020DE
:10AA3000EC200020F02000200021004000200040F9
:10AA400000250040014614480078144A12789042CC
:10AA50001DD011480078401C0F4A10701046007835
:10AA6000022801D1002010700B48007880000C4AA9
:10AA7000105808600B4A086812688018094A10606C
:10AA8000104600680002000A106001207047002094
:10AA9000086000BFFAE70000842100208521002023
:10AAA0007C210020782100200121014A117070478B
:10AAB000A720002010B506490968064A12685143CC
:10AAC00008460549FDF71EFD7D21C900401810BD4F
:10AAD00098200020AC20002040420F0001460729AA
:10AAE00012D008DC00290DD0022913D0052915D079
:10AAF000062917D10CE0082908D009290CD0112902
:10AB000010D10DE0002070478520FCE78320FAE794
:10AB10008220F8E78620F6E78420F4E79020F2E729
:10AB20008620F0E78020EEE70021084601F04AF891
:10AB30000021012001F046F80021022001F042F836
:10AB40000021032001F03EF872B600E020BFFDE7CF
:10AB500030B585B004466946204600F04DF90546FB
:10AB6000002D05D16846FEF757FF012005B030BD26
:10AB70000020FBE7EFF31080C107C90F72B6094848
:10AB800002680068401C074B1860002A06D112209A
:10AB900001228240044B1A6000BF00BF002900D18F
:10ABA00062B670470021002080E100E010B5EFF3AD
:10ABB0001080C407E40F72B606480068401E0549BD
:10ABC0000860002802D11220FDF712FF002C00D1EE
:10ABD00062B610BD0021002010B51448007800288E
:10ABE00000D010BD08201249886012480860142067
:10ABF000486000204861084600F09DF808200E4992
:10AC000088600E48086014204860002048610846AB
:10AC100000F091F81220FDF7EBFE03211220FDF762
:10AC20005FFF01200149087000BFDAE7FC20002027
:10AC300094280020AC2800204C2900206429002002
:10AC400010B5074800F088F8002804D0054800F047
:10AC500083F8002802D11220FDF7F2FE10BD00009B
:10AC6000942800204C29002070B50446002C01D106
:10AC70000E2070BD002620780300FEF733FC050986
:10AC8000070405060B0000BF00BF00BF0A4E03E02B
:10AC90000A4E01E00720ECE700BF2146304600F0F5
:10ACA000DCF80546002D01D02846E2E71220FDF72A
:10ACB000C7FE0020DDE70000942800204C2900207A
:10ACC000F0B50346002426E0164E366824277E435E
:10ACD000154F3F68F01946689E4203D94668F61A38
:10ACE00046601DE046689B1B466834190026466096
:10ACF00006750C4E35680B4F066A3E600669002EDD
:10AD000008D00E193602360A86600669C6601668D3
:10AD10000662156000BF03480068401C0028D3D1BC
:10AD200000BFF0BD742100206821002001460A699F
:10AD3000C868801A7047202100BF4B1E19468268E0
:10AD4000DA40D207D20F002AF7D001228A4082606F
:10AD50000022C260026170470146CA6808699042D9
:10AD600001D1012070470020FCE701468A6808698C
:10AD70008018CA68904201D1012070470020FCE78A
:10AD800070B504460D4600222946204600F001F821
:10AD900070BDF8B504460D461646002D01D10E20B3
:10ADA000F8BDEFF31080C707FF0F72B62046FFF71C
:10ADB000BDFFB04204D8002F00D162B60E20EFE7ED
:10ADC00020698019A168491E0840616848432168CC
:10ADD000401800906069002804D0626928460099F4
:10ADE000904704E0626828460099FDF711FB002FA8
:10ADF00000D162B60020D3E7F8B504460D46EFF364
:10AE00001080C607F60F72B6E1682069884204D147
:10AE1000002E00D162B60E20F8BD002D15D0A1681D
:10AE2000491E2069084061684843216847186069E5
:10AE3000002804D0394628466269904704E0394624
:10AE400028466268FDF7E4FA00BF2069401C2061D3
:10AE5000002E00D162B60020DEE7F8B504460E46AB
:10AE6000002E01D10E20F8BDEFF31080C507ED0FC5
:10AE700072B6A16820694018E168884204D1002DAB
:10AE800000D162B60420EEE7A168491EE0680840E0
:10AE900061684843216847186069002804D031463A
:10AEA00038466269904704E0314638466268FDF7EB
:10AEB000AFFAE068401CE060002D00D162B60020CF
:10AEC000D1E7000030B585B005461F48406800282E
:10AED00001D005B030BD27E01B4804680120694659
:10AEE000087060680190E168039102956846FFF779
:10AEF000BBFE002800D0ECE7134920690860002061
:10AF00002061A06800280ED000BFA168206840180A
:10AF10002060284664302168081A0C498842F4D819
:10AF20002046FEF7EDFA00BF07480068002808D069
:10AF300005480068016828466430081A03498842B9
:10AF4000CAD800BFC5E700001C210020FFFFFF7F1B
:10AF500010B51520182108E0032205231B0707243C
:10AF600024021B1984001A51401C8842F4D900BFE6
:10AF7000002007E00146153101228A40034B9A6008
:10AF800000BF401C0428F5D310BD00000005005090
:10AF9000F8B505460F460120A84004461848006849
:10AFA000FEF7F2FC0646002E00D0F8BD15480068FA
:10AFB000204000281DD1284601F02EFF002805D092
:10AFC0001148006820431049086004E00E480068FA
:10AFD000A0430D4908600B480068204309490860F8
:10AFE00000220A48016806480068FEF797FC0646FA
:10AFF00004E004480068A0430249086000BFD4E7A9
:10B0000058210020602100205C21002054210020D4
:10B0100070B505460E46FFF7ADFD002E14D01D4855
:10B020000088A84210D11C48008803280CDA1A486E
:10B0300000880A2148431949085AA84204D1FFF759
:10B04000B5FD1548008870BD1548008884B210E031
:10B0500014480068A04203D1FFF7A8FD0320F2E7DF
:10B0600000BF0A2060430D49401880884404640CE6
:10B0700000BF0A2060430949085AA842E8D1002EBF
:10B0800003D00448058004480480FFF78FFD204664
:10B09000D9E700001821002016210020C02E002032
:10B0A0000C2100201021002070B505460121284602
:10B0B000FFF7AEFF0446032C43D18348008884B2D7
:10B0C0000CE000BF0A20604380494018C088440457
:10B0D000640C00BF032C01D1204670BD0A206043E0
:10B0E0007A494018C088C00B0028EAD10A20604382
:10B0F0000D520A206043401880880121C90388430B
:10B100000A216143714A8918888000210A2060431E
:10B11000801841800A2060431146401800890228A7
:10B120000FD00A2161438918098914225143684AC2
:10B130008818FFF7FFFB02210A206043634A80184A
:10B14000018161480068844225D0624800688442D9
:10B1500037D00A2060435D49401880884004400C85
:10B160000A21484359494018C088C00BC0030A212E
:10B170006143564A8918C9884904490C08430A2181
:10B180006143891889884904490C0A2251434F4A6E
:10B190008918C88015E00A2060434C494018C088CF
:10B1A0004004400C484908600A2060434749401861
:10B1B0008088C00BC003C01C0A216143434A891820
:10B1C00088804448006884425AD00A2060433F493E
:10B1D0004018C0884004400C03281FD00A20604358
:10B1E0004018C0884004400C0A21484337494018A1
:10B1F0008088C00BC0030A216143344A89188988BA
:10B200004904490C08430A2161438918C988490443
:10B21000490C0A2251432D4A891888800A2060432C
:10B220002A494018C088C00BC003C01C0A216143D2
:10B23000264A8918C8800A20604311464018808831
:10B24000C00BC003234909884904490C08430A215B
:10B250006143891888801F4800680A2148431146C5
:10B260004018C088C00BC0036104490C0843194949
:10B2700009680A225143154A8918C8801548046094
:10B28000144800680A21484310494018C088C00B80
:10B29000C003C01C0F4909680A2251430B4A891890
:10B2A000C880094800680A21484311464018808830
:10B2B000C00BC003C01C044909680A225143034A59
:10B2C00089188880204608E710210020C02E002021
:10B2D000E02E00200C210020F8B507460E4615464A
:10B2E000032E01DB0720F8BD002D01D10E20FAE767
:10B2F0001748874201D11020F5E7FFF73BFC0021FA
:10B300003846FFF785FE0446032C03D1FFF74EFCB9
:10B310000520E8E7002E02D0012E10D107E00A2018
:10B3200060430C494018C088C00B28700BE00A200D
:10B330006043084940188088C00B287003E0FFF77D
:10B3400035FC0720CFE700BFFFF730FC0020CAE73D
:10B35000FFFF0000C02E0020F7B582B00E46154654
:10B36000032E02DB072005B0F0BD66490298884233
:10B3700001D11020F7E701210298FFF749FE0446AA
:10B38000002E04D0012E1FD0022E6ED139E0032CE6
:10B3900007D10298FFF788FE0446032C01D1042050
:10B3A000E1E70A20604358494018C0880121C903D9
:10B3B0008843E9030122D203114008430A21614373
:10B3C000514A8918C88099E0032C07D10298FFF7E9
:10B3D0006BFE0446032C01D10420C4E70A2060431D
:10B3E0004949401880880121C9038843E9030122A3
:10B3F000D203114008430A216143434A89188880D7
:10B400007CE0002D18D0032C01D10020ABE70A20EE
:10B4100060433D4940180089022801D10020A2E77D
:10B420000A216143384A8918098914225143374A4D
:10B43000881804F0ABF85EE00020019001A801F04C
:10B44000EFF8002801D104208DE7002003460246D2
:10B4500000900299019801F075F90746002F05D078
:10B46000019801F0D7F938467DE745E0032C04D177
:10B47000019800F0C3FC002075E70A2060432249D0
:10B480004018008902280FD1FFF7D4F90A2161433F
:10B490001D4A891808810A20604311464018008916
:10B4A000022801D104205EE70A20604316494018B3
:10B4B000008914214843154940180069002803D029
:10B4C000019801F0A7F90AE00A2060430E4A8018AB
:10B4D0000089142250430D4A8018019901610A2104
:10B4E0006143094A8918098914225143074A881877
:10B4F00004F04FF800BF01E0072034E700BF002050
:10B5000031E70000FFFF0000C02E0020E02E0020E9
:10B5100070B586B004460E46154604216846017192
:10B52000048101A88671C571FFF79EFB06B070BD4E
:10B5300070B506460D46002D01D10E2070BD0020CD
:10B54000286068601D48864201D11020F6E7FFF7A9
:10B5500011FB00213046FFF75BFD0446032C03D1AD
:10B56000FFF724FB0520E9E70A206043144940184F
:10B57000408828800A20604340180089022818D09B
:10B580000A2161430E4A89180989142251430D4A40
:10B590008918086901F088F900280AD00A20604358
:10B5A000074940180089142148430649401800699A
:10B5B0006860FFF7FBFA0020C0E70000FFFF000013
:10B5C000C02E0020E02E0020F8B507460E46002EC3
:10B5D00001D10E20F8BD2A48874201D11020F9E799
:10B5E00001213846FFF714FD0446032C07D13846E5
:10B5F000FFF75AFD0446032C01D10420EAE70A2094
:10B600006043204940180589022D0BD1FFF712F93C
:10B610000546022D01D10420DCE70A2060431949C8
:10B620004018058103F09EFB14216943164A0090DF
:10B630008818009904F014F831880A206043114AF0
:10B6400080184180142068430F4940180069002881
:10B6500006D0142169430C4A8918086901F0DAF808
:10B66000706801F021F90A206043064A80180089B9
:10B6700014225043044A8018716801610020A9E730
:10B68000FFFF0000C02E0020E02E002070B5054610
:10B69000FFF770FA284600F0AFF80446002C03D0FC
:10B6A000FFF784FA204670BD002006E00022142136
:10B6B00041433E4BC9180A61401C0228F6D30020C2
:10B6C00046E00022D2430A214143394B5A5200221C
:10B6D0000A214143C9184A800A2141431A46891860
:10B6E000C9880122D20391430A224243D218D18051
:10B6F0000A2141431A46891889880122D2039143BD
:10B700000A224243D218918002220A214143C918D9
:10B710000A810A2141431A468918C988C90BC903FD
:10B72000421E5204520C11430A224243D218D180C5
:10B730000A2141431A4689188988C90BC903421C4A
:10B740005204520C11430A224243D2189180401CE9
:10B750000328B6D300201749086002201649086064
:10B76000144800680A21484311494018C088C00B9A
:10B77000C003C01C0F4909680A2251430C4A8918AA
:10B78000C8800D4800680A21484311464018808847
:10B79000C00BC003C01C084909680A225143044A6F
:10B7A00089188880FFF702FA00207CE7E02E00204D
:10B7B000C02E00200C2100201021002030B585B0C3
:10B7C0000446002C02D10E2005B030BD022069468F
:10B7D0000870029407480190204601F065F8684619
:10B7E000FFF742FA0546002D02D0204601F012F87C
:10B7F0002846E9E7FDBD010010B50446074884422C
:10B8000002D30748844201D9072010BD0322012139
:10B81000C902204603F00EFF0020F6E7881300005F
:10B820000087930370B50546002600202870002489
:10B830001FE014216143114A881803F0CDFE00284F
:10B8400016D0142060430D494018006900280FD01D
:10B850002878002806D0142060430858801B084927
:10B86000884205D9012028701420604303490E58EE
:10B87000641C022CDDD3304670BD0000E02E002099
:10B88000FFFFFF7FF8B506460F461048864201D1FC
:10B890001020F8BD01213046FFF7BAFB0446032C07
:10B8A00001D10520F5E70A206043094940180589C0
:10B8B000022D01D10520ECE714216943054A8818BF
:10B8C000394603F091FE0020E3E70000FFFF00008F
:10B8D000C02E0020E02E0020F8B506460F46104886
:10B8E000864201D11020F8BD01213046FFF790FBC0
:10B8F0000446032C01D10520F5E70A2060430949DD
:10B9000040180589022D01D10520ECE71421694377
:10B91000054A8818394603F07BFE0020E3E7000063
:10B92000FFFF0000C02E0020E02E0020F8B50646E4
:10B930000F461048864201D11020F8BD0121304643
:10B94000FFF766FB0446032C01D10520F5E70A202A
:10B950006043094940180589022D01D10520ECE713
:10B9600014216943054A8818394603F091FE0020E6
:10B97000E3E70000FFFF0000C02E0020E02E0020C3
:10B98000F7B582B004461546002600275DE004E0C6
:10B9900030480088801E2F4908802E4800880228E1
:10B9A000F6DA2C480088142148432B4940180069D6
:10B9B000002844D02749098814225143264A881870
:10B9C00003F00AFE00283AD0224800881421484398
:10B9D00021490858201A2149884230D80021019174
:10B9E0001C490988142251431B4A8818224601A980
:10B9F00003F064FE6846007900281FD015490988C5
:10BA000014225143144A8918086900F04DFF114867
:10BA10000088142148431049401802693046761CBA
:10BA20008100039842502868B04207D10948008835
:10BA3000401C08490880002005B0F0BD00BF054843
:10BA40000088401C034908807F1C022F9FD32E6072
:10BA50000020F1E71A210020E02E0020FFFFFF7FE9
:10BA6000F8B529480078002800D1F8BD27480068BB
:10BA7000002801D1012000E000200546244800688C
:10BA8000002801D1012000E00020064600BF002D63
:10BA900014D1684651DF0446052C01D101250CE084
:10BAA000002C06D000BF1B4A65212046FDF772FE20
:10BAB00003E0164900980968884700BF002E1AD194
:10BAC00015480088009069461448006861DF044604
:10BAD000052C01D101260DE0002C06D000BF0D4A37
:10BAE0007C212046FDF756FE04E00C48006808491A
:10BAF0000968884700BF002D02D0002E00D000E06A
:10BB0000C5E700BF00BFB0E7382100204821002072
:10BB10004421002098FF0100402100203C2100200A
:10BB20000C48008CC0B2012812D10A48808C000752
:10BB3000000F00280CD10748806AF02108404028F7
:10BB400006D10448C06A0840002801D1012070478E
:10BB50000020FCE7C00F00F01948008CC0B201289B
:10BB60002CD11748808C0007000F002826D11448DC
:10BB7000806AF0210840002806D11148C06A0840B8
:10BB8000002801D1012070470D48806AF02108404B
:10BB9000102806D10A48C06A0840002801D10120B7
:10BBA000F1E70748806AF0210840302806D10448B0
:10BBB000C06A0840002801D10120E4E70020E2E744
:10BBC000C00F00F0002906D1024615320123934030
:10BBD000044A936005E00246153201239340014A6E
:10BBE000D36070470005005010B504460548007842
:10BBF000C007C00F002803D003480078FEF7BAF949
:10BC000010BD00002820002020200020FEB52B4879
:10BC1000006801902A480078009040E00098C00039
:10BC2000284909684418257835E018206843616878
:10BC30000F18681CC5B2A078A84200D1002538783A
:10BC4000022802D0032823D10EE02421786848433B
:10BC50001D4909684618307D002804D0786803F033
:10BC600009F80020307514E00CE01449096824221A
:10BC70005143154A12688818002101750F4A016A5C
:10BC8000116000BF0D480068401C0028EDD100E0A5
:10BC900000BF00BF00BF6078A842C6D100BF0098B7
:10BCA000411EC9B200910028B8D10448016801982A
:10BCB000814201D00120FEBD0020FCE7742100205C
:10BCC0006C2100207021002068210020FEB507466D
:10BCD00043480068029043480078019071E0019861
:10BCE000C00041490968451863E0781C002807D066
:10BCF0003E46242070433D4909684418276A29E0DC
:10BD00002978182359436A6850182978491C2970E2
:10BD10002978AA78914201D100212970466824210E
:10BD20007143324A12688C180178012902D1217DB1
:10BD3000002900D03DE08168A160C168E16001692F
:10BD400021614169E1612A490978002901D0002176
:10BD5000A16000BF2749A0680968401A0002000AD4
:10BD60002549884208D22349A068096802F0F4FDF9
:10BD7000E1684018606011E01E48A168006802F0A8
:10BD8000EBFD0090E1680098814204D9E1680098D9
:10BD9000081A606001E00020606000BF0020A06021
:10BDA000E06001202075801E2062304602F0F4FE23
:10BDB00000BF781C002898D128786978884294D1EF
:10BDC00000BF0198411EC9B20191002887D10448E3
:10BDD00001680298814201D00120FEBD0020FCE7ED
:10BDE000742100206C210020702100206821002097
:10BDF0008D21002078210020FFFF7F00FEB5054641
:10BE00002E46304600F04EFC0446002C29D0E07946
:10BE1000A179000208436946088001966179227978
:10BE20000902114308460121FFF7F2F80746032FE4
:10BE300009D00A2078430D49401840886946088097
:10BE4000684603F0A7FD68460088A071000AE0710B
:10BE5000617922790902114308466946FFF7B4FB6C
:10BE600000BF304600F0D6FCFEBD0000C02E002012
:10BE70008EB0FFF76DF803F0BBF9FEF7F9FA022078
:10BE800000231A46194600901846FCF70BFF00BF26
:10BE9000002348223649052002F0D0FB054600BFAA
:10BEA0002E46002E06D000BF32A2FF21653130465B
:10BEB000FDF770FC00BF00BF314802F0B3FB314812
:10BEC00002F0F0FB00F0A9F82F48099064200B90D5
:10BED000262108A8017205200C90002108A80175F0
:10BEE0000D98009009A80FC801F0FEFC044600BFA1
:10BEF0002546002D06D000BF1EA2FF21793128461D
:10BF0000FDF748FC00BF002510E0A8B201F000FEDC
:10BF1000044600BF2646002E06D000BF15A2FF2112
:10BF20007F313046FDF736FC00BF6D1C022DECD38F
:10BF300000F0F4FD00BF00F0A6F80546002D06D085
:10BF400000BF0CA2FF2185312846FDF723FC00BF6E
:10BF5000FDF7B8FB0AE002A801F03AFC002805D181
:10BF600002A801F04BFC02A801F09EFCF3E70000E0
:10BF7000C02400202E2E5C6D61696E2E63000000CF
:10BF80008DDD010059DA0100D6BE898EF8B505466F
:10BF90000E4614462879801CC7B22078801CC01930
:10BFA0001F2801DD0C20F8BD781CC1B22278501C7E
:10BFB0002070B154FF212278501C2070B154227897
:10BFC0009119288803F002FC217840182070A88875
:10BFD00000280EDDA868002801D10720E3E7AA8821
:10BFE00023789819A968FCF713FA20782979401862
:10BFF00020700020D7E700B589B002E001A801F069
:10C00000CEFE01A802F06AF90028F7D109B000BD00
:10C0100010B50446FFF7EFFF10BD10B5FEF7DCFDCD
:10C0200002F0B4F910BD10B588B00446207800289D
:10C030000ED0012804D0022806D0042810D10BE02D
:10C04000B520694648700CE0B3206946487008E0A6
:10C05000B4206946487004E0B6206946487000E0A4
:10C0600000BF00BF207BC01CC1B268460170A18820
:10C070004180227B01A8A168FCF7CAF9684602F05A
:10C080005FF908B010BD00B589B0042168460171A0
:10C0900081214171022181713DDF08210098084012
:10C0A000C10801A8C17002F043F9C1B201A8017131
:10C0B00002F046F9002802D1042009B000BD00209A
:10C0C000FBE7704730B587B004460D46112168463E
:10C0D00001704470857000F003F807B030BD0000B7
:10C0E00030B587B00446254800882549884202D1EA
:10C0F000244807B030BD24488078002802D1214868
:10C10000401EF6E706A862DFC5B2002D01D011205F
:10C11000EFE76846007E002802D11A48801CE8E755
:10C12000194881896846018101218172002181813C
:10C13000207802280FD004DC002807D0012811D174
:10C1400008E011280BD012280CD105E0E078001D82
:10C1500001900AE000BF00BF0520019005E0032028
:10C16000019002E00120019000BF00BF01A80490EF
:10C17000059402A901480088A6DFBAE7DA2000206A
:10C18000FFFF000002300000C8260020F0B585B097
:10C1900005460E461746019502976846067301212B
:10C1A000817012490180124A69460120A0DF0446CD
:10C1B000002C02D0032005B0F0BD0E490E4863DF0D
:10C1C0000446002C01D02046F5E701A800F082F9D2
:10C1D0000446002C01D02046EDE700F0D3FB0446D6
:10C1E000002C01D02046E6E70020E4E7E4FE000052
:10C1F000C8260020D820002060FF0100F0B589B0DB
:10C200000546288850287DD1E8889B49898988423D
:10C2100079D12C4620342078002804D0012841D040
:10C22000022871D190E0A178627808021043934906
:10C23000884204D12078F221FFF744FFECE0E27855
:10C24000A3786778190239430846211D03F0E4FBFF
:10C250000646002E21D169460872201D0490E1781F
:10C2600002A80173A17862780802104369468881A8
:10C27000012102A8C18202F075FD089002A801F018
:10C28000DBFA002804D02078F021FFF71BFF03E041
:10C2900020788021FFF716FF03E02078F021FFF7D8
:10C2A00011FFB9E0E078002802D0012845D118E05C
:10C2B0002279002A01D0012200E000221146A37851
:10C2C00066781802304303F011FE002804D020786D
:10C2D000F221FFF7F7FE35E020788021FFF7F2FE2C
:10C2E00030E02079002815D0A27863781102194334
:10C2F000084603F061FD002807D02078F221FFF7FF
:10C30000E1FE1FE0A8E089E081E020788021FFF7CE
:10C31000D9FE11E0A278637811021943084603F0B0
:10C320002DFD002804D02078F221FFF7CBFE09E094
:10C3300020788021FFF7C6FE04E02078F321FFF784
:10C34000C1FE00BF00BF67E0E078002802D00128EE
:10C3500056D131E0A17862780802104347498842FB
:10C3600004D12078F221FFF7ADFE4EE000200890C6
:10C37000A278637811021943084608A903F098FDD2
:10C38000002804D02078F121FFF79CFE3DE0122127
:10C3900068460171A17860780902014368464171DD
:10C3A000090A8171E17801A8C17008A8017801A883
:10C3B0000171FFF795FE28E0A27863781102194316
:10C3C000084608A903F04EFD002804D02078F22189
:10C3D000FFF778FE19E0122168460171A1786078B4
:10C3E0000902014368464171090A8171E17801A897
:10C3F000C17008A8017801A80171FFF771FE04E07F
:10C400002078F321FFF75EFE00BF00BF04E0207834
:10C41000F421FFF757FE00BF00BF2BE0E888164964
:10C420008988884209D12C462034217A206802F07C
:10C4300043FA606803F024FB1CE0E9880E48008A98
:10C44000814217D12020405D002801D0012000E06A
:10C450000020094988700DE02888102803D1A88899
:10C460000749088006E02888112803D10020C0432E
:10C470000349088009B0F0BDC8260020FFFF000076
:10C48000DA20002070B588B005460E461446172CF9
:10C4900002DD092008B070BD0B4800880B498842B6
:10C4A00010D00021684601714571290A817101A8E7
:10C4B000C4702246314602A8FBF7AAFF01A8FFF785
:10C4C0000FFEE7E70248E5E7DA200020FFFF000063
:10C4D0000230000030B593B004460020129000BF37
:10C4E00010A8007A01090901491C10A80172007AFC
:10C4F000F0218843103010A9087200BF00BF10A8B7
:10C50000407A01090901491C10A84172407AF021C2
:10C510008843103010A9487200BF10A8807A062105
:10C520008843811C10A881721C210BA8FBF7CFFF48
:10C5300008A8007B02218843811C08A80173007BA6
:10C5400010218843411808A8017300200E9012A8FA
:10C55000109000200C900F900A9008A8007AF0210B
:10C5600088430146103108A80172007A01090901C7
:10C57000491C08A80172407AF02188430146103115
:10C5800008A84172407A01090901491C08A84172B2
:10C59000807A08218843014608A88172807A102198
:10C5A0008843014608A88172807A4108490008A89A
:10C5B0008172807A06218843811C08A881721648FE
:10C5C000017808A88171042168468184206806905A
:10C5D00060680790217A08A80170142101A8FBF770
:10C5E00076FF0921684681810021C18109210182EC
:10C5F00009A8019006A805900AA802900749088892
:10C600000B1D01AA0BA9A2DF0546002D02D00320B5
:10C6100013B030BD0020FBE7D8200020C826002042
:10C6200070B50546002119E0EFF31080C407E40F50
:10C6300072B61148405C00280CD101200E4A5054BB
:10C64000282048430D4A80182860002C00D162B68B
:10C65000012070BD002C00D162B6491C1D29E3D316
:10C6600000BF042600BF06A244210420FDF792F873
:10C6700000BF00BF0020ECE7A02E0020182A0020F9
:10C680002E2E5C2E2E5C2E2E5C7262635F6D6573A7
:10C69000685C7372635C6D6573685F7061636B6522
:10C6A000742E63000246002A00D1704711460931FA
:10C6B0005078062802DD5078252801DD0020F4E7B7
:10C6C0000FE00B7810460930081A1B185078801FAD
:10C6D000834201D90020E8E70878401C4301181A7A
:10C6E000091848781628ECD1C8788B7800021843CE
:10C6F000024B9842E5D10846D7E70000E4FE00006F
:10C7000030B504462046FFF7CDFF0546002D01D188
:10C710000B2030BD2046093085420ED02878401CC1
:10C72000C1B2002004E02B5C224609321354401CA5
:10C730008842F8D32546093500BF2878C01D6070AF
:10C740000020E6E7FFB581B005461F460A9E002D92
:10C7500002D10E2005B0F0BD2C460934172E01DDA4
:10C760000920F7E7284600F0E3F830460E306870FD
:10C77000287800090001801C2870F01D2070162008
:10C7800060700D48A070000AE07002982071000AE5
:10C7900060710398A071000AE071002E09DD002F7E
:10C7A00007D0172E05DC3246394620460830FBF705
:10C7B0002FFE0020CEE70000E4FE000002461146F6
:10C7C000093110E04878162806D1C8788B78000225
:10C7D0001843094B984201D0012070470878401C4B
:10C7E0004301181A09185078C01F13460933C0189E
:10C7F0008842E7D80020F0E7E4FE0000002003E0D4
:10C800000021034A1154401C1D28F9D37047000031
:10C81000A02E0020F8B506461849701A2821FBF70B
:10C8200071FE04461D2C01D30020F8BDEFF31080EB
:10C83000C507ED0F72B61248005D00280ED100BF8B
:10C84000082700BF0FA276210820FCF7A3FF00BF36
:10C8500000BF002D00D162B60020E6E70848005D69
:10C86000401E07490855002D00D162B60448005DFE
:10C87000002801DD0120D8E70020D6E7182A002093
:10C88000A02E00202E2E5C2E2E5C2E2E5C7262635B
:10C890005F6D6573685C7372635C6D6573685F7010
:10C8A00061636B65742E6300F8B505461549681A17
:10C8B0002821FBF727FE04461D2C01D30020F8BDDC
:10C8C000EFF31080C607F60F72B60F48005D002820
:10C8D00003D00D48005DFF2809D100BF042700BF29
:10C8E0000AA262210420FCF755FF00BF00BF0648E2
:10C8F000005D401C04490855002E00D162B601209D
:10C90000DDE70000182A0020A02E00202E2E5C2E2D
:10C910002E5C2E2E5C7262635F6D6573685C737251
:10C92000635C6D6573685F7061636B65742E630033
:10C930007CB50446684671DF0546002D01D02846C7
:10C940007CBD2078402188436946097889014022CE
:10C95000114008432070062200A90131E01CFBF7BA
:10C9600057FD0020ECE710B504462046FFF726FFF0
:10C97000002802D02046FFF7C3FE2046FFF7D8FF6D
:10C9800010BD000010B590B01C2109A8FBF79FFD59
:10C9900008A8007904218843011D08A801710079C5
:10C9A00010218843411808A8017100200E900F90B3
:10C9B0000A900D90089008A84078F021884301461D
:10C9C000103108A84170407801090901491C08A8E4
:10C9D0004170807806218843811C08A88170807886
:10C9E00008218843014608A8817080781021884377
:10C9F000014608A88170807841084900491C08A8B0
:10CA0000817014480178684681770521818300216F
:10CA10000191142102A8FBF75AFD01216846018209
:10CA2000002141821B21818208A8039007A802905F
:10CA300001A80690084908880B460C3302AA09A9E8
:10CA4000A2DF0446002C02D0032010B010BD00204D
:10CA5000FBE70000D8200020C8260020F7B584B0EE
:10CA600004460F4606980678B01C1F2803DC607841
:10CA7000801C1F2802DD0C2007B0F0BD1F20801B8A
:10CA8000801E85B20295B11C781802A97DDF039043
:10CA90000398002801D00398EEE72078022808D1F7
:10CAA00068460089A84204DC09200190684605898F
:10CAB0000BE0082001906078002804D06078A8423C
:10CAC00001DC657801E068460589681CC2B2304621
:10CAD000711CCEB23A543046721CD6B20199395408
:10CAE00006980178A81C0818C1B2069801700020A9
:10CAF000C2E710B504462088F0210840102802D073
:10CB0000502808D103E02046FDF794F804E02046C1
:10CB1000FDF7C6F800E000BF00BF10BD70B596B0CD
:10CB20000020159010A9087414A860DF0446002C9A
:10CB30000DD0082C0BD000BF2646002E06D000BF1B
:10CB400032A296213046FCF725FE00BF00BF062525
:10CB500030213348FBF7BBFC3148C5700220304917
:10CB6000087030480068139011A871DF044600BFB8
:10CB70002646002E06D000BF24A2A9213046FCF78D
:10CB800009FE00BF00BF11A84079000211A98979F0
:10CB90000843024624A101A8FBF744FB01A8FBF7C8
:10CBA00015FC86B2324601A913A87CDF044600BFFB
:10CBB0002646002E06D000BF14A2B0213046FCF756
:10CBC000E9FD00BF00BF00211548FCF7F6FF044651
:10CBD00000BF2646002E06D000BF0CA2B42130466E
:10CBE000FCF7D8FD00BF00BF134873DF044600BF49
:10CBF0002646002E06D000BF04A2B8213046FCF71E
:10CC0000C9FD00BF00BF16B070BD00002E2E5C6EC7
:10CC100072665F6164765F636F6E6E2E6300000004
:10CC20000825002020FF01007262635F6D65736854
:10CC300020232564000000000020002070B5044679
:10CC40000D4629462046FBF787FF00BFE106C90EC7
:10CC5000012088400549086000BF00BFE106C90EF9
:10CC6000012088400249086000BF70BD80E200E0FA
:10CC700000E100E0FEB505460E46284600F022FA27
:10CC8000002822D02846FDF765FC001F009000F028
:10CC900005FA0746BC11032C0CD100BF1F480069E0
:10CCA0000121A9400840002801D0032000E0022013
:10CCB000019005E0012C01D1022000E00320019049
:10CCC0002846019900F039F927E0284600F006FAD5
:10CCD000002822D02846FDF73DFC0446A000FF3086
:10CCE000013087B220460E49512212018918820074
:10CCF0008958012211430A4A51231B01D21883008B
:10CD0000D15000BF384600F053F9002E04D0012165
:10CD1000A140084600F060F900BFFEBD00050050CC
:10CD200000600040F7B582B004460E460020019036
:10CD3000204600F0B9F9002802D0082001905FE0F9
:10CD4000F27820460499FDF7C9FB0546681C0028C7
:10CD500053D0B078002810D000BFA1002A4A89180B
:10CD60000968022291430846052109070722120299
:10CD70008918A200885000BF0AE07078810005225F
:10CD8000120707231B02D218A300D15000BF00BF17
:10CD9000F078002826D037781C4851210901401826
:10CDA000A90040581A49084018495122120189180F
:10CDB000AA0088501548512109014018A90041587E
:10CDC00020021F22120210403A0403231B041A40BF
:10CDD000104301430D48512212018018AA008150CE
:10CDE00000BF0CE0281F0B49085C3178890108431B
:10CDF00042B2281F07490A5401E00420019000BFF5
:10CE0000019805B0F0BD0000000700500060004030
:10CE1000FFE0FCFF5C2F0020014600BF05480069D1
:10CE2000C840C007C00F002801D001207047002073
:10CE3000FCE700000005005010B5124800780028FB
:10CE400001D0082010BD002404E0204600F056F96F
:10CE5000601CC4B2202CF8DB002404E02046FDF75F
:10CE600025FB601CC4B20C2CF8DB01210620FFF767
:10CE7000E5FE0120C00700F0AFF80120014908706D
:10CE80000020DFE7082F002003480078002801D0A9
:10CE9000012070470020FCE7082F00200146880091
:10CEA000FF30413080B27047F8B504460F46002588
:10CEB00029E02846FFF7F2FF064620463146425851
:10CEC000002A01D0012200E00022002A1AD001200D
:10CED0000004A840032109026118496801400029A3
:10CEE00001D0012100E0002100290BD0314620466D
:10CEF00000F078F8B800054B1958B800044B1A58E0
:10CF0000304690476D1C042DD3D3F8BD302100204E
:10CF10002821002010B58A0005231B0707242402BE
:10CF20001B1984001A5110BD032105221207072383
:10CF30001B02D2188300D150704710B5052212078A
:10CF400007231B02D2188300D25803231B049A43E1
:10CF500005231B07072424021B1984001A510522EC
:10CF6000120707231B02D2188300D2580B041A435E
:10CF700005231B07072424021B1984001A5110BD26
:10CF8000012383401946064B5B68C340DA07D20F82
:10CF9000002A02D1024B996001E0014BD960704731
:10CFA0000005005001460148081870470060004025
:10CFB00010B504462046FFF7F5FF0021016010BDC3
:10CFC00010B504462046FFF7EDFF0068012800D1A8
:10CFD00010BD0020FCE700000149486070470000D8
:10CFE00000630040002242507047000038B50546FB
:10CFF0006846FEF717FC044668460078002800D112
:10D0000038BD7D20C0002818844203D2204602F09B
:10D010003DFD08E02146054801F0E6FF002802D06A
:10D02000204602F033FD00BFEAE70000042A00209A
:10D030001CB5022168464171094801796846817131
:10D04000FFF7EEFA002800D11CBD684600F0FAF99F
:10D05000002802D00098FFF7DDFB00BFF4E70000D6
:10D06000DC20002070B504460D46002C05D0002DB4
:10D0700003D020782978884201D0012070BD207823
:10D08000C21F2946083120460830FBF74BF900281B
:10D0900001D00120F2E70020F0E70000014601483E
:10D0A000405C70475C2F0020014605484056C01781
:10D0B000401C002801D0012070470020FCE7000040
:10D0C0003C2F0020014604484056042801DB012083
:10D0D00070470020FCE700003C2F00200146064876
:10D0E0004056002805DB04484056042801DA012098
:10D0F00070470020FCE700003C2F00200022D243B4
:10D1000001490A54704700003C2F00207CB51648A6
:10D11000FDF70CFE044622E069461348FDF730FE99
:10D1200000281AD168464079022816D100210E48FD
:10D13000FDF762FE00F04CF800BF0C4800690028C3
:10D14000FBD10B49C86064230022D2430021094D62
:10D1500000982D68A847641E00E002E000BF012C83
:10D16000DAD800BF7CBD00003C26002040150040FE
:10D17000001100405C200020014908607047000059
:10D18000642000200EB50A2804DC4100091D0E4A67
:10D19000916013E0242804DC4100891D0A4A916053
:10D1A0000CE00A4B0ECB0293019200910146253907
:10D1B00089006A465158044A916000BF4106490EF1
:10D1C000014A403251610EBD0015004054FF01007C
:10D1D000002007490860401E064988600120064972
:10D1E000086102200549087000BF00BF70470000B9
:10D1F00000120040001300400010004054200020A6
:10D20000FEB53048C068002843D02F480068002889
:10D2100001D0012000E0002002902B48C568642660
:10D220002848C069002805D000202649C861274841
:10D230008068C6B200202349C86069462448FDF7CB
:10D24000DBFD044600BF2746002F07D000BF21A208
:10D25000FF2149313846FCF79DFA00BF00BF684600
:10D260004079012803D068464079022807D1334627
:10D270002A46224F029900983F68B84703E02049A8
:10D2800000980968884700BF00BF02201D49087048
:10D2900001E0FFF73BFF1B480078022803D0194844
:10D2A000007803280DD101A90948FDF769FD002880
:10D2B00003D101A801F038F902E013480068804763
:10D2C00000BFFEBD001100400014004040150040AA
:10D2D0003C2600202E2E5C2E2E5C2E2E5C7262636D
:10D2E0005F6D6573685C7372635C726164696F5FC4
:10D2F000636F6E74726F6C2E630000005C20002000
:10D3000060200020542000205820002010B5034841
:10D310004079002801D1FFF78BFE10BDDC200020F2
:10D3200070B504460D46164600203549C8630120F5
:10D33000C86300203349C860032008610220886068
:10D3400025203049403148618E202E4948622E48C0
:10D35000C8612E480068000E88622C4800680002F0
:10D36000000A000208620020C86201200863284801
:10D3700048612848886128488863FF200430486352
:10D380002648C86394201F494031486024480078EB
:10D3900003280BD10820234988602348086008200F
:10D3A0004860002048610846FDF7C5FC02201C4982
:10D3B000087000201D49C8600120012181401C4ADD
:10D3C000116000BF00BF012181401A4A116000BFF7
:10D3D0001948046019480560194806601148FDF7AE
:10D3E000BBFC002803D014480068804706E001F029
:10D3F00093FF002802D00120FBF70EFB70BD000058
:10D40000C01F00400015004000D6BE8964200020E7
:10D4100006010200250003025B0600005555550079
:10D42000542000203C2600205426002000110040FB
:10D4300080E200E000E100E0582000205C200020B5
:10D440006020002070B50446002C01D10E2070BD74
:10D450006079002804D12079012801DD1020F6E749
:10D4600021460C48FDF7F9FC002801D00420EEE726
:10D47000EFF31080C507ED0F72B601F04DFF0028E5
:10D4800002D00120FBF7C8FA002D00D162B60020BF
:10D49000DDE700003C26002070B5044601206D4900
:10D4A00008706D480078012802D0022814D109E0E4
:10D4B00002206A49087000206949086001F0B8FE3E
:10D4C000664870BD674802F037F901F0B1FE0020F0
:10D4D000614908706148F4E700BF00BF00205F4960
:10D4E00008702300FBF7FEFF05043A377E3D8E00EF
:10D4F00001205D49087000205C4908705C490860A3
:10D5000001F0E4F8FDF79CFB5A48006801F050FC7C
:10D5100001F030F953485849086001F093FF57492A
:10D5200009684618FDF7C6FA351A0323544A2946F6
:10D53000002001F00FFD5048006802F0E1F8484873
:10D540000068401C46490860002803D1084600686E
:10D55000401C086062E0FFF753FE5FE001F086FACE
:10D560005CE046480068474909684018434908603C
:10D570000020444908603E480068401C3C4908605F
:10D58000002001F02DFA01F05DFF3C4909684618C2
:10D59000FDF790FA351A0323394A2946002001F095
:10D5A000D9FC00202D4908702D48006801280CD1B5
:10D5B000324800683049096840182A49884210D228
:10D5C0002D48006802F09CF80BE02C4800682A49BE
:10D5D000096840182C49884203D22748006802F0A5
:10D5E0008FF81BE02448006840082349086008467B
:10D5F00000687D21C900884203D91F48006802F0F5
:10D600007FF80BE000BF002500BF20A2FF215F31A3
:10D610000020FCF7BFF800BF00BF00BF00BF1348E9
:10D620000078002805D00F4802F086F801F000FECF
:10D630000BE00A480078012804D1084840681149E5
:10D64000086002E000200F490860002001490870CE
:10D65000024836E7A4200020A820002090200020C7
:10D66000B020002010270000A5200020A7200020C7
:10D67000C42000209C200020A02000209820002012
:10D68000A9AA0100C0200020809698002E2E5C2EB2
:10D690002E5C2E2E5C7262635F6D6573685C7372C4
:10D6A000635C74696D65736C6F742E6300000000B9
:10D6B000F8B507460D4600241AE000BF684639DF7A
:10D6C000684600780028F9D0281B69460978884206
:10D6D00002D2281BC0B200903819694609783ADF97
:10D6E0000646002E01D00320F8BD684600782418B5
:10D6F000AC42E2D30020F7E701460879C0064B6848
:10D700005B0918430B681A1A088940048B68DB0B05
:10D7100018434B6858400860CB688868C018486058
:10D72000C8688018886008688018C860C868704732
:10D73000F8B504460020009004216846FFF7B8FFC2
:10D740000546002D01D02846F8BD09482060009804
:10D7500060600098A0600098E060002603E020462A
:10D76000FFF7CAFF761C142EF9D30020ECE7000067
:10D77000ED5EEAF1014605480078002801D1082055
:10D7800070470348006808600020F9E74420002043
:10D790004820002010B5044604480078002800D135
:10D7A00010BD2046FEF72AFD00BFF9E74420002007
:10D7B000014605480078002801D108207047034839
:10D7C000007808700020F9E7442000204C20002059
:10D7D00010B5044607480078002801D1082010BD84
:10D7E00021460548FDF708FB002801D00520F6E793
:10D7F0000020F4E7442000204425002010B5044612
:10D8000020780300FBF76EFE0506040511101400D6
:10D8100000BF00BFA088012800DD0AE0A2681178DF
:10D820002079FEF7CFF904E003E0FFF777F900E095
:10D8300000BF00BF10BD000070B504461848007856
:10D84000002801D1082070BD002C01D10E20FAE77C
:10D8500021461448FDF701FB0546002D1ED1A068A6
:10D8600000281BD02078002807D0012806D00228E5
:10D8700002D0042810D108E000BF00BFA068002833
:10D8800002D0A068FFF710F807E0A068002802D0D7
:10D89000A068FFF709F800E000BF00BF2846D2E704
:10D8A000442000204425002010B50446207800289C
:10D8B00006D0012806D0022803D0042810D108E0A1
:10D8C00000BF00BFA068002802D0A068FEF7A2FF3A
:10D8D00007E0A068002802D0A068FEF79BFF00E0E8
:10D8E00000BF00BF10BD00000FB4FEB500210291C3
:10D8F00002A812DF6846007A002804D10220FEBC8C
:10D9000008BC04B0184731480078002801D008202E
:10D91000F5E70A98052803D32D490A98884201D9CA
:10D920000720ECE701F05AFBFDF756F9FEF766FF1A
:10D9300008AD2979089800F00FFF2B7C2A797D2605
:10D94000F6000A9D75432846089902F031F804460E
:10D95000002C01D02046D2E70020009001900190D9
:10D9600069460870684660DF0446002C03D0082C26
:10D9700001D02046C3E708AB19790A9A0898FEF748
:10D9800005FC0446002C01D02046B8E70B9801F0B6
:10D9900077FC10490898086008A800790E490870BB
:10D9A0000E490A98086001200849087008200C49AF
:10D9B00088600C4808601C204860002048610846C8
:10D9C000FDF7B9F901F0C6FC002098E744200020DB
:10D9D00060EA0000482000204C2000205020002059
:10D9E000442500205C2500200146054800780028D9
:10D9F00001D1082070470348006808600020F9E75B
:10DA0000442000205020002070B504460D460548F3
:10DA1000844201DD102070BD2946204602F048FAFC
:10DA2000F9E70000EFFF000070B504460D46084816
:10DA30000078002801D1082070BD0648844201DD2D
:10DA40001020F9E72946204602F050FAF4E70000DA
:10DA500044200020EFFF000010B50446204601F0EE
:10DA6000AFFC10BD10B506480078022801D0082090
:10DA700010BD01F06FFC0120014908700020F7E79C
:10DA80004420002010B506480078012801D0082065
:10DA900010BD01F0DDFC0220014908700020F7E70D
:10DAA0004420002070B504460D460548844201DD3F
:10DAB000102070BD2946204602F024F9F9E7000045
:10DAC000EFFF000070B504460D46084800780028B6
:10DAD00001D1082070BD0648844201DD1020F9E71D
