:020000040001F9
:1080000058390020D1810100E3810100718901000C
:108010000000000000000000000000000000000060
:10802000000000000000000000000000E7810100E7
:108030000000000000000000E9810100EB81010068
:10804000ED810100ED810100C98C0100ED8101008D
:10805000ED81010000000000E9870100ED810100D1
:10806000ED810100B98C0100ED810100ED8101007D
:10807000ED810100ED810100ED810100ED81010044
:108080005D8D0100158C0100E18B0100ED81010087
:108090003D8C0100ED810100458C0100ED81010066
:1080A000ED810100ED8101000000000000000000F2
:1080B00000000000000000000000000000000000C0
:1080C00000F002F800F038F80CA030C80838241886
:1080D0002D18A246671EAB4654465D46AC4201D100
:1080E00000F02AF87E460F3E0FCCB64601263342FA
:1080F00000D0FB1AA246AB4633431847008C000061
:10810000208C00000023002400250026103A01D313
:1081100078C1FBD8520700D330C100D50B6070473F
:1081200010B5642902D100F0D7F810BD002010BDB1
:108130001FB51FBD10B510BD00F007FB1146FFF7BE
:10814000F7FF03F0D7FD00F01FFB03B4FFF7F2FFCA
:1081500003BC00F025FB0000401E00BF00BF00BFB5
:1081600000BF00BF00BF00BF00BF00BF00BF00BF17
:1081700000BFF1D170470000401E00BF00BF00BF2C
:1081800000BF00BF00BF00BF00BF00BF00BF00BFF7
:1081900000BFF1D17047000070B505460C46164689
:1081A00002E00FCC0FC5103E102EFAD2082E02D3DB
:1081B00003CC03C5083E042E07D301CC01C5361FEE
:1081C00003E021782970641C6D1C761EF9D270BD05
:1081D0000A48026803210A430260094880470948A7
:1081E0000047FEE7FEE7FEE7FEE7FEE7FEE70000EA
:1081F00005480649044A064B704700002405004024
:10820000818C0100C18001005831002058390020C4
:10821000583100204343514330B55C18010C130C16
:108220000D4692B25D4380B251432C190546554329
:108230000A0C09044D1962415843010C000440190D
:10824000514130BD0FB41CB5074B06AA7B446946AB
:108250000090059800F04DFA0020694600F05CFAA5
:108260001CBC08BC04B01847C9040000F8B50E4691
:108270000446002020622046E1688847002829D073
:10828000252802D06268A16820E0E1682046002726
:10829000884705001ED028464138192802D80127F2
:1082A000FF0220353246204627602946FFF738FF77
:1082B000002808D0012804D0F61DF608F60008367C
:1082C000D9E7361DD7E762682846A1689047206A3B
:1082D000401CCFE7206AF8BDF7B500257529106866
:1082E000009914A611D0C046C046002802DA4042C8
:1082F00011A608E0009909688A0701D50FA602E0D7
:10830000490704D50EA6012501E0C046C046009FDE
:108310000024243704E000F004FA30313955641C9D
:108320000028F8D12B4632462146009800F084F907
:10833000FEBD0000000000002D0000002B0000002A
:1083400020000000034610B50B439B070FD1042A01
:108350000DD308C810C9121FA342F8D018BA21BA09
:10836000884201D9012010BD0020C04310BD002A61
:1083700003D0D30703D0521C07E0002010BD0378C0
:108380000C78401C491C1B1B07D103780C78401C3F
:10839000491C1B1B01D1921EF1D1184610BD0000D3
:1083A00030B5441C03E00178401C00290DD0810742
:1083B000F9D10B4BDD0104C8D11A91432940FAD001
:1083C000001B0A0603D0C01E30BD001B30BD0A04CE
:1083D00001D0801E30BD0902FCD0401E30BD00001F
:1083E00001010101F8B5042A2CD3830712D00B78C0
:1083F000491C0370401C521E83070BD00B78491C8C
:108400000370401C521E830704D00B78491C037074
:10841000401C521E8B079B0F05D0C91ADF0020237A
:10842000DE1B08C90AE0FFF7B7FEF8BD1D4608C904
:10843000FD401C46B4402C4310C0121F042AF5D244
:10844000F308C91A521EF0D40B78491C0370401C63
:10845000521EEAD40B78491C0370401C012AE4D454
:1084600009780170F8BD01E004C0091F0429FBD29E
:108470008B0701D50280801CC90700D002707047AD
:1084800000290BD0C30702D00270401C491E0229EC
:1084900004D3830702D50280801C891EE3E70022F3
:1084A000EEE70022DFE70378C27819464378120628
:1084B0001B0219438378C0781B0419431143090236
:1084C000090A000608437047020A08704A70020C45
:1084D0008A70020ECA707047002203098B422CD3A7
:1084E000030A8B4211D300239C464EE003460B4304
:1084F0003CD4002243088B4231D303098B421CD366
:10850000030A8B4201D394463FE0C3098B4201D357
:10851000CB01C01A524183098B4201D38B01C01A8F
:10852000524143098B4201D34B01C01A5241030906
:108530008B4201D30B01C01A5241C3088B4201D3B5
:10854000CB00C01A524183088B4201D38B00C01A62
:10855000524143088B4201D34B00C01A5241411A89
:1085600000D201465241104670475DE0CA0F00D06C
:108570004942031000D34042534000229C46030965
:108580008B422DD3030A8B4212D3FC22890112BAEB
:10859000030A8B420CD3890192118B4208D38901C3
:1085A00092118B4204D389013AD0921100E08909DB
:1085B000C3098B4201D3CB01C01A524183098B42BC
:1085C00001D38B01C01A524143098B4201D34B01A5
:1085D000C01A524103098B4201D30B01C01A524108
:1085E000C3088B4201D3CB00C01A524183088B428F
:1085F00001D38B00C01A5241D9D243088B4201D318
:108600004B00C01A5241411A00D201466346524102
:108610005B10104601D34042002B00D54942704701
:1086200063465B1000D3404201B50020C046C046FF
:1086300002BD704770477047FFB504460D4681B0D4
:10864000243000902168880604D51022E069914307
:10865000216000E00120A84201DD471B00E0002767
:108660000498A1697A191018081AA0612078C00628
:1086700002D42046C046C046002608E0039862683F
:10868000A168805D9047206A401C761C2062049897
:108690008642F3DB2078C0060AD52046C046C04695
:1086A00006E06268A16830209047206A401C206282
:1086B00038467F1E0028F4DC07E000986268A16855
:1086C000405D9047206A401C206228466D1E0028AD
:1086D000F3DC2046C046C0462078000602D50220C2
:1086E00005B0F0BD0120FBE701694A1C0261087872
:1086F000704700B58FB002910021059105490193A3
:1087000079440391114604906846FFF7AFFD0FB01E
:1087100000BD0000E5FFFFFF0A681070521C0A60F0
:10872000704701468008081A02091018020A10183A
:10873000020C1018C008820012185200891A01E0B9
:10874000401C0A390A29FBD27047754600F024F80C
:10875000AE46050069465346C008C000854618B0BD
:1087600020B5FFF745FD60BC00274908B646002646
:10877000C0C5C0C5C0C5C0C5C0C5C0C5C0C5C0C5D1
:10878000403D49008D46704710B50446C046C0467E
:108790002046FFF7DAFC10BD00487047F830002093
:1087A00001491820ABBEFEE726000200704730B535
:1087B0008C180278401C13071B0F01D10378401C52
:1087C000120906D10278401C03E00578401C0D70A8
:1087D000491C5B1EF9D101E00B70491C521EFBD1F4
:1087E000A142E6D3002030BDF0B587B000260020BE
:1087F0000690FF20013005900125002417E0059820
:1088000004F0DCFE00280CD00120A0405549496846
:108810000140002905D0059804F0C8FE30462843E1
:1088200006466D000598001D80B20590641C042C5E
:10883000E5D3FF207D3004F0C1FE00280AD0FF20E0
:108840007D3004F0B3FE0120C007064300BF464858
:10885000006906903007000F00282AD00125002467
:1088600025E02846304000281FD000BF3F48512156
:1088700009014018A10040581F2109020840000AC0
:10888000049000BF3948512109014018A100405807
:10889000032109040840000C0390204601F0B6FBB8
:1088A000074603990498B84700BF6D00641C042C68
:1088B000D7D3F00FC007002852D000244EE0204646
:1088C00004F01AFF0490C0210498884307460498D6
:1088D0000840801103900120B8400546384604F056
:1088E0001FFF002839D0384601F0D4FB019001F079
:1088F0008DFB0290029800282ED000BF05200007B3
:10890000072109024018B900405803210904084012
:10891000000C019006982840002802D001980228F7
:1089200006D006982840002815D10198032812D1B6
:10893000039803280BD10198022801D1032000E0FD
:10894000022000903846009904F0E4FD00BF38464C
:10895000029A0399904700BF00BF641C082CAED355
:1089600007B0F0BD0063004000050050006000400B
:1089700001F0D6FEC206D20E01219140014A1160DB
:108980007047000080E200E0C206D20E0121914053
:10899000014A11607047000000E100E0C206D20EFB
:1089A00001219140014A11607047000000E100E0A0
:1089B000C206D20E01219140014A116070470000A9
:1089C00000E200E0C206D20E01219140014A11608E
:1089D0007047000000E200E0C206D20E0121914083
:1089E000014A11607047000000E200E0C206D20EAA
:1089F00001219140014A11607047000000E200E04F
:108A000010B5002819DA1A4A03071B0F083B9B0808
:108A10009B00D2588307DC0EFF23A3409A438B07A9
:108A20001B0E8407E40EA3401A43114B0407240FC6
:108A3000083CA408A4001A5118E00E4A03231B02A4
:108A4000D21883089B00D2588307DC0EFF23A34073
:108A50009A438B071B0E8407E40EA3401A43054B71
:108A6000032424021B198408A4001A5110BD00001D
:108A70001CED00E000E100E010B5002819DA1A4A08
:108A800003071B0F083B9B089B00D2588307DC0E93
:108A9000FF23A3409A438B071B0E8407E40EA340D9
:108AA0001A43114B0407240F083CA408A4001A51D0
:108AB00018E00E4A03231B02D21883089B00D258E9
:108AC0008307DC0EFF23A3409A438B071B0E84070A
:108AD000E40EA3401A43054B032424021B19840807
:108AE000A4001A5110BD00001CED00E000E100E000
:108AF00010B5002819DA1A4A03071B0F083B9B0818
:108B00009B00D2588307DC0EFF23A3409A438B07B8
:108B10001B0E8407E40EA3401A43114B0407240FD5
:108B2000083CA408A4001A5118E00E4A03231B02B3
:108B3000D21883089B00D2588307DC0EFF23A34082
:108B40009A438B071B0E8407E40EA3401A43054B80
:108B5000032424021B198408A4001A5110BD00002C
:108B60001CED00E000E100E010B5002819DA1A4A17
:108B700003071B0F083B9B089B00D2588307DC0EA2
:108B8000FF23A3409A438B071B0E8407E40EA340E8
:108B90001A43114B0407240F083CA408A4001A51DF
:108BA00018E00E4A03231B02D21883089B00D258F8
:108BB0008307DC0EFF23A3409A438B071B0E840719
:108BC000E40EA3401A43054B032424021B19840816
:108BD000A4001A5110BD00001CED00E000E100E00F
:108BE00010B510E00024094801F0AEFD044307F081
:108BF00073F9002803D0064801F0A6FD0443002CB9
:108C000000D101E000BFEDE700BF10BD282A002021
:108C1000E02A002010B5002007490860002106481E
:108C200041608160C16000200349403908604860AC
:108C300006F08EFF10BD00004011014010B506F097
:108C40007DFC10BD70B50C480068002811D00A48A2
:108C500000688047044600BF2546002D07D000BFAE
:108C6000064AFF212A31284600F0FAF900BF00BF6A
:108C700001E002F01BFD70BD9C210020A40C02004D
:108C800010B502F0C5FD002805D007480749486027
:108C9000C8130749886102F09FFD002802D0012017
:108CA0000449886010BD0000DFFF07C000050040D8
:108CB000006C00400006004010B50021014804F09F
:108CC0001FFB10BD0090004010B509E000201C49BA
:108CD0008860084680681B498969C8B201F0E0F9DC
:108CE000174880680028F1D11548C069002826D0AF
:108CF00000201349C861144801680068401E124AE8
:108D0000106000290AD01148006800780D49C86138
:108D10000E480068401C0D49086010E001200C4915
:108D2000C8600C480078012802D00020094908706A
:108D3000094801F00DFE002801D105F0E3FC10BD4B
:108D400000210040002500403C210020402100205F
:108D500000200040382100208828002010B5012084
:108D60000A4949680140002901D0012100E00021A1
:108D7000012909D100BF00200902054A89180860AD
:108D800000BF04480068804710BD00000003014098
:108D9000000001409021002030B47446641E257804
:108DA000641CAB4204D3635D5B00E31830BC18471E
:108DB0001D46F8E71CB5044903C9019100906846B7
:108DC00003F004FE1CBD0000080C0200124A1268E9
:108DD000002A07D0104B02681B681B68D21A0F4B81
:108DE0009A4205D90C4A126802610B4A106070471A
:108DF000094A116800E009690A69002A06D00A696F
:108E000012680368D21A054B9A42F4D80A690261C3
:108E1000086100BFEBE700006C210020FFFFFF7F2F
:108E2000F8B504460F461546002600202870207825
:108E3000002809D02A463946204603F07BFD064625
:108E4000002E01D03046F8BDA078002808D0294671
:108E5000384600F07BFA0646002E01D03046F2E795
:108E6000E07800280ED002212A78501C2870B954CE
:108E700001212A78501C2870B954E1782A78501CB6
:108E80002870B954606800280BD00020616808562B
:108E90002A46394607F062FA0646002E01D03046CF
:108EA000D1E7208900280CDD3B460622022120461E
:108EB0000830009507F0FDFA0646002E01D0304636
:108EC000C1E7208A00280CDD3B460722032120460B
:108ED0001030009507F0EDFA0646002E01D030461E
:108EE000B1E7208B00280CDD3B46152214212046DB
:108EF0001830009507F0DDFA0646002E01D0304606
:108F0000A1E7206A002809D02A463946206A01F0E4
:108F1000D5F90646002E01D0304694E7606A002855
:108F200009D02A463946606A02F076FF0646002ECE
:108F300001D0304687E72C20005D002809DD2A4655
:108F40003946204605F08AFF0646002E01D03046FD
:108F500079E7304677E70146C878042210400028B8
:108F600001D1072070470020FCE70000014600BF48
:108F7000064A50680122D2058243044B9A600122BE
:108F8000D2050240DA6000BF7047000000050050C3
:108F900010B5002407E0E100064A1268505C012188
:108FA00003F04CFE641C044800788442F3D3002094
:108FB00010BD0000B4210020B8210020FEB50646F7
:108FC0000C461746052F01D20720FEBD03F040FFD7
:108FD000002806D103F014FF0546002D01D02846D5
:108FE000F3E716480660164804701648076000202C
:108FF000154908601549086015E0E00080190190E6
:10900000134800680090019880786946487001997B
:109010000878104A694603F069FE0546002D01D024
:109020002846D2E700BF2046611ECCB20028E4D11A
:10903000094A0021094800F07FF8C6E7B421002062
:10904000B8210020BC210020C4210020C82100201C
:10905000A00C0200D5AB010051A50100C0210020E9
:1090600001F05EFBF7B5044615460221606804F086
:10907000FDF8684307466421FFF72EFA0646B2B2B0
:109080002046019900F002F8FEBD0000F7B5044645
:10909000154626680C210198484387192320805DD6
:1090A000022801D00820FEBD7868A84205D1626878
:1090B0005079F16988470020F5E7606840791D49DB
:1090C000085C002801D01120EDE702206168497991
:1090D000184A50547868002803D07868B1698842EB
:1090E00010D3002D02D0B069A84205D82A462046E8
:1090F000019904F0A6FB15E02A462046019904F0E8
:10910000E0FB0FE0002D02D0B069A84205D82A4646
:109110002046019904F023FC04E02A4620460199E8
:1091200004F064FC00BF0221606804F0D5F800BFC1
:109130000020B8E7CC21002070B503460C46194842
:109140000068002801D1082070BD002A01D1072045
:10915000FAE7002B01D10720F6E700211CE02420CC
:109160004843104D2D68285C002814D10125242087
:1091700048430C4E3668355424204843094D2D6829
:109180004019447024204843064D2D6840198261DF
:1091900019600020D8E7491C034800788142DEDBD3
:1091A0000420D1E7D8210020D4210020FFB581B0D0
:1091B0000E4617461C4620468107890F002901D11B
:1091C000012100E00021002902D1072005B0F0BDF7
:1091D000002C01D10720F9E705F03CFA26490A984E
:1091E0000860264806702648046000250CE000212F
:1091F00024206843224A1268115424206843204ADC
:109200001268801801756D1CB542F0DB2420704394
:10921000041903201B4908701B48046018340025FA
:109220000CE0E900184A12688818002101704170AA
:1092300087704460182179430C196D1C032DF0DBF5
:109240000020C043114908600020114908701149ED
:1092500008701420FFF78EFB03211420FFF784FC15
:109260001420FFF79BFB019805F0CAF905F0C2F93D
:10927000094908600020A9E7F8210020D421002036
:10928000D8210020DC210020E0210020E421002062
:10929000F4210020F5210020E8210020FEB504463D
:1092A0000D46164616480068002801D10820FEBD6C
:1092B00014480078844201D2052D01D20720F6E738
:1092C000242060430E490968085C012801D0082069
:1092D000EDE7242060430A490968401840780128D6
:1092E00001D1284600E00020074607F0B9F83B46C8
:1092F0002A4621460096019006F0E0FBD7E70000E1
:10930000D8210020D421002070B504460D48006803
:10931000002801D1082070BD0B480078844201D399
:109320000720F8E72420604306490968085C012803
:1093300001D00820EFE707F093F80546214606F034
:10934000E7FBE8E7D8210020D4210020F8B5054646
:109350000C462078001D1F2801DD0C20F8BD684652
:1093600079DF0646002E01D03046F7E70321227848
:10937000501C2070A95419212278501C2070A95427
:10938000207841196846008807F000F821784018D5
:1093900020700020E2E7000070B50022FF218A3132
:1093A00037480068FFF77AFF044600BF2546002DC6
:1093B00005D000BF33A236492846FFF751FE00BF53
:1093C0000022344934480068FFF768FF044600BFB4
:1093D0002546002D06D000BF2AA26521C9002846D7
:1093E000FFF73EFE00BF00222C492D480068FFF722
:1093F00055FF044600BF2546002D06D000BF21A220
:109400002349891D2846FFF72BFE00BF002225496E
:1094100025480068FFF742FF044600BF2546002D9F
:1094200006D000BF17A21A490C312846FFF718FED4
:1094300000BF00221D491E480068FFF72FFF0446A9
:1094400000BF2546002D06D000BF0EA2CD21890009
:109450002846FFF705FE00BF00221649164800689F
:10946000FFF71CFF044600BF2546002D06D000BFB5
:1094700004A2074912312846FFF7F2FD00BF70BD74
:10948000182000202E2E5C6D61696E2E6300000096
:1094900025030000A480000024200020A410000068
:1094A000002000200A170000142000201F450000A3
:1094B0001C2000205C4F0000202000200146880B6B
:1094C0008003002801D1012070470020FCE7000044
:1094D00070B5044620780300FFF75EFC0504401CCD
:1094E000343A59000321C9036068884204D301213A
:1094F00049076068884209D900BF102500BF25A22E
:1095000053211020FFF7ACFD00BF00BF6168A068C9
:1095100088473DE00321C9036068884204D30121E4
:1095200049076068884209D900BF102500BF19A209
:109530005B211020FFF794FD00BF00BF6168A068A9
:10954000884725E0237C201D07C805F015FE1FE095
:10955000E279A179A08801F025FD19E00321C90372
:109560006068884204D3012149076068884209D9AC
:1095700000BF102500BF07A278211020FFF770FD63
:1095800000BF00BF6268E168A068904700E000BFCC
:1095900000BF70BD2E2E5C2E2E5C2E2E5C72626380
:1095A0005F6D6573685C7372635C6576656E745F2E
:1095B00068616E646C65722E6300000070B50446CD
:1095C00006F0D4F80646204604F0EAFF2046FFF7EE
:1095D000FDFBEFF31080C507ED0F72B6074840683A
:1095E000401E06494860002D00D162B6304601F0A9
:1095F00065FA304605F0C8FC70BD00006C21002003
:1096000070B588B005462E46304602F091FF0446FC
:1096100000200090002C27D06179227909021143A3
:109620000846694607F0B0F900281DD16846007861
:10963000002819D004206946087160792179000258
:109640000843694608812046083003902078C01FEF
:10965000C1B201A8017306F089F8059001A804F0D1
:10966000ADFD01A802F025FC304603F019F808B062
:1096700070BDF3B593B00D4600211291119113986E
:10968000002814D01398FFF766FC0446002C02D083
:10969000204615B0F0BD12AA09A91398FFF7C0FB28
:1096A0000446002C01D02046F3E709AE00E0002676
:1096B000002D13D0284605F0F5FC0446002C01D0FF
:1096C0002046E6E711AA01A92846FFF7A9FB0446B0
:1096D000002C01D02046DCE701AF00E0002710A8F5
:1096E00003793A46017A304672DFD2E770B5044614
:1096F000208810380300FFF74FFB0906071E0A1EDB
:109700001E1E1D1C1E0017E00C4873DF14E000BF76
:10971000A08800230A4A19467FDF0546002D06D09F
:1097200000BF08A272212846FFF79AFC00BF00BFC5
:1097300002E001E000E000BF00BF70BD502000204B
:10974000682000202E2E5C6E72665F6164765F6317
:109750006F6E6E2E6300000010B5044620885028FE
:109760000BD0512802D0522808D100E007E0A08891
:1097700000231A461946A9DF01E000E000BF00BF40
:1097800010BD0000F3B581B006460025002400E0BE
:10979000641C042C04D2A00029490858B042F7D117
:1097A000042C42D20298002825D0012802D0022899
:1097B0003AD133E06000201822490D5C6000201887
:1097C0004018407800280ED01F4800680A225043F5
:1097D00001461E4A1E480068FFF760FD0746002F3D
:1097E00001D11A4806706000201816494018807888
:1097F0001849085518E016480068FFF785FD154818
:10980000005D610061180F4A89188978884204D187
:109810006000201811464018857805E06000201887
:1098200008494018457800BF00BF002D07D00A48FE
:109830000068002803D02846074909688847FEBD0C
:10984000340C0200CC260020742000208C20002044
:10985000882000208D2000208420002070B505463F
:109860000D2D06D00E2D05D00F2D3DD0102D3DD144
:109870003BE000BF172003F081FE152003F07EFEC1
:109880001C480078002816D004F079FE0020194901
:1098900008700022184919480068FFF7FFFC0446C9
:1098A00000BF2646002E05D000BF15A2174930463E
:1098B000FFF7D6FB17E004F06AFE01200D4908709F
:1098C00000220D490D480068FFF7E8FC044600BF80
:1098D0002646002E06D000BF09A2B92189003046D5
:1098E000FFF7BEFB00BF02E001E000E000BF00BFE9
:1098F00070BD00004E200020850B000004200020D9
:109900002E2E5C6D61696E2E63000000DE02000089
:1099100030B503460020042B24D2012A07D10129A7
:1099200003D11C460D34E4B200E000242246002995
:109930000FD0012902D0022911D104E05C001C19CA
:10994000094D2A550DE05C001C19074D6419627021
:1099500007E05C001C19044D6419A27001E00720A7
:1099600000BF00E0072030BDCC260020F7B505463B
:109970000E460024274806602748056027490298BC
:10998000086002202840002822D0002706E001229B
:1099900011463846FFF7BCFF04467F1C042F01D256
:1099A000002CF4D0002C05D1720804211C48FFF7CC
:1099B00005FB0446002C02D1FFF7EAFA0446002C0E
:1099C00005D1184A00211848FFF7B6FB044600BF2E
:1099D000E807C00F00280AD000BF0F204005134938
:1099E00088600020C86000BF0F2040058861002CFF
:1099F00005D10F4A00210F48FFF79EFB0446002CBB
:109A000005D10D4A01210D48FFF796FB044620467B
:109A1000FEBD00007420002078200020842000205B
:109A2000440C02009D9F010088200020000500508A
:109A3000D5B901007C2000206D8F0100802000201E
:109A4000F8B50446002500262300FFF7A5F9180DF8
:109A500018195C9FF7F5F4F3F2F1F0EFEEEDECEB93
:109A6000EAE9E8E7E6E5E4E300BF0B204005FB494F
:109A700088600020C86000BFF94804704FE200BF52
:109A800000BF05208005F54988600020C86000BF40
:109A9000084640680F214905484001214905084012
:109AA00000280FD000BF0846EC4988600020C8603D
:109AB00000BF022C02D1E120C00001E07D20400166
:109AC00006460EE000BF01204005E449C8600020C2
:109AD000886000BF022C01D1C82001E0FF20913036
:109AE0000646DF48047064213046FEF7F5FCDD4988
:109AF00009684843074600223946DB480068FFF7FB
:109B0000CDFB05460BE200BF05208005D3498860E8
:109B10000020C86000BF084640680F214905484042
:109B200001214905084000280FD000BF0846CB4955
:109B300088600020C86000BF032C02D119204001BA
:109B400001E07D20400106460EE000BF01204005F7
:109B5000C249C8600020886000BF032C01D1C82022
:109B600001E0FF2091300646BD4804706421304674
:109B7000FEF7B2FCBB490968484307460022394654
:109B8000B9480068FFF78AFB0546C8E100BF052019
:109B90008005B24988600020C86000BF0846406860
:109BA0000F214905484001214905084000280FD0F0
:109BB00000BF0846A94988600020C86000BF042C87
:109BC00002D17D20400101E07D20400106460FE0EA
:109BD00000BF01204005A149C8600020886000BF87
:109BE000042C02D1FF20913001E0FF209130064685
:109BF0009B48047064213046FEF76EFC9949096861
:109C0000484307460022394697480068FFF746FB5D
:109C1000054684E182E176E174E161E14EE13BE1F8
:109C20002FE1F4E0F2E0F0E0EEE0ECE0E2E0C9E0A9
:109C3000B2E099E082E06FE042E0FFE700BF05207C
:109C40008005864988600020C86000BF08464068DB
:109C50000F214905484001214905084000280ED040
:109C600000BF08467D4988600020C86000BF052C01
:109C700001D1C82001E07D20400106460EE000BF72
:109C8000012040057549C8600020886000BF052C90
:109C900001D1C82001E0FF209130064670480470D1
:109CA00064213046FEF718FC6E49096848430746B0
:109CB000002239466C480068FFF7F0FA05462EE1AD
:109CC00000BF05208005654988600020C86000BF8E
:109CD000084640680F2149054840012149050840D0
:109CE000002806D000BF08465C4988600020C86094
:109CF00007E000BF012040055849C8600020886087
:109D000000BF574804705748002201685648006851
:109D1000FFF7C4FA054602E100BF052080054F4960
:109D200088600020C86000BF00BF01204005C860F7
:109D30000020886000BF4A480470F0E000BF474937
:109D40004868012189058143444A916001218905C0
:109D50000140D16000BF43480022016842480068CA
:109D6000FFF79CFA0546DAE000BF3C49486801214C
:109D700089058143394A9160012189050140D160FB
:109D800000BF384800688200811800223648006809
:109D9000FFF784FA0546C2E000BF30494868012158
:109DA000890581432D4A9160012189050140D160D7
:109DB00000BF2C48002201682B480068FFF76EFAAC
:109DC0000546ACE000BF254948680121890581436B
:109DD000224A9160012189050140D16000BF2148DC
:109DE00000688200811800221F480068FFF756FAB9
:109DF000054694E000BF0F2040051849C8600020C8
:109E0000886000BF8BE000BF00BF00BF00BF1748E5
:109E10000068FFF779FA05461120061B002E27D0AF
:109E2000002D25D1012E10D9C82171430846642187
:109E3000FEF752FB0B4909684843074600223946A2
:109E40000A480068FFF72AFA054600BF0120C0054E
:109E50000249C8600020886012E000000005005040
:109E600070200020742000207C2000208020002012
:109E700000BF0120C0052B4988600020C86000BFDA
:109E80004DE000BF0F204005264988600020C860D3
:109E900000BF2548047042E000BF0720800521492B
:109EA00088600020C86000BF00BF01204005C86076
:109EB0000020886000BF1C48047030E000BF0D2007
:109EC0004005184988600020C86000BF00BF01201D
:109ED0008005C8600020886000BF134804701EE041
:109EE00000BF0320C0050F4988600020C86000BF84
:109EF00000BF03204005C8600020886000BF0A48FA
:109F000004700CE000BF00BF0F2040050549C86089
:109F10000020886000BF0448047000E000BF00BF5C
:109F20002846F8BD00050050702000203EB50024F2
:109F3000134A07CA6B4607C31249684603F0A0FAE2
:109F4000044600BF2546002D05D000BF0EA21149D2
:109F50002846FFF785F800BF0F4803F007FA0446CC
:109F600000BF2546002D06D000BF07A20949891C65
:109F70002846FFF775F800BF03F070FA3EBD0000F9
:109F8000240C0200B90B02002E2E5C6D61696E2E4E
:109F9000630000005F0300004F20002010B504465E
:109FA00020780221FFF7EEFB10BD000070B5094AD2
:109FB00009490220FFF7DAFC044600BF2546002DC0
:109FC00005D000BF05A208492846FFF749F800BFA1
:109FD00070BD00005D980100CD0C00002E2E5C6D60
:109FE00061696E2E63000000430300000022D2432B
:109FF00083000549CA50042804DB1346011F024AA6
:10A000005032535470470000A030002001468A00AF
:10A010000148805870470000A0300020F7B585B097
:10A020000B460020C0430490002A01D0002000E02D
:10A0300004200390002A01D0042000E00C200290AC
:10A0400003991EE08C0012480059401C002817D1CB
:10A050000846059C0093019246B20D4D30352E55B1
:10A060008600303D009BAB51019A002A04D166B2B4
:10A07000051F074F50377E5500BF48B2049003E0DC
:10A08000491C02988142DDD300BF049808B0F0BD9E
:10A09000A03000200146014840567047D0300020D3
:10A0A00030B589B00546234800680570214800682E
:10A0B000401C20490860084601681F480C1A272CDC
:10A0C00006D2012C33D9401E4078401CA0422ED825
:10A0D0001949491E194800F0BCFC00280FD0032183
:10A0E00068460171842141711348401E8178684699
:10A0F0008171862101A8C17004F002FE0AE00220ED
:10A10000694608740E4805900021069104A800F0E5
:10A11000A7FB00BF094800F024FC002804D0012060
:10A12000084908700849486003480249086009B0B6
:10A1300030BD000048210020002A002070280020A7
:10A140009DBE0100382100200020004070B504466B
:10A150000D46201DFEF7A7F9281A1A4988422FD864
:10A16000204606F019F800282AD020460830FEF7CD
:10A170009AF915490968154A1268514388420AD26A
:10A1800020460830FEF78FF9460021460831304658
:10A19000FEF79AF909E00C4909680C4A1268514324
:10A1A000084621460831FEF78FF90020207320462B
:10A1B0000830FEF778F94619211D3046FEF784F97C
:10A1C00070BD0000FFFFFF7F1C2100201821002030
:10A1D000FEB51E480068401C002834D01B480068AB
:10A1E000242148431A4909684018456804F002FAD6
:10A1F0000190184804682146019805F0B1F8C61C82
:10A2000015480078002801D104F006FAAE4201D2C8
:10A21000284600E0304604192402240A20460F494B
:10A22000086000BF04F0E6F900900199009805F07D
:10A2300097F8C71C2046019905F092F8874201D98A
:10A2400005F0D4FC01E004F005FAFEBDE421002095
:10A25000D8210020E8210020FC21002040150140E9
:10A2600001460888062808DB08881922D201904296
:10A2700005DD0888104A904201D0072070474888C1
:10A28000062808DB48881922D201904205DD48885B
:10A29000094A904201D00720F0E70888064A904218
:10A2A00008D04888904205D008884A88904201DD4D
:10A2B0000720E3E70020E1E7FFFF0000F8B50646CE
:10A2C0000D4614462078801D1F2801D90C20F8BDAA
:10A2D0003046FFF7C5FF0746002F01D03846F6E7A6
:10A2E00005212278501C2070A95412212278501C7C
:10A2F0002070A95422785119308806F047F8217847
:10A300004018207022785119708806F03FF82178A3
:10A31000401820700020DAE710B514484068C105E5
:10A32000C90D002920D00A46103A50B200280DDA93
:10A330000E4B1C330407240F083CA408A4001B592F
:10A340008407E40EE3401B069B0F0BE0084B03243D
:10A3500024021B198408A4001B598407E40EE3405F
:10A360001B069B0FD8B210BD0420FCE700ED00E0F7
:10A3700000E100E010B514484068C105C90D00298E
:10A3800020D00A46103A50B200280DDA0E4B1C338A
:10A390000407240F083CA408A4001B598407E40EFA
:10A3A000E3401B069B0F0BE0084B032424021B1900
:10A3B0008408A4001B598407E40EE3401B069B0F8E
:10A3C000D8B210BD0420FCE700ED00E000E100E0A1
:10A3D00010B514484068C105C90D002920D00A46AF
:10A3E000103A50B200280DDA0E4B1C330407240F2C
:10A3F000083CA408A4001B598407E40EE3401B0694
:10A400009B0F0BE0084B032424021B198408A400B3
:10A410001B598407E40EE3401B069B0FD8B210BD06
:10A420000420FCE700ED00E000E100E070B53148F9
:10A43000068815E0142070432F4940180069002851
:10A440000DD1142171432C4A8818002105F0E8FE33
:10A4500028480088401C27490880B0B270BD761C8F
:10A46000022EE7D3254804680CE000BF0A206043B1
:10A4700023494018C0884404640C00BF032C01D158
:10A480000220EBE70A2060431D494018008902289A
:10A49000EBD00A2060434018C088C00B0028E4D1EC
:10A4A0000A2060434018058900BF022D01D2012017
:10A4B00000E000200646002E05D100BF11A28E212B
:10A4C000FEF7CEFD00BF00BF02210A2060430C4A08
:10A4D0008018018114216943074A881800F026F882
:10A4E00014216943044A8818002105F099FEA8B296
:10A4F000B4E70000642100207430002060210020B7
:10A50000543000202E2E5C2E2E5C2E2E5C72626348
:10A510005F6D6573685C7372635C68616E646C65C3
:10A520005F73746F726167652E63000010B5044637
:10A53000002C00D110BD2069002804D0206902F051
:10A54000AFF800202061204605F003FE00BFF1E7D0
:10A55000F8B5002535E0E8001C4909684418217861
:10A560000120884006461A4800683040002826D05E
:10A5700017480068B04316490860207802F030FCA4
:10A58000074621780120884012490968084022784E
:10A5900039469140884211D16078012800D100E00D
:10A5A000002078400121484000906068002804D0D5
:10A5B000009BD9B220786268904700BF00BF681C3A
:10A5C000C5B2054800788542C5DBF8BDB42100203E
:10A5D000C8210020C4210020B821002010B5044665
:10A5E0000F49104800F004FA002817D10C484078B1
:10A5F0000D4908600A48401C0C49086000200C49BD
:10A60000C86101200B4988600848006800780A4941
:10A61000C86106480068401C0449086010BD00007D
:10A62000D8290020882800203C210020402100203B
:10A630000021004000200040002500400146144851
:10A640000078144A127890421DD011480078401CBE
:10A650000F4A107010460078022801D100201070B7
:10A660000B48007880000C4A105808600B4A0868B4
:10A6700012688018094A1060104600680002000A3B
:10A680001060012070470020086000BFFAE700005A
:10A69000F4210020F5210020EC210020E8210020F9
:10A6A0000121014A11707047F720002010B50649BA
:10A6B0000968064A1268514308460549FDF70CFF30
:10A6C0007D21C900401810BDE8200020FC2000209A
:10A6D00040420F000146072912D008DC00290DD0A6
:10A6E000022913D0052915D0062917D10CE0082915
:10A6F00008D009290CD0112910D10DE00020704795
:10A700008520FCE78320FAE78220F8E78620F6E739
:10A710008420F4E79020F2E78620F0E78020EEE73F
:10A720000121002001F0DEF80121084601F0DAF8ED
:10A730000121022001F0D6F80121032001F0D2F816
:10A7400072B600E020BFFDE730B585B0044669462B
:10A75000204600F04DF90546002D05D16846FEF76C
:10A76000B7FE012005B030BD0020FBE7EFF31080FD
:10A77000C107C90F72B6094802680068401C074B40
:10A780001860002A06D1122001228240044B1A6070
:10A7900000BF00BF002900D162B6704750210020E1
:10A7A00080E100E010B5EFF31080C407E40F72B64B
:10A7B00006480068401E05490860002802D11220A2
:10A7C000FEF7E2F8002C00D162B610BD5021002047
:10A7D00010B514480078002800D010BD0820124998
:10A7E00088601248086014204860002048610846CC
:10A7F00000F09DF808200E4988600E48086014207B
:10A80000486000204861084600F091F81220FEF7E9
:10A81000BBF803211220FEF72FF90120014908702F
:10A8200000BFDAE74C210020282A0020402A00201F
:10A83000E02A0020F82A002010B5074800F088F828
:10A84000002804D0054800F083F8002802D1122027
:10A85000FEF7C2F810BD0000282A0020E02A0020E0
:10A8600070B50446002C01D10E2070BD0026207862
:10A870000300FEF791FA0509070405060B0000BF67
:10A8800000BF00BF0A4E03E00A4E01E00720ECE7DC
:10A8900000BF2146304600F0DCF80546002D01D00F
:10A8A0002846E2E71220FEF797F80020DDE70000D7
:10A8B000282A0020E02A0020F0B50346002426E0E4
:10A8C000164E366824277E43154F3F68F0194668B8
:10A8D0009E4203D94668F61A46601DE046689B1BF7
:10A8E000466834190026466006750C4E35680B4FD5
:10A8F000066A3E600669002E08D00E193602360A36
:10A9000086600669C66016680662156000BF034867
:10A910000068401C0028D3D100BFF0BDE421002016
:10A92000D821002001460A69C868801A7047202192
:10A9300000BF4B1E19468268DA40D207D20F002AA8
:10A94000F7D001228A4082600022C2600261704713
:10A950000146CA680869904201D101207047002071
:10A96000FCE701468A6808698018CA68904201D1EC
:10A97000012070470020FCE770B504460D46002218
:10A980002946204600F001F870BDF8B504460D4692
:10A990001646002D01D10E20F8BDEFF31080C70739
:10A9A000FF0F72B62046FFF7BDFFB04204D8002F5C
:10A9B00000D162B60E20EFE720698019A168491E18
:10A9C0000840616848432168401800906069002889
:10A9D00004D0626928460099904704E062682846DE
:10A9E0000099FDF7FFFC002F00D162B60020D3E7ED
:10A9F000F8B504460D46EFF31080C607F60F72B6A1
:10AA0000E1682069884204D1002E00D162B60E2090
:10AA1000F8BD002D15D0A168491E20690840616865
:10AA20004843216847186069002804D03946284601
:10AA30006269904704E0394628466268FDF7D2FC17
:10AA400000BF2069401C2061002E00D162B60020AA
:10AA5000DEE7F8B504460E46002E01D10E20F8BD03
:10AA6000EFF31080C507ED0F72B6A168206940189A
:10AA7000E168884204D1002D00D162B60420EEE7DF
:10AA8000A168491EE068084061684843216847188A
:10AA90006069002804D0314638466269904704E076
:10AAA000314638466268FDF79DFCE068401CE06076
:10AAB000002D00D162B60020D1E7000030B585B08E
:10AAC00005461F484068002801D005B030BD27E08A
:10AAD0001B48046801206946087060680190E168BD
:10AAE000039102956846FFF7BBFE002800D0ECE713
:10AAF00013492069086000202061A06800280ED05A
:10AB000000BFA16820684018206028466430216892
:10AB1000081A0C498842F4D82046FEF757F900BFBE
:10AB200007480068002808D00548006801682846E2
:10AB30006430081A03498842CAD800BFC5E700003C
:10AB40006C210020FFFFFF7F10B51520182108E0C1
:10AB5000032205231B07072424021B1984001A5112
:10AB6000401C8842F4D900BF002404E02046153080
:10AB700002F0FCFC641C042CF8D3162002F0EEFC5E
:10AB80000D2002F0B5FC0D2002F0E8FC0E2002F0D2
:10AB9000AFFC0E2002F0E2FC1A2002F0A9FC1A2001
:10ABA00002F0DCFC1B2002F0A3FC1B2002F0D6FC10
:10ABB0000B2002F09DFC0B2002F0D0FC0C210320A6
:10ABC000820005231B07072424021B198C001A513D
:10ABD00000BF10BDF8B505460F460120A840044649
:10ABE00018480068FEF790FB0646002E00D0F8BD1E
:10ABF00015480068204000281DD1284602F0F0F8D2
:10AC0000002805D01148006820431049086004E07E
:10AC10000E480068A0430D4908600B4800682043B7
:10AC20000949086000220A48016806480068FEF7E2
:10AC300035FB064604E004480068A043024908606A
:10AC400000BFD4E7C0210020C8210020C42100207B
:10AC5000BC210020014601208840704770B50546A0
:10AC60000E46FFF783FD002E14D01D480088A84231
:10AC700010D11C48008803280CDA1A4800880A21E1
:10AC800048431949085AA84204D1FFF78BFD1548DB
:10AC9000008870BD1548008884B210E01448006830
:10ACA000A04203D1FFF77EFD0320F2E700BF0A2098
:10ACB00060430D49401880884404640C00BF0A209A
:10ACC00060430949085AA842E8D1002E03D004483D
:10ACD000058004480480FFF765FD2046D9E70000A1
:10ACE0006821002066210020543000205C210020D3
:10ACF0006021002070B5054601212846FFF7AEFF10
:10AD00000446032C43D18348008884B20CE000BF82
:10AD10000A20604380494018C0884404640C00BF86
:10AD2000032C01D1204670BD0A2060437A494018A7
:10AD3000C088C00B0028EAD10A2060430D520A20C7
:10AD40006043401880880121C90388430A21614378
:10AD5000714A8918888000210A2060438018418048
:10AD60000A20604311464018008902280FD00A21AA
:10AD700061438918098914225143684A8818FFF7EA
:10AD8000D5FB02210A206043634A80180181614893
:10AD90000068844225D062480068844237D00A2087
:10ADA00060435D49401880884004400C0A214843B4
:10ADB00059494018C088C00BC0030A216143564A54
:10ADC0008918C9884904490C08430A216143891834
:10ADD00089884904490C0A2251434F4A8918C8807E
:10ADE00015E00A2060434C494018C0884004400CDC
:10ADF000484908600A206043474940188088C00BD2
:10AE0000C003C01C0A216143434A89188880444812
:10AE1000006884425AD00A2060433F494018C088E5
:10AE20004004400C03281FD00A2060434018C0880B
:10AE30004004400C0A214843374940188088C00B21
:10AE4000C0030A216143344A891889884904490C9E
:10AE500008430A2161438918C9884904490C0A2218
:10AE600051432D4A891888800A2060432A49401896
:10AE7000C088C00BC003C01C0A216143264A891840
:10AE8000C8800A206043114640188088C00BC00368
:10AE9000234909884904490C08430A216143891858
:10AEA00088801F4800680A21484311464018C0881E
:10AEB000C00BC0036104490C0843194909680A2200
:10AEC0005143154A8918C880154804601448006821
:10AED0000A21484310494018C088C00BC003C01C59
:10AEE0000F4909680A2251430B4A8918C88009484A
:10AEF00000680A214843114640188088C00BC003EF
:10AF0000C01C044909680A225143034A89188880F1
:10AF1000204608E7602100205430002074300020D3
:10AF20005C210020F8B507460E461546032E01DBCE
:10AF30000720F8BD002D01D10E20FAE717488742FF
:10AF400001D11020F5E7FFF711FC00213846FFF78B
:10AF500085FE0446032C03D1FFF724FC0520E8E717
:10AF6000002E02D0012E10D107E00A2060430C49C8
:10AF70004018C088C00B28700BE00A2060430849C5
:10AF800040188088C00B287003E0FFF70BFC0720F7
:10AF9000CFE700BFFFF706FC0020CAE7FFFF000075
:10AFA00054300020F7B582B00E461546032E02DB62
:10AFB000072005B0F0BD66490298884201D11020F3
:10AFC000F7E701210298FFF749FE0446002E04D05E
:10AFD000012E1FD0022E6ED139E0032C07D102982A
:10AFE000FFF788FE0446032C01D10420E1E70A2084
:10AFF000604358494018C0880121C9038843E903C8
:10B000000122D203114008430A216143514A8918A1
:10B01000C88099E0032C07D10298FFF76BFE044625
:10B02000032C01D10420C4E70A2060434949401899
:10B0300080880121C9038843E9030122D20311401A
:10B0400008430A216143434A891888807CE0002D27
:10B0500018D0032C01D10020ABE70A2060433D4902
:10B0600040180089022801D10020A2E70A2161438B
:10B07000384A8918098914225143374A881805F03B
:10B0800065F85EE00020019001A801F00FFA0028A9
:10B0900001D104208DE7002003460246009002996A
:10B0A000019801F095FA0746002F05D0019801F0AC
:10B0B000F7FA38467DE745E0032C04D1019800F00B
:10B0C0009DFD002075E70A20604322494018008951
:10B0D00002280FD1FFF7AAF90A2161431D4A8918F6
:10B0E00008810A206043114640180089022801D1D6
:10B0F00004205EE70A2060431649401800891421A5
:10B100004843154940180069002803D0019801F010
:10B11000C7FA0AE00A2060430E4A80180089142208
:10B1200050430D4A8018019901610A216143094A7F
:10B130008918098914225143074A881805F009F82B
:10B1400000BF01E0072034E700BF002031E7000026
:10B15000FFFF0000543000207430002070B586B02E
:10B1600004460E461546042168460171048101A873
:10B170008671C571FFF774FB06B070BD70B50646E9
:10B180000D46002D01D10E2070BD002028606860A2
:10B190001D48864201D11020F6E7FFF7E7FA0021AB
:10B1A0003046FFF75BFD0446032C03D1FFF7FAFAA4
:10B1B0000520E9E70A2060431449401840882880A8
:10B1C0000A20604340180089022818D00A216143F0
:10B1D0000E4A89180989142251430D4A89180869B1
:10B1E00001F0A8FA00280AD00A2060430749401855
:10B1F0000089142148430649401800696860FFF738
:10B20000D1FA0020C0E70000FFFF0000543000200A
:10B2100074300020F8B507460E46002E01D10E20EE
:10B22000F8BD2A48874201D11020F9E701213846AC
:10B23000FFF714FD0446032C07D13846FFF75AFDEB
:10B240000446032C01D10420EAE70A206043204988
:10B2500040180589022D0BD1FFF7E8F80546022DAD
:10B2600001D10420DCE70A20604319494018058118
:10B2700004F07CFA14216943164A0090881800995A
:10B2800004F0CEFF31880A206043114A80184180C3
:10B29000142068430F4940180069002806D0142183
:10B2A00069430C4A8918086901F0FAF9706801F0DD
:10B2B00041FA0A206043064A80180089142250434C
:10B2C000044A8018716801610020A9E7FFFF0000AF
:10B2D000543000207430002070B50546FFF746FA60
:10B2E000284600F0AFF80446002C03D0FFF75AFAC6
:10B2F000204670BD002006E00022142141433E4B51
:10B30000C9180A61401C0228F6D3002046E000223A
:10B31000D2430A214143394B5A5200220A21414368
:10B32000C9184A800A2141431A468918C98801224E
:10B33000D20391430A224243D218D1800A214143C9
:10B340001A46891889880122D20391430A2242436E
:10B35000D218918002220A214143C9180A810A2188
:10B3600041431A468918C988C90BC903421E5204B1
:10B37000520C11430A224243D218D1800A21414380
:10B380001A4689188988C90BC903421C5204520CF9
:10B3900011430A224243D2189180401C0328B6D39D
:10B3A0000020174908600220164908601448006808
:10B3B0000A21484311494018C088C00BC003C01C73
:10B3C0000F4909680A2251430C4A8918C8800D4860
:10B3D00000680A214843114640188088C00BC0030A
:10B3E000C01C084909680A225143044A8918888008
:10B3F000FFF7D8F900207CE774300020543000209B
:10B400005C2100206021002030B585B00446002C6E
:10B4100002D10E2005B030BD0220694608700294AA
:10B4200007480190204601F085F96846FFF718FAB1
:10B430000546002D02D0204601F032F92846E9E702
:10B44000FDBB010010B504460748844202D30748FB
:10B45000844201D9072010BD03220121C9022046E0
:10B4600004F0C8FE0020F6E788130000008793036D
:10B4700070B5054600260020287000241FE0142126
:10B480006143114A881804F087FE002816D0142062
:10B4900060430D494018006900280FD02878002823
:10B4A00006D0142060430858801B0849884205D9FB
:10B4B000012028701420604303490E58641C022C9C
:10B4C000DDD3304670BD000074300020FFFFFF7FE9
:10B4D000F8B506460F461048864201D11020F8BD47
:10B4E00001213046FFF7BAFB0446032C01D10520A9
:10B4F000F5E70A206043094940180589022D01D16A
:10B500000520ECE714216943054A8818394604F000
:10B510004BFE0020E3E70000FFFF00005430002056
:10B5200074300020F8B506460F461048864201D117
:10B530001020F8BD01213046FFF790FB0446032C94
:10B5400001D10520F5E70A20604309494018058923
:10B55000022D01D10520ECE714216943054A881822
:10B56000394604F035FE0020E3E70000FFFF00004D
:10B570005430002074300020F8B506460F461048BD
:10B58000864201D11020F8BD01213046FFF766FB4D
:10B590000446032C01D10520F5E70A206043094940
:10B5A00040180589022D01D10520ECE714216943DB
:10B5B000054A8818394604F04BFE0020E3E70000F6
:10B5C000FFFF00005430002074300020F7B582B037
:10B5D00004461546002600275DE004E03048008858
:10B5E000801E2F4908802E4800880228F6DA2C4851
:10B5F0000088142148432B4940180069002844D092
:10B600002749098814225143264A881804F0C4FDAA
:10B6100000283AD02248008814214843214908587C
:10B62000201A2149884230D8002101911C490988FB
:10B63000142251431B4A8818224601A904F01EFE19
:10B640006846007900281FD0154909881422514303
:10B65000144A8918086901F06DF81148008814210E
:10B6600048431049401802693046761C810003980F
:10B6700042502868B04207D109480088401C084958
:10B680000880002005B0F0BD00BF05480088401CC0
:10B69000034908807F1C022F9FD32E600020F1E712
:10B6A0006A21002074300020FFFFFF7FF8B5294891
:10B6B0000078002800D1F8BD27480068002801D193
:10B6C000012000E00020054624480068002801D140
:10B6D000012000E00020064600BF002D14D168467E
:10B6E00051DF0446052C01D101250CE0002C06D0C9
:10B6F00000BF1B4A65212046FDF7B2FC03E0164956
:10B7000000980968884700BF002E1AD115480088A4
:10B71000009069461448006861DF0446052C01D199
:10B7200001260DE0002C06D000BF0D4A7C212046EA
:10B73000FDF796FC04E00C48006808490968884752
:10B7400000BF002D02D0002E00D000E0C5E700BFF2
:10B7500000BFB0E7A0210020B0210020AC210020D4
:10B76000A40C0200A8210020A421002010B504464A
:10B77000204601F02AFC044909680840002801D04D
:10B78000012010BD0020FCE77C21002010B50446FC
:10B790002046FFF75FFA044909780840002801D0E5
:10B7A000012010BD0020FCE78021002070B5044678
:10B7B000204601F00AFC0546FDF780FE70BD10B57D
:10B7C00004462046FFF746FA8007800F002801D084
:10B7D000012010BD0020FCE70C48008CC0B20128FD
:10B7E00012D10A48808C0007000F00280CD10748AE
:10B7F000806AF0210840402806D10448C06A084009
:10B80000002801D1012070470020FCE7C00F00F0A4
:10B810001948008CC0B201282CD11748808C000731
:10B82000000F002826D11448806AF0210840002823
:10B8300006D11148C06A0840002801D10120704794
:10B840000D48806AF0210840102806D10A48C06AD5
:10B850000840002801D10120F1E70748806AF02163
:10B860000840302806D10448C06A0840002801D1A9
:10B870000120E4E70020E2E7C00F00F010B5044625
:10B88000204601F0A2FB8004800C002801D001209A
:10B8900010BD0020FCE7000070B50646304604F0FD
:10B8A0007FFD162001F05AFE002209490948006870
:10B8B000FDF7F4FC044600BF2546002D06D000BF6E
:10B8C00005A2FF211B312846FDF7CAFB00BF70BD52
:10B8D00066060000082000202E2E5C6D61696E2E29
:10B8E00063000000002906D102461532012393406F
:10B8F000044A936005E00246153201239340014A51
:10B90000D36070470005005010B504461D4800780C
:10B91000002835D01B480078012831D0194800781C
:10B9200002282DD017480078032828D1154880799F
:10B93000002812D0134841884088401E114A508088
:10B9400000291DD1162001F011FE00200D4988713B
:10B95000642088800120488012E00A48818880881D
:10B96000401E084A908000290AD1162001F0F6FDF9
:10B9700001200449887148806420888000E000BF6D
:10B9800010BD00004620002010B50446162001F02E
:10B99000EDFD002004498871032008703220888062
:10B9A0000120488010BD00004620002010B5084846
:10B9B00001F01AF9152001F0D1FD162001F0D6FD95
:10B9C000172001F0CBFD182001F0C8FD10BD0000CC
:10B9D000DC05000010B5044605480078C007C00F1C
:10B9E000002803D003480078FEF72AF810BD0000B5
:10B9F000782000207020002010B50446082001F0B7
:10BA00000DF80149086010BD38200020FEB52B4814
:10BA1000006801902A480078009040E00098C0003B
:10BA2000284909684418257835E01820684361687A
:10BA30000F18681CC5B2A078A84200D1002538783C
:10BA4000022802D0032823D10EE02421786848433D
:10BA50001D4909684618307D002804D0786803F035
:10BA60000DFE0020307514E00CE014490968242212
:10BA70005143154A12688818002101750F4A016A5E
:10BA8000116000BF0D480068401C0028EDD100E0A7
:10BA900000BF00BF00BF6078A842C6D100BF0098B9
:10BAA000411EC9B200910028B8D10448016801982C
:10BAB000814201D00120FEBD0020FCE7E4210020EE
:10BAC000DC210020E0210020D8210020FEB507461F
:10BAD00043480068029043480078019071E0019863
:10BAE000C00041490968451863E0781C002807D068
:10BAF0003E46242070433D4909684418276A29E0DE
:10BB00002978182359436A6850182978491C2970E4
:10BB10002978AA78914201D1002129704668242110
:10BB20007143324A12688C180178012902D1217DB3
:10BB3000002900D03DE08168A160C168E160016931
:10BB400021614169E1612A490978002901D0002178
:10BB5000A16000BF2749A0680968401A0002000AD6
:10BB60002549884208D22349A068096803F0F8FBF8
:10BB7000E1684018606011E01E48A168006803F0A9
:10BB8000EFFB0090E1680098814204D9E1680098D9
:10BB9000081A606001E00020606000BF0020A06023
:10BBA000E06001202075801E2062304603F0F8FC22
:10BBB00000BF781C002898D128786978884294D1F1
:10BBC00000BF0198411EC9B20191002887D10448E5
:10BBD00001680298814201D00120FEBD0020FCE7EF
:10BBE000E4210020DC210020E0210020D8210020D9
:10BBF000FD210020E8210020FFFF7F00FEB5054663
:10BC00002E46304600F094FC0446002C29D0E07902
:10BC1000A17900020843694608800196617922797A
:10BC20000902114308460121FFF718F80746032FC0
:10BC300009D00A2078430D49401840886946088099
:10BC4000684604F0E9FC68460088A071000AE071CB
:10BC5000617922790902114308466946FFF7DAFA49
:10BC600000BF304600F01CFDFEBD00005430002037
:10BC7000F8B50646132460001C49085A07B2B742BB
:10BC800005DD201F6421484305B22846F8BD00BFEA
:10BC9000601E04B260001549085AC01907B2B742C5
:10BCA0001FDDB81B6421484305B260000F4A115ADA
:10BCB0002846FCF71BFC05B2042C06DB201F642180
:10BCC000484345196D046D0C09E064206043451933
:10BCD000FF209130451B0120C003284305B22846B0
:10BCE000D4E7002CD4D1024D2846CFE7D00B020078
:10BCF0009081FFFF8EB0FEF727FFFFF757FE03F09E
:10BD00007BFFFEF753F9FDF755F8FEF70FF900BF7B
:10BD1000002348223849052003F070F9054600BF8A
:10BD20002E46002E06D000BF34A20721C90130469E
:10BD3000FDF796F900BF00BF334803F053F93348CD
:10BD400003F090F900F0AFF83148099064200B90AF
:10BD5000262108A8017205200C90002108A8017571
:10BD60000D98009009A80FC802F080FA044600BFA1
:10BD70002546002D06D000BF20A2E52189002846D7
:10BD8000FDF76EF900BF00250FE0A8B202F082FBBC
:10BD9000044600BF2646002E05D000BF17A21D494D
:10BDA0003046FDF75DF900BF6D1C022DEDD300F0AC
:10BDB0008BFE00BF00F0ADF80546002D06D000BF99
:10BDC0000EA21D2149012846FDF74AF900BFFDF7E3
:10BDD000DFF8FDF7E1FA032000F086FD0AE002A893
:10BDE00002F0BAF9002805D102A802F0CBF902A8A6
:10BDF00002F01CFAF3E70000542600202E2E5C6DA2
:10BE000061696E2E630000004DE70100DDE3010073
:10BE1000D6BE898E9A030000F8B505460E46144634
:10BE20002879801CC7B22078801CC0191F2801DD2A
:10BE30000C20F8BD781CC1B22278501C2070B1547F
:10BE4000FF212278501C2070B15422789119288843
:10BE500004F09CFA217840182070A88800280EDD94
:10BE6000A868002801D10720E3E7AA882378981959
:10BE7000A968FCF7B7FA20782979401820700020CB
:10BE8000D7E700B589B002E001A802F068FC01A87C
:10BE900002F004FF0028F7D109B000BD10B5044638
:10BEA000FFF7EFFF10BD10B5FEF792FC02F04EFF5A
:10BEB00010BD10B588B00446207800280ED00128A7
:10BEC00004D0022806D0042810D10BE0B520694622
:10BED00048700CE0B3206946487008E0B420694619
:10BEE000487004E0B6206946487000E000BF00BF1B
:10BEF000207BC01CC1B268460170A1884180227BB2
:10BF000001A8A168FCF76EFA684602F0F9FE08B0D5
:10BF100010BD00B589B004216846017181214171CD
:10BF2000022181713DDF082100980840C10801A865
:10BF3000C17002F0DDFEC1B201A8017102F0E0FEA5
:10BF4000002802D1042009B000BD0020FBE77047A3
:10BF500030B587B004460D46112168460170447023
:10BF6000857000F003F807B030BD000030B587B031
:10BF70000446254800882549884202D1244807B054
:10BF800030BD24488078002802D12148401EF6E7C1
:10BF900006A862DFC5B2002D01D01120EFE7684688
:10BFA000007E002802D11A48801CE8E719488189E0
:10BFB0006846018101218172002181812078022857
:10BFC0000FD004DC002807D0012811D108E0112887
:10BFD0000BD012280CD105E0E078001D01900AE09A
:10BFE00000BF00BF0520019005E00320019002E0A2
:10BFF0000120019000BF00BF01A80490059402A990
:10C0000001480088A6DFBAE72A210020FFFF0000D0
:10C01000023000005C280020F0B585B005460E46D1
:10C0200017460195029768460673012181701249EF
:10C030000180124A69460120A0DF0446002C02D08C
:10C04000032005B0F0BD0E490E4863DF0446002C06
:10C0500001D02046F5E701A800F082F90446002C43
:10C0600001D02046EDE700F0D3FB0446002C01D0C0
:10C070002046E6E70020E4E7E4FE00005C2800201C
:10C0800028210020700C0200F0B589B005462888F0
:10C0900050287DD1E8889B498989884279D12C46EE
:10C0A00020342078002804D0012841D0022871D102
:10C0B00090E0A1786278080210439349884204D145
:10C0C0002078F221FFF744FFECE0E278A37867786C
:10C0D000190239430846211D04F0E0FA0646002EF5
:10C0E00021D169460872201D0490E17802A80173ED
:10C0F000A17862780802104369468881012102A86C
:10C10000C18203F033FB089002A802F057F8002820
:10C1100004D02078F021FFF71BFF03E02078802176
:10C12000FFF716FF03E02078F021FFF711FFB9E0D9
:10C13000E078002802D0012845D118E02279002AB1
:10C1400001D0012200E000221146A378667818028F
:10C15000304304F00DFD002804D02078F221FFF7D1
:10C16000F7FE35E020788021FFF7F2FE30E02079FD
:10C17000002815D0A278637811021943084604F00C
:10C180005DFC002807D02078F221FFF7E1FE1FE0D8
:10C19000A8E089E081E020788021FFF7D9FE11E056
:10C1A000A278637811021943084604F029FC00289C
:10C1B00004D02078F221FFF7CBFE09E0207880211F
:10C1C000FFF7C6FE04E02078F321FFF7C1FE00BFB1
:10C1D00000BF67E0E078002802D0012856D131E0A6
:10C1E000A1786278080210434749884204D1207838
:10C1F000F221FFF7ADFE4EE000200890A2786378B0
:10C2000011021943084608A904F094FC002804D040
:10C210002078F121FFF79CFE3DE012216846017174
:10C22000A17860780902014368464171090A817169
:10C23000E17801A8C17008A8017801A80171FFF791
:10C2400095FE28E0A278637811021943084608A9F0
:10C2500004F04AFC002804D02078F221FFF778FE91
:10C2600019E0122168460171A17860780902014342
:10C2700068464171090A8171E17801A8C17008A876
:10C28000017801A80171FFF771FE04E02078F32125
:10C29000FFF75EFE00BF00BF04E02078F421FFF747
:10C2A00057FE00BF00BF2BE0E88816498988884206
:10C2B00009D12C462034217A206802F0F1FF606811
:10C2C00004F020FA1CE0E9880E48008A814217D168
:10C2D0002020405D002801D0012000E00020094915
:10C2E00088700DE02888102803D1A88807490880A5
:10C2F00006E02888112803D10020C04303490880A4
:10C3000009B0F0BD5C280020FFFF00002A210020BA
:10C3100070B588B005460E461446172C02DD09207C
:10C3200008B070BD0B4800880B49884210D000212E
:10C33000684601714571290A817101A8C4702246BD
:10C34000314602A8FCF74EF801A8FFF70FFEE7E719
:10C350000248E5E72A210020FFFF0000023000002C
:10C3600030B593B004460020129000BF10A8007AA8
:10C3700001090901491C10A80172007AF0218843C3
:10C38000103010A9087200BF00BF10A8407A010940
:10C390000901491C10A84172407AF02188431030ED
:10C3A00010A9487200BF10A8807A06218843811C1A
:10C3B00010A881721C210BA8FCF773F808A8007B59
:10C3C00002218843811C08A80173007B1021884347
:10C3D000411808A8017300200E9012A810900020A8
:10C3E0000C900F900A9008A8007AF021884301462B
:10C3F000103108A80172007A01090901491C08A836
:10C400000172407AF02188430146103108A8417238
:10C41000407A01090901491C08A84172807A082163
:10C420008843014608A88172807A1021884301461A
:10C4300008A88172807A4108490008A88172807A30
:10C4400006218843811C08A881721648017808A833
:10C450008171042168468184206806906068079095
:10C46000217A08A80170142101A8FCF71AF8092103
:10C47000684681810021C1810921018209A80190BA
:10C4800006A805900AA80290074908880B1D01AA72
:10C490000BA9A2DF0546002D02D0032013B030BD4A
:10C4A0000020FBE7282100205C28002070B505460D
:10C4B000002119E0EFF31080C407E40F72B61148B1
:10C4C000405C00280CD101200E4A505428204843DB
:10C4D0000D4A80182860002C00D162B6012070BD82
:10C4E000002C00D162B6491C1D29E3D300BF0426ED
:10C4F00000BF06A244210420FCF7B2FD00BF00BF2C
:10C500000020ECE734300020AC2B00202E2E5C2ED7
:10C510002E5C2E2E5C7262635F6D6573685C737255
:10C52000635C6D6573685F7061636B65742E630037
:10C530000246002A00D1704711460931507806287A
:10C5400002DD5078252801DD0020F4E70FE00B78AC
:10C5500010460930081A1B185078801F834201D9F1
:10C560000020E8E70878401C4301181A09184878A9
:10C570001628ECD1C8788B7800021843024B9842F9
:10C58000E5D10846D7E70000E4FE000030B50446D8
:10C590002046FFF7CDFF0546002D01D10B2030BD11
:10C5A0002046093085420ED02878401CC1B20020B8
:10C5B00004E02B5C224609321354401C8842F8D315
:10C5C0002546093500BF2878C01D60700020E6E7C9
:10C5D000FFB581B005461F460A9E002D02D10E20F0
:10C5E00005B0F0BD2C460934172E01DD0920F7E710
:10C5F000284600F0E3F830460E30687028780009CD
:10C600000001801C2870F01D2070162060700D48FD
:10C61000A070000AE07002982071000A607103980F
:10C62000A071000AE071002E09DD002F07D0172E3F
:10C6300005DC3246394620460830FBF7D3FE0020A1
:10C64000CEE70000E4FE000002461146093110E08A
:10C650004878162806D1C8788B7800021843094B11
:10C66000984201D0012070470878401C4301181AF5
:10C6700009185078C01F13460933C0188842E7D8FC
:10C680000020F0E7E4FE0000002003E00021034A60
:10C690001154401C1D28F9D370470000343000208D
:10C6A000F8B506461849701A2821FBF715FF04460D
:10C6B0001D2C01D30020F8BDEFF31080C507ED0F4E
:10C6C00072B61248005D00280ED100BF082700BFD7
:10C6D0000FA276210820FCF7C3FC00BF00BF002D8D
:10C6E00000D162B60020E6E70848005D401E074919
:10C6F0000855002D00D162B60448005D002801DD18
:10C700000120D8E70020D6E7AC2B002034300020F1
:10C710002E2E5C2E2E5C2E2E5C7262635F6D657316
:10C72000685C7372635C6D6573685F7061636B6591
:10C73000742E6300F8B505461549681A2821FBF7E1
:10C74000CBFE04461D2C01D30020F8BDEFF3108072
:10C75000C607F60F72B60F48005D002803D00D48DB
:10C76000005DFF2809D100BF042700BF0AA2622193
:10C770000420FCF775FC00BF00BF0648005D401CAC
:10C7800004490855002E00D162B60120DDE7000003
:10C79000AC2B0020343000202E2E5C2E2E5C2E2E52
:10C7A0005C7262635F6D6573685C7372635C6D6518
:10C7B00073685F7061636B65742E63007CB50446BB
:10C7C000684671DF0546002D01D028467CBD2078E3
:10C7D0004021884369460978890140221140084375
:10C7E0002070062200A90131E01CFBF7FBFD0020B0
:10C7F000ECE710B504462046FFF726FF002802D0DC
:10C800002046FFF7C3FE2046FFF7D8FF10BD00000B
:10C8100010B590B01C2109A8FBF743FE08A80079C9
:10C8200004218843011D08A8017100791021884363
:10C83000411808A8017100200E900F900A900D90E9
:10C84000089008A84078F02188430146103108A8D4
:10C850004170407801090901491C08A8417080789D
:10C8600006218843811C08A88170807808218843AC
:10C87000014608A88170807810218843014608A8E5
:10C880008170807841084900491C08A881701448CB
:10C890000178684681770521818300210191142167
:10C8A00002A8FBF7FEFD01216846018200214182BA
:10C8B0001B21818208A8039007A8029001A8069076
:10C8C000084908880B460C3302AA09A9A2DF0446CE
:10C8D000002C02D0032010B010BD0020FBE70000A8
:10C8E000282100205C28002070B50646304603F061
:10C8F00057FD162000F032FE002209490948006861
:10C90000FCF7CCFC044600BF2546002D06D000BF36
:10C9100005A2FF2123312846FCF7A2FB00BF70BD12
:10C92000AE8701000C2000202E2E5C6D61696E2EFA
:10C9300063000000F7B584B004460F4606980678F9
:10C94000B01C1F2803DC6078801C1F2802DD0C202F
:10C9500007B0F0BD1F20801B801E85B20295B11C60
:10C96000781802A97DDF03900398002801D003986E
:10C97000EEE72078022808D168460089A84204DC46
:10C9800009200190684605890BE008200190607835
:10C99000002804D06078A84201DC657801E0684690
:10C9A0000589681CC2B23046711CCEB23A5430467A
:10C9B000721CD6B20199395406980178A81C08183F
:10C9C000C1B2069801700020C2E7000070B50446AD
:10C9D000002520788007800F0543607880001C21A7
:10C9E0000840054360684001602108400543C902D2
:10C9F00060680840002802D06068084005430020B5
:10CA000000F038F804484068FF2109020840284334
:10CA10000149486070BD00000075004070B50546D2
:10CA2000284600F027F800BF01200F49086000BF2A
:10CA300000BF00BF0D480068002801D0012000E0C1
:10CA400000200028F5D000BF00200849086000BF82
:10CA500000BF0748846800BF00BF0120024948604A
:10CA600000BF204670BD0000007000400071004013
:10CA7000007500400102084A5268FF231B029A43D6
:10CA80001143054A5160002802D00121116002E0E3
:10CA90000021014A116070470075004010B504463E
:10CAA0002088F0210840102802D0502808D103E047
:10CAB0002046FCF71BFE04E02046FCF74DFE00E09C
:10CAC00000BF00BF10BD000070B596B000201590EB
:10CAD00010A9087414A860DF0446002C0DD0082C9F
:10CAE0000BD000BF2646002E06D000BF32A29621F2
:10CAF0003046FCF7B5FA00BF00BF062530213348A9
:10CB0000FBF7CFFC3148C57002203049087030482F
:10CB10000068139011A871DF044600BF2646002E5E
:10CB200006D000BF24A2A9213046FCF799FA00BF25
:10CB300000BF11A84079000211A989790843024673
:10CB400024A101A8FBF77EFB01A8FBF729FC86B214
:10CB5000324601A913A87CDF044600BF2646002EFA
:10CB600006D000BF14A2B0213046FCF779FA00BF0E
:10CB700000BF00211548FCF77CFD044600BF264697
:10CB8000002E06D000BF0CA2B4213046FCF768FA94
:10CB900000BF00BF134873DF044600BF2646002EC7
:10CBA00006D000BF04A2B8213046FCF759FA00BFF6
:10CBB00000BF16B070BD00002E2E5C6E72665F6105
:10CBC00064765F636F6E6E2E630000009C2600200B
:10CBD000300C02004C69676874537769746368208D
:10CBE000232564005020002001B505E00098401E78
:10CBF00000900348FBF7B0FA00980028F6D108BD72
:10CC0000E703000070B504460D4629462046FBF7B1
:10CC10006FFF00BFE106C90E01208840054908608A
:10CC200000BF00BFE106C90E01208840024908602C
:10CC300000BF70BD80E200E000E100E0FEB5054607
:10CC40000E46284600F06CFD002822D02846FDF74D
:10CC500021FA001F009000F04FFD0746BC11032C85
:10CC60000CD100BF1F4800690121A94008400028DD
:10CC700001D0032000E00220019005E0012C01D149
:10CC8000022000E0032001902846019900F042FCB8
:10CC900027E0284600F050FD002822D02846FDF766
:10CCA000F9F90446A000FF30013087B220460E4952
:10CCB00051221201891882008958012211430A4A1F
:10CCC00051231B01D2188300D15000BF384600F019
:10CCD0006DFC002E04D00121A140084600F07AFC32
:10CCE00000BFFEBD0005005000600040F7B582B0F7
:10CCF00004460E4600200190204600F003FD002867
:10CD000002D0082001905FE0F27820460499FDF7F8
:10CD100085F90546681C002853D0B078002810D04B
:10CD200000BFA1002A4A89180968022291430846D7
:10CD300005210907072212028918A200885000BFA6
:10CD40000AE0707881000522120707231B02D2181F
:10CD5000A300D15000BF00BFF078002826D037785C
:10CD60001C48512109014018A90040581A4908409F
:10CD70001849512212018918AA00885015485121DA
:10CD800009014018A900415820021F221202104038
:10CD90003A0403231B041A40104301430D48512257
:10CDA00012018018AA00815000BF0CE0281F0B4917
:10CDB000085C31788901084342B2281F07490A54A8
:10CDC00001E00420019000BF019805B0F0BD000013
:10CDD0000007005000600040FFE0FCFFF030002042
:10CDE000014600BF05480069C840C007C00F0028C1
:10CDF00001D0012070470020FCE700000005005032
:10CE000010B512480078002801D0082010BD002479
:10CE100004E0204600F0A0FC601CC4B2202CF8DB2B
:10CE2000002404E02046FDF7E1F8601CC4B20C2C9D
:10CE3000F8DB01210620FFF7E5FE0120C00700F026
:10CE4000C9FB0120014908700020DFE79C30002069
:10CE500003480078002801D0012070470020FCE73B
:10CE60009C30002070B505462846FDF713F9800672
:10CE7000040E204601494118084670BD006000407C
:10CE800070B502460B46002B01D0012000E00020C7
:10CE90000146124CA056124C51252D0164198500F3
:10CEA000645901252D05AC430D4D51263601AD19B0
:10CEB0008600AC510A4C51252D0164198500645936
:10CEC0000D050126360535402C43054D512636010A
:10CED000AD198600AC5100BF70BD0000D0300020FD
:10CEE00000600040F8B504460D461646002D01D0FE
:10CEF000002E01D10E271DE02046FEF7BFFC0028C2
:10CF000001D1072716E02046FEF730FC002801D1AA
:10CF100008270FE000BF0848512109014018E1002F
:10CF200045500548512109014018E100401846606C
:10CF300000BF00273846F8BD00F0014070B5054637
:10CF40002846FEF733FC002801D107240FE02846CD
:10CF5000FEF794FC002806D02846FEF707FC0028C0
:10CF600001D1082403E0284600F03AFB00242046C3
:10CF700070BD000070B505462846FEF717FC002876
:10CF800001D1072412E02846FEF778FC002806D0DD
:10CF90002846FEF7EBFB002801D1082406E000BF7D
:10CFA0000120A8400249486000BF0024204670BD0F
:10CFB00000F5014070B504460D46204600F009F822
:10CFC0000646294600F00AF870BD01460120884057
:10CFD000704701460120884070470000FEB50646B4
:10CFE0000C462046FEF7EBFB002801D1072551E057
:10CFF0002046FEF7CBFB002801D108254AE0304649
:10D00000FCF75CFA002801D1072543E000200290DC
:10D01000FDF782F901900198012814D002A836DFAB
:10D020000746022F01D172B60CE000BF0097009FA7
:10D03000002F06D000BF18A226490098FCF710F870
:10D0400000BF00BF00BF00BF2348C1144018A100AB
:10D05000405830432049CA148918A200885000BFA4
:10D060000198012815D062B66846007A37DF074676
:10D07000022F0DD000BF0097009F002F07D000BFE8
:10D0800005A28F2189000098FBF7EAFF00BF00BFCF
:10D0900000BF00252846FEBD2E2E5C2E2E5C2E2EB7
:10D0A0005C2E2E5C2E2E5C2E2E5C636F6D706F6E70
:10D0B000656E74735C647269766572735F6E7266B6
:10D0C0005C7070695C6E72665F6472765F707069C6
:10D0D0002E6300003A02000000F00140FEB5064653
:10D0E0000C462046FEF76BFB002801D1072551E0D6
:10D0F0002046FEF74BFB002801D108254AE03046C8
:10D10000FCF7DCF9002801D1072543E0002002905C
:10D11000FDF702F901900198012815D002A836DF29
:10D120000746022F01D172B60DE000BF0097009FA5
:10D13000002F07D000BF18A24121C9000098FBF7BB
:10D140008FFF00BF00BF00BF00BF2248C1144018BE
:10D15000A1004058B0431F49CA148918A200885042
:10D1600000BF0198012814D062B66846007A37DF04
:10D170000746022F0CD000BF0097009F002F06D05B
:10D1800000BF05A214490098FBF76AFF00BF00BF6B
:10D1900000BF00252846FEBD2E2E5C2E2E5C2E2EB6
:10D1A0005C2E2E5C2E2E5C2E2E5C636F6D706F6E6F
:10D1B000656E74735C647269766572735F6E7266B5
:10D1C0005C7070695C6E72665F6472765F707069C5
:10D1D0002E63000000F001400A02000010B5044672
:10D1E00021460248FFF77AFF10BD0000FF3F000014
:10D1F00070B505462846FEF7E2FA002801D107245B
:10D2000003E0284600F0F4F90024204670BD000039
:10D2100070B505462846FEF7D2FA002801D107244A
:10D220000EE02846FEF7B2FA002801D1082407E0F4
:10D2300000BF0120E900034A8918086000BF0024EC
:10D24000204670BD00F00140014600BFC800024A00
:10D250008018001D7047000000F00140014600BF2B
:10D26000C800014A8018704700F0014070B50446BC
:10D270000D462946206800F0C3F970BDF8B5054693
:10D280000C4616461F4601200004A0400090012FC6
:10D2900004D12868009900F0C5F903E028680099D6
:10D2A00000F0BBF92B68A100152292019818465096
:10D2B00000BFF8BD70B504460D46284600F006F8DC
:10D2C00006463146206800F0A2F970BD014688008C
:10D2D000FF30413080B2704770B504460D46284695
:10D2E000FFF7F4FF06463146206800F093F901226B
:10D2F0001204AA401146206800F094F970BD0000A5
:10D30000F8B504460F46002529E02846FFF7DEFF62
:10D310000646204631464258002A01D0012200E04C
:10D320000022002A1AD001200004A840032109028B
:10D33000611849680140002901D0012100E0002165
:10D3400000290BD03146204600F064F9B800054BA7
:10D350001958B800044B1A58304690476D1C042DDC
:10D36000D3D3F8BD8C21002084210020FEB50446D3
:10D3700000200190FCF7FEFF00900098012813D0D8
:10D3800001A836DF0646022E01D172B60BE000BFBF
:10D390003746002F06D000BF1CA262213846FBF79B
:10D3A0005FFE00BF00BF00BF27480068082812D2F8
:10D3B00025480078207024480068401C22490860F5
:10D3C0002078224989680122824011431F4A9160D6
:10D3D00000BF002500E004250098012813D062B6A4
:10D3E0006846007937DF0646022E0BD000BF37466D
:10D3F000002F06D000BF05A26E213846FBF730FE95
:10D4000000BF00BF00BF2846FEBD00002E2E5C2ED0
:10D410002E5C2E2E5C2E2E5C2E2E5C2E2E5C636FD0
:10D420006D706F6E656E74735C647269766572732D
:10D430005F6E72665C7764745C6E72665F6472764F
:10D440005F7764742E63000098210020000501407E
:10D4500010B50446204600F0EBF810BD0120054948
:10D46000486000BF00BF044A106000BF02200349AB
:10D470000870704700030140000001409421002023
:10D4800070B504460D461148056011480078002823
:10D4900003D101200E49087001E0082070BD002C66
:10D4A00000D10C4C20780C49C86000BF6168C803EB
:10D4B0007D21C900FBF710F806460748466000BF0B
:10D4C000217A1020FFF79EFB0020E7E79021002043
:10D4D00094210020940C02000005014010B58A0040
:10D4E00005231B07072424021B1984001A5110BDB1
:10D4F00003210522120707231B02D2188300D150F3
:10D50000704703210522120707231B02D21883004C
:10D51000D150704710B50522120707231B02D218FD
:10D520008300D25803231B049A4305231B070724B7
:10D5300024021B1984001A510522120707231B021B
:10D54000D2188300D2580B041A4305231B07072463
:10D5500024021B1984001A5110BD000001218140D2
:10D56000014AD16070470000000500500121814050
:10D57000014A91607047000000050050012383407C
:10D580001946064B5B68C340DA07D20F002A02D166
:10D59000024B996001E0014BD960704700050050D3
:10D5A00001460148081870470060004010B5044665
:10D5B0002046FFF7F5FF0021016010BD10B50446BD
:10D5C0002046FFF7EDFF0068012800D110BD0020C4
:10D5D000FCE700000149486070470000006300401C
:10D5E00001218140014A91607047000000F501402F
:10D5F0000121C200014BD2185160704700F0014078
:10D600000246880015239B01D3181858704702461C
:10D6100050187047002242507047032212028218AD
:10D620009160704703221202821851607047000017
:10D630000349044A03235B02D2188300D150704788
:10D640003546526E0000014038B505466846FDF784
:10D650000FFF044668460078002800D138BD7D20C1
:10D66000C0002818844203D2204603F051F808E095
:10D670002146054802F0BCF9002802D0204603F0FC
:10D6800047F800BFEAE70000982B00201CB50221F4
:10D69000684641710948017968468171FEF706FFC5
:10D6A000002800D11CBD684600F090FB002802D085
:10D6B0000098FEF7F5FF00BFF4E700002C210020E2
:10D6C00070B504460D46002C05D0002D03D02078FF
:10D6D0002978884201D0012070BD2078C21F2946D8
:10D6E000083120460830FAF72DFE002801D001202D
:10D6F000F2E70020F0E7000001460148405C704777
:10D70000F0300020014605484056C017401C002854
:10D7100001D0012070470020FCE70000D03000203D
:10D72000014604484056042801DB012070470020D0
:10D73000FCE70000D0300020014606484056002893
:10D7400005DB04484056042801DA01207047002018
:10D75000FCE70000D03000200022D24301490A54E7
:10D7600070470000D030002010B504460A484068D9
:10D77000094908601020FFF751F907494860084639
:10D780004068FF212D31884205DA012002F008FEB1
:10D790000120FFF7A9F810BD2C2000207CB5164809
:10D7A000FDF7C0F8044622E069461348FDF7E4F8A7
:10D7B00000281AD168464079022816D100210E4867
:10D7C000FDF716F900F0C8F900BF0C480069002801
:10D7D000FBD10B49C86064230022D2430021094DCC
:10D7E00000982D68A847641E00E002E000BF012CED
:10D7F000DAD800BF7CBD0000D027002040150040D3
:10D8000000110040AC20002070B505460C462E6883
:10D810000C2161438919087AFFF790FB0C216143C1
:10D820008919487AFFF78AFB70BD70B504462568F0
:10D830002021485DFFF782FB2121485DFFF77EFB39
:10D8400070BDFEB504460D46164627680C20684399
:10D85000C019019000952046FFF7E7FF29462046B2
:10D86000FFF7D2FF002E0FD10C236B432268D21892
:10D87000927A002A01D1012200E000221146019A89
:10D880001068FFF7FDFA13E0B869B04210D8388B82
:10D8900086B20C236B432268D218927A002A01D0F8
:10D8A000012200E000221146019A1068FFF7E8FA11
:10D8B0000023324660680099FFF7E0FC019846605B
:10D8C000FEBDF7B584B0044625680C210598484391
:10D8D00047192E462236059803902046FFF7A5FFEC
:10D8E00020460599FFF790FF00236068069A039988
:10D8F000FFF7C4FC3078FFF771FC3178387AFFF716
:10D9000059FB3178787AFFF755FB786800280FD1FA
:10D910003078FFF7A3FC029060680599FFF7CAFC16
:10D9200020210190485D029A0199FFF7DBFA0EE091
:10D930003078FFF793FC029002216068FFF7BAFC91
:10D9400020210190485D029A0199FFF7CBFA20212E
:10D95000485DFFF70FFB0698786007B0F0BDF7B59C
:10D9600084B00646174634680C21059848430019D0
:10D970000390254622353046FFF757FF2878FFF7FA
:10D980002DFC2978039A107AFFF714FB2978039A63
:10D99000507AFFF70FFB002F0FD12878FFF754FCC8
:10D9A000029070680599FFF785FC20210190085DC1
:10D9B000029A0199FFF796FA10E0208B87B2287837
:10D9C000FFF742FC029002217068FFF773FC2021F0
:10D9D0000190085D029A0199FFF784FA2021085D01
:10D9E000FFF7C8FA0398476007B0F0BDF7B584B0F9
:10D9F00005460F462C680C207843001903902646F4
:10DA000022363078FFF7EAFB31782022105DFFF7ED
:10DA1000D1FA31782122105DFFF7CCFA3078FFF788
:10DA2000E7FB03216868FFF745FC02906968096815
:10DA30004031BB00CA182021085D0299FFF752FA55
:10DA40000C207843001941680698814210D9039947
:10DA50000868FFF707FA029003216868FFF72AFCBD
:10DA600021210190085D029A0199FFF73BFA0CE031
:10DA70002120005D0190307802900198FFF7A9FA0B
:10DA800000900299FFF72AFB00BF3078FFF7C0FB38
:10DA9000039906984860002368680321069AFFF7F7
:10DAA000EDFB07B0F0BD000070B50646002420E095
:10DAB000142C02DAA000201805E02046143881005A
:10DAC00040186421081A054600200B49087000BF61
:10DAD000AAB200210948FBF7C5FA1128F8D000BF07
