:020000040001F9
:10800000A03A0020D1810100E38101008D890100A7
:108010000000000000000000000000000000000060
:10802000000000000000000000000000E7810100E7
:108030000000000000000000E9810100EB81010068
:10804000ED810100ED810100E58C0100ED81010071
:10805000ED8101000000000005880100ED810100B4
:10806000ED810100D58C0100ED810100ED81010061
:10807000ED810100ED810100ED810100ED81010044
:10808000798D0100318C0100FD8B0100ED81010033
:10809000598C0100ED810100618C0100ED8101002E
:1080A000ED810100ED8101000000000000000000F2
:1080B00000000000000000000000000000000000C0
:1080C00000F002F800F038F80CA030C80838241886
:1080D0002D18A246671EAB4654465D46AC4201D100
:1080E00000F02AF87E460F3E0FCCB64601263342FA
:1080F00000D0FB1AA246AB4633431847389D000018
:10810000589D00000023002400250026103A01D3CA
:1081100078C1FBD8520700D330C100D50B6070473F
:1081200010B5642902D100F0D7F810BD002010BDB1
:108130001FB51FBD10B510BD00F007FB1146FFF7BE
:10814000F7FF04F04BF800F01FFB03B4FFF7F2FF5A
:1081500003BC00F025FB0000401E00BF00BF00BFB5
:1081600000BF00BF00BF00BF00BF00BF00BF00BF17
:1081700000BFF1D170470000401E00BF00BF00BF2C
:1081800000BF00BF00BF00BF00BF00BF00BF00BFF7
:1081900000BFF1D17047000070B505460C46164689
:1081A00002E00FCC0FC5103E102EFAD2082E02D3DB
:1081B00003CC03C5083E042E07D301CC01C5361FEE
:1081C00003E021782970641C6D1C761EF9D270BD05
:1081D0000A48026803210A430260094880470948A7
:1081E0000047FEE7FEE7FEE7FEE7FEE7FEE70000EA
:1081F00005480649044A064B704700002405004024
:108200009D8C0100C1800100A0320020A03A002016
:10821000A03200204343514330B55C18010C130CCD
:108220000D4692B25D4380B251432C190546554329
:108230000A0C09044D1962415843010C000440190D
:10824000514130BD0FB41CB5074B06AA7B446946AB
:108250000090059800F04DFA0020694600F05CFAA5
:108260001CBC08BC04B01847C9040000F8B50E4691
:108270000446002020622046E1688847002829D073
:10828000252802D06268A16820E0E1682046002726
:10829000884705001ED028464138192802D80127F2
:1082A000FF0220353246204627602946FFF738FF77
:1082B000002808D0012804D0F61DF608F60008367C
:1082C000D9E7361DD7E762682846A1689047206A3B
:1082D000401CCFE7206AF8BDF7B500257529106866
:1082E000009914A611D0C046C046002802DA4042C8
:1082F00011A608E0009909688A0701D50FA602E0D7
:10830000490704D50EA6012501E0C046C046009FDE
:108310000024243704E000F004FA30313955641C9D
:108320000028F8D12B4632462146009800F084F907
:10833000FEBD0000000000002D0000002B0000002A
:1083400020000000034610B50B439B070FD1042A01
:108350000DD308C810C9121FA342F8D018BA21BA09
:10836000884201D9012010BD0020C04310BD002A61
:1083700003D0D30703D0521C07E0002010BD0378C0
:108380000C78401C491C1B1B07D103780C78401C3F
:10839000491C1B1B01D1921EF1D1184610BD0000D3
:1083A00030B5441C03E00178401C00290DD0810742
:1083B000F9D10B4BDD0104C8D11A91432940FAD001
:1083C000001B0A0603D0C01E30BD001B30BD0A04CE
:1083D00001D0801E30BD0902FCD0401E30BD00001F
:1083E00001010101F8B5042A2CD3830712D00B78C0
:1083F000491C0370401C521E83070BD00B78491C8C
:108400000370401C521E830704D00B78491C037074
:10841000401C521E8B079B0F05D0C91ADF0020237A
:10842000DE1B08C90AE0FFF7B7FEF8BD1D4608C904
:10843000FD401C46B4402C4310C0121F042AF5D244
:10844000F308C91A521EF0D40B78491C0370401C63
:10845000521EEAD40B78491C0370401C012AE4D454
:1084600009780170F8BD01E004C0091F0429FBD29E
:108470008B0701D50280801CC90700D002707047AD
:1084800000290BD0C30702D00270401C491E0229EC
:1084900004D3830702D50280801C891EE3E70022F3
:1084A000EEE70022DFE70378C27819464378120628
:1084B0001B0219438378C0781B0419431143090236
:1084C000090A000608437047020A08704A70020C45
:1084D0008A70020ECA707047002203098B422CD3A7
:1084E000030A8B4211D300239C464EE003460B4304
:1084F0003CD4002243088B4231D303098B421CD366
:10850000030A8B4201D394463FE0C3098B4201D357
:10851000CB01C01A524183098B4201D38B01C01A8F
:10852000524143098B4201D34B01C01A5241030906
:108530008B4201D30B01C01A5241C3088B4201D3B5
:10854000CB00C01A524183088B4201D38B00C01A62
:10855000524143088B4201D34B00C01A5241411A89
:1085600000D201465241104670475DE0CA0F00D06C
:108570004942031000D34042534000229C46030965
:108580008B422DD3030A8B4212D3FC22890112BAEB
:10859000030A8B420CD3890192118B4208D38901C3
:1085A00092118B4204D389013AD0921100E08909DB
:1085B000C3098B4201D3CB01C01A524183098B42BC
:1085C00001D38B01C01A524143098B4201D34B01A5
:1085D000C01A524103098B4201D30B01C01A524108
:1085E000C3088B4201D3CB00C01A524183088B428F
:1085F00001D38B00C01A5241D9D243088B4201D318
:108600004B00C01A5241411A00D201466346524102
:108610005B10104601D34042002B00D54942704701
:1086200063465B1000D3404201B50020C046C046FF
:1086300002BD704770477047FFB504460D4681B0D4
:10864000243000902168880604D51022E069914307
:10865000216000E00120A84201DD471B00E0002767
:108660000498A1697A191018081AA0612078C00628
:1086700002D42046C046C046002608E0039862683F
:10868000A168805D9047206A401C761C2062049897
:108690008642F3DB2078C0060AD52046C046C04695
:1086A00006E06268A16830209047206A401C206282
:1086B00038467F1E0028F4DC07E000986268A16855
:1086C000405D9047206A401C206228466D1E0028AD
:1086D000F3DC2046C046C0462078000602D50220C2
:1086E00005B0F0BD0120FBE701694A1C0261087872
:1086F000704700B58FB002910021059105490193A3
:1087000079440391114604906846FFF7AFFD0FB01E
:1087100000BD0000E5FFFFFF0A681070521C0A60F0
:10872000704701468008081A02091018020A10183A
:10873000020C1018C008820012185200891A01E0B9
:10874000401C0A390A29FBD27047754600F024F80C
:10875000AE46050069465346C008C000854618B0BD
:1087600020B5FFF745FD60BC00274908B646002646
:10877000C0C5C0C5C0C5C0C5C0C5C0C5C0C5C0C5D1
:10878000403D49008D46704710B50446C046C0467E
:108790002046FFF7DAFC10BD004870474032002049
:1087A00001491820ABBEFEE726000200704770B5F5
:1087B0008C180578401C6B075B0F01D10378401CB7
:1087C0002A1106D10278401C03E00678401C0E7086
:1087D000491C5B1EF9D12B0705D40023521E0DD472
:1087E0000B70491CFAE70378401CCB1A921C03E07B
:1087F0001D780D70491C5B1C521EF9D5A142D8D3BF
:10880000002070BDF0B587B0002600200690FF2044
:10881000013005900125002417E0059805F018FDAA
:1088200000280CD00120A04055494968014000298A
:1088300005D0059805F004FD3046284306466D0036
:108840000598001D80B20590641C042CE5D3FF2020
:108850007D3005F0FDFC00280AD0FF207D3005F0BA
:10886000EFFC0120C007064300BF464800690690A0
:108870003007000F00282AD00125002425E02846D3
:10888000304000281FD000BF3F4851210901401847
:10889000A10040581F2109020840000A049000BFAF
:1088A0003948512109014018A10040580321090409
:1088B0000840000C0390204601F0E4FD07460399B0
:1088C0000498B84700BF6D00641C042CD7D3F00F88
:1088D000C007002852D000244EE0204605F0BCFD21
:1088E0000490C021049888430746049808408011EA
:1088F00003900120B8400546384605F0C1FD002828
:1089000039D0384601F002FE019001F0BBFD029023
:10891000029800282ED000BF052000070721090279
:108920004018B9004058032109040840000C019088
:1089300006982840002802D00198022806D0069800
:108940002840002815D10198032812D10398032844
:108950000BD10198022801D1032000E002200090F1
:108960003846009905F013FC00BF3846029A039977
:10897000904700BF00BF641C082CAED307B0F0BD09
:1089800000630040000500500060004002F004F960
:10899000C206D20E01219140014A116070470000C9
:1089A00080E200E0C206D20E01219140014A11602E
:1089B0007047000000E100E0C206D20E01219140A4
:1089C000014A11607047000000E100E0C206D20ECB
:1089D00001219140014A11607047000000E200E06F
:1089E000C206D20E01219140014A11607047000079
:1089F00000E200E0C206D20E01219140014A11605E
:108A00007047000000E200E0C206D20E0121914052
:108A1000014A11607047000000E200E010B5002834
:108A200019DA1A4A03071B0F083B9B089B00D25810
:108A30008307DC0EFF23A3409A438B071B0E84079A
:108A4000E40EA3401A43114B0407240F083CA4086A
:108A5000A4001A5118E00E4A03231B02D2188308FF
:108A60009B00D2588307DC0EFF23A3409A438B0759
:108A70001B0E8407E40EA3401A43054B0324240273
:108A80001B198408A4001A5110BD00001CED00E061
:108A900000E100E010B5002819DA1A4A03071B0F9D
:108AA000083B9B089B00D2588307DC0EFF23A340A2
:108AB0009A438B071B0E8407E40EA3401A43114B05
:108AC0000407240F083CA408A4001A5118E00E4A19
:108AD00003231B02D21883089B00D2588307DC0EA5
:108AE000FF23A3409A438B071B0E8407E40EA34089
:108AF0001A43054B032424021B198408A4001A51AD
:108B000010BD00001CED00E000E100E010B5002801
:108B100019DA1A4A03071B0F083B9B089B00D2581F
:108B20008307DC0EFF23A3409A438B071B0E8407A9
:108B3000E40EA3401A43114B0407240F083CA40879
:108B4000A4001A5118E00E4A03231B02D21883080E
:108B50009B00D2588307DC0EFF23A3409A438B0768
:108B60001B0E8407E40EA3401A43054B0324240282
:108B70001B198408A4001A5110BD00001CED00E070
:108B800000E100E010B5002819DA1A4A03071B0FAC
:108B9000083B9B089B00D2588307DC0EFF23A340B1
:108BA0009A438B071B0E8407E40EA3401A43114B14
:108BB0000407240F083CA408A4001A5118E00E4A28
:108BC00003231B02D21883089B00D2588307DC0EB4
:108BD000FF23A3409A438B071B0E8407E40EA34098
:108BE0001A43054B032424021B198408A4001A51BC
:108BF00010BD00001CED00E000E100E010B510E049
:108C00000024094801F0DCFF044308F0E1F90028E2
:108C100003D0064801F0D4FF0443002C00D101E04A
:108C200000BFEDE700BF10BD702B0020282C0020F6
:108C300010B50020074908600021064841608160A6
:108C4000C1600020034940390860486007F0FAFF1E
:108C500010BD00004011014010B507F0E9FC10BD47
:108C600070B50C480068002811D00A480068804799
:108C7000044600BF2546002D07D000BF064AFF214D
:108C80002A31284600F0FAF900BF00BF01E002F0E7
:108C90004FFF70BD9C210020DC1D020010B502F0CA
:108CA000F9FF002805D0074807494860C81307495D
:108CB000886102F0D3FF002802D0012004498860B7
:108CC00010BD0000DFFF07C000050040006C004041
:108CD0000006004010B50021014805F005F910BD5F
:108CE0000090004010B509E000201C49886008464B
:108CF00080681B498969C8B201F00EFC174880687A
:108D00000028F1D11548C069002826D00020134959
:108D1000C861144801680068401E124A10600029AA
:108D20000AD01148006800780D49C8610E480068F3
:108D3000401C0D49086010E001200C49C8600C4837
:108D40000078012802D0002009490870094802F083
:108D50003BF8002801D106F0F5FC10BD00210040D1
:108D6000002500403C210020402100200020004040
:108D700038210020D029002010B501200A49496877
:108D80000140002901D0012100E00021012909D181
:108D900000BF00200902054A8918086000BF044886
:108DA0000068804710BD0000000301400000014042
:108DB0009021002030B47446641E2578641CAB42B8
:108DC00004D3635D5B00E31830BC18471D46F8E729
:108DD0001CB5044903C901910090684604F088F865
:108DE0001CBD00002C1D0200124A1268002A07D088
:108DF000104B02681B681B68D21A0F4B9A4205D9A8
:108E00000C4A126802610B4A10607047094A1168E7
:108E100000E009690A69002A06D00A691268036835
:108E2000D21A054B9A42F4D80A690261086100BF60
:108E3000EBE700006C210020FFFFFF7FF8B5044640
:108E40000F4615460026002028702078002809D0FB
:108E50002A463946204603F0FFFF0646002E01D081
:108E60003046F8BDA078002808D02946384600F0E2
:108E70005DFC0646002E01D03046F2E7E07800287F
:108E80000ED002212A78501C2870B95401212A786A
:108E9000501C2870B954E1782A78501C2870B954B5
:108EA000606800280BD00020616808562A463946C1
:108EB00008F0D0FA0646002E01D03046D1E72089CE
:108EC00000280CDD3B460622022120460830009592
:108ED00008F081FB0646002E01D03046C1E7208A0B
:108EE00000280CDD3B460722032120461030009568
:108EF00008F071FB0646002E01D03046B1E7208B0A
:108F000000280CDD3B461522142120461830009520
:108F100008F061FB0646002E01D03046A1E7206A2A
:108F2000002809D02A463946206A01F003FC06468B
:108F3000002E01D0304694E7606A002809D02A4606
:108F40003946606A03F0DEF90646002E01D030464D
:108F500087E72C20005D002809DD2A463946204697
:108F600006F09CFF0646002E01D0304679E73046D9
:108F700077E70146C87804221040002801D1072075
:108F800070470020FCE70000014600BF064A506819
:108F90000122D2058243044B9A600122D20502408D
:108FA000DA6000BF704700000005005010B50024D3
:108FB00007E0E100064A1268505C012104F0D0F895
:108FC000641C044800788442F3D3002010BD0000E4
:108FD000B4210020B8210020FEB506460C461746F5
:108FE000052F01D20720FEBD04F0C4F9002806D1E8
:108FF00004F098F90546002D01D02846F3E71648FD
:10900000066016480470164807600020154908607D
:109010001549086015E0E0008019019013480068C8
:109020000090019880786946487001990878104A44
:10903000694604F0EDF80546002D01D02846D2E738
:1090400000BF2046611ECCB20028E4D1094A0021AD
:10905000094800F061FAC6E7B4210020B8210020D9
:10906000BC210020C4210020C8210020CC1D02000A
:109070004DB00100C9A90100C021002001F08CFD04
:1090800070B50446606840790D490D5C0126FF2DDE
:1090900013D0FE2D12D02946606804F013FE6168DB
:1090A00049798900074A5158884207D1FF206168F1
:1090B0004979034A5054002600E00026304670BD2E
:1090C000CC210020D0210020F7B5054614462846C3
:1090D00000F0FAF8604307466421FFF7FDF9064601
:1090E000B2B22846019900F001F8FEBDF8B5044679
:1090F0000F46164625680C2078434019009023201F
:10910000405D022801D00820F8BD00984068B042B8
:1091100008D1E869002803D062685079E969884776
:109120000020F1E72046FFF7ABFF002801D0112017
:10913000EAE7FE20616849791F4A50540098406868
:10914000002804D000984068A969884210D3002EF6
:1091500002D0A869B04205D832463946204605F00B
:10916000B1FA15E032463946204605F0F3FA0FE031
:10917000002E02D0A869B04205D8324639462046B2
:1091800005F084FB04E032463946204605F014FC25
:109190002068C06900280DD0022061684979490023
:1091A000064A8918C85500BF0221606804F0E3FD33
:1091B00000BF00BF0020A7E7CC210020D421002061
:1091C000FFB585B005460E461746286804900C206A
:1091D00070430499441804982030C078002802D0C5
:1091E000082009B0F0BD002060600898A0723448E3
:1091F000006802900C20704329680818807A0028C3
:1092000001D1012000E000206946487202A93846D9
:1092100004F0BAF803900398002801D00420E0E796
:109220000C20704304990F500898002803D038464A
:1092300004F0E0FF02E0384604F0F4FF0020019063
:109240000DE021460831019A881804F08FF90028B2
:1092500001D00420C5E70198401CC0B201900198DC
:109260000228EEDB207A04F035FA607A04F032FA54
:10927000206804F001F901903146686804F05EFD51
:109280000090207A019A009904F0F8F9206804F01F
:10929000F3F801900221686804F050FD0090607AB4
:1092A000019A009904F0EAF90120E072002069684F
:1092B00049794900034A8918885500BF91E70000A1
:1092C000D01D0200D421002001460A68108B80B214
:1092D00070470000F8B504462768002520E00C2000
:1092E0006843C6190020616849794900174A8918FE
:1092F0004855F07A002812D00C236B432268D2180C
:10930000927A002A01D1012200E000221146306841
:1093100004F0E6F8306804F0BDF8002070606D1CC1
:10932000022DDCD3FF2061684979094A50546168F5
:109330000868012105F056F8606804F0DCFC6068FC
:1093400004F03AFD02212320C155F8BDD4210020AC
:10935000CC210020F7B586B005460E46002E02D17E
:109360000B2009B0F0BD2C682320005D002801D03F
:109370000820F6E704F086FC0746002F03D0852F6F
:1093800001D00420EDE703F0F5FF002806D103F03B
:10939000C9FF0746002F01D00320E2E7FF2120206C
:1093A00001552120015522200155002014E0002202
:1093B0000C2141430919CA72FF220C2141430919AA
:1093C0000A720C21414309194A720022D2430C212E
:1093D00041436250411CC8B20228E8DB00200190E2
:1093E00010E021462031019A881804F0BFF80028C7
:1093F00004D0284605F0C9F80420B2E70198401CC3
:10940000C0B2019001980228EBDB2046223004F024
:1094100015FB002804D0284605F0B7F80420A0E783
:10942000002001901FE0019880003058401C002867
:1094300015D0304608300199435C880032582846E0
:10944000FFF7BEFE0746002F04D0284605F09DF822
:10945000384686E7002228460199FFF747FE019823
:10946000401CC0B2019001980228DCDB3069002169
:10947000092201E04008491C224B984201D991423F
:10948000F8D3CBB20593204903C9049103906846F1
:10949000059B03736868407904901C4A03A96868B7
:1094A00004F0B8FC0746002F04D0284605F06DF8FC
:1094B000384656E73169686804F07EFD02900298EC
:1094C000A061686804F017FC01200090686804231C
:1094D00001900221029A04F07DFC0221686804F0E8
:1094E0003FFC0898E06168684079800008490D50A9
:1094F000FF2069684979074A50540121232001550A
:1095000000202EE7FF0F0000D41D020059E60100E5
:10951000D8210020CC21002070B503460C46194804
:109520000068002801D1082070BD002A01D1072061
:10953000FAE7002B01D10720F6E700211CE02420E8
:109540004843104D2D68285C002814D101252420A3
:1095500048430C4E3668355424204843094D2D6845
:109560004019447024204843064D2D6840198261FB
:1095700019600020D8E7491C034800788142DEDBEF
:109580000420D1E7E0210020DC210020FFB581B0DC
:109590000E4617461C4620468107890F002901D137
:1095A000012100E00021002902D1072005B0F0BD13
:1095B000002C01D10720F9E706F06CF826490A983B
:1095C0000860264806702648046000250CE000214B
:1095D00024206843224A1268115424206843204AF8
:1095E0001268801801756D1CB542F0DB24207043B1
:1095F000041903201B4908701B4804601834002517
:109600000CE0E900184A12688818002101704170C6
:1096100087704460182179430C196D1C032DF0DB11
:109620000020C04311490860002011490870114909
:1096300008701420FFF7ACF903211420FFF7A2FAF9
:109640001420FFF7B9F9019805F0FAFF05F0F2FFD1
:10965000094908600020A9E700220020DC21002041
:10966000E0210020E4210020E8210020EC2100205E
:10967000FC210020FD210020F0210020FEB5044641
:109680000D46164616480068002801D10820FEBD88
:1096900014480078844201D2052D01D20720F6E754
:1096A000242060430E490968085C012801D0082085
:1096B000EDE7242060430A490968401840780128F2
:1096C00001D1284600E00020074607F05BFF3B463B
:1096D0002A4621460096019007F06AFAD7E7000073
:1096E000E0210020DC21002070B504460D48006810
:1096F000002801D1082070BD0B480078844201D3B6
:109700000720F8E72420604306490968085C01281F
:1097100001D00820EFE707F035FF0546214607F0A6
:1097200071FAE8E7E0210020DC210020F8B50546C9
:109730000C462078001D1F2801DD0C20F8BD68466E
:1097400079DF0646002E01D03046F7E70321227864
:10975000501C2070A95419212278501C2070A95443
:10976000207841196846008807F08CFE217840185F
:1097700020700020E2E7000070B50022FF218A314E
:1097800037480068FFF77AFF044600BF2546002DE2
:1097900005D000BF33A236492846FFF76FFC00BF53
:1097A0000022344934480068FFF768FF044600BFD0
:1097B0002546002D06D000BF2AA22D49C91C2846E7
:1097C000FFF75CFC00BF00222C492D480068FFF722
:1097D00055FF044600BF2546002D06D000BF21A23C
:1097E0002349891D2846FFF749FC00BF002225496F
:1097F00025480068FFF742FF044600BF2546002DBC
:1098000006D000BF17A23B2109012846FFF736FC0E
:1098100000BF00221D491E480068FFF72FFF0446C5
:1098200000BF2546002D06D000BF0EA210490C3106
:109830002846FFF723FC00BF00221649164800689F
:10984000FFF71CFF044600BF2546002D06D000BFD1
:1098500004A207490F312846FFF710FC00BF70BD76
:10986000142000202E2E5C6D61696E2E63000000B6
:10987000A7030000A480000020200020A410000006
:10988000002000200A170000102000201F450000C3
:10989000182000205C4F00001C2000200146880B8F
:1098A0008003002801D1012070470020FCE7000060
:1098B00070B5044620780300FFF77CFA0504401CCD
:1098C000343A59000321C9036068884204D3012156
:1098D00049076068884209D900BF102500BF25A24A
:1098E00053211020FFF7CAFB00BF00BF6168A068CA
:1098F00088473DE00321C9036068884204D3012101
:1099000049076068884209D900BF102500BF19A225
:109910005B211020FFF7B2FB00BF00BF6168A068A9
:10992000884725E0237C201D07C806F09FFC1FE028
:10993000E279A179A08801F071FD19E00321C90342
:109940006068884204D3012149076068884209D9C8
:1099500000BF102500BF07A278211020FFF78EFB63
:1099600000BF00BF6268E168A068904700E000BFE8
:1099700000BF70BD2E2E5C2E2E5C2E2E5C7262639C
:109980005F6D6573685C7372635C6576656E745F4A
:1099900068616E646C65722E6300000070B50446E9
:1099A00006F05EFF0646204605F01AFE2046FFF749
:1099B0001BFAEFF31080C507ED0F72B60748406839
:1099C000401E06494860002D00D162B6304601F0C5
:1099D000B1FA304606F0F8FA70BD00006C210020A4
:1099E00070B588B005462E46304603F017F8044699
:1099F00000200090002C27D06179227909021143C0
:109A00000846694608F052F800281DD168460078DB
:109A1000002819D004206946087160792179000274
:109A20000843694608812046083003902078C01F0B
:109A3000C1B201A8017306F013FF059001A805F05B
:109A4000F1FB01A802F0ABFC304603F09FF808B030
:109A500070BDF3B593B00D4600211291119113988A
:109A6000002814D01398FFF784FA0446002C02D083
:109A7000204615B0F0BD12AA09A91398FFF7DEF928
:109A80000446002C01D02046F3E709AE00E0002692
:109A9000002D13D0284606F07FFB0446002C01D091
:109AA0002046E6E711AA01A92846FFF7C7F90446B0
:109AB000002C01D02046DCE701AF00E0002710A811
:109AC00003793A46017A304672DFD2E770B5044630
:109AD000208810380300FFF76DF90906071E0A1EDB
:109AE0001E1E1D1C1E0017E00C4873DF14E000BF93
:109AF000A08800230A4A19467FDF0546002D06D0BC
:109B000000BF08A272212846FFF7B8FA00BF00BFC5
:109B100002E001E000E000BF00BF70BD5420002063
:109B20006C2000202E2E5C6E72665F6164765F632F
:109B30006F6E6E2E6300000010B50446208850281A
:109B40000BD0512802D0522808D100E007E0A088AD
:109B500000231A461946A9DF01E000E000BF00BF5C
:109B600010BD10B50446162004F04CFB032007F08E
:109B700093FC10BDF3B581B006460025002400E03B
:109B8000641C042C04D2A00029490858B042F7D123
:109B9000042C42D20298002825D0012802D00228A5
:109BA0003AD133E06000201822490D5C6000201893
:109BB0004018407800280ED01F4800680A22504301
:109BC00001461E4A1E480068FFF758FD0746002F51
:109BD00001D11A4806706000201816494018807894
:109BE0001849085518E016480068FFF77DFD15482C
:109BF000005D610061180F4A89188978884204D194
:109C00006000201811464018857805E06000201893
:109C100008494018457800BF00BF002D07D00A480A
:109C20000068002803D02846074909688847FEBD18
:109C3000581D0200142800207820002090200020C9
:109C40008C200020912000208820002070B505463F
:109C50000D2D06D00E2D05D00F2D41D0102D41D148
:109C60003FE000BF2148007800281BD000201F499A
:109C7000087007F03DFC06F0CBF900221C491D4896
:109C80000068FFF7FBFC044600BF2646002E05D007
:109C900000BF19A21B493046FFF7F0F900BF05F0DD
:109CA00095FC1CE0012011490870642007F020FC9D
:109CB00005F091FC06F0ACF900220D490D48006852
:109CC000FFF7DCFC044600BF2646002E06D000BF8E
:109CD00009A20C491C313046FFF7D0F900BF02E061
:109CE00001E000E000BF00BF70BD00005020002078
:109CF00027810100242000202E2E5C6D61696E2ECC
:109D0000630000003E03000030B503460020042B32
:109D100024D2012A07D1012903D11C460D34E4B213
:109D200000E00024224600290FD0012902D0022998
:109D300011D104E05C001C19094D2A550DE05C00AE
:109D40001C19074D6419627007E05C001C19044D72
:109D50006419A27001E0072000BF00E0072030BDB9
:109D600014280020F7B505460E4600242748066053
:109D700027480560274902980860022028400028EB
:109D800022D0002706E0012211463846FFF7BCFF2B
:109D900004467F1C042F01D2002CF4D0002C05D1E6
:109DA000720804211C48FFF717F90446002C02D161
:109DB000FFF7FCF80446002C05D1184A002118488A
:109DC000FFF7AAFB044600BFE807C00F00280AD02F
:109DD00000BF0F204005134988600020C86000BF05
:109DE0000F2040058861002C05D10F4A00210F4843
:109DF000FFF792FB0446002C05D10D4A01210D48C6
:109E0000FFF78AFB04462046FEBD000078200020B4
:109E10007C20002088200020681D020015A401007D
:109E20008C20002000050050BDBE010080200020D5
:109E3000898F010084200020F8B504460025002603
:109E40002300FEF7B7FF180D18195C9FF7F5F4F320
:109E5000F2F1F0EFEEEDECEBEAE9E8E7E6E5E4E35A
:109E600000BF0B204005FB4988600020C86000BF90
:109E7000F94804704FE200BF00BF05208005F54996
:109E800088600020C86000BF084640680F2149056F
:109E9000484001214905084000280FD000BF08466E
:109EA000EC4988600020C86000BF022C02D1E1208C
:109EB000C00001E07D20400106460EE000BF012009
:109EC0004005E449C8600020886000BF022C01D131
:109ED000C82001E0FF2091300646DF48047064216D
:109EE0003046FEF7F9FADD49096848430746002283
:109EF0003946DB480068FFF7C1FB05460BE200BFAF
:109F000005208005D34988600020C86000BF08464E
:109F100040680F21490548400121490508400028B3
:109F20000FD000BF0846CB4988600020C86000BF42
:109F3000032C02D11920400101E07D20400106469A
:109F40000EE000BF01204005C249C86000208860C3
:109F500000BF032C01D1C82001E0FF20913006464C
:109F6000BD48047064213046FEF7B6FABB49096863
:109F70004843074600223946B9480068FFF77EFB90
:109F80000546C8E100BF05208005B2498860002071
:109F9000C86000BF084640680F21490548400121BC
:109FA0004905084000280FD000BF0846A94988602D
:109FB0000020C86000BF042C02D17D20400101E0D8
:109FC0007D20400106460FE000BF01204005A14969
:109FD000C8600020886000BF042C02D1FF209130AF
:109FE00001E0FF20913006469B4804706421304612
:109FF000FEF772FA99490968484307460022394634
:10A0000097480068FFF73AFB054684E182E176E174
:10A0100074E161E14EE13BE12FE1F4E0F2E0F0E0D8
:10A02000EEE0ECE0E2E0C9E0B2E099E082E06FE06F
:10A0300042E0FFE700BF05208005864988600020D8
:10A04000C86000BF084640680F214905484001210B
:10A050004905084000280ED000BF08467D498860A9
:10A060000020C86000BF052C01D1C82001E07D2080
:10A07000400106460EE000BF012040057549C8605A
:10A080000020886000BF052C01D1C82001E0FF201E
:10A09000913006467048047064213046FEF71CFA81
:10A0A0006E49096848430746002239466C480068F3
:10A0B000FFF7E4FA05462EE100BF0520800565495B
:10A0C00088600020C86000BF084640680F2149052D
:10A0D0004840012149050840002806D000BF084635
:10A0E0005C4988600020C86007E000BF012040058F
:10A0F0005849C8600020886000BF5748047057481E
:10A100000022016856480068FFF7B8FA054602E1E8
:10A1100000BF052080054F4988600020C86000BF4F
:10A1200000BF01204005C8600020886000BF4A4889
:10A130000470F0E000BF4749486801218905814368
:10A14000444A9160012189050140D16000BF434824
:10A150000022016842480068FFF790FA0546DAE0FD
:10A1600000BF3C494868012189058143394A916013
:10A17000012189050140D16000BF38480068820094
:10A180008118002236480068FFF778FA0546C2E0D9
:10A1900000BF304948680121890581432D4A9160FB
:10A1A000012189050140D16000BF2C4800220168CF
:10A1B0002B480068FFF762FA0546ACE000BF25496E
:10A1C0004868012189058143224A9160012189055E
:10A1D0000140D16000BF2148006882008118002240
:10A1E0001F480068FFF74AFA054694E000BF0F20B9
:10A1F00040051849C8600020886000BF8BE000BFA0
:10A2000000BF00BF00BF17480068FFF76DFA0546A2
:10A210001120061B002E27D0002D25D1012E10D98C
:10A22000C821714308466421FEF756F90B490968B5
:10A2300048430746002239460A480068FFF71EFADD
:10A24000054600BF0120C0050249C86000208860A3
:10A2500012E000000005005074200020782000204B
:10A26000802000208420002000BF0120C0052B4951
:10A2700088600020C86000BF4DE000BF0F2040058F
:10A28000264988600020C86000BF2548047042E06D
:10A2900000BF07208005214988600020C86000BFFA
:10A2A00000BF01204005C8600020886000BF1C4836
:10A2B000047030E000BF0D20400518498860002080
:10A2C000C86000BF00BF01208005C8600020886012
:10A2D00000BF134804701EE000BF0320C0050F49F3
:10A2E00088600020C86000BF00BF03204005C86030
:10A2F0000020886000BF0A4804700CE000BF00BF67
:10A300000F2040050549C8600020886000BF044850
:10A31000047000E000BF00BF2846F8BD00050050F3
:10A320007420002030B585B0142218496846FDF726
:10A3300033FF0120694608720121684641720022FC
:10A3400069461348FFF706F8044600BF2546002D6E
:10A3500005D000BF0FA212492846FEF78FFE00BFAE
:10A360000B48FEF7B7FF00BF642200210848FEF744
:10A37000ABFE1128F8D000BF642201210448FEF78B
:10A38000A3FE1128F8D005B030BD0000341D020036
:10A39000241D02002E2E5C6D61696E2E630000008C
:10A3A000D30300003EB50024134A07CA6B4607C317
:10A3B0001249684603F098FE044600BF2546002D6A
:10A3C00005D000BF0EA211492846FEF757FE00BF78
:10A3D0000F4803F0FFFD044600BF2546002D06D0C0
:10A3E00000BF07A2F92189002846FEF747FE00BFFB
:10A3F00003F068FE3EBD0000481D0200DD1C0200A7
:10A400002E2E5C6D61696E2E63000000E203000079
:10A410005120002010B5044620780221FFF7AAFB46
:10A4200010BD000070B5094A09490220FFF79AFCE7
:10A43000044600BF2546002D05D000BF05A20849EF
:10A440002846FEF71BFE00BF70BD00004D9C0100BA
:10A45000CD0C00002E2E5C6D61696E2E6300000035
:10A46000C20300000022D24383000549CA500428D9
:10A4700004DB1346011F024A503253547047000058
:10A48000E831002001468A000148805870470000EA
:10A49000E8310020F7B585B00B460020C04304909A
:10A4A000002A01D0002000E004200390002A01D0FF
:10A4B000042000E00C20029003991EE08C0012485A
:10A4C0000059401C002817D10846059C00930192B2
:10A4D00046B20D4D30352E558600303D009BAB51B8
:10A4E000019A002A04D166B2051F074F50377E55E6
:10A4F00000BF48B2049003E0491C02988142DDD3BA
:10A5000000BF049808B0F0BDE831002001460148C2
:10A51000405670471832002030B589B005462348B0
:10A520000068057021480068401C20490860084602
:10A5300001681F480C1A272C06D2012C33D9401E63
:10A540004078401CA0422ED81949491E194800F0F5
:10A55000BCFC00280FD003216846017184214171A1
:10A560001348401E817868468171862101A8C17018
:10A5700005F0E6FB0AE00220694608740E480590E3
:10A580000021069104A800F0A7FB00BF094800F0D5
:10A5900024FC002804D001200849087008494860BC
:10A5A00003480249086009B030BD0000482100207E
:10A5B000482B0020B829002089C301003821002041
:10A5C0000020004070B504460D46201DFDF76BFFCE
:10A5D000281A1A4988422FD8204606F059FE00282A
:10A5E0002AD020460830FDF75EFF15490968154A54
:10A5F0001268514388420AD220460830FDF753FFC3
:10A600004600214608313046FDF75EFF09E00C495F
:10A6100009680C4A12685143084621460831FDF783
:10A6200053FF0020207320460830FDF73CFF4619F9
:10A63000211D3046FDF748FF70BD0000FFFFFF7F82
:10A640001C21002018210020FEB51E480068401C77
:10A65000002834D01B480068242148431A4909685F
:10A660004018456804F0E6FF019018480468214648
:10A67000019805F0EFFEC61C15480078002801D1AE
:10A6800004F0EAFFAE4201D2284600E03046041949
:10A690002402240A20460F49086000BF04F0CAFFC4
:10A6A00000900199009805F0D5FEC71C204601993D
:10A6B00005F0D0FE874201D906F012FB01E004F05C
:10A6C000E9FFFEBDEC210020E0210020F021002068
:10A6D000042200204015014001460888062808DBB6
:10A6E00008881922D201904205DD0888104A90425C
:10A6F00001D0072070474888062808DB48881922BF
:10A70000D201904205DD4888094A904201D00720D5
:10A71000F0E70888064A904208D04888904205D061
:10A7200008884A88904201DD0720E3E70020E1E73E
:10A73000FFFF0000F8B506460D4614462078801D40
:10A740001F2801D90C20F8BD3046FFF7C5FF07468A
:10A75000002F01D03846F6E705212278501C2070E2
:10A76000A95412212278501C2070A9542278511922
:10A77000308806F087FE2178401820702278511921
:10A78000708806F07FFE2178401820700020DAE7FC
:10A7900010B514484068C105C90D002920D00A46EB
:10A7A000103A50B200280DDA0E4B1C330407240F68
:10A7B000083CA408A4001B598407E40EE3401B06D0
:10A7C0009B0F0BE0084B032424021B198408A400F0
:10A7D0001B598407E40EE3401B069B0FD8B210BD43
:10A7E0000420FCE700ED00E000E100E010B51448B3
:10A7F0004068C105C90D002920D00A46103A50B260
:10A8000000280DDA0E4B1C330407240F083CA40863
:10A81000A4001B598407E40EE3401B069B0F0BE0CA
:10A82000084B032424021B198408A4001B59840725
:10A83000E40EE3401B069B0FD8B210BD0420FCE7DA
:10A8400000ED00E000E100E010B514484068C105EB
:10A85000C90D002920D00A46103A50B200280DDA5E
:10A860000E4B1C330407240F083CA408A4001B59FA
:10A870008407E40EE3401B069B0F0BE0084B032408
:10A8800024021B198408A4001B598407E40EE3402A
:10A890001B069B0FD8B210BD0420FCE700ED00E0C2
:10A8A00000E100E070B53148068815E014207043DF
:10A8B0002F494018006900280DD1142171432C4AFA
:10A8C0008818002106F028FD28480088401C2749E8
:10A8D0000880B0B270BD761C022EE7D3254804680C
:10A8E0000CE000BF0A20604323494018C08844049C
:10A8F000640C00BF032C01D10220EBE70A20604367
:10A900001D49401800890228EBD00A2060434018F6
:10A91000C088C00B0028E4D10A2060434018058994
:10A9200000BF022D01D2012000E000200646002ECB
:10A9300005D100BF11A28E21FEF7A0FB00BF00BF12
:10A9400002210A2060430C4A8018018114216943C6
:10A95000074A881800F026F814216943044A881829
:10A96000002106F0D9FCA8B2B4E700006421002061
:10A97000BC310020602100209C3100202E2E5C2E56
:10A980002E5C2E2E5C7262635F6D6573685C737201
:10A99000635C68616E646C655F73746F7261676538
:10A9A0002E63000010B50446002C00D110BD2069B4
:10A9B000002804D0206902F0E9F800202061204638
:10A9C00006F043FC00BFF1E7F8B5002535E0E800EC
:10A9D0001C490968441821780120884006461A4815
:10A9E00000683040002826D017480068B043164958
:10A9F0000860207802F086FC074621780120884014
:10AA0000124909680840227839469140884211D19C
:10AA10006078012800D100E0002078400121484002
:10AA200000906068002804D0009BD9B2207862684A
:10AA3000904700BF00BF681CC5B20548007885423A
:10AA4000C5DBF8BDB4210020C8210020C4210020AE
:10AA5000B821002010B504460F49104800F004FA50
:10AA6000002817D10C4840780D4908600A48401C5E
:10AA70000C49086000200C49C86101200B4988601E
:10AA80000848006800780A49C86106480068401C08
:10AA90000449086010BD0000202B0020D0290020B0
:10AAA0003C210020402100200021004000200040E7
:10AAB00000250040014614480078144A127890425C
:10AAC0001DD011480078401C0F4A107010460078C5
:10AAD000022801D1002010700B48007880000C4A39
:10AAE000105808600B4A086812688018094A1060FC
:10AAF000104600680002000A106001207047002024
:10AB0000086000BFFAE70000FC210020FD210020C2
:10AB1000F4210020F02100200121014A117070472A
:10AB2000F720002010B506490968064A126851430B
:10AB300008460549FDF7D0FC7D21C900401810BD2D
:10AB4000E8200020FC20002040420F000146072999
:10AB500012D008DC00290DD0022913D0052915D008
:10AB6000062917D10CE0082908D009290CD0112991
:10AB700010D10DE0002070478520FCE78320FAE724
:10AB80008220F8E78620F6E78420F4E79020F2E7B9
:10AB90008620F0E78020EEE70121002001F0E4F8B4
:10ABA0000121084601F0E0F80121022001F0DCF863
:10ABB0000121032001F0D8F872B600E020BFFDE7C4
:10ABC00030B585B004466946204600F04DF905468B
:10ABD000002D05D16846FEF76BFE012005B030BDA3
:10ABE0000020FBE7EFF31080C107C90F72B60948D8
:10ABF00002680068401C074B1860002A06D112202A
:10AC000001228240044B1A6000BF00BF002900D11E
:10AC100062B670475021002080E100E010B5EFF3EC
:10AC20001080C407E40F72B606480068401E05494C
:10AC30000860002802D11220FDF7B4FE002C00D1DC
:10AC400062B610BD5021002010B5144800780028CD
:10AC500000D010BD082012498860124808601420F6
:10AC6000486000204861084600F09DF808200E4921
:10AC700088600E480860142048600020486108463B
:10AC800000F091F81220FDF78DFE03211220FDF750
:10AC900001FF01200149087000BFDAE74C210020C4
:10ACA000702B0020882B0020282C0020402C002016
:10ACB00010B5074800F088F8002804D0054800F0D7
:10ACC00083F8002802D11220FDF794FE10BD000089
:10ACD000702B0020282C002070B50446002C01D1D8
:10ACE0000E2070BD002620780300FEF763F80509EA
:10ACF000070405060B0000BF00BF00BF0A4E03E0BB
:10AD00000A4E01E00720ECE700BF2146304600F084
:10AD1000DCF80546002D01D02846E2E71220FDF7B9
:10AD200069FE0020DDE70000702B0020282C0020A9
:10AD3000F0B50346002426E0164E366824277E43ED
:10AD4000154F3F68F01946689E4203D94668F61AC7
:10AD500046601DE046689B1B466834190026466025
:10AD600006750C4E35680B4F066A3E600669002E6C
:10AD700008D00E193602360A86600669C660166863
:10AD80000662156000BF03480068401C0028D3D14C
:10AD900000BFF0BDEC210020E021002001460A693F
:10ADA000C868801A7047202100BF4B1E1946826870
:10ADB000DA40D207D20F002AF7D001228A408260FF
:10ADC0000022C260026170470146CA680869904269
:10ADD00001D1012070470020FCE701468A6808691C
:10ADE0008018CA68904201D1012070470020FCE71A
:10ADF00070B504460D4600222946204600F001F8B1
:10AE000070BDF8B504460D461646002D01D10E2042
:10AE1000F8BDEFF31080C707FF0F72B62046FFF7AB
:10AE2000BDFFB04204D8002F00D162B60E20EFE77C
:10AE300020698019A168491E08406168484321685B
:10AE4000401800906069002804D062692846009983
:10AE5000904704E0626828460099FDF7C3FA002F86
:10AE600000D162B60020D3E7F8B504460D46EFF3F3
:10AE70001080C607F60F72B6E1682069884204D1D7
:10AE8000002E00D162B60E20F8BD002D15D0A168AD
:10AE9000491E206908406168484321684718606975
:10AEA000002804D0394628466269904704E03946B4
:10AEB00028466268FDF796FA00BF2069401C2061B1
:10AEC000002E00D162B60020DEE7F8B504460E463B
:10AED000002E01D10E20F8BDEFF31080C507ED0F55
:10AEE00072B6A16820694018E168884204D1002D3B
:10AEF00000D162B60420EEE7A168491EE068084070
:10AF000061684843216847186069002804D03146C9
:10AF100038466269904704E0314638466268FDF77A
:10AF200061FAE068401CE060002D00D162B60020AC
:10AF3000D1E7000030B585B005461F4840680028BD
:10AF400001D005B030BD27E01B48046801206946E8
:10AF5000087060680190E168039102956846FFF708
:10AF6000BBFE002800D0ECE71349206908600020F0
:10AF70002061A06800280ED000BFA168206840189A
:10AF80002060284664302168081A0C498842F4D8A9
:10AF90002046FDF729FF00BF07480068002808D0B9
:10AFA00005480068016828466430081A0349884249
:10AFB000CAD800BFC5E700006C210020FFFFFF7F5B
:10AFC00010B51520182108E0032205231B070724CC
:10AFD00024021B1984001A51401C8842F4D900BF76
:10AFE000002404E02046153003F00CF9641C042C06
:10AFF000F8D3162003F0EEF80D2003F0B6F80D207C
:10B0000003F0E8F80E2003F0B0F80E2003F0E2F8A9
:10B010001A2003F0AAF81A2003F0DCF81B2003F032
:10B02000A4F81B2003F0D6F80B2003F09EF80B20A9
:10B0300003F0D0F80C210320820005231B0707240E
:10B0400024021B198C001A5100BF10BDF8B505462B
:10B050000F460120A840044618480068FEF744FB4C
:10B060000646002E00D0F8BD154800682040002894
:10B070001DD1284602F046F9002805D01148006885
:10B0800020431049086004E00E480068A0430D49C1
:10B0900008600B48006820430949086000220A48FC
:10B0A000016806480068FEF7E9FA064604E004482D
:10B0B0000068A0430249086000BFD4E7C021002017
:10B0C000C8210020C4210020BC210020014601200D
:10B0D0008840704770B505460E46FFF783FD002E89
:10B0E00014D01D480088A84210D11C4800880328AD
:10B0F0000CDA1A4800880A2148431949085AA8421C
:10B1000004D1FFF78BFD1548008870BD15480088F5
:10B1100084B210E014480068A04203D1FFF77EFD1E
:10B120000320F2E700BF0A2060430D4940188088E1
:10B130004404640C00BF0A2060430949085AA8422D
:10B14000E8D1002E03D00448058004480480FFF7AE
:10B1500065FD2046D9E70000682100206621002017
:10B160009C3100205C2100206021002070B5054644
:10B1700001212846FFF7AEFF0446032C43D1834844
:10B18000008884B20CE000BF0A2060438049401868
:10B19000C0884404640C00BF032C01D1204670BD5C
:10B1A0000A2060437A494018C088C00B0028EAD1C1
:10B1B0000A2060430D520A20604340188088012114
:10B1C000C90388430A216143714A89188880002194
:10B1D0000A206043801841800A20604311464018CD
:10B1E000008902280FD00A21614389180989142295
:10B1F0005143684A8818FFF7D5FB02210A206043B3
:10B20000634A8018018161480068844225D0624801
:10B210000068844237D00A2060435D494018808826
:10B220004004400C0A21484359494018C088C00BCB
:10B23000C0030A216143564A8918C9884904490C48
:10B2400008430A216143891889884904490C0A2264
:10B2500051434F4A8918C88015E00A2060434C4981
:10B260004018C0884004400C484908600A206043E8
:10B27000474940188088C00BC003C01C0A216143A5
:10B28000434A891888804448006884425AD00A207A
:10B2900060433F494018C0884004400C03281FD039
:10B2A0000A2060434018C0884004400C0A214843EB
:10B2B000374940188088C00BC0030A216143344AD3
:10B2C000891889884904490C08430A21614389186F
:10B2D000C9884904490C0A2251432D4A891888809B
:10B2E0000A2060432A494018C088C00BC003C01C14
:10B2F0000A216143264A8918C8800A206043114602
:10B3000040188088C00BC003234909884904490CB0
:10B3100008430A216143891888801F4800680A2170
:10B32000484311464018C088C00BC0036104490C53
:10B330000843194909680A225143154A8918C880E7
:10B3400015480460144800680A2148431049401811
:10B35000C088C00BC003C01C0F4909680A225143B2
:10B360000B4A8918C880094800680A2148431146D9
:10B3700040188088C00BC003C01C044909680A2219
:10B380005143034A89188880204608E7602100203D
:10B390009C310020BC3100205C210020F8B507461C
:10B3A0000E461546032E01DB0720F8BD002D01D106
:10B3B0000E20FAE71748874201D11020F5E7FFF782
:10B3C00011FC00213846FFF785FE0446032C03D10B
:10B3D000FFF724FC0520E8E7002E02D0012E10D153
:10B3E00007E00A2060430C494018C088C00B287051
:10B3F0000BE00A206043084940188088C00B287081
:10B4000003E0FFF70BFC0720CFE700BFFFF706FCC8
:10B410000020CAE7FFFF00009C310020F7B582B092
:10B420000E461546032E02DB072005B0F0BD664927
:10B430000298884201D11020F7E701210298FFF716
:10B4400049FE0446002E04D0012E1FD0022E6ED1DC
:10B4500039E0032C07D10298FFF788FE0446032C3D
:10B4600001D10420E1E70A20604358494018C08810
:10B470000121C9038843E9030122D2031140084393
:10B480000A216143514A8918C88099E0032C07D1E9
:10B490000298FFF76BFE0446032C01D10420C4E799
:10B4A0000A2060434949401880880121C903884324
:10B4B000E9030122D203114008430A216143434AB0
:10B4C000891888807CE0002D18D0032C01D1002041
:10B4D000ABE70A2060433D4940180089022801D1AA
:10B4E0000020A2E70A216143384A891809891422F9
:10B4F0005143374A881805F0A5FE5EE00020019010
:10B5000001A801F049FA002801D104208DE70020AC
:10B510000346024600900299019801F0CFFA0746CF
:10B52000002F05D0019801F031FB38467DE745E05A
:10B53000032C04D1019800F0D5FD002075E70A2006
:10B54000604322494018008902280FD1FFF7AAF969
:10B550000A2161431D4A891808810A206043114667
:10B5600040180089022801D104205EE70A206043C8
:10B5700016494018008914214843154940180069AC
:10B58000002803D0019801F001FB0AE00A20604383
:10B590000E4A80180089142250430D4A80180199E0
:10B5A00001610A216143094A89180989142251431A
:10B5B000074A881805F049FE00BF01E0072034E77C
:10B5C00000BF002031E70000FFFF00009C31002099
:10B5D000BC31002070B586B004460E4615460421E5
:10B5E00068460171048101A88671C571FFF774FB7B
:10B5F00006B070BD70B506460D46002D01D10E2077
:10B6000070BD0020286068601D48864201D110206E
:10B61000F6E7FFF7E7FA00213046FFF75BFD044647
:10B62000032C03D1FFF7FAFA0520E9E70A2060436B
:10B6300014494018408828800A2060434018008937
:10B64000022818D00A2161430E4A89180989142258
:10B6500051430D4A8918086901F0E2FA00280AD01E
:10B660000A206043074940180089142148430649CD
:10B67000401800696860FFF7D1FA0020C0E70000B9
:10B68000FFFF00009C310020BC310020F8B50746C8
:10B690000E46002E01D10E20F8BD2A48874201D166
:10B6A0001020F9E701213846FFF714FD0446032C6A
:10B6B00007D13846FFF75AFD0446032C01D1042078
:10B6C000EAE70A206043204940180589022D0BD182
:10B6D000FFF7E8F80546022D01D10420DCE70A2037
:10B6E000604319494018058105F0BAF814216943EF
:10B6F000164A00908818009905F00EFE31880A203D
:10B700006043114A80184180142068430F49401853
:10B710000069002806D0142169430C4A8918086979
:10B7200001F034FA706801F07BFA0A206043064A9F
:10B730008018008914225043044A801871680161FE
:10B740000020A9E7FFFF00009C310020BC31002051
:10B7500070B50546FFF746FA284600F0AFF80446F4
:10B76000002C03D0FFF75AFA204670BD002006E0F7
:10B770000022142141433E4BC9180A61401C022893
:10B78000F6D3002046E00022D2430A214143394B40
:10B790005A5200220A214143C9184A800A214143D2
:10B7A0001A468918C9880122D20391430A224243CA
:10B7B000D218D1800A2141431A468918898801226A
:10B7C000D20391430A224243D218918002220A21D5
:10B7D0004143C9180A810A2141431A468918C98878
:10B7E000C90BC903421E5204520C11430A224243A0
:10B7F000D218D1800A2141431A4689188988C90B79
:10B80000C903421C5204520C11430A224243D2186B
:10B810009180401C0328B6D30020174908600220FD
:10B8200016490860144800680A2148431149401825
:10B83000C088C00BC003C01C0F4909680A225143CD
:10B840000C4A8918C8800D4800680A2148431146EF
:10B8500040188088C00BC003C01C084909680A2230
:10B860005143044A89188880FFF7D8F900207CE703
:10B87000BC3100209C3100205C2100206021002090
:10B8800030B585B00446002C02D10E2005B030BD85
:10B89000022069460870029407480190204601F092
:10B8A000BFF96846FFF718FA0546002D02D020467A
:10B8B00001F06CF92846E9E7E5C0010010B504463F
:10B8C0000748844202D30748844201D9072010BDAB
:10B8D00003220121C902204605F008FD0020F6E7F9
:10B8E000881300000087930370B5054600260020EA
:10B8F000287000241FE014216143114A881805F0C4
:10B90000C7FC002816D0142060430D494018006978
:10B9100000280FD02878002806D01420604308584B
:10B92000801B0849884205D90120287014206043F3
:10B9300003490E58641C022CDDD3304670BD000054
:10B94000BC310020FFFFFF7FF8B506460F461048C8
:10B95000864201D11020F8BD01213046FFF7BAFB25
:10B960000446032C01D10520F5E70A20604309496C
:10B9700040180589022D01D10520ECE71421694307
:10B98000054A8818394605F08BFC0020E3E70000E3
:10B99000FFFF00009C310020BC310020F8B50646B6
:10B9A0000F461048864201D11020F8BD01213046D3
:10B9B000FFF790FB0446032C01D10520F5E70A2090
:10B9C0006043094940180589022D01D10520ECE7A3
:10B9D00014216943054A8818394605F075FC002092
:10B9E000E3E70000FFFF00009C310020BC31002095
:10B9F000F8B506460F461048864201D11020F8BD22
:10BA000001213046FFF766FB0446032C01D10520D7
:10BA1000F5E70A206043094940180589022D01D144
:10BA20000520ECE714216943054A8818394605F0DA
:10BA30008BFC0020E3E70000FFFF00009C310020AA
:10BA4000BC310020F7B582B0044615460026002719
:10BA50005DE004E030480088801E2F4908802E48B1
:10BA600000880228F6DA2C480088142148432B4924
:10BA700040180069002844D02749098814225143FE
:10BA8000264A881805F004FC00283AD0224800888D
:10BA90001421484321490858201A2149884230D8A6
:10BAA000002101911C490988142251431B4A88181E
:10BAB000224601A905F05EFC6846007900281FD0E7
:10BAC0001549098814225143144A8918086901F05C
:10BAD000A7F811480088142148431049401802690A
:10BAE0003046761C8100039842502868B04207D146
:10BAF00009480088401C08490880002005B0F0BDB6
:10BB000000BF05480088401C034908807F1C022FA5
:10BB10009FD32E600020F1E76A210020BC31002075
:10BB2000FFFFFF7F10B5044602F0ECFB10BD0000E4
:10BB3000F8B529480078002800D1F8BD27480068EA
:10BB4000002801D1012000E00020054624480068BB
:10BB5000002801D1012000E00020064600BF002D92
:10BB600014D1684651DF0446052C01D101250CE0B3
:10BB7000002C06D000BF1B4A65212046FDF77EFA47
:10BB800003E0164900980968884700BF002E1AD1C3
:10BB900015480088009069461448006861DF044633
:10BBA000052C01D101260DE0002C06D000BF0D4A66
:10BBB0007C212046FDF762FA04E00C480068084941
:10BBC0000968884700BF002D02D0002E00D000E099
:10BBD000C5E700BF00BFB0E7A0210020B0210020D2
:10BBE000AC210020DC1D0200A8210020A42100209F
:10BBF00010B50446204601F019FE044909680840C2
:10BC0000002801D0012010BD0020FCE77C2100208D
:10BC100010B504462046FFF759FA04490978084050
:10BC2000002801D0012010BD0020FCE78021002069
:10BC300070B50446204601F0F9FD0546FDF72EFEDD
:10BC400070BD10B504462046FFF740FA8007800F0C
:10BC5000002801D0012010BD0020FCE70C48008C1A
:10BC6000C0B2012812D10A48808C0007000F0028BA
:10BC70000CD10748806AF0210840402806D10448CA
:10BC8000C06A0840002801D1012070470020FCE76D
:10BC9000C00F00F01948008CC0B201282CD1174801
:10BCA000808C0007000F002826D11448806AF021FC
:10BCB0000840002806D11148C06A0840002801D178
:10BCC000012070470D48806AF0210840102806D1F5
:10BCD0000A48C06A0840002801D10120F1E707485E
:10BCE000806AF0210840302806D10448C06A084024
:10BCF000002801D10120E4E70020E2E7C00F00F0B6
:10BD000010B50446204601F091FD8004800C002807
:10BD100001D0012010BD0020FCE7000070B50646F0
:10BD2000304605F0B9FB162002F054FA002209490A
:10BD300009480068FDF7A2FC044600BF2546002D17
:10BD400006D000BF05A2FF2147312846FDF796F92E
:10BD500000BF70BD66060000042000202E2E5C6D22
:10BD600061696E2E63000000002906D1024615327B
:10BD700001239340044A936005E0024615320123F3
:10BD80009340014AD36070470005005010B5044647
:10BD90001D480078002835D01B480078012831D094
:10BDA0001948007802282DD017480078032828D198
:10BDB00015488079002812D0134841884088401ED9
:10BDC000114A508000291DD1162002F01BFA0020D4
:10BDD0000D498871642088800120488012E00A485B
:10BDE00081888088401E084A908000290AD1162048
:10BDF00002F0F0F9012004498871488064208880AD
:10BE000000E000BF10BD00004620002070B50646CF
:10BE1000162002F0F7F900201749887103200870F6
:10BE20003C20888001204880002214491448006882
:10BE3000FDF724FC044600BF2546002D06D000BFB8
:10BE400010A2FF21D5312846FDF718F900BF0022C6
:10BE5000FF218A310E480068FDF710FC044600BF40
:10BE60002546002D06D000BF06A2FF21D731284667
:10BE7000FDF704F900BF70BD462000200A1700003E
:10BE8000102000202E2E5C6D61696E2E6300000074
:10BE90001420002010B5084801F038F9152002F0F0
:10BEA00099F9162002F0AEF9172002F093F9182044
:10BEB00002F090F910BD0000DC05000010B504464A
:10BEC00005480078C007C00F002803D00348007859
:10BED000FDF7B2FF10BD00007C2000207420002080
:10BEE00010B50446082001F02BF80149086010BD88
:10BEF00038200020FEB52B48006801902A480078C1
:10BF0000009040E00098C00028490968441825784E
:10BF100035E01820684361680F18681CC5B2A07826
:10BF2000A84200D100253878022802D0032823D166
:10BF30000EE02421786848431D4909684618307D81
:10BF4000002804D0786804F013FC0020307514E059
:10BF50000CE01449096824225143154A12688818D4
:10BF6000002101750F4A016A116000BF0D48006889
:10BF7000401C0028EDD100E000BF00BF00BF60788A
:10BF8000A842C6D100BF0098411EC9B20091002846
:10BF9000B8D1044801680198814201D00120FEBD5A
:10BFA0000020FCE7EC210020E4210020E821002013
:10BFB000E0210020FEB50746434800680290434850
:10BFC0000078019071E00198C00041490968451866
:10BFD00063E0781C002807D03E46242070433D498A
:10BFE00009684418276A29E02978182359436A68A0
:10BFF00050182978491C29702978AA78914201D1D2
:10C0000000212970466824217143324A12688C1835
:10C010000178012902D1217D002900D03DE081680D
:10C02000A160C168E160016921614169E1612A495A
:10C030000978002901D00021A16000BF2749A0682C
:10C040000968401A0002000A2549884208D223499B
:10C05000A068096804F0FEF9E1684018606011E02A
:10C060001E48A168006804F0F5F90090E1680098A6
:10C07000814204D9E1680098081A606001E000205C
:10C08000606000BF0020A060E06001202075801E7D
:10C090002062304604F0FEFA00BF781C002898D1D8
:10C0A00028786978884294D100BF0198411EC9B2AE
:10C0B0000191002887D1044801680298814201D08B
:10C0C0000120FEBD0020FCE7EC210020E42100203F
:10C0D000E8210020E021002005220020F02100209E
:10C0E000FFFF7F00FEB505462E46304600F096FC69
:10C0F0000446002C29D0E079A17900020843694662
:10C1000008800196617922790902114308460121CC
:10C11000FEF7E0FF0746032F09D00A2078430D49B8
:10C120004018408869460880684605F007FB684665
:10C130000088A071000AE071617922790902114337
:10C1400008466946FFF7A2FA00BF304600F01EFD20
:10C15000FEBD00009C310020F8B5064613246000A7
:10C160001C49085A07B2B74205DD201F6421484325
:10C1700005B22846F8BD00BF601E04B26000154934
:10C18000085AC01907B2B7421FDDB81B64214843E3
:10C1900005B260000F4A115A2846FCF7A7F905B20C
:10C1A000042C06DB201F6421484345196D046D0CE7
:10C1B00009E0642060434519FF209130451B0120B0
:10C1C000C003284305B22846D4E7002CD4D1024D41
:10C1D0002846CFE7F41C02009081FFFF8EB0FEF7E7
:10C1E000EFFEFFF757FE04F081FDFEF71BF9FEF7A7
:10C1F00099F8FCF7EDFDFEF7D5F800BF00234822C3
:10C200003849052003F046FF054600BF2E46002EA4
:10C2100005D000BF34A237493046FCF72FFF00BFDE
:10C2200000BF354803F02AFF344803F067FF00F0F1
:10C23000B0F83348099064200B90262108A80172B9
:10C2400005200C90002108A801750D98009009A800
:10C250000FC803F03FF8044600BF2546002D06D066
:10C2600000BF21A2234914312846FCF707FF00BF75
:10C27000002510E0A8B203F041F9044600BF2646AD
:10C28000002E06D000BF18A21A491A313046FCF71A
:10C29000F5FE00BF6D1C022DECD300F0A7FE00BF21
:10C2A00000F0ADF80546002D06D000BF0EA21149E2
:10C2B00020312846FCF7E2FE00BFFCF777FEFDF7D1
:10C2C0005BFA032000F086FD0AE002A802F078FF86
:10C2D000002805D102A802F089FF02A802F0DAFFC7
:10C2E000F3E700009C2700202E2E5C6D61696E2E06
:10C2F00063000000050400008DF7010045F4010013
:10C30000D6BE898EF8B505460E4614462879801C9F
:10C31000C7B22078801CC0191F2801DD0C20F8BD91
:10C32000781CC1B22278501C2070B154FF212278B1
:10C33000501C2070B15422789119288805F0A2F879
:10C34000217840182070A88800280EDDA8680028F1
:10C3500001D10720E3E7AA8823789819A968FCF798
:10C3600041F820782979401820700020D7E700B5DF
:10C3700089B002E001A803F012FA01A803F0AEFCB4
:10C380000028F7D109B000BD10B50446FFF7EFFF54
:10C3900010BD10B5FEF758FC03F0F8FC10BD10B549
:10C3A00088B00446207800280ED0012804D0022846
:10C3B00006D0042810D10BE0B520694648700CE087
:10C3C000B3206946487008E0B4206946487004E02C
:10C3D000B6206946487000E000BF00BF207BC01C4B
:10C3E000C1B268460170A1884180227B01A8A16882
:10C3F000FBF7F8FF684603F0A3FC08B010BD00B5DA
:10C4000089B0042168460171812141710221817145
:10C410003DDF082100980840C10801A8C17003F061
:10C4200087FCC1B201A8017103F08AFC002802D187
:10C43000042009B000BD0020FBE7704730B587B08D
:10C4400004460D461121684601704470857000F065
:10C4500003F807B030BD000030B587B0044625486A
:10C4600000882549884202D1244807B030BD2448BD
:10C470008078002802D12148401EF6E706A862DF36
:10C48000C5B2002D01D01120EFE76846007E0028DC
:10C4900002D11A48801CE8E7194881896846018161
:10C4A0000121817200218181207802280FD004DCD3
:10C4B000002807D0012811D108E011280BD012283C
:10C4C0000CD105E0E078001D01900AE000BF00BF3C
:10C4D0000520019005E00320019002E00120019079
:10C4E00000BF00BF01A80490059402A9014800887C
:10C4F000A6DFBAE72A210020FFFF0000023000007B
:10C50000A4290020F0B585B005460E4617460195D2
:10C510000297684606730121817012490180124A10
:10C5200069460120A0DF0446002C02D0032005B09C
:10C53000F0BD0E490E4863DF0446002C01D02046B2
:10C54000F5E701A800F082F90446002C01D020464E
:10C55000EDE700F0D3FB0446002C01D02046E6E7CF
:10C560000020E4E7E4FE0000A429002028210020A8
:10C57000941D0200F0B589B00546288850287DD169
:10C58000E8889B498989884279D12C4620342078D3
:10C59000002804D0012841D0022871D190E0A17870
:10C5A0006278080210439349884204D12078F2212E
:10C5B000FFF744FFECE0E278A3786778190239438B
:10C5C0000846211D05F0FCF80646002E21D16946DB
:10C5D0000872201D0490E17802A80173A1786278A6
:10C5E0000802104369468881012102A8C18204F033
:10C5F00037F9089002A802F015FE002804D0207830
:10C60000F021FFF71BFF03E020788021FFF716FFE2
:10C6100003E02078F021FFF711FFB9E0E07800286F
:10C6200002D0012845D118E02279002A01D0012248
:10C6300000E000221146A37866781802304305F026
:10C6400029FB002804D02078F221FFF7F7FE35E01F
:10C6500020788021FFF7F2FE30E02079002815D005
:10C66000A278637811021943084605F079FA002888
:10C6700007D02078F221FFF7E1FE1FE0A8E089E073
:10C6800081E020788021FFF7D9FE11E0A27863785D
:10C6900011021943084605F045FA002804D0207815
:10C6A000F221FFF7CBFE09E020788021FFF7C6FEDC
:10C6B00004E02078F321FFF7C1FE00BF00BF67E070
:10C6C000E078002802D0012856D131E0A1786278C4
:10C6D000080210434749884204D12078F221FFF72D
:10C6E000ADFE4EE000200890A27863781102194355
:10C6F000084608A905F0B0FA002804D02078F121F6
:10C70000FFF79CFE3DE0122168460171A178607838
:10C710000902014368464171090A8171E17801A863
:10C72000C17008A8017801A80171FFF795FE28E003
:10C73000A278637811021943084608A905F066FA41
:10C74000002804D02078F221FFF778FE19E01221AA
:10C7500068460171A1786078090201436846417119
:10C76000090A8171E17801A8C17008A8017801A8BF
:10C770000171FFF771FE04E02078F321FFF75EFE00
:10C7800000BF00BF04E02078F421FFF757FE00BF90
:10C7900000BF2BE0E88816498988884209D12C46D9
:10C7A0002034217A206803F0F5FD606805F03CF83C
:10C7B0001CE0E9880E48008A814217D12020405DA4
:10C7C000002801D0012000E00020094988700DE018
:10C7D0002888102803D1A8880749088006E02888FF
:10C7E000112803D10020C0430349088009B0F0BDDF
:10C7F000A4290020FFFF00002A21002070B588B086
:10C8000005460E461446172C02DD092008B070BDFF
:10C810000B4800880B49884210D0002168460171FE
:10C820004571290A817101A8C4702246314602A8C7
:10C83000FBF7D8FD01A8FFF70FFEE7E70248E5E7A1
:10C840002A210020FFFF00000230000030B593B025
:10C8500004460020129000BF10A8007A01090901C7
:10C86000491C10A80172007AF0218843103010A9E9
:10C87000087200BF00BF10A8407A01090901491CD5
:10C8800010A84172407AF0218843103010A94872F4
:10C8900000BF10A8807A06218843811C10A88172ED
:10C8A0001C210BA8FBF7FDFD08A8007B0221884393
:10C8B000811C08A80173007B10218843411808A837
:10C8C000017300200E9012A8109000200C900F9081
:10C8D0000A9008A8007AF02188430146103108A880
:10C8E0000172007A01090901491C08A80172407A05
:10C8F000F02188430146103108A84172407A0109AD
:10C900000901491C08A84172807A08218843014620
:10C9100008A88172807A10218843014608A8817294
:10C92000807A4108490008A88172807A06218843EC
:10C93000811C08A881721648017808A88171042119
:10C94000684681842068069060680790217A08A86C
:10C950000170142101A8FBF7A4FD0921684681811B
:10C960000021C1810921018209A8019006A8059032
:10C970000AA80290074908880B1D01AA0BA9A2DF8B
:10C980000546002D02D0032013B030BD0020FBE788
:10C9900028210020A429002070B50546002119E0B7
:10C9A000EFF31080C407E40F72B61148405C002812
:10C9B0000CD101200E4A5054282048430D4A8018BB
:10C9C0002860002C00D162B6012070BD002C00D17F
:10C9D00062B6491C1D29E3D300BF042600BF06A28E
:10C9E00044210420FCF74AFB00BF00BF0020ECE715
:10C9F0007C310020F42C00202E2E5C2E2E5C2E2E5E
:10CA00005C7262635F6D6573685C7372635C6D65B5
:10CA100073685F7061636B65742E63000246002A61
:10CA200000D17047114609315078062802DD507850
:10CA3000252801DD0020F4E70FE00B7810460930CF
:10CA4000081A1B185078801F834201D90020E8E79C
:10CA50000878401C4301181A091848781628ECD1A8
:10CA6000C8788B7800021843024B9842E5D10846FB
:10CA7000D7E70000E4FE000030B504462046FFF78B
:10CA8000CDFF0546002D01D10B2030BD20460930D9
:10CA900085420ED02878401CC1B2002004E02B5CF7
:10CAA000224609321354401C8842F8D325460935E2
:10CAB00000BF2878C01D60700020E6E7FFB581B098
:10CAC00005461F460A9E002D02D10E2005B0F0BD7E
:10CAD0002C460934172E01DD0920F7E7284600F01F
:10CAE000E3F830460E306870287800090001801C99
:10CAF0002870F01D2070162060700D48A070000A8C
:10CB0000E07002982071000A60710398A071000A19
:10CB1000E071002E09DD002F07D0172E05DC32460C
:10CB2000394620460830FBF75DFC0020CEE70000C8
:10CB3000E4FE000002461146093110E0487816284C
:10CB400006D1C8788B7800021843094B984201D06F
:10CB5000012070470878401C4301181A09185078C2
:10CB6000C01F13460933C0188842E7D80020F0E7F9
:10CB7000E4FE0000002003E00021034A1154401CA1
:10CB80001D28F9D3704700007C310020F8B5064617
:10CB90001849701A2821FBF79FFC04461D2C01D36D
:10CBA0000020F8BDEFF31080C507ED0F72B61248F4
:10CBB000005D00280ED100BF082700BF0FA276211C
:10CBC0000820FCF75BFA00BF00BF002D00D162B661
:10CBD0000020E6E70848005D401E07490855002D83
:10CBE00000D162B60448005D002801DD0120D8E7CD
:10CBF0000020D6E7F42C00207C3100202E2E5C2E65
:10CC00002E5C2E2E5C7262635F6D6573685C73725E
:10CC1000635C6D6573685F7061636B65742E630040
:10CC2000F8B505461549681A2821FBF755FC044656
:10CC30001D2C01D30020F8BDEFF31080C607F60FBE
:10CC400072B60F48005D002803D00D48005DFF2834
:10CC500009D100BF042700BF0AA262210420FCF70B
:10CC60000DFA00BF00BF0648005D401C044908558E
:10CC7000002E00D162B60120DDE70000F42C002078
:10CC80007C3100202E2E5C2E2E5C2E2E5C72626378
:10CC90005F6D6573685C7372635C6D6573685F700C
:10CCA00061636B65742E63007CB50446684671DF72
:10CCB0000546002D01D028467CBD207840218843C0
:10CCC00069460978890140221140084320700622F4
:10CCD00000A90131E01CFBF785FB0020ECE710B553
:10CCE00004462046FFF726FF002802D02046FFF723
:10CCF000C3FE2046FFF7D8FF10BD000010B590B06E
:10CD00001C2109A8FBF7CDFB08A800790421884362
:10CD1000011D08A80171007910218843411808A855
:10CD2000017100200E900F900A900D90089008A8B5
:10CD30004078F02188430146103108A841704078BE
:10CD400001090901491C08A841708078062188431F
:10CD5000811C08A88170807808218843014608A8B2
:10CD60008170807810218843014608A881708078FE
:10CD700041084900491C08A8817014480178684698
:10CD800081770521818300210191142102A8FBF7FD
:10CD900088FB012168460182002141821B2181829A
:10CDA00008A8039007A8029001A8069008490888DF
:10CDB0000B460C3302AA09A9A2DF0446002C02D0BC
:10CDC000032010B010BD0020FBE700002821002048
:10CDD000A429002070B50646304604F05DFB1620FD
:10CDE00001F0F8F90022144914480068FCF746FCE9
:10CDF000044600BF2546002D06D000BF10A2FF212B
:10CE00004F312846FCF73AF900BF10480021018055
:10CE100002460F490F480068FCF730FC044600BF8B
:10CE20002546002D06D000BF05A2FF21533128461C
:10CE3000FCF724F900BF70BD48E101000820002084
:10CE40002E2E5C6D61696E2E630000004E20002066
:10CE5000E10A00000C200020F7B584B004460F461C
:10CE600006980678B01C1F2803DC6078801C1F28F9
:10CE700002DD0C2007B0F0BD1F20801B801E85B294
:10CE80000295B11C781802A97DDF03900398002851
:10CE900001D00398EEE72078022808D1684600897F
:10CEA000A84204DC09200190684605890BE00820AF
:10CEB00001906078002804D06078A84201DC657891
:10CEC00001E068460589681CC2B23046711CCEB2CA
:10CED0003A543046721CD6B20199395406980178FA
:10CEE000A81C0818C1B2069801700020C2E7000013
:10CEF00070B50446002520788007800F05436078D0
:10CF000080001C2108400543606840016021084002
:10CF10000543C90260680840002802D060680840E4
:10CF20000543002000F038F804484068FF2109025A
:10CF3000084028430149486070BD0000007500406A
:10CF400070B50546284600F027F800BF01200F49BC
:10CF5000086000BF00BF00BF0D480068002801D076
:10CF6000012000E000200028F5D000BF0020084983
:10CF7000086000BF00BF0748846800BF00BF0120F1
:10CF80000249486000BF204670BD000000700040AC
:10CF900000710040007500400102084A5268FF23FA
:10CFA0001B029A431143054A5160002802D0012117
:10CFB000116002E00021014A1160704700750040D5
:10CFC00010B504462088F0210840102802D05028CF
:10CFD00008D103E02046FCF779FD04E02046FCF789
:10CFE000ABFD00E000BF00BF10BD000070B596B003
:10CFF0000020159010A9087414A860DF0446002CC6
:10D000000DD0082C0BD000BF2646002E06D000BF46
:10D0100032A296213046FCF731F800BF00BF06254A
:10D0200030213348FBF73DFA3148C57002203049C2
:10D03000087030480068139011A871DF044600BFE3
:10D040002646002E06D000BF24A2A9213046FCF7B8
:10D0500015F800BF00BF11A84079000211A9897915
:10D060000843024624A101A8FBF7ECF801A8FBF74E
:10D0700097F986B2324601A913A87CDF044600BFA7
:10D080002646002E06D000BF14A2B0213046FBF782
:10D09000F5FF00BF00BF00211548FCF7DAFC04468D
:10D0A00000BF2646002E06D000BF0CA2B421304699
:10D0B000FBF7E4FF00BF00BF134873DF044600BF67
:10D0C0002646002E06D000BF04A2B8213046FBF74A
:10D0D000D5FF00BF00BF16B070BD00002E2E5C6EE5
:10D0E00072665F6164765F636F6E6E2E6300000030
:10D0F000E4270020541D02004C6967687453776967
:10D1000074636820232564005420002001B505E0E5
:10D110000098401E00900348FBF71EF80098002876
:10D12000F6D108BDE703000070B504460D46294658
:10D130002046FBF7EBFC00BFE106C90E012088404A
:10D140000549086000BF00BFE106C90E0120884004
:10D150000249086000BF70BD80E200E000E100E02D
:10D16000FEB505460E46284601F08AF9002822D071
:10D170002846FDF7CBF9001F009001F06DF9074636
:10D18000BC11032C0CD100BF1F4800690121A9402C
:10D190000840002801D0032000E00220019005E0B3
:10D1A000012C01D1022000E00320019028460199C2
:10D1B00000F0EDFF27E0284601F06EF9002822D0AC
:10D1C0002846FDF7A3F90446A000FF30013087B2DE
:10D1D00020460E49512212018918820089580122E5
:10D1E00011430A4A51231B01D2188300D15000BFBA
:10D1F000384601F025F8002E04D00121A140084650
:10D2000001F032F800BFFEBD000500500060004094
:10D21000F7B582B004460E4600200190204601F08A
:10D2200021F9002802D0082001905FE0F278204622
:10D230000499FDF72FF90546681C002853D0B078F3
:10D24000002810D000BFA1002A4A891809680222CC
:10D250009143084605210907072212028918A200F6
:10D26000885000BF0AE0707881000522120707236A
:10D270001B02D218A300D15000BF00BFF0780028D5
:10D2800026D037781C48512109014018A900405880
:10D290001A4908401849512212018918AA008850D9
:10D2A0001548512109014018A900415820021F22A8
:10D2B000120210403A0403231B041A401043014396
:10D2C0000D48512212018018AA00815000BF0CE0C5
:10D2D000281F0B49085C31788901084342B2281F96
:10D2E00007490A5401E00420019000BF019805B0ED
:10D2F000F0BD00000007005000600040FFE0FCFFB0
:10D3000038320020014600BF05480069C840C00708
:10D31000C00F002801D0012070470020FCE700006A
:10D320000005005010B512480078002801D00820F0
:10D3300010BD002404E0204601F0BEF8601CC4B219
:10D34000202CF8DB002404E02046FDF78BF8601C5D
:10D35000C4B20C2CF8DB01210620FFF7E5FE01200A
:10D36000C00700F081FF0120014908700020DFE7BD
:10D37000E431002003480078002801D001207047E4
:10D380000020FCE7E4310020FEB504460E460020F4
:10D390000190204635490956491C002901D0012138
:10D3A00000E00021002902D0082001905BE0B07865
:10D3B00000283AD0012200212046FDF76BF80546EF
:10D3C000681C00282ED037787278009228485121A6
:10D3D00009014018A9004058264908402449512213
:10D3E00012018918AA0088502148512109014018CA
:10D3F000A900415820021F22120210403A040323C0
:10D400001B041A401043009A120501231B051A4001
:10D41000104301431648512212018018AA0081507E
:10D4200000BF01E00420019006E000BF0121C943D4
:10D430000E48015500BF00BF0198002813D100BF5E
:10D44000032005210907072212028918A20088502B
:10D4500000BF7078012803D1204600F0DBFE02E017
:10D46000204600F0BFFE0198FEBD000018320020EB
:10D4700000600040FFE0ECFF70B505462846FDF770
:10D4800045F88006040E204601494118084670BD43
:10D490000060004030B501460E4A505683000E4CE5
:10D4A0001B191B69032423431A461F231B02134322
:10D4B0000A4C51252D0164198500635100BF00BF3E
:10D4C00000BF064B512424011B1984001A5100BFD0
:10D4D00030BD0000183200200065004000600040B0
:10D4E00070B502460B46002B01D0012000E0002061
:10D4F0000146124CA056124C51252D01641985008D
:10D50000645901252D05AC430D4D51263601AD1949
:10D510008600AC510A4C51252D01641985006459CF
:10D520000D050126360535402C43054D51263601A3
:10D53000AD198600AC5100BF70BD0000183200204C
:10D540000060004010B50446204600F0A5FF00280A
:10D5500003D00549085DFCF785FF204600F0ACFFCD
:10D56000204600F0EFFD10BD18320020F1B584B068
:10D57000002504200390304D002457E00020029045
:10D58000FDF706F901900198012813D002A836DFB3
:10D590000646022E01D172B60BE000BF3746002FBF
:10D5A00006D000BF25A2F3213846FBF767FD00BF78
:10D5B00000BF00BF204600F039F92840002812D0F3
:10D5C0002046FEF715FB00280DD100BF204600F0D5
:10D5D0002DF92949096808432749086000BF0498C4
:10D5E0000470002003900198012813D062B66846A9
:10D5F000007A37DF0646022E0BD000BF3746002FD9
:10D6000006D000BF0DA2FA213846FBF737FD00BF58
:10D6100000BF00BF0398002800D109E0204600F0B9
:10D6200005F9294681430D46601CC4B2002DA5D1E1
:10D6300000BF039805B0F0BDFF3F00002E2E5C2E0A
:10D640002E5C2E2E5C2E2E5C2E2E5C2E2E5C636F9E
:10D650006D706F6E656E74735C64726976657273FB
:10D660005F6E72665C7070695C6E72665F64727623
:10D670005F7070692E6300007C210020F8B50446BD
:10D680000D461646002D01D0002E01D10E271DE0BB
:10D690002046FEF735FB002801D1072716E020467B
:10D6A000FEF7A6FA002801D108270FE000BF0848BE
:10D6B000512109014018E100455005485121090157
:10D6C0004018E1004018466000BF00273846F8BD0A
:10D6D00000F0014070B505462846FEF7A9FA00287B
:10D6E00001D107240FE02846FEF70AFB002806D0E8
:10D6F0002846FEF77DFA002801D1082403E02846D9
:10D7000000F0B8FD0024204670BD000070B505464D
:10D710002846FEF78DFA002801D1072412E028469A
:10D72000FEF7EEFA002806D02846FEF761FA002838
:10D7300001D1082406E000BF0120A840024948604A
:10D7400000BF0024204670BD00F50140FEB5044630
:10D750002046FEF7D5FA002801D1072543E02046F0
:10D7600000F088FD002500200190FDF711F80090E1
:10D770000098012814D001A836DF0646022E01D1F8
:10D7800072B60CE000BF3746002F07D000BF17A2CB
:10D79000FF2117313846FBF771FC00BF00BF00BF07
:10D7A00000BF204600F042F81F49096881431E4827
:10D7B000016000BF0098012814D062B66846007965
:10D7C00037DF0646022E0CD000BF3746002F07D0A9
:10D7D00000BF06A2FF2119313846FBF74FFC00BFFE
:10D7E00000BF00BF00BF2846FEBD00002E2E5C2EED
:10D7F0002E5C2E2E5C2E2E5C2E2E5C2E2E5C636FED
:10D800006D706F6E656E74735C6472697665727349
:10D810005F6E72665C7070695C6E72665F64727671
:10D820005F7070692E6300007C210020014601209A
:10D83000884070470146012088407047FEB5064683
:10D840000C462046FEF7FDF9002801D1072551E0DE
:10D850002046FEF7DDF9002801D108254AE03046D0
:10D86000FCF71CF8002801D1072543E000200290B6
:10D87000FCF78EFF01900198012814D002A836DF32
:10D880000746022F01D172B60CE000BF0097009F3F
:10D89000002F06D000BF18A226490098FBF7EEFB28
:10D8A00000BF00BF00BF00BF2348C1144018A10043
:10D8B000405830432049CA148918A200885000BF3C
:10D8C0000198012815D062B66846007A37DF07460E
:10D8D000022F0DD000BF0097009F002F07D000BF80
:10D8E00005A28F2189000098FBF7C8FB00BF00BF8D
:10D8F00000BF00252846FEBD2E2E5C2E2E5C2E2E4F
:10D900005C2E2E5C2E2E5C2E2E5C636F6D706F6E07
:10D91000656E74735C647269766572735F6E72664D
:10D920005C7070695C6E72665F6472765F7070695D
:10D930002E6300003A02000000F00140FEB50646EA
:10D940000C462046FEF77DF9002801D1072551E05D
:10D950002046FEF75DF9002801D108254AE030464F
:10D96000FBF79CFF002801D1072543E0002002902F
:10D97000FCF70EFF01900198012815D002A836DFB0
:10D980000746022F01D172B60DE000BF0097009F3D
:10D99000002F07D000BF18A24121C9000098FBF753
:10D9A0006DFB00BF00BF00BF00BF2248C11440187C
:10D9B000A1004058B0431F49CA148918A2008850DA
:10D9C00000BF0198012814D062B66846007A37DF9C
:10D9D0000746022F0CD000BF0097009F002F06D0F3
:10D9E00000BF05A214490098FBF748FB00BF00BF29
:10D9F00000BF00252846FEBD2E2E5C2E2E5C2E2E4E
:10DA00005C2E2E5C2E2E5C2E2E5C636F6D706F6E06
:10DA1000656E74735C647269766572735F6E72664C
:10DA20005C7070695C6E72665F6472765F7070695C
:10DA30002E63000000F001400A020000F1B584B03E
:10DA40000025042003900325002459E000200290C3
:10DA5000FCF79EFE01900198012814D002A836DF41
:10DA60000646022E01D172B60CE000BF3746002FE9
:10DA700007D000BF25A2FF2181313846FBF7FEFA0F
:10DA800000BF00BF00BF2046FDF720FB2840002854
:10DA900012D02046FEF7BCF800280DD100BF20466A
:10DAA000FDF714FB2849097808432749087000BF8F
:10DAB00004980470002003900198012814D062B6E5
:10DAC0006846007A37DF0646022E0CD000BF374684
:10DAD000002F07D000BF0DA2FF2188313846FBF789
