:020000040001F9
:1080000058400020B1810100C3810100B9890100FD
:108010000000000000000000000000000000000060
:10802000000000000000000000000000C781010007
:108030000000000000000000C9810100CB810100A8
:10804000CD810100CD81010091900100CD81010021
:10805000CD8101000000000031880100CD810100C8
:10806000CD81010081900100CD810100CD81010011
:10807000CD810100CD810100CD810100CD810100C4
:10808000CD8101007D8C0100498C0100CD81010072
:1080900005900100CD8101000D900100CD8101000E
:1080A000CD810100CD810100000000000000000032
:1080B00000000000000000000000000000000000C0
:1080C00000F002F800F038F80CA030C80838241886
:1080D0002D18A246671EAB4654465D46AC4201D100
:1080E00000F02AF87E460F3E0FCCB64601263342FA
:1080F00000D0FB1AA246AB4633431847A8810000C4
:10810000C88100000023002400250026103A01D376
:1081100078C1FBD8520700D330C100D50B6070473F
:1081200010B5642902D100F0C7F810BD002010BDC1
:108130001FB51FBD10B510BD00F01DFB1146FFF7A8
:10814000F7FF03F07DFF00F035FB03B4FFF7F2FF0C
:1081500003BC00F03BFB0000401E00BF00BF00BF9F
:1081600000BF00BF00BF00BF00BF00BF00BF00BF17
:1081700000BFF1D17047000070B505460C461646A9
:1081800002E00FCC0FC5103E102EFAD2082E02D3FB
:1081900003CC03C5083E042E07D301CC01C5361F0E
:1081A00003E021782970641C6D1C761EF9D270BD25
:1081B0000A48026803210A430260094880470948C7
:1081C0000047FEE7FEE7FEE7FEE7FEE7FEE700000A
:1081D00005480649044A064B704700002405004044
:1081E00049900100C180010058380020584000200B
:1081F000583800204343514330B55C18010C130C30
:108200000D4692B25D4380B251432C190546554349
:108210000A0C09044D1962415843010C000440192D
:10822000514130BD0FB41CB5074B06AA7B446946CB
:108230000090059800F073FA0020694600F082FA79
:108240001CBC08BC04B0184715050000F8B50E4664
:108250000446002020622046E1688847002829D093
:10826000252802D06268A16820E0E1682046002746
:10827000884705001ED028464138192802D8012712
:10828000FF0220353246204627602946FFF748FF87
:10829000002808D0012804D0F61DF608F60008369C
:1082A000D9E7361DD7E762682846A1689047206A5B
:1082B000401CCFE7206AF8BDF7B500257529106886
:1082C000009914A611D0C046C046002802DA4042E8
:1082D00011A608E0009909688A0701D50FA602E0F7
:1082E000490704D50EA6012501E0C046C046009FFF
:1082F0000024243704E000F02AFA30313955641C98
:108300000028F8D12B4632462146009800F0AAF901
:10831000FEBD0000000000002D0000002B0000004A
:1083200020000000034610B50B439B070FD1042A21
:108330000DD308C810C9121FA342F8D018BA21BA29
:10834000884201D9012010BD0020C04310BD002A81
:1083500003D0D30703D0521C07E0002010BD0378E0
:108360000C78401C491C1B1B07D103780C78401C5F
:10837000491C1B1B01D1921EF1D1184610BD0000F3
:10838000034670B502460B439B070FD10E4CE60126
:1083900000E008C208C91D1B9D433542F9D0D9B27F
:1083A0001170521C00290DD01B0AF8E70B78491CEC
:1083B0001370521C002B05D00B78491C1370521CF3
:1083C000002BF3D170BD00000101010130B5441C48
:1083D00003E00178401C00290DD08107F9D10B4B37
:1083E000DD0104C8D11A91432940FAD0001B0A06C6
:1083F00003D0C01E30BD001B30BD0A0401D0801E5A
:1084000030BD0902FCD0401E30BD00000101010159
:10841000F8B5042A2CD3830712D00B78491C0370BB
:10842000401C521E83070BD00B78491C0370401C64
:10843000521E830704D00B78491C0370401C521E47
:108440008B079B0F05D0C91ADF002023DE1B08C94C
:108450000AE0FFF791FEF8BD1D4608C9FD401C4625
:10846000B4402C4310C0121F042AF5D2F308C91AD5
:10847000521EF0D40B78491C0370401C521EEAD4E3
:108480000B78491C0370401C012AE4D40978017060
:10849000F8BD01E004C0091F0429FBD28B0701D5F8
:1084A0000280801CC90700D00270704700290BD0E1
:1084B000C30702D00270401C491E022904D383075F
:1084C00002D50280801C891EE3E70022EEE700222D
:1084D000DFE70378C2781946437812061B02194376
:1084E0008378C0781B04194311430902090A000666
:1084F00008437047020A08704A70020C8A70020E24
:10850000CA707047002203098B422CD3030A8B42A6
:1085100011D300239C464EE003460B433CD400227B
:1085200043088B4231D303098B421CD3030A8B428D
:1085300001D394463FE0C3098B4201D3CB01C01A5B
:10854000524183098B4201D38B01C01A5241430926
:108550008B4201D34B01C01A524103098B4201D314
:108560000B01C01A5241C3088B4201D3CB00C01A81
:10857000524183088B4201D38B00C01A52414308F9
:108580008B4201D34B00C01A5241411A00D201461E
:108590005241104670475DE0CA0F00D049420310B7
:1085A00000D34042534000229C4603098B422DD306
:1085B000030A8B4212D3FC22890112BA030A8B42AE
:1085C0000CD3890192118B4208D3890192118B42FD
:1085D00004D389013AD0921100E08909C3098B4282
:1085E00001D3CB01C01A524183098B4201D38B01C5
:1085F000C01A524143098B4201D34B01C01A524168
:1086000003098B4201D30B01C01A5241C3088B42AC
:1086100001D3CB00C01A524183088B4201D38B0097
:10862000C01A5241D9D243088B4201D34B00C01A21
:108630005241411A00D20146634652415B10104636
:1086400001D34042002B00D54942704763465B107E
:1086500000D3404201B50020C046C04602BD70476D
:1086600070477047FFB504460D4681B02430009036
:108670002168880604D51022E0699143216000E05A
:108680000120A84201DD471B00E000270498A169F2
:108690007A191018081AA0612078C00602D4204662
:1086A000C046C046002608E003986268A168805D65
:1086B0009047206A401C761C206204988642F3DBB7
:1086C0002078C0060AD52046C046C04606E062684B
:1086D000A16830209047206A401C206238467F1EE7
:1086E0000028F4DC07E000986268A168405D9047CC
:1086F000206A401C206228466D1E0028F3DC2046BC
:10870000C046C0462078000602D5022005B0F0BD64
:108710000120FBE701694A1C02610878704700B537
:108720008FB002910021059105490193794403918D
:10873000114604906846FFF789FD0FB000BD0000A8
:10874000E5FFFFFF0A681070521C0A60704701467F
:108750008008081A02091018020A1018020C1018D2
:10876000C008820012185200891A01E0401C0A3920
:108770000A29FBD27047754600F024F8AE46050082
:1087800069465346C008C000854618B020B5FFF7BB
:108790001FFD60BC00274908B6460026C0C5C0C5FD
:1087A000C0C5C0C5C0C5C0C5C0C5C0C5403D4900E5
:1087B0008D46704710B50446C046C0462046FFF7B8
:1087C000C4FC10BD00487047F43700200149182050
:1087D000ABBEFEE726000200704770B58C18057826
:1087E000401C6B075B0F01D10378401C2A1106D196
:1087F0000278401C03E00678401C0E70491C5B1E8A
:10880000F9D12B0705D40023521E0DD40B70491C3F
:10881000FAE70378401CCB1A921C03E01D780D7018
:10882000491C5B1C521EF9D5A142D8D3002070BD53
:10883000F0B587B0002600200690FF20013005909B
:108840000125002417E0059804F0BEFC00280CD098
:108850000120A040554949680140002905D00598EC
:1088600004F0AAFC3046284306466D000598001D1A
:1088700080B20590641C042CE5D3FF207D3004F009
:10888000A3FC00280AD0FF207D3004F095FC0120D5
:10889000C007064300BF4648006906903007000F36
:1088A00000282AD00125002425E028463040002851
:1088B0001FD000BF3F48512109014018A100405876
:1088C0001F2109020840000A049000BF39485121C5
:1088D00009014018A1004058032109040840000C78
:1088E0000390204601F0B0FE074603990498B8476C
:1088F00000BF6D00641C042CD7D3F00FC007002804
:1089000052D000244EE0204604F0CCFC0490C0215C
:10891000049888430746049808408011039001207A
:10892000B8400546384604F0D1FC002839D0384616
:1089300001F0CEFE019001F087FE0290029800281F
:108940002ED000BF05200007072109024018B900FA
:108950004058032109040840000C01900698284063
:10896000002802D00198022806D006982840002846
:1089700015D10198032812D1039803280BD101982F
:10898000022801D1032000E002200090384600991F
:1089900004F0C6FB00BF3846029A0399904700BF17
:1089A00000BF641C082CAED307B0F0BD00630040CC
:1089B000000500500060004002A1002000F008FA0D
:1089C00002F070F9486172644661756C745F4861C9
:1089D0006E646C65722E0D0A20200000C206D20E55
:1089E00001219140014A11607047000080E200E0DF
:1089F000C206D20E01219140014A11607047000069
:108A000000E100E0C206D20E01219140014A11604E
:108A10007047000000E100E0C206D20E0121914043
:108A2000014A11607047000000E200E0C206D20E69
:108A300001219140014A11607047000000E200E00E
:108A4000C206D20E01219140014A11607047000018
:108A500000E200E0C206D20E01219140014A1160FD
:108A60007047000000E200E010B5002819DA1A4A49
:108A700003071B0F083B9B089B00D2588307DC0EA3
:108A8000FF23A3409A438B071B0E8407E40EA340E9
:108A90001A43114B0407240F083CA408A4001A51E0
:108AA00018E00E4A03231B02D21883089B00D258F9
:108AB0008307DC0EFF23A3409A438B071B0E84071A
:108AC000E40EA3401A43054B032424021B19840817
:108AD000A4001A5110BD00001CED00E000E100E010
:108AE00010B5002819DA1A4A03071B0F083B9B0828
:108AF0009B00D2588307DC0EFF23A3409A438B07C9
:108B00001B0E8407E40EA3401A43114B0407240FE5
:108B1000083CA408A4001A5118E00E4A03231B02C3
:108B2000D21883089B00D2588307DC0EFF23A34092
:108B30009A438B071B0E8407E40EA3401A43054B90
:108B4000032424021B198408A4001A5110BD00003C
:108B50001CED00E000E100E010B5002819DA1A4A27
:108B600003071B0F083B9B089B00D2588307DC0EB2
:108B7000FF23A3409A438B071B0E8407E40EA340F8
:108B80001A43114B0407240F083CA408A4001A51EF
:108B900018E00E4A03231B02D21883089B00D25808
:108BA0008307DC0EFF23A3409A438B071B0E840729
:108BB000E40EA3401A43054B032424021B19840826
:108BC000A4001A5110BD00001CED00E000E100E01F
:108BD00010B5002819DA1A4A03071B0F083B9B0837
:108BE0009B00D2588307DC0EFF23A3409A438B07D8
:108BF0001B0E8407E40EA3401A43114B0407240FF5
:108C0000083CA408A4001A5118E00E4A03231B02D2
:108C1000D21883089B00D2588307DC0EFF23A340A1
:108C20009A438B071B0E8407E40EA3401A43054B9F
:108C3000032424021B198408A4001A5110BD00004B
:108C40001CED00E000E100E010B510E00024094850
:108C500002F03CF8044306F0B9FC002803D00648B3
:108C600002F034F80443002C00D101E000BFEDE72E
:108C700000BF10BD9C2800205429002010B5002002
:108C8000074908600021064841608160C1600020FA
:108C9000034940390860486006F084FB10BD0000BD
:108CA00040110140FFB581B004460E46174600BF93
:108CB0001A480078002801D100F034FA00BF1748A4
:108CC0000069A04225D9002C1AD01820604313490E
:108CD00018310E5018206043401847601821614336
:108CE0000E4A1832891804988860002218206043C0
:108CF0000A49183140180261182060434018C260C8
:108D000018206043054A183280180A9941610025ED
:108D100001E00025ED43284605B0F0BD7C3700207A
:108D2000F8B504460D46164600BF074800780028EF
:108D300001D100F0F7F900BF32462946204600F085
:108D400005F807463846F8BD7C370020F7B582B0F5
:108D50000746164603980190182078431B4940188F
:108D6000009000984069002804D0012811D0022802
:108D700026D11EE0009800F00DFA0546B54201D25A
:108D8000002405E0344632460199009800F085FB46
:108D900018E0009800F0FEF90546B54201D22846D9
:108DA00000E03046044622460199009800F075FB29
:108DB00008E032460199009800F032FB044601E0D9
:108DC000002400BF00BF204605B0F0BD943700204E
:108DD0000FB438B5044606A800906A4620460599A7
:108DE00000F004F838BC08BC04B01847F7B59AB0D6
:108DF0000D46144602A815904020169000201790AA
:108E00001A9819900020189000BF2E786D1C002E23
:108E100000D1E4E0252E79D100270120149000BF75
:108E20002E78232E12D02B2E0CD02D2E02D0302EA9
:108E300010D103E0012007436D1C0EE00220074320
:108E40006D1C0AE0042007436D1C06E00820074360
:108E50006D1C02E00020149000BF00BF1498002891
:108E6000DED1129000BF2E78302E01DB392E00DDCE
:108E700008E06D1C0A2112984843314630394018E9
:108E80001290F0E700BF002013902E782E2E11D103
:108E90006D1C00BF2E78302E01DB392E00DD08E07E
:108EA0006D1C0A21139848433146303940181390FD
:108EB000F0E700BF2E7800BF6C2E01D0682E02D1E3
:108EC0002E786D1C00E000E0F6E700BF702E63D046
:108ED00008DC252E72D0582E38D0632E09D0642E8F
:108EE00071D114E0732E40D0752E1FD0782E6AD128
:108EF0002BE02168081D2060086814901498C0B207
:108F0000019015A8019900F069FA5DE05FE0216821
:108F1000081D2060086814901298019700900A229A
:108F200015A8139B149900F043F94DE02168081D22
:108F30002060086814901298019700900A2215A8E2
:108F4000139B149900F0BCF93EE000BF2168081D96
:108F5000206008681490129801970090102215A8BC
:108F6000139B149900F0ACF92EE02168081D2060D5
:108F70000868019000BF019806780198401C019094
:108F8000002E00D106E0314615A800F027FA189807
:108F90000028F0DA00BF17E02168081D206008688B
:108FA0001490002008210B4610220091019015A872
:108FB000149900F085F907E000E004E0252115A8E8
:108FC00000F00CFA00E000BF00BF6D1C03E031466A
:108FD00015A800F003FA1898002800DB15E700BF79
:108FE000189800280BDD1798002804D002A9179ABA
:108FF0001A98FFF795FE1799189840181890189826
:109000001DB0F0BD10B505F0C3FE10BD70B50C4825
:109010000068002811D00A4800688047044600BF55
:109020002546002D07D000BF064AFF212A312846D9
:1090300000F0B0FB00BF00BF01E002F0F3FD70BD27
:109040003C2100204C02020010B502F067FE00280F
:1090500005D0074807494860C8130749886102F0EE
:1090600041FE002802D001200449886010BD0000A4
:10907000DFFF07C000050040006C00400006004014
:1090800010B50021014803F0F9FF10BD0090004029
:1090900010B509E000201C498860084680681B491B
:1090A0008969C8B201F01AFB174880680028F1D11D
:1090B0001548C069002826D000201349C86114480B
:1090C00001680068401E124A106000290AD0114849
:1090D000006800780D49C8610E480068401C0D49C1
:1090E000086010E001200C49C8600C480078012895
:1090F00002D0002009490870094801F0EBFE002861
:1091000001D104F04DFF10BD0021004000250040BA
:10911000F4200020F820002000200040F020002053
:10912000FC26002010B5124C02202061606111A0C5
:10913000A0611349E1610121C90221620021A162FC
:109140006162E1620BA0A0640E49E1641021216517
:109150000021A1656165E1650BA1E01DFFF710F934
:109160000AA12046FFF70CF92020A07110BD0000D5
:109170007C3700205465726D696E616C00000000E0
:109180006C2F00206C370020525454005345474741
:109190004552000010B501460A69CB689A4204D8CE
:1091A0008C68641EE41AA01801E0D41A601E10BD79
:1091B000FFB585B006460F460F9D0E9C002F01DAC5
:1091C000784200E0384603900120049007E00799B8
:1091D0000398FFF7A1F903900498401C04900799A5
:1091E00003988842F3DA04990898884201D90898CC
:1091F0000490002C06D0002F03DB04202840042814
:1092000000D1641E02202840002802D008980028BF
:1092100015D0E807C00F002811D1002C0FD008E0AE
:10922000641E2021304600F0D9F8F068002800DAEA
:1092300004E0002C02D00498A042F1D300BFF068F3
:1092400000283ADB002F05DA7F422D21304600F05E
:10925000C5F807E004202840042803D12B2130461C
:1092600000F0BCF8F068002827DB02202840022824
:1092700018D1E807C00F002814D10898002811D190
:10928000002C0FD008E0641E3021304600F0A6F814
:10929000F068002800DA04E0002C02D00498A04214
:1092A000F1D300BFF068002807DB01950094394630
:1092B0003046089B079A00F003F809B0F0BD0000A3
:1092C000FFB585B0064617461D460E9C06980290CF
:1092D00001200390019007E039460298FFF712F948
:1092E00002900198401C01900298B842F4D2019873
:1092F000854200D901950F98C007C00F00281DD1E5
:10930000002C1BD002210F980840022804D1002D08
:1093100002D13020009001E02020009008E0641E7F
:109320003046009900F05AF8F068002800DA04E0AE
:10933000002C02D00198A042F1D300BFF0680028B1
:1093400048DB0FE0012D01D96D1E08E00399069856
:10935000FFF7D8F804900498B84200D203E00398CD
:1093600078430390EEE700BF00BF03990698FFF72C
:10937000C9F804900399049848430699081A06907E
:10938000154A0498115C304600F028F8F06800286F
:1093900000DA07E039460398FFF7B4F80390039822
:1093A0000028E2D100BF0F98C007C00F002811D0DD
:1093B000002C0FD008E0641E2021304600F00EF88B
:1093C000F068002800DA04E0002C02D00198A042E6
:1093D000F1D300BF09B0F0BD3802020070B50446F9
:1093E0000E46A568681C6168814206D32068465510
:1093F000681CA060E068401CE0606168A06888426A
:109400000DD1A26821682069FFF78AFCA168884213
:1094100003D00020C043E06001E00020A06070BDE8
:10942000F7B582B00446174600200190E56800BFFA
:10943000206900900098A84203D90098401B461E5E
:1094400004E0A1680098281A401C0E1AA068401B6E
:10945000B04201D9304601E0A068401B0646BE423A
:1094600001D2304600E03846064661684819324667
:109470000399FEF7CDFF0198801901900398801998
:109480000390BF1BAD19A068A84200D10025E5607C
:10949000002FCDD1019805B0F0BDF7B582B00446DC
:1094A0001546E668A068871BAF4208D9616888192D
:1094B0002A460399FEF7ACFF7019E06010E00197AF
:1094C00061688819019A0399FEF7A2FFE81B0190D1
:1094D000039AD1196068019AFEF79AFF0198E0603B
:1094E00005B0F0BD30B47446641E2578641CAB42F0
:1094F00004D3635D5B00E31830BC18471D46F8E7F2
:10950000124A1268002A07D0104B02681B681B68B9
:10951000D21A0F4B9A4205D90C4A126802610B4AC3
:1095200010607047094A116800E009690A69002A59
:1095300006D00A6912680368D21A054B9A42F4D819
:109540000A690261086100BFEBE7000024210020E6
:10955000FFFFFF7FF8B504460F46154600260020A2
:1095600028702078002809D02A463946204603F082
:109570005FFB0646002E01D03046F8BDA0780028DB
:1095800008D02946384600F021FA0646002E01D0C0
:109590003046F2E7E07800280ED002212A78501CED
:1095A0002870B95401212A78501C2870B954E178E8
:1095B0002A78501C2870B954606800280BD000200D
:1095C000616808562A46394606F042FA0646002ED9
:1095D00001D03046D1E7208900280CDD3B46062229
:1095E000022120460830009506F07CFA0646002E3F
:1095F00001D03046C1E7208A00280CDD3B46072217
:10960000032120461030009506F06CFA0646002E25
:1096100001D03046B1E7208B00280CDD3B461522F7
:10962000142120461830009506F05CFA0646002EFC
:1096300001D03046A1E7206A002809D02A463946E1
:10964000206A01F059F90646002E01D0304694E711
:10965000606A002809D02A463946606A02F080FD17
:109660000646002E01D0304687E72C20005D0028FA
:1096700009DD2A463946204605F03EF80646002E0A
:1096800001D0304679E7304677E70146C8780422B2
:109690001040002801D1072070470020FCE700009F
:1096A000014600BF064A50680122D2058243044B9E
:1096B0009A600122D2050240DA6000BF70470000C4
:1096C0000005005010B5002407E0E100064A1268CA
:1096D000505C012103F0B8FB641C0448007884420C
:1096E000F3D3002010BD0000542100205821002099
:1096F000FEB506460C461746052F01D20720FEBDD3
:1097000003F0ACFC002806D103F080FC0546002DD8
:1097100001D02846F3E7164806601648047016483C
:1097200007600020154908601549086015E0E00051
:10973000801901901348006800900198807869466C
:10974000487001990878104A694603F0D5FB054630
:10975000002D01D02846D2E700BF2046611ECCB2C2
:109760000028E4D1094A0021094800F025F8C6E79D
:1097700054210020582100205C2100206421002079
:10978000682100204802020055B10100D5AA01005D
:109790006021002002A10020FFF71AFB01F082FAED
:1097A0006170705F6572726F725F68616E646C6524
:1097B000722E0D0A2020000070B503460C46194891
:1097C0000068002801D1082070BD002A01D10720BF
:1097D000FAE7002B01D10720F6E700211CE0242046
:1097E0004843104D2D68285C002814D10125242001
:1097F00048430C4E3668355424204843094D2D68A3
:109800004019447024204843064D2D684019826158
:1098100019600020D8E7491C034800788142DEDB4C
:109820000420D1E7702100206C210020FFB581B019
:109830000E4617461C4620468107890F002901D194
:10984000012100E00021002902D1072005B0F0BD70
:10985000002C01D10720F9E704F04AFB26490A98B9
:109860000860264806702648046000250CE00021A8
:1098700024206843224A1268115424206843204A55
:109880001268801801756D1CB542F0DB242070430E
:10989000041903201B4908701B4804601834002574
:1098A0000CE0E900184A1268881800210170417024
:1098B00087704460182179430C196D1C032DF0DB6F
:1098C0000020C04311490860002011490870114967
:1098D00008701420FFF782F803211420FFF778F9AD
:1098E0001420FFF78FF8019804F0D8FA04F0D0FAAA
:1098F000094908600020A9E7902100206C21002080
:109900007021002074210020782100207C2100207B
:109910008C2100208D21002080210020FEB50446EE
:109920000D46164616480068002801D10820FEBDE5
:1099300014480078844201D2052D01D20720F6E7B1
:10994000242060430E490968085C012801D00820E2
:10995000EDE7242060430A4909684018407801284F
:1099600001D1284600E00020074606F092F83B4669
:109970002A4621460096019005F0CAFCD7E7000070
:10998000702100206C21002070B504460D4800684D
:10999000002801D1082070BD0B480078844201D313
:1099A0000720F8E72420604306490968085C01287D
:1099B00001D00820EFE706F06CF80546214605F0D7
:1099C000D1FCE8E7702100206C210020F8B50546A5
:1099D0000C462078001D1F2801DD0C20F8BD6846CC
:1099E00079DF0646002E01D03046F7E703212278C2
:1099F000501C2070A95419212278501C2070A954A1
:109A0000207841196846008806F03AF82178401815
:109A100020700020E2E7000070B50A4A0A490B48AE
:109A20000068FFF77BFF044600BF2546002D06D0E7
:109A300000BF07A2FF21AA312846FFF7ABFE00BFF7
:109A400070BD0000082000209A19000000200020AE
:109A50002E2E5C6D61696E2E6300000070B50446A9
:109A600020780300FFF73EFD0504401C343A5900FE
:109A70000321C9036068884204D301214907606853
:109A8000884209D900BF102500BF25A2532110200C
:109A9000FFF780FE00BF00BF6168A06888473DE017
:109AA0000321C9036068884204D301214907606823
:109AB000884209D900BF102500BF19A25B211020E0
:109AC000FFF768FE00BF00BF6168A068884725E017
:109AD000237C201D07C804F089FF1FE0E279A179EB
:109AE000A08801F01BFD19E00321C90360688842CA
:109AF00004D3012149076068884209D900BF1025B5
:109B000000BF07A278211020FFF744FE00BF00BF6E
:109B10006268E168A068904700E000BF00BF70BDC8
:109B20002E2E5C2E2E5C2E2E5C7262635F6D657332
:109B3000685C7372635C6576656E745F68616E64A1
:109B40006C65722E6300000070B5044605F038FAAB
:109B50000646204604F072F92046FFF7D1FCEFF3E9
:109B60001080C507ED0F72B607484068401E0649D1
:109B70004860002D00D162B6304601F061FA3046EF
:109B800004F050FE70BD00002421002070B588B0A4
:109B900005462E46304602F06FFE04460020009037
:109BA000002C27D0617922790902114308466946C1
:109BB00006F002FA00281DD168460078002819D066
:109BC00004206946087160792179000208436946DA
:109BD00008812046083003902078C01FC1B201A838
:109BE000017305F0EDF9059001A803F029FF01A824
:109BF00002F003FB304602F0F7FE08B070BDF3B58B
:109C000093B00D460021129111911398002814D0A1
:109C10001398FFF73AFD0446002C02D0204615B0F9
:109C2000F0BD12AA09A91398FFF794FC0446002C72
:109C300001D02046F3E709AE00E00026002D13D046
:109C4000284604F069FE0446002C01D02046E6E7D1
:109C500011AA01A92846FFF77DFC0446002C01D07B
:109C60002046DCE701AF00E0002710A803793A4660
:109C7000017A304672DFD2E770B50446208810388A
:109C80000300FFF72FFC0906071E0A1E1E1E1D1CDF
:109C90001E0017E00C4873DF14E000BFA08800230B
:109CA0000A4A19467FDF0546002D06D000BF08A2EC
:109CB00072212846FFF76EFD00BF00BF02E001E001
:109CC00000E000BF00BF70BD0C2000202420002059
:109CD0002E2E5C6E72665F6164765F636F6E6E2EB1
:109CE0006300000010B50446208850280BD051288E
:109CF00002D0522808D100E007E0A08800231A46CD
:109D00001946A9DF01E000E000BF00BF10BD000060
:109D1000F3B581B006460025002400E0641C042C45
:109D200004D2A00029490858B042F7D1042C42D2ED
:109D30000298002825D0012802D002283AD133E029
:109D40006000201822490D5C6000201840184078FF
:109D500000280ED01F4800680A22504301461E4AC0
:109D60001E480068FFF7DAFD0746002F01D11A48A8
:109D70000670600020181649401880781849085568
:109D800018E016480068FFF7FFFD1548005D610008
:109D900061180F4A89188978884204D16000201818
:109DA00011464018857805E06000201808494018E1
:109DB000457800BF00BF002D07D00A480068002882
:109DC00003D02846074909688847FEBDD80102002C
:109DD0004025002030200020482000204420002082
:109DE000492000204020002070B505460D2D06D0EA
:109DF0000E2D4CD00F2D75D0102D74D196E04FA1A3
:109E00000020FEF7E5FF152003F0BEF9172003F050
:109E1000BBF94F48007800281CD003F0FFFF00205A
:109E20004B49087000224B494B480068FFF776FD0C
:109E3000044600BF2646002E06D000BF47A2FF21E1
:109E400052313046FFF7A6FC00BF47A10020FEF7C5
:109E5000BFFF1BE003F0EAFF01203D49087000222C
:109E60003C493D480068FFF759FD044600BF2646BF
:109E7000002E06D000BF39A2FF215B313046FFF72C
:109E800089FC00BF3CA10020FEF7A2FF54E03DA1E9
:109E90000020FEF79DFF172003F076F9152003F050
:109EA00073F92B48007800281ED003F0B7FF00207C
:109EB000274908700022274927480068FFF72EFD30
:109EC000044600BF2646002E06D000BF23A2FF2175
:109ED0006D313046FFF75EFC00BF23A10020FEF786
:109EE00077FF1DE01DE026E003F0A0FF01201849E8
:109EF00008700022174918480068FFF70FFD044654
:109F000000BF2646002E06D000BF14A2FF217631E6
:109F10003046FFF73FFC00BF17A10020FEF758FFB7
:109F20000AE01DA10020FEF753FF05E01FA100205D
:109F3000FEF74EFF00E000BF00BF70BD4253505F10
:109F40004556454E545F4B45595F302E0D0A000073
:109F500009200020CD0C0000042000202E2E5C6D76
:109F600061696E2E6300000072656C61795F6F66D7
:109F7000662E0D0A0000000072656C61795F6F6EDD
:109F80002E0D0A004253505F4556454E545F4B45D7
:109F9000595F312E0D0A00004253505F4556454E21
:109FA000545F4B45595F322E0D0A00004253505FFB
:109FB0004556454E545F4B45595F332E0D0A000000
:109FC00030B503460020042B24D2012A07D10129F1
:109FD00003D11C460D34E4B200E0002422460029DF
:109FE0000FD0012902D0022911D104E05C001C1914
:109FF000094D2A550DE05C001C19074D641962706B
:10A0000007E05C001C19044D6419A27001E00720F0
:10A0100000BF00E0072030BD40250020F7B5054611
:10A020000E46002427480660274805602749029805
:10A03000086002202840002822D0002706E00122E4
:10A0400011463846FFF7BCFF04467F1C042F01D29F
:10A05000002CF4D0002C05D1720804211C48FFF715
:10A0600047FB0446002C02D1FFF72CFB0446002CD2
:10A0700005D1184A00211848FFF79EFB044600BF8F
:10A08000E807C00F00280AD000BF0F204005134981
:10A0900088600020C86000BF0F2040058861002C48
:10A0A00005D10F4A00210F48FFF786FB0446002C1C
:10A0B00005D10D4A01210D48FFF77EFB04462046DD
:10A0C000FEBD000030200020342000204020002071
:10A0D000E8010200DDA50100442000200005005039
:10A0E000B9BD010038200020A19601003C200020CD
:10A0F000F8B50446002500262300FFF7F3F9180DF4
:10A1000018195C9FF7F5F4F3F2F1F0EFEEEDECEBDC
:10A11000EAE9E8E7E6E5E4E300BF0B204005FB4998
:10A1200088600020C86000BFF94804704FE200BF9B
:10A1300000BF05208005F54988600020C86000BF89
:10A14000084640680F21490548400121490508405B
:10A1500000280FD000BF0846EC4988600020C86086
:10A1600000BF022C02D1E120C00001E07D204001AF
:10A1700006460EE000BF01204005E449C86000200B
:10A18000886000BF022C01D1C82001E0FF2091307F
:10A190000646DF48047064213046FEF7B3F9DD4916
:10A1A00009684843074600223946DB480068FFF744
:10A1B000B5FB05460BE200BF05208005D34988604A
:10A1C0000020C86000BF084640680F21490548408C
:10A1D00001214905084000280FD000BF0846CB499F
:10A1E00088600020C86000BF032C02D11920400104
:10A1F00001E07D20400106460EE000BF0120400541
:10A20000C249C8600020886000BF032C01D1C8206B
:10A2100001E0FF2091300646BD48047064213046BD
:10A22000FEF770F9BB4909684843074600223946E2
:10A23000B9480068FFF772FB0546C8E100BF05207A
:10A240008005B24988600020C86000BF08464068A9
:10A250000F214905484001214905084000280FD039
:10A2600000BF0846A94988600020C86000BF042CD0
:10A2700002D17D20400101E07D20400106460FE033
:10A2800000BF01204005A149C8600020886000BFD0
:10A29000042C02D1FF20913001E0FF2091300646CE
:10A2A0009B48047064213046FEF72CF999490968EF
:10A2B000484307460022394697480068FFF72EFBBF
:10A2C000054684E182E176E174E161E14EE13BE142
:10A2D0002FE1F4E0F2E0F0E0EEE0ECE0E2E0C9E0F3
:10A2E000B2E099E082E06FE042E0FFE700BF0520C6
:10A2F0008005864988600020C86000BF0846406825
:10A300000F214905484001214905084000280ED089
:10A3100000BF08467D4988600020C86000BF052C4A
:10A3200001D1C82001E07D20400106460EE000BFBB
:10A33000012040057549C8600020886000BF052CD9
:10A3400001D1C82001E0FF2091300646704804701A
:10A3500064213046FEF7D6F86E490968484307463F
:10A36000002239466C480068FFF7D8FA05462EE10E
:10A3700000BF05208005654988600020C86000BFD7
:10A38000084640680F214905484001214905084019
:10A39000002806D000BF08465C4988600020C860DD
:10A3A00007E000BF012040055849C86000208860D0
:10A3B00000BF57480470574800220168564800689B
:10A3C000FFF7ACFA054602E100BF052080054F49C2
:10A3D00088600020C86000BF00BF01204005C86041
:10A3E0000020886000BF4A480470F0E000BF474981
:10A3F0004868012189058143444A9160012189050A
:10A400000140D16000BF4348002201684248006813
:10A41000FFF784FA0546DAE000BF3C4948680121AD
:10A4200089058143394A9160012189050140D16044
:10A4300000BF384800688200811800223648006852
:10A44000FFF76CFA0546C2E000BF304948680121B9
:10A45000890581432D4A9160012189050140D16020
:10A4600000BF2C48002201682B480068FFF756FA0D
:10A470000546ACE000BF25494868012189058143B4
:10A48000224A9160012189050140D16000BF214825
:10A4900000688200811800221F480068FFF73EFA1A
:10A4A000054694E000BF0F2040051849C860002011
:10A4B000886000BF8BE000BF00BF00BF00BF17482F
:10A4C0000068FFF761FA05461120061B002E27D011
:10A4D000002D25D1012E10D9C821714308466421D1
:10A4E000FEF710F80B490968484307460022394631
:10A4F0000A480068FFF712FA054600BF0120C005B0
:10A500000249C8600020886012E000000005005089
:10A510002C20002030200020382000203C2000206B
:10A5200000BF0120C0052B4988600020C86000BF23
:10A530004DE000BF0F204005264988600020C8601C
:10A5400000BF2548047042E000BF07208005214974
:10A5500088600020C86000BF00BF01204005C860BF
:10A560000020886000BF1C48047030E000BF0D2050
:10A570004005184988600020C86000BF00BF012066
:10A580008005C8600020886000BF134804701EE08A
:10A5900000BF0320C0050F4988600020C86000BFCD
:10A5A00000BF03204005C8600020886000BF0A4843
:10A5B00004700CE000BF00BF0F2040050549C860D3
:10A5C0000020886000BF0448047000E000BF00BFA6
:10A5D0002846F8BD000500502C20002010B5044688
:10A5E00020780221FFF794FB10BD000070B5094AE6
:10A5F00009490320FFF712FD044600BF2546002D40
:10A6000006D000BF05A2FF21BF312846FFF7C2F8E0
:10A6100000BF70BDE99D0100CD0C00002E2E5C6DC9
:10A6200061696E2E630000000022D2438300054959
:10A63000CA50042804DB1346011F024A5032535407
:10A6400070470000142F002001468A0001488058FE
:10A6500070470000142F0020F7B585B00B4600208E
:10A66000C0430490002A01D0002000E004200390A1
:10A67000002A01D0042000E00C20029003991EE083
:10A680008C0012480059401C002817D10846059C30
:10A690000093019246B20D4D30352E558600303D67
:10A6A000009BAB51019A002A04D166B2051F074FE7
:10A6B00050377E5500BF48B2049003E0491C029811
:10A6C0008142DDD300BF049808B0F0BD142F0020F4
:10A6D0000146014840567047442F002030B589B0EC
:10A6E000054623480068057021480068401C204941
:10A6F0000860084601681F480C1A272C06D2012C56
:10A7000033D9401E4078401CA0422ED81949491E1A
:10A71000194800F060FC00280FD003216846017141
:10A72000842141711348401E8178684681718621D9
:10A7300001A8C17003F032FF0AE0022069460874E4
:10A740000E4805900021069104A800F04BFB00BFC5
:10A75000094800F0C8FB002804D00120084908700F
:10A760000849486003480249086009B030BD00004C
:10A770000021002074280020E4260020E5C101000B
:10A78000F02000200020004070B504460D46201D3A
:10A79000FDF79FFE281A1A4988422FD8204605F057
:10A7A00075F800282AD020460830FDF792FE15499A
:10A7B0000968154A1268514388420AD22046083077
:10A7C000FDF787FE4600214608313046FDF792FE30
:10A7D00009E00C4909680C4A1268514308462146B1
:10A7E0000831FDF787FE0020207320460830FDF772
:10A7F00070FE4619211D3046FDF77CFE70BD00003D
:10A80000FFFFFF7FD4200020D0200020FEB51E488F
:10A810000068401C002834D01B48006824214843AD
:10A820001A4909684018456803F032FB019018483E
:10A8300004682146019804F0BDF9C61C154800784B
:10A84000002801D103F036FBAE4201D2284600E0D9
:10A85000304604192402240A20460F49086000BF2C
:10A8600003F016FB00900199009804F0A3F9C71CAF
:10A870002046019904F09EF9874201D904F0E0FDD9
:10A8800001E003F035FBFEBD7C210020702100209B
:10A8900080210020942100204015014001460888B5
:10A8A000062808DB08881922D201904205DD0888B5
:10A8B000104A904201D0072070474888062808DBDC
:10A8C00048881922D201904205DD4888094A904201
:10A8D00001D00720F0E70888064A904208D048884F
:10A8E000904205D008884A88904201DD0720E3E7BE
:10A8F0000020E1E7FFFF0000F8B506460D461446CC
:10A900002078801D1F2801D90C20F8BD3046FFF7A4
:10A91000C5FF0746002F01D03846F6E7052122780B
:10A92000501C2070A95412212278501C2070A95468
:10A9300022785119308805F0A3F82178401820704A
:10A9400022785119708805F09BF821784018207002
:10A950000020DAE710B514484068C105C90D002988
:10A9600020D00A46103A50B200280DDA0E4B1C33A4
:10A970000407240F083CA408A4001B598407E40E14
:10A98000E3401B069B0F0BE0084B032424021B191A
:10A990008408A4001B598407E40EE3401B069B0FA8
:10A9A000D8B210BD0420FCE700ED00E000E100E0BB
:10A9B00070B53148068815E0142070432F494018BF
:10A9C000006900280DD1142171432C4A88180021F8
:10A9D00004F0A0FF28480088401C27490880B0B236
:10A9E00070BD761C022EE7D3254804680CE000BF3A
:10A9F0000A20604323494018C0884404640C00BF07
:10AA0000032C01D10220EBE70A2060431D494018C6
:10AA100000890228EBD00A2060434018C088C00B90
:10AA20000028E4D10A2060434018058900BF022DA8
:10AA300001D2012000E000200646002E05D100BF13
:10AA400011A28E21FEF7A6FE00BF00BF02210A2040
:10AA500060430C4A8018018114216943074A881811
:10AA600000F026F814216943044A8818002104F0F4
:10AA700051FFA8B2B4E700001C210020E82E0020FE
:10AA800018210020C82E00202E2E5C2E2E5C2E2E8B
:10AA90005C7262635F6D6573685C7372635C68614E
:10AAA0006E646C655F73746F726167652E6300001E
:10AAB00010B50446002C00D110BD2069002804D038
:10AAC000206901F091FF00202061204604F0BBFEC8
:10AAD00000BFF1E7F8B5002535E0E8001C4909683A
:10AAE000441821780120884006461A480068304002
:10AAF000002826D017480068B0431649086020781F
:10AB000002F074FA0746217801208840124909684A
:10AB10000840227839469140884211D16078012856
:10AB200000D100E00020784001214840009060689A
:10AB3000002804D0009BD9B220786268904700BFFB
:10AB400000BF681CC5B2054800788542C5DBF8BD6A
:10AB50005421002068210020642100205821002079
:10AB600010B504460F49104800F004FA002817D128
:10AB70000C4840780D4908600A48401C0C490860A0
:10AB800000200C49C86101200B4988600848006812
:10AB900000780A49C86106480068401C04490860FA
:10ABA00010BD00004C280020FC260020F4200020CE
:10ABB000F820002000210040002000400025004037
:10ABC000014614480078144A127890421DD011486A
:10ABD0000078401C0F4A107010460078022801D1FE
:10ABE000002010700B48007880000C4A1058086054
:10ABF0000B4A086812688018094A106010460068FD
:10AC00000002000A1060012070470020086000BFA9
:10AC1000FAE700008C2100208D21002084210020F3
:10AC2000802100200121014A11707047AF200020CF
:10AC300010B506490968064A126851430846054995
:10AC4000FDF760FC7D21C900401810BDA020002048
:10AC5000B420002040420F000146072912D008DC32
:10AC600000290DD0022913D0052915D0062917D1A6
:10AC70000CE0082908D009290CD0112910D10DE0C9
:10AC8000002070478520FCE78320FAE78220F8E760
:10AC90008620F6E78420F4E79020F2E78620F0E7AC
:10ACA0008020EEE70021084601F06EF80021012027
:10ACB00001F06AF80021022001F066F8002103206B
:10ACC00001F062F872B600E020BFFDE730B585B054
:10ACD00004466946204600F04DF90546002D05D191
:10ACE0006846FEF7BBFE012005B030BD0020FBE743
:10ACF000EFF31080C107C90F72B6094802680068F7
:10AD0000401C074B1860002A06D112200122824005
:10AD1000044B1A6000BF00BF002900D162B6704723
:10AD20000821002080E100E010B5EFF31080C40797
:10AD3000E40F72B606480068401E05490860002806
:10AD400002D11220FDF754FE002C00D162B610BDD6
:10AD50000821002010B514480078002800D010BD4C
:10AD600008201249886012480860142048600020BA
:10AD70004861084600F09DF808200E4988600E489A
:10AD800008601420486000204861084600F091F8EF
:10AD90001220FDF72DFE03211220FDF7A1FE012058
:10ADA0000149087000BFDAE7042100209C28002038
:10ADB000B4280020542900206C29002010B5074831
:10ADC00000F088F8002804D0054800F083F8002837
:10ADD00002D11220FDF734FE10BD00009C28002097
:10ADE0005429002070B50446002C01D10E2070BDFE
:10ADF000002620780300FEF775FB05090704050609
:10AE00000B0000BF00BF00BF0A4E03E00A4E01E086
:10AE10000720ECE700BF2146304600F0DCF805468D
:10AE2000002D01D02846E2E71220FDF709FE0020A0
:10AE3000DDE700009C28002054290020F0B50346DF
:10AE4000002426E0164E366824277E43154F3F68BF
:10AE5000F01946689E4203D94668F61A46601DE01E
:10AE600046689B1B466834190026466006750C4EE2
:10AE700035680B4F066A3E600669002E08D00E1931
:10AE80003602360A86600669C66016680662156074
:10AE900000BF03480068401C0028D3D100BFF0BDAC
:10AEA0007C2100207021002001460A69C868801AB0
:10AEB0007047202100BF4B1E19468268DA40D20736
:10AEC000D20F002AF7D001228A4082600022C2609D
:10AED000026170470146CA680869904201D10120A9
:10AEE00070470020FCE701468A6808698018CA6834
:10AEF000904201D1012070470020FCE770B5044664
:10AF00000D4600222946204600F001F870BDF8B534
:10AF100004460D461646002D01D10E20F8BDEFF374
:10AF20001080C707FF0F72B62046FFF7BDFFB04283
:10AF300004D8002F00D162B60E20EFE720698019F7
:10AF4000A168491E08406168484321684018009084
:10AF50006069002804D0626928460099904704E09F
:10AF6000626828460099FDF753FA002F00D162B6B7
:10AF70000020D3E7F8B504460D46EFF31080C6076E
:10AF8000F60F72B6E1682069884204D1002E00D124
:10AF900062B60E20F8BD002D15D0A168491E2069AB
:10AFA000084061684843216847186069002804D058
:10AFB000394628466269904704E039462846626867
:10AFC000FDF726FA00BF2069401C2061002E00D149
:10AFD00062B60020DEE7F8B504460E46002E01D129
:10AFE0000E20F8BDEFF31080C507ED0F72B6A16813
:10AFF00020694018E168884204D1002D00D162B672
:10B000000420EEE7A168491EE068084061684843F3
:10B01000216847186069002804D0314638466269C3
:10B02000904704E0314638466268FDF7F1F9E06880
:10B03000401CE060002D00D162B60020D1E7000086
:10B0400030B585B005461F484068002801D005B0DE
:10B0500030BD27E01B48046801206946087060681D
:10B060000190E168039102956846FFF7BBFE002856
:10B0700000D0ECE713492069086000202061A06837
:10B0800000280ED000BFA168206840182060284624
:10B0900064302168081A0C498842F4D82046FEF72B
:10B0A0002FFA00BF07480068002808D0054800684C
:10B0B000016828466430081A03498842CAD800BF8C
:10B0C000C5E7000024210020FFFFFF7F10B51520F9
:10B0D000182108E0032205231B07072424021B195B
:10B0E00084001A51401C8842F4D900BF002404E0B7
:10B0F0002046153002F040F8641C042CF8D30D20D3
:10B1000001F0FCFF0D2002F02FF80E2001F0F6FFF9
:10B110000E2002F029F81A2001F0F0FF1A2002F0A8
:10B1200023F81B2001F0EAFF1B2002F01DF80B2082
:10B1300001F0E4FF0B2002F017F80C21032082003D
:10B1400005231B07072424021B198C001A5100BF7A
:10B1500010BD0000F8B505460F460120A840044682
:10B1600018480068FEF710FC0646002E00D0F8BD17
:10B1700015480068204000281DD1284601F036FF00
:10B18000002805D01148006820431049086004E0F9
:10B190000E480068A0430D4908600B480068204332
:10B1A0000949086000220A48016806480068FEF75D
:10B1B000B5FB064604E004480068A0430249086065
:10B1C00000BFD4E760210020682100206421002016
:10B1D0005C21002070B505460E46FFF789FD002E64
:10B1E00014D01D480088A84210D11C4800880328AC
:10B1F0000CDA1A4800880A2148431949085AA8421B
:10B2000004D1FFF791FD1548008870BD15480088EE
:10B2100084B210E014480068A04203D1FFF784FD17
:10B220000320F2E700BF0A2060430D4940188088E0
:10B230004404640C00BF0A2060430949085AA8422C
:10B24000E8D1002E03D00448058004480480FFF7AD
:10B250006BFD2046D9E70000202100201E210020A0
:10B26000C82E0020142100201821002070B50546AA
:10B2700001212846FFF7AEFF0446032C43D1834843
:10B28000008884B20CE000BF0A2060438049401867
:10B29000C0884404640C00BF032C01D1204670BD5B
:10B2A0000A2060437A494018C088C00B0028EAD1C0
:10B2B0000A2060430D520A20604340188088012113
:10B2C000C90388430A216143714A89188880002193
:10B2D0000A206043801841800A20604311464018CC
:10B2E000008902280FD00A21614389180989142294
:10B2F0005143684A8818FFF7DBFB02210A206043AC
:10B30000634A8018018161480068844225D0624800
:10B310000068844237D00A2060435D494018808825
:10B320004004400C0A21484359494018C088C00BCA
:10B33000C0030A216143564A8918C9884904490C47
:10B3400008430A216143891889884904490C0A2263
:10B3500051434F4A8918C88015E00A2060434C4980
:10B360004018C0884004400C484908600A206043E7
:10B37000474940188088C00BC003C01C0A216143A4
:10B38000434A891888804448006884425AD00A2079
:10B3900060433F494018C0884004400C03281FD038
:10B3A0000A2060434018C0884004400C0A214843EA
:10B3B000374940188088C00BC0030A216143344AD2
:10B3C000891889884904490C08430A21614389186E
:10B3D000C9884904490C0A2251432D4A891888809A
:10B3E0000A2060432A494018C088C00BC003C01C13
:10B3F0000A216143264A8918C8800A206043114601
:10B4000040188088C00BC003234909884904490CAF
:10B4100008430A216143891888801F4800680A216F
:10B42000484311464018C088C00BC0036104490C52
:10B430000843194909680A225143154A8918C880E6
:10B4400015480460144800680A2148431049401810
:10B45000C088C00BC003C01C0F4909680A225143B1
:10B460000B4A8918C880094800680A2148431146D8
:10B4700040188088C00BC003C01C044909680A2218
:10B480005143034A89188880204608E71821002084
:10B49000C82E0020E82E002014210020F8B5074611
:10B4A0000E461546032E01DB0720F8BD002D01D105
:10B4B0000E20FAE71748874201D11020F5E7FFF781
:10B4C00017FC00213846FFF785FE0446032C03D104
:10B4D000FFF72AFC0520E8E7002E02D0012E10D14C
:10B4E00007E00A2060430C494018C088C00B287050
:10B4F0000BE00A206043084940188088C00B287080
:10B5000003E0FFF711FC0720CFE700BFFFF70CFCBB
:10B510000020CAE7FFFF0000C82E0020F7B582B068
:10B520000E461546032E02DB072005B0F0BD664926
:10B530000298884201D11020F7E701210298FFF715
:10B5400049FE0446002E04D0012E1FD0022E6ED1DB
:10B5500039E0032C07D10298FFF788FE0446032C3C
:10B5600001D10420E1E70A20604358494018C0880F
:10B570000121C9038843E9030122D2031140084392
:10B580000A216143514A8918C88099E0032C07D1E8
:10B590000298FFF76BFE0446032C01D10420C4E798
:10B5A0000A2060434949401880880121C903884323
:10B5B000E9030122D203114008430A216143434AAF
:10B5C000891888807CE0002D18D0032C01D1002040
:10B5D000ABE70A2060433D4940180089022801D1A9
:10B5E0000020A2E70A216143384A891809891422F8
:10B5F0005143374A881804F023F95EE00020019097
:10B6000001A801F0F7F8002801D104208DE70020FF
:10B610000346024600900299019801F07DF9074621
:10B62000002F05D0019801F0DFF938467DE745E0AD
:10B63000032C04D1019800F0C9FC002075E70A2012
:10B64000604322494018008902280FD1FFF7B0F962
:10B650000A2161431D4A891808810A206043114666
:10B6600040180089022801D104205EE70A206043C7
:10B6700016494018008914214843154940180069AB
:10B68000002803D0019801F0AFF90AE00A206043D6
:10B690000E4A80180089142250430D4A80180199DF
:10B6A00001610A216143094A891809891422514319
:10B6B000074A881804F0C7F800BF01E0072034E704
:10B6C00000BF002031E70000FFFF0000C82E00206F
:10B6D000E82E002070B586B004460E4615460421BB
:10B6E00068460171048101A88671C571FFF77AFB74
:10B6F00006B070BD70B506460D46002D01D10E2076
:10B7000070BD0020286068601D48864201D110206D
:10B71000F6E7FFF7EDFA00213046FFF75BFD044640
:10B72000032C03D1FFF700FB0520E9E70A20604363
:10B7300014494018408828800A2060434018008936
:10B74000022818D00A2161430E4A89180989142257
:10B7500051430D4A8918086901F090F900280AD070
:10B760000A206043074940180089142148430649CC
:10B77000401800696860FFF7D7FA0020C0E70000B2
:10B78000FFFF0000C82E0020E82E0020F8B5074675
:10B790000E46002E01D10E20F8BD2A48874201D165
:10B7A0001020F9E701213846FFF714FD0446032C69
:10B7B00007D13846FFF75AFD0446032C01D1042077
:10B7C000EAE70A206043204940180589022D0BD181
:10B7D000FFF7EEF80546022D01D10420DCE70A2030
:10B7E000604319494018058103F0EAFB14216943BD
:10B7F000164A00908818009904F08CF831880A20C5
:10B800006043114A80184180142068430F49401852
:10B810000069002806D0142169430C4A8918086978
:10B8200001F0E2F8706801F029F90A206043064A45
:10B830008018008914225043044A801871680161FD
:10B840000020A9E7FFFF0000C82E0020E82E0020FE
:10B8500070B50546FFF74CFA284600F0AFF80446ED
:10B86000002C03D0FFF760FA204670BD002006E0F0
:10B870000022142141433E4BC9180A61401C022892
:10B88000F6D3002046E00022D2430A214143394B3F
:10B890005A5200220A214143C9184A800A214143D1
:10B8A0001A468918C9880122D20391430A224243C9
:10B8B000D218D1800A2141431A4689188988012269
:10B8C000D20391430A224243D218918002220A21D4
:10B8D0004143C9180A810A2141431A468918C98877
:10B8E000C90BC903421E5204520C11430A2242439F
:10B8F000D218D1800A2141431A4689188988C90B78
:10B90000C903421C5204520C11430A224243D2186A
:10B910009180401C0328B6D30020174908600220FC
:10B9200016490860144800680A2148431149401824
:10B93000C088C00BC003C01C0F4909680A225143CC
:10B940000C4A8918C8800D4800680A2148431146EE
:10B9500040188088C00BC003C01C084909680A222F
:10B960005143044A89188880FFF7DEF900207CE7FC
:10B97000E82E0020C82E00201421002018210020CD
:10B9800030B585B00446002C02D10E2005B030BD84
:10B99000022069460870029407480190204601F091
:10B9A0006DF86846FFF71EFA0546002D02D02046C6
:10B9B00001F01AF82846E9E7CDBF010010B50446AA
:10B9C0000748844202D30748844201D9072010BDAA
:10B9D00003220121C902204603F086FF0020F6E77A
:10B9E000881300000087930370B5054600260020E9
:10B9F000287000241FE014216143114A881803F0C5
:10BA000045FF002816D0142060430D4940180069F6
:10BA100000280FD02878002806D01420604308584A
:10BA2000801B0849884205D90120287014206043F2
:10BA300003490E58641C022CDDD3304670BD000053
:10BA4000E82E0020FFFFFF7FF8B506460F4610489E
:10BA5000864201D11020F8BD01213046FFF7BAFB24
:10BA60000446032C01D10520F5E70A20604309496B
:10BA700040180589022D01D10520ECE71421694306
:10BA8000054A8818394603F009FF0020E3E7000063
:10BA9000FFFF0000C82E0020E82E0020F8B5064663
:10BAA0000F461048864201D11020F8BD01213046D2
:10BAB000FFF790FB0446032C01D10520F5E70A208F
:10BAC0006043094940180589022D01D10520ECE7A2
:10BAD00014216943054A8818394603F0F3FE002013
:10BAE000E3E70000FFFF0000C82E0020E82E002042
:10BAF000F8B506460F461048864201D11020F8BD21
:10BB000001213046FFF766FB0446032C01D10520D6
:10BB1000F5E70A206043094940180589022D01D143
:10BB20000520ECE714216943054A8818394603F0DB
:10BB300009FF0020E3E70000FFFF0000C82E0020FF
:10BB4000E82E0020F7B582B00446154600260027EF
:10BB50005DE004E030480088801E2F4908802E48B0
:10BB600000880228F6DA2C480088142148432B4923
:10BB700040180069002844D02749098814225143FD
:10BB8000264A881803F082FE00283AD0224800880E
:10BB90001421484321490858201A2149884230D8A5
:10BBA000002101911C490988142251431B4A88181D
:10BBB000224601A903F0DCFE6846007900281FD068
:10BBC0001549098814225143144A8918086900F05C
:10BBD00055FF114800881421484310494018026954
:10BBE0003046761C8100039842502868B04207D145
:10BBF00009480088401C08490880002005B0F0BDB5
:10BC000000BF05480088401C034908807F1C022FA4
:10BC10009FD32E600020F1E722210020E82E002093
:10BC2000FFFFFF7FF8B529480078002800D1F8BD54
:10BC300027480068002801D1012000E000200546C7
:10BC400024480068002801D1012000E000200646B9
:10BC500000BF002D14D1684651DF0446052C01D1E8
:10BC600001250CE0002C06D000BF1B4A65212046B0
:10BC7000FDF790FD03E0164900980968884700BF6A
:10BC8000002E1AD1154800880090694614480068B3
:10BC900061DF0446052C01D101260DE0002C06D001
:10BCA00000BF0D4A7C212046FDF774FD04E00C48DE
:10BCB000006808490968884700BF002D02D0002E9F
:10BCC00000D000E0C5E700BF00BFB0E74021002082
:10BCD000502100204C2100204C020200482100206D
:10BCE000442100200C48008CC0B2012812D10A481F
:10BCF000808C0007000F00280CD10748806AF021D3
:10BD00000840402806D10448C06A0840002801D1F4
:10BD1000012070470020FCE7C00F00F01948008C9C
:10BD2000C0B201282CD11748808C0007000F0028D2
:10BD300026D11448806AF0210840002806D1114815
:10BD4000C06A0840002801D1012070470D48806A70
:10BD5000F0210840102806D10A48C06A084000288F
:10BD600001D10120F1E70748806AF021084030281E
:10BD700006D10448C06A0840002801D10120E4E748
:10BD80000020E2E7C00F00F0002906D1024615327C
:10BD900001239340044A936005E0024615320123D3
:10BDA0009340014AD36070470005005010B5044627
:10BDB000162001F0E9F910BD10B5044605480078D9
:10BDC000C007C00F002803D003480078FEF790F9A1
:10BDD00010BD0000342000202C200020FEB52B4890
:10BDE000006801902A480078009040E00098C00068
:10BDF000284909684418257835E0182068436168A7
:10BE00000F18681CC5B2A078A84200D10025387868
:10BE1000022802D0032823D10EE024217868484369
:10BE20001D4909684618307D002804D0786803F061
:10BE30004FF80020307514E00CE014490968242202
:10BE40005143154A12688818002101750F4A016A8A
:10BE5000116000BF0D480068401C0028EDD100E0D3
:10BE600000BF00BF00BF6078A842C6D100BF0098E5
:10BE7000411EC9B200910028B8D104480168019858
:10BE8000814201D00120FEBD0020FCE77C21002082
:10BE9000742100207821002070210020FEB5074683
:10BEA00043480068029043480078019071E001988F
:10BEB000C00041490968451863E0781C002807D094
:10BEC0003E46242070433D4909684418276A29E00A
:10BED0002978182359436A6850182978491C297011
:10BEE0002978AA78914201D100212970466824213D
:10BEF0007143324A12688C180178012902D1217DE0
:10BF0000002900D03DE08168A160C168E16001695D
:10BF100021614169E1612A490978002901D00021A4
:10BF2000A16000BF2749A0680968401A0002000A02
:10BF30002549884208D22349A068096802F03AFEE0
:10BF4000E1684018606011E01E48A168006802F0D6
:10BF500031FE0090E1680098814204D9E1680098C0
:10BF6000081A606001E00020606000BF0020A0604F
:10BF7000E06001202075801E2062304602F03AFF0A
:10BF800000BF781C002898D128786978884294D11D
:10BF900000BF0198411EC9B20191002887D1044811
:10BFA00001680298814201D00120FEBD0020FCE71B
:10BFB0007C210020742100207821002070210020A5
:10BFC0009521002080210020FFFF7F00FEB505465F
:10BFD0002E46304600F050FC0446002C29D0E07973
:10BFE000A1790002084369460880019661792279A7
:10BFF0000902114308460121FFF7ECF80746032F19
:10C0000009D00A2078430D494018408869460880C5
:10C01000684603F019FE68460088A071000AE071C6
:10C02000617922790902114308466946FFF7AEFBA0
:10C0300000BF304600F0D8FCFEBD0000C82E002036
:10C040008EB0FFF743F803F001FAFEF7CFFA0220B3
:10C0500000231A46194600901846FCF723FE00BF3D
:10C06000002348223749052002F016FC054600BF90
:10C070002E46002E06D000BF33A2FF21D531304618
:10C08000FDF788FB00BF00BF324802F0F9FB3248E1
:10C0900002F036FC00F0ABF83048099064200B90B9
:10C0A000262108A8017205200C90002108A801751E
:10C0B0000D98009009A80FC801F01AFD044600BFB2
:10C0C0002546002D06D000BF1FA2FF21E9312846DA
:10C0D000FDF760FB00BF002510E0A8B201F01CFED8
:10C0E000044600BF2646002E06D000BF16A2FF2140
:10C0F000EF313046FDF74EFB00BF6D1C022DECD337
:10C1000000F0F6FD00BF00F0A8F80546002D06D0AF
:10C1100000BF0DA2FF21F5312846FDF73BFB00BF14
:10C12000FDF7D0FAFDF778FC0AE002A801F054FC14
:10C13000002805D102A801F065FC02A801F0B8FCB6
:10C14000F3E70000C82400202E2E5C6D61696E2E7E
:10C1500063000000E9DF010061DC0100D6BE898ECA
:10C16000F8B505460E4614462879801CC7B22078DB
:10C17000801CC0191F2801DD0C20F8BD781CC1B23D
:10C180002278501C2070B154FF212278501C20705E
:10C19000B15422789119288803F072FC2178401854
:10C1A0002070A88800280EDDA868002801D107208B
:10C1B000E3E7AA8823789819A968FCF729F9207879
:10C1C0002979401820700020D7E700B589B002E037
:10C1D00001A801F012FF01A802F0AEF90028F7D182
:10C1E00009B000BD10B50446FFF7EFFF10BD10B554
:10C1F000FEF7B0FD02F0F8F910BD10B588B00446A6
:10C20000207800280ED0012804D0022806D0042867
:10C2100010D10BE0B520694648700CE0B3206946A8
:10C22000487008E0B4206946487004E0B6206946CA
:10C23000487000E000BF00BF207BC01CC1B2684650
:10C240000170A1884180227B01A8A168FCF7E0F879
:10C25000684602F0A3F908B010BD00B589B004210A
:10C260006846017181214171022181713DDF082100
:10C2700000980840C10801A8C17002F087F9C1B256
:10C2800001A8017102F08AF9002802D1042009B046
:10C2900000BD0020FBE7704730B587B004460D466F
:10C2A0001121684601704470857000F003F807B0F2
:10C2B00030BD000030B587B00446254800882549C8
:10C2C000884202D1244807B030BD24488078002835
:10C2D00002D12148401EF6E706A862DFC5B2002D54
:10C2E00001D01120EFE76846007E002802D11A48ED
:10C2F000801CE8E719488189684601810121817223
:10C3000000218181207802280FD004DC002807D08A
:10C31000012811D108E011280BD012280CD105E01A
:10C32000E078001D01900AE000BF00BF05200190E9
:10C3300005E00320019002E00120019000BF00BF52
:10C3400001A80490059402A901480088A6DFBAE775
:10C35000E2200020FFFF000002300000D026002075
:10C36000F0B585B005460E4617460195029768461A
:10C3700006730121817012490180124A6946012029
:10C38000A0DF0446002C02D0032005B0F0BD0E490A
:10C390000E4863DF0446002C01D02046F5E701A8D3
:10C3A00000F082F90446002C01D02046EDE700F0B1
:10C3B000D3FB0446002C01D02046E6E70020E4E74A
:10C3C000E4FE0000D0260020E0200020140202003D
:10C3D000F0B589B00546288850287DD1E8889B496A
:10C3E0008989884279D12C4620342078002804D0CD
:10C3F000012841D0022871D190E0A178627808022A
:10C4000010439349884204D12078F221FFF744FF7A
:10C41000ECE0E278A3786778190239430846211DD9
:10C4200003F054FC0646002E21D169460872201DF7
:10C430000490E17802A80173A178627808021043A1
:10C4400069468881012102A8C18202F0B9FD0890E5
:10C4500002A801F0F5FA002804D02078F021FFF7B7
:10C460001BFF03E020788021FFF716FF03E0207810
:10C47000F021FFF711FFB9E0E078002802D0012891
:10C4800045D118E02279002A01D0012200E00022E3
:10C490001146A37866781802304303F081FE002825
:10C4A00004D02078F221FFF7F7FE35E020788021D4
:10C4B000FFF7F2FE30E02079002815D0A2786378EB
:10C4C00011021943084603F0D1FD002807D0207857
:10C4D000F221FFF7E1FE1FE0A8E089E081E020788B
:10C4E0008021FFF7D9FE11E0A27863781102194389
:10C4F000084603F09DFD002804D02078F221FFF7C4
:10C50000CBFE09E020788021FFF7C6FE04E020780A
:10C51000F321FFF7C1FE00BF00BF67E0E07800280D
:10C5200002D0012856D131E0A17862780802104388
:10C530004749884204D12078F221FFF7ADFE4EE052
:10C5400000200890A278637811021943084608A9D0
:10C5500003F008FE002804D02078F121FFF79CFEAC
:10C560003DE0122168460171A1786078090201431B
:10C5700068464171090A8171E17801A8C17008A873
:10C58000017801A80171FFF795FE28E0A278637891
:10C5900011021943084608A903F0BEFD002804D083
:10C5A0002078F221FFF778FE19E012216846017128
:10C5B000A17860780902014368464171090A8171D6
:10C5C000E17801A8C17008A8017801A80171FFF7FE
:10C5D00071FE04E02078F321FFF75EFE00BF00BF8C
:10C5E00004E02078F421FFF757FE00BF00BF2BE0E6
:10C5F000E88816498988884209D12C462034217A56
:10C60000206802F087FA606803F094FB1CE0E98878
:10C610000E48008A814217D12020405D002801D0B9
:10C62000012000E00020094988700DE028881028CA
:10C6300003D1A8880749088006E02888112803D17B
:10C640000020C0430349088009B0F0BDD026002077
:10C65000FFFF0000E220002070B588B005460E46BE
:10C660001446172C02DD092008B070BD0B48008865
:10C670000B49884210D00021684601714571290A92
:10C68000817101A8C4702246314602A8FBF7C0FEA2
:10C6900001A8FFF70FFEE7E70248E5E7E2200020E8
:10C6A000FFFF00000230000030B593B004460020C8
:10C6B000129000BF10A8007A01090901491C10A8B6
:10C6C0000172007AF0218843103010A9087200BF6F
:10C6D00000BF10A8407A01090901491C10A8417245
:10C6E000407AF0218843103010A9487200BF10A88A
:10C6F000807A06218843811C10A881721C210BA816
:10C70000FBF7E5FE08A8007B02218843811C08A8EE
:10C710000173007B10218843411808A80173002091
:10C720000E9012A8109000200C900F900A9008A86C
:10C73000007AF02188430146103108A80172007A7E
:10C7400001090901491C08A80172407AF0218843B7
:10C750000146103108A84172407A01090901491CBB
:10C7600008A84172807A08218843014608A881728E
:10C77000807A10218843014608A88172807A410896
:10C78000490008A88172807A06218843811C08A884
:10C7900081721648017808A8817104216846818455
:10C7A0002068069060680790217A08A8017014211B
:10C7B00001A8FBF78CFE0921684681810021C18117
:10C7C0000921018209A8019006A805900AA80290F3
:10C7D000074908880B1D01AA0BA9A2DF0546002DF9
:10C7E00002D0032013B030BD0020FBE7E020002082
:10C7F000D026002070B50546002119E0EFF3108027
:10C80000C407E40F72B61148405C00280CD1012027
:10C810000E4A5054282048430D4A80182860002CA6
:10C8200000D162B6012070BD002C00D162B6491C57
:10C830001D29E3D300BF042600BF06A24421042023
:10C84000FCF7A8FF00BF00BF0020ECE7A82E0020E7
:10C85000202A00202E2E5C2E2E5C2E2E5C7262630F
:10C860005F6D6573685C7372635C6D6573685F7040
:10C8700061636B65742E63000246002A00D1704725
:10C88000114609315078062802DD5078252801DD4F
:10C890000020F4E70FE00B7810460930081A1B1847
:10C8A0005078801F834201D90020E8E70878401CB7
:10C8B0004301181A091848781628ECD1C8788B78E3
:10C8C00000021843024B9842E5D10846D7E7000022
:10C8D000E4FE000030B504462046FFF7CDFF0546D4
:10C8E000002D01D10B2030BD2046093085420ED0ED
:10C8F0002878401CC1B2002004E02B5C224609329B
:10C900001354401C8842F8D32546093500BF2878C7
:10C91000C01D60700020E6E7FFB581B005461F46E8
:10C920000A9E002D02D10E2005B0F0BD2C46093420
:10C93000172E01DD0920F7E7284600F0E3F830461E
:10C940000E306870287800090001801C2870F01DE6
:10C950002070162060700D48A070000AE0700298E8
:10C960002071000A60710398A071000AE071002E26
:10C9700009DD002F07D0172E05DC32463946204648
:10C980000830FBF745FD0020CEE70000E4FE000084
:10C9900002461146093110E04878162806D1C878B9
:10C9A0008B7800021843094B984201D00120704750
:10C9B0000878401C4301181A09185078C01F134604
:10C9C0000933C0188842E7D80020F0E7E4FE0000F1
:10C9D000002003E00021034A1154401C1D28F9D314
:10C9E00070470000A82E0020F8B506461849701AB6
:10C9F0002821FBF787FD04461D2C01D30020F8BD3C
:10CA0000EFF31080C507ED0F72B61248005D0028E5
:10CA10000ED100BF082700BF0FA276210820FCF727
:10CA2000B9FE00BF00BF002D00D162B60020E6E7CE
:10CA30000848005D401E07490855002D00D162B628
:10CA40000448005D002801DD0120D8E70020D6E77A
:10CA5000202A0020A82E00202E2E5C2E2E5C2E2EAA
:10CA60005C7262635F6D6573685C7372635C6D6555
:10CA700073685F7061636B65742E6300F8B505467B
:10CA80001549681A2821FBF73DFD04461D2C01D3EA
:10CA90000020F8BDEFF31080C607F60F72B60F48FE
:10CAA000005D002803D00D48005DFF2809D100BFBC
:10CAB000042700BF0AA262210420FCF76BFE00BF1E
:10CAC00000BF0648005D401C04490855002E00D1F7
:10CAD00062B60120DDE70000202A0020A82E0020F9
:10CAE0002E2E5C2E2E5C2E2E5C7262635F6D657343
:10CAF000685C7372635C6D6573685F7061636B65BE
:10CB0000742E63007CB50446684671DF0546002D2F
:10CB100001D028467CBD20784021884369460978A9
:10CB200089014022114008432070062200A90131EA
:10CB3000E01CFBF76DFC0020ECE710B50446204636
:10CB4000FFF726FF002802D02046FFF7C3FE20464D
:10CB5000FFF7D8FF10BD000010B590B01C2109A848
:10CB6000FBF7B5FC08A8007904218843011D08A83B
:10CB70000171007910218843411808A80171002033
:10CB80000E900F900A900D90089008A84078F02120
:10CB900088430146103108A8417040780109090115
:10CBA000491C08A84170807806218843811C08A888
:10CBB0008170807808218843014608A881708078B8
:10CBC00010218843014608A88170807841084900F7
:10CBD000491C08A8817014480178684681770521AE
:10CBE000818300210191142102A8FBF770FC01212F
:10CBF00068460182002141821B21818208A803909E
:10CC000007A8029001A80690084908880B460C3333
:10CC100002AA09A9A2DF0446002C02D0032010B00A
:10CC200010BD0020FBE70000E0200020D0260020FF
:10CC3000F7B584B004460F4606980678B01C1F2846
:10CC400003DC6078801C1F2802DD0C2007B0F0BDDB
:10CC50001F20801B801E85B20295B11C781802A986
:10CC60007DDF03900398002801D00398EEE7207839
:10CC7000022808D168460089A84204DC09200190F6
:10CC8000684605890BE0082001906078002804D0F0
:10CC90006078A84201DC657801E068460589681C77
:10CCA000C2B23046711CCEB23A543046721CD6B273
:10CCB0000199395406980178A81C0818C1B2069841
:10CCC00001700020C2E710B504462088F02108401A
:10CCD000102802D0502808D103E02046FCF7CCFFF2
:10CCE00004E02046FCF7FEFF00E000BF00BF10BDDF
:10CCF00070B596B00020159010A9087414A860DFD4
:10CD00000446002C0DD0082C0BD000BF2646002E68
:10CD100006D000BF32A296213046FCF73BFD00BF93
:10CD200000BF062530213348FBF7D1FB3148C570E1
:10CD300002203049087030480068139011A871DF54
:10CD4000044600BF2646002E06D000BF24A2A9211B
:10CD50003046FCF71FFD00BF00BF11A8407900025C
:10CD600011A989790843024624A101A8FBF75AFAC0
:10CD700001A8FBF72BFB86B2324601A913A87CDF82
:10CD8000044600BF2646002E06D000BF14A2B021E4
:10CD90003046FCF7FFFC00BF00BF00211548FCF740
:10CDA0002EFF044600BF2646002E06D000BF0CA270
:10CDB000B4213046FCF7EEFC00BF00BF134873DF20
:10CDC000044600BF2646002E06D000BF04A2B821AC
:10CDD0003046FCF7DFFC00BF00BF16B070BD00009E
:10CDE0002E2E5C6E72665F6164765F636F6E6E2E70
:10CDF0006300000010250020D40102007262635F0E
:10CE00006D65736820232564000000000C2000205D
:10CE100070B504460D4629462046FBF79DFE00BF2F
:10CE2000E106C90E012088400549086000BF00BF27
:10CE3000E106C90E012088400249086000BF70BDAC
:10CE400080E200E000E100E0FEB505460E4628461F
:10CE500000F03CFA002822D02846FDF739FC001FDC
:10CE6000009000F01FFA0746BC11032C0CD100BF44
:10CE70001F4800690121A9400840002801D0032073
:10CE800000E00220019005E0012C01D1022000E029
:10CE9000032001902846019900F042F927E0284636
:10CEA00000F020FA002822D02846FDF711FC0446A5
:10CEB000A000FF30013087B220460E4951221201F6
:10CEC000891882008958012211430A4A51231B0103
:10CED000D2188300D15000BF384600F06DF9002E03
:10CEE00004D00121A140084600F07AF900BFFEBD40
:10CEF0000005005000600040F7B582B004460E46C1
:10CF000000200190204600F0D3F9002802D008202C
:10CF100001905FE0F27820460499FDF79DFB0546FD
:10CF2000681C002853D0B078002810D000BFA100A2
:10CF30002A4A8918096802229143084605210907EF
:10CF4000072212028918A200885000BF0AE07078F8
:10CF500081000522120707231B02D218A300D1501B
:10CF600000BF00BFF078002826D037781C48512138
:10CF700009014018A90040581A490840184951228F
:10CF800012018918AA00885015485121090140183A
:10CF9000A900415820021F22120210403A04032324
:10CFA0001B041A40104301430D48512212018018FE
:10CFB000AA00815000BF0CE0281F0B49085C3178A3
:10CFC0008901084342B2281F07490A5401E004209E
:10CFD000019000BF019805B0F0BD000000070050AF
:10CFE00000600040FFE0FCFF642F0020014600BF0E
:10CFF00005480069C840C007C00F002801D00120C3
:10D0000070470020FCE700000005005010B51248F2
:10D010000078002801D0082010BD002404E020463C
:10D0200000F070F9601CC4B2202CF8DB002404E08E
:10D030002046FDF7F9FA601CC4B20C2CF8DB012184
:10D040000620FFF7E5FE0120C00700F0C9F8012027
:10D05000014908700020DFE7102F00200348007806
:10D06000002801D0012070470020FCE7102F00208D
:10D0700001468800FF30413080B27047F8B5044661
:10D080000F46002529E02846FFF7F2FF0646204616
:10D0900031464258002A01D0012200E00022002A35
:10D0A0001AD001200004A840032109026118496830
:10D0B0000140002901D0012100E0002100290BD00E
:10D0C0003146204600F092F8B800054B1958B800D8
:10D0D000044B1A58304690476D1C042DD3D3F8BD2D
:10D0E000382100203021002010B58A0005231B07BD
:10D0F000072424021B1984001A5110BD03210522A4
:10D10000120707231B02D2188300D1507047032156
:10D110000522120707231B02D2188300D150704743
:10D1200010B50522120707231B02D2188300D2581C
:10D1300003231B049A4305231B07072424021B19FE
:10D1400084001A510522120707231B02D2188300FC
:10D15000D2580B041A4305231B07072424021B196A
:10D1600084001A5110BD000001218140014AD160A4
:10D17000704700000005005001218140014A916084
:10D180007047000000050050012383401946064BFC
:10D190005B68C340DA07D20F002A02D1024B9960C4
:10D1A00001E0014BD960704700050050014601487D
:10D1B000081870470060004010B504462046FFF78D
:10D1C000F5FF0021016010BD10B504462046FFF7B1
:10D1D000EDFF0068012800D110BD0020FCE7000031
:10D1E000014948607047000000630040002242503F
:10D1F0007047000038B505466846FEF7F5FB044663
:10D2000068460078002800D138BD7D20C00028186D
:10D21000844203D2204602F093FD08E021460548EF
:10D2200002F010F8002802D0204602F089FD00BF6D
:10D23000EAE700000C2A00201CB502216846417173
:10D240000948017968468171FFF7D4FA002800D1B6
:10D250001CBD684600F0FAF9002802D00098FFF7DC
:10D26000C3FB00BFF4E70000E420002070B50446D3
:10D270000D46002C05D0002D03D020782978884257
:10D2800001D0012070BD2078C21F294608312046F8
:10D290000830FBF747F8002801D00120F2E7002012
:10D2A000F0E7000001460148405C7047642F002011
:10D2B000014605484056C017401C002801D00120F7
:10D2C00070470020FCE70000442F0020014604487E
:10D2D0004056042801DB012070470020FCE70000D5
:10D2E000442F0020014606484056002805DB04482C
:10D2F0004056042801DA012070470020FCE70000B6
:10D30000442F00200022D24301490A5470470000F4
:10D31000442F00207CB51648FDF7C6FD044622E0E8
:10D3200069461348FDF7EAFD00281AD1684640799E
:10D33000022816D100210E48FDF71CFE00F04CF823
:10D3400000BF0C4800690028FBD10B49C86064236A
:10D350000022D2430021094D00982D68A847641E81
:10D3600000E002E000BF012CDAD800BF7CBD000065
:10D370004426002040150040001100406820002095
:10D380000149086070470000702000200EB50A288F
:10D3900004DC4100091D0E4A916013E0242804DCDE
:10D3A0004100891D0A4A91600CE00A4B0ECB0293A2
:10D3B000019200910146253989006A465158044A74
:10D3C000916000BF4106490E014A403251610EBDD5
:10D3D0000015004008020200002007490860401EB6
:10D3E0000649886001200649086102200549087045
:10D3F00000BF00BF70470000001200400013004053
:10D400000010004060200020FEB53048C0680028B1
:10D4100043D02F480068002801D0012000E0002000
:10D4200002902B48C56864262848C069002805D0AA
:10D4300000202649C86127488068C6B200202349D9
:10D44000C86069462448FDF795FD044600BF27469D
:10D45000002F07D000BF21A2FF2149313846FCF739
:10D4600099F900BF00BF68464079012803D068469B
:10D470004079022807D133462A46224F0299009864
:10D480003F68B84703E0204900980968884700BF13
:10D4900000BF02201D49087001E0FFF73BFF1B4859
:10D4A0000078022803D01948007803280DD101A97B
:10D4B0000948FDF723FD002803D101A801F062F916
:10D4C00002E013480068804700BFFEBD0011004025
:10D4D0000014004040150040442600202E2E5C2EF3
:10D4E0002E5C2E2E5C7262635F6D6573685C737276
:10D4F000635C726164696F5F636F6E74726F6C2ED0
:10D5000063000000682000206C20002060200020C4
:10D510006420002010B503484079002801D1FFF7AE
:10D520008BFE10BDE420002070B504460D46164663
:10D5300000203549C8630120C86300203349C86012
:10D54000032008610220886025203049403148616D
:10D550008E202E4948622E48C8612E480068000E71
:10D5600088622C4800680002000A0002086200205D
:10D57000C862012008632848486128488861284813
:10D580008863FF20043048632648C86394201F49FD
:10D59000403148602448007803280BD108202349F3
:10D5A00088602348086008204860002048610846D9
:10D5B000FDF77FFC02201C49087000201D49C8604F
:10D5C0000120012181401C4A116000BF00BF0121E0
:10D5D00081401A4A116000BF19480460194805606B
:10D5E000194806601148FDF775FC002803D014485F
:10D5F0000068804706E001F0E9FF002802D0012022
:10D60000FBF70AFA70BD0000C01F00400015004083
:10D6100000D6BE897020002006010200250003020A
:10D620005B06000055555500602000204426002070
:10D630005C2600200011004080E200E000E100E0F4
:10D6400064200020682000206C20002070B5044673
:10D65000002C01D10E2070BD6079002804D1207902
:10D66000012801DD1020F6E721460C48FDF7B3FC48
:10D67000002801D00420EEE7EFF31080C507ED0F7E
:10D6800072B601F0A3FF002802D00120FBF7C4F915
:10D69000002D00D162B60020DDE700004426002006
:10D6A00070B5044601206D4908706D480078012866
:10D6B00002D0022814D109E002206A490870002033
:10D6C0006949086001F00EFF664870BD674802F0C6
:10D6D0008DF901F007FF0020614908706148F4E707
:10D6E00000BF00BF00205F4908702300FBF7FAFE6F
:10D6F00005043A377E3D8E0001205D490870002008
:10D700005C4908705C49086001F00EF9FDF756FBB2
:10D710005A48006801F07AFC01F05AF95348584918
:10D72000086001F0E9FF574909684618FDF780FADB
:10D73000351A0323544A2946002001F039FD504888
:10D74000006802F037F948480068401C4649086004
:10D75000002803D108460068401C086062E0FFF71B
:10D7600053FE5FE001F0B0FA5CE0464800684749CC
:10D7700009684018434908600020444908603E4851
:10D780000068401C3C490860002001F057FA01F095
:10D79000B3FF3C4909684618FDF74AFA351A0323D6
:10D7A000394A2946002001F003FD00202D49087068
:10D7B0002D48006801280CD13248006830490968BA
:10D7C00040182A49884210D22D48006802F0F2F829
:10D7D0000BE02C4800682A49096840182C49884207
:10D7E00003D22748006802F0E5F81BE024480068EF
:10D7F000400823490860084600687D21C900884226
:10D8000003D91F48006802F0D5F80BE000BF0025DF
:10D8100000BF20A2FF215F310020FBF7BBFF00BF4C
:10D8200000BF00BF00BF13480078002805D00F4894
:10D8300002F0DCF801F056FE0BE00A4800780128FF
:10D8400004D1084840681149086002E000200F49EF
:10D850000860002001490870024836E7AC2000202B
:10D86000B020002098200020B820002010270000C1
:10D87000AD200020AF200020CC200020A4200020DC
:10D88000A8200020A020002025AC0100C8200020F6
:10D89000809698002E2E5C2E2E5C2E2E5C7262637B
:10D8A0005F6D6573685C7372635C74696D65736CDE
:10D8B0006F742E6300000000F8B507460D46002483
:10D8C0001AE000BF684639DF684600780028F9D0C2
:10D8D000281B69460978884202D2281BC0B20090F2
:10D8E0003819694609783ADF0646002E01D0032030
:10D8F000F8BD684600782418AC42E2D30020F7E770
:10D9000001460879C0064B685B0918430B681A1A70
:10D91000088940048B68DB0B18434B68584008604B
:10D92000CB688868C0184860C86880188860086834
:10D930008018C860C8687047F8B504460020009099
:10D9400004216846FFF7B8FF0546002D01D02846A0
:10D95000F8BD09482060009860600098A0600098B9
:10D96000E060002603E02046FFF7CAFF761C142E75
:10D97000F9D30020ECE70000ED5EEAF1014605482E
:10D980000078002801D1082070470348006808602B
:10D990000020F9E7502000205420002010B5044654
:10D9A00004480078002800D110BD2046FEF710FD85
:10D9B00000BFF9E750200020014605480078002804
:10D9C00001D1082070470348007808700020F9E76B
:10D9D000502000205820002010B504460748007849
:10D9E000002801D1082010BD21460548FDF7C2FAE4
:10D9F000002801D00520F6E70020F4E750200020A1
:10DA00004C25002010B5044620780300FBF76AFD82
:10DA1000050604051110140000BF00BFA0880128EE
:10DA200000DD0AE0A26811782079FEF7ADF904E084
:10DA300003E0FFF75DF900E000BF00BF10BD00008C
:10DA400070B5044618480078002801D1082070BD40
:10DA5000002C01D10E20FAE721461448FDF7BBFA4D
:10DA60000546002D1ED1A06800281BD02078002874
:10DA700007D0012806D0022802D0042810D108E0DF
:10DA800000BF00BFA068002802D0A068FEF7F6FF24
:10DA900007E0A068002802D0A068FEF7EFFF00E0D2
:10DAA00000BF00BF2846D2E7502000204C250020B0
:10DAB00010B504462078002806D0012806D0022898
:10DAC00003D0042810D108E000BF00BFA0680028E0
:10DAD00002D0A068FEF788FF07E0A068002802D007
