:020000040001F9
:1080000028430020D1810100E3810100D9890100CA
:108010000000000000000000000000000000000060
:10802000000000000000000000000000E7810100E7
:108030000000000000000000E9810100EB81010068
:10804000ED810100ED810100B1900100ED810100A1
:10805000ED8101000000000051880100ED81010068
:10806000ED810100A1900100ED810100ED81010091
:10807000ED810100ED810100ED810100ED81010044
:10808000459101009D8C0100698C0100ED8101008A
:1080900025900100ED8101002D900100ED8101008E
:1080A000ED810100ED8101000000000000000000F2
:1080B00000000000000000000000000000000000C0
:1080C00000F002F800F038F80CA030C80838241886
:1080D0002D18A246671EAB4654465D46AC4201D100
:1080E00000F02AF87E460F3E0FCCB64601263342FA
:1080F00000D0FB1AA246AB4633431847ECA200005F
:108100000CA300000023002400250026103A01D310
:1081100078C1FBD8520700D330C100D50B6070473F
:1081200010B5642902D100F0D7F810BD002010BDB1
:108130001FB51FBD10B510BD00F02DFB1146FFF798
:10814000F7FF04F011FE00F045FB03B4FFF7F2FF68
:1081500003BC00F04BFB0000401E00BF00BF00BF8F
:1081600000BF00BF00BF00BF00BF00BF00BF00BF17
:1081700000BFF1D170470000401E00BF00BF00BF2C
:1081800000BF00BF00BF00BF00BF00BF00BF00BFF7
:1081900000BFF1D17047000070B505460C46164689
:1081A00002E00FCC0FC5103E102EFAD2082E02D3DB
:1081B00003CC03C5083E042E07D301CC01C5361FEE
:1081C00003E021782970641C6D1C761EF9D270BD05
:1081D0000A48026803210A430260094880470948A7
:1081E0000047FEE7FEE7FEE7FEE7FEE7FEE70000EA
:1081F00005480649044A064B704700002405004024
:1082000069900100C1800100283B00202843002024
:10821000283B00204343514330B55C18010C130C3C
:108220000D4692B25D4380B251432C190546554329
:108230000A0C09044D1962415843010C000440190D
:10824000514130BD0FB41CB5074B06AA7B446946AB
:108250000090059800F073FA0020694600F082FA59
:108260001CBC08BC04B0184715050000F8B50E4644
:108270000446002020622046E1688847002829D073
:10828000252802D06268A16820E0E1682046002726
:10829000884705001ED028464138192802D80127F2
:1082A000FF0220353246204627602946FFF738FF77
:1082B000002808D0012804D0F61DF608F60008367C
:1082C000D9E7361DD7E762682846A1689047206A3B
:1082D000401CCFE7206AF8BDF7B500257529106866
:1082E000009914A611D0C046C046002802DA4042C8
:1082F00011A608E0009909688A0701D50FA602E0D7
:10830000490704D50EA6012501E0C046C046009FDE
:108310000024243704E000F02AFA30313955641C77
:108320000028F8D12B4632462146009800F0AAF9E1
:10833000FEBD0000000000002D0000002B0000002A
:1083400020000000034610B50B439B070FD1042A01
:108350000DD308C810C9121FA342F8D018BA21BA09
:10836000884201D9012010BD0020C04310BD002A61
:1083700003D0D30703D0521C07E0002010BD0378C0
:108380000C78401C491C1B1B07D103780C78401C3F
:10839000491C1B1B01D1921EF1D1184610BD0000D3
:1083A000034670B502460B439B070FD10E4CE60106
:1083B00000E008C208C91D1B9D433542F9D0D9B25F
:1083C0001170521C00290DD01B0AF8E70B78491CCC
:1083D0001370521C002B05D00B78491C1370521CD3
:1083E000002BF3D170BD00000101010130B5441C28
:1083F00003E00178401C00290DD08107F9D10B4B17
:10840000DD0104C8D11A91432940FAD0001B0A06A5
:1084100003D0C01E30BD001B30BD0A0401D0801E39
:1084200030BD0902FCD0401E30BD00000101010139
:10843000F8B5042A2CD3830712D00B78491C03709B
:10844000401C521E83070BD00B78491C0370401C44
:10845000521E830704D00B78491C0370401C521E27
:108460008B079B0F05D0C91ADF002023DE1B08C92C
:108470000AE0FFF791FEF8BD1D4608C9FD401C4605
:10848000B4402C4310C0121F042AF5D2F308C91AB5
:10849000521EF0D40B78491C0370401C521EEAD4C3
:1084A0000B78491C0370401C012AE4D40978017040
:1084B000F8BD01E004C0091F0429FBD28B0701D5D8
:1084C0000280801CC90700D00270704700290BD0C1
:1084D000C30702D00270401C491E022904D383073F
:1084E00002D50280801C891EE3E70022EEE700220D
:1084F000DFE70378C2781946437812061B02194356
:108500008378C0781B04194311430902090A000645
:1085100008437047020A08704A70020C8A70020E03
:10852000CA707047002203098B422CD3030A8B4286
:1085300011D300239C464EE003460B433CD400225B
:1085400043088B4231D303098B421CD3030A8B426D
:1085500001D394463FE0C3098B4201D3CB01C01A3B
:10856000524183098B4201D38B01C01A5241430906
:108570008B4201D34B01C01A524103098B4201D3F4
:108580000B01C01A5241C3088B4201D3CB00C01A61
:10859000524183088B4201D38B00C01A52414308D9
:1085A0008B4201D34B00C01A5241411A00D20146FE
:1085B0005241104670475DE0CA0F00D04942031097
:1085C00000D34042534000229C4603098B422DD3E6
:1085D000030A8B4212D3FC22890112BA030A8B428E
:1085E0000CD3890192118B4208D3890192118B42DD
:1085F00004D389013AD0921100E08909C3098B4262
:1086000001D3CB01C01A524183098B4201D38B01A4
:10861000C01A524143098B4201D34B01C01A524147
:1086200003098B4201D30B01C01A5241C3088B428C
:1086300001D3CB00C01A524183088B4201D38B0077
:10864000C01A5241D9D243088B4201D34B00C01A01
:108650005241411A00D20146634652415B10104616
:1086600001D34042002B00D54942704763465B105E
:1086700000D3404201B50020C046C04602BD70474D
:1086800070477047FFB504460D4681B02430009016
:108690002168880604D51022E0699143216000E03A
:1086A0000120A84201DD471B00E000270498A169D2
:1086B0007A191018081AA0612078C00602D4204642
:1086C000C046C046002608E003986268A168805D45
:1086D0009047206A401C761C206204988642F3DB97
:1086E0002078C0060AD52046C046C04606E062682B
:1086F000A16830209047206A401C206238467F1EC7
:108700000028F4DC07E000986268A168405D9047AB
:10871000206A401C206228466D1E0028F3DC20469B
:10872000C046C0462078000602D5022005B0F0BD44
:108730000120FBE701694A1C02610878704700B517
:108740008FB002910021059105490193794403916D
:10875000114604906846FFF789FD0FB000BD000088
:10876000E5FFFFFF0A681070521C0A60704701465F
:108770008008081A02091018020A1018020C1018B2
:10878000C008820012185200891A01E0401C0A3900
:108790000A29FBD27047754600F024F8AE46050062
:1087A00069465346C008C000854618B020B5FFF79B
:1087B0001FFD60BC00274908B6460026C0C5C0C5DD
:1087C000C0C5C0C5C0C5C0C5C0C5C0C5403D4900C5
:1087D0008D46704710B50446C046C0462046FFF798
:1087E000B4FC10BD00487047C43A0020014918206D
:1087F000ABBEFEE726000200704770B58C18057806
:10880000401C6B075B0F01D10378401C2A1106D175
:108810000278401C03E00678401C0E70491C5B1E69
:10882000F9D12B0705D40023521E0DD40B70491C1F
:10883000FAE70378401CCB1A921C03E01D780D70F8
:10884000491C5B1C521EF9D5A142D8D3002070BD33
:10885000F0B587B0002600200690FF20013005907B
:108860000125002417E0059805F0FEFC00280CD037
:108870000120A040554949680140002905D00598CC
:1088800005F0EAFC3046284306466D000598001DB9
:1088900080B20590641C042CE5D3FF207D3005F0E8
:1088A000E3FC00280AD0FF207D3005F0D5FC012034
:1088B000C007064300BF4648006906903007000F16
:1088C00000282AD00125002425E028463040002831
:1088D0001FD000BF3F48512109014018A100405856
:1088E0001F2109020840000A049000BF39485121A5
:1088F00009014018A1004058032109040840000C58
:108900000390204602F0BCF9074603990498B84743
:1089100000BF6D00641C042CD7D3F00FC0070028E3
:1089200052D000244EE0204605F034FD0490C021D2
:10893000049888430746049808408011039001205A
:10894000B8400546384605F039FD002839D038468C
:1089500002F0DAF9019002F093F9029002980028EF
:108960002ED000BF05200007072109024018B900DA
:108970004058032109040840000C01900698284043
:10898000002802D00198022806D006982840002826
:1089900015D10198032812D1039803280BD101980F
:1089A000022801D1032000E00220009038460099FF
:1089B00005F006FC00BF3846029A0399904700BFB5
:1089C00000BF641C082CAED307B0F0BD00630040AC
:1089D000000500500060004002A1002000F008FAED
:1089E00002F040FD486172644661756C745F4861D5
:1089F0006E646C65722E0D0A20200000C206D20E35
:108A000001219140014A11607047000080E200E0BE
:108A1000C206D20E01219140014A11607047000048
:108A200000E100E0C206D20E01219140014A11602E
:108A30007047000000E100E0C206D20E0121914023
:108A4000014A11607047000000E200E0C206D20E49
:108A500001219140014A11607047000000E200E0EE
:108A6000C206D20E01219140014A116070470000F8
:108A700000E200E0C206D20E01219140014A1160DD
:108A80007047000000E200E010B5002819DA1A4A29
:108A900003071B0F083B9B089B00D2588307DC0E83
:108AA000FF23A3409A438B071B0E8407E40EA340C9
:108AB0001A43114B0407240F083CA408A4001A51C0
:108AC00018E00E4A03231B02D21883089B00D258D9
:108AD0008307DC0EFF23A3409A438B071B0E8407FA
:108AE000E40EA3401A43054B032424021B198408F7
:108AF000A4001A5110BD00001CED00E000E100E0F0
:108B000010B5002819DA1A4A03071B0F083B9B0807
:108B10009B00D2588307DC0EFF23A3409A438B07A8
:108B20001B0E8407E40EA3401A43114B0407240FC5
:108B3000083CA408A4001A5118E00E4A03231B02A3
:108B4000D21883089B00D2588307DC0EFF23A34072
:108B50009A438B071B0E8407E40EA3401A43054B70
:108B6000032424021B198408A4001A5110BD00001C
:108B70001CED00E000E100E010B5002819DA1A4A07
:108B800003071B0F083B9B089B00D2588307DC0E92
:108B9000FF23A3409A438B071B0E8407E40EA340D8
:108BA0001A43114B0407240F083CA408A4001A51CF
:108BB00018E00E4A03231B02D21883089B00D258E8
:108BC0008307DC0EFF23A3409A438B071B0E840709
:108BD000E40EA3401A43054B032424021B19840806
:108BE000A4001A5110BD00001CED00E000E100E0FF
:108BF00010B5002819DA1A4A03071B0F083B9B0817
:108C00009B00D2588307DC0EFF23A3409A438B07B7
:108C10001B0E8407E40EA3401A43114B0407240FD4
:108C2000083CA408A4001A5118E00E4A03231B02B2
:108C3000D21883089B00D2588307DC0EFF23A34081
:108C40009A438B071B0E8407E40EA3401A43054B7F
:108C5000032424021B198408A4001A5110BD00002B
:108C60001CED00E000E100E010B510E00024094830
:108C700002F00CFC044308F097FB002803D00648E0
:108C800002F004FC0443002C00D101E000BFEDE73A
:108C900000BF10BD6C2B0020242C002010B500203C
:108CA000074908600021064841608160C1600020DA
:108CB000034940390860486008F09AF910BD000087
:108CC00040110140FFB581B004460E46174600BF73
:108CD0001A480078002801D100F052FA00BF174866
:108CE0000069A04225D9002C1AD0182060431349EE
:108CF00018310E5018206043401847601821614316
:108D00000E4A18328918049888600022182060439F
:108D10000A49183140180261182060434018C260A7
:108D200018206043054A183280180A9941610025CD
:108D300001E00025ED43284605B0F0BD4C3A002087
:108D4000F8B504460D46164600BF074800780028CF
:108D500001D100F015FA00BF32462946204600F046
:108D600005F807463846F8BD4C3A0020F7B582B002
:108D70000746164603980190182078431B4940186F
:108D8000009000984069002804D0012811D00228E2
:108D900026D11EE0009800F02BFA0546B54201D21C
:108DA000002405E0344632460199009800F0A3FB08
:108DB00018E0009800F01CFA0546B54201D228469A
:108DC00000E03046044622460199009800F093FBEB
:108DD00008E032460199009800F050FB044601E09B
:108DE000002400BF00BF204605B0F0BD643A00205B
:108DF0000FB438B5044606A800906A462046059987
:108E000000F004F838BC08BC04B01847F7B59AB0B5
:108E10000D46144602A81590402016900020179089
:108E20001A9819900020189000BF2E786D1C002E03
:108E300000D1E4E0252E79D100270120149000BF55
:108E40002E78232E12D02B2E0CD02D2E02D0302E89
:108E500010D103E0012007436D1C0EE00220074300
:108E60006D1C0AE0042007436D1C06E00820074340
:108E70006D1C02E00020149000BF00BF1498002871
:108E8000DED1129000BF2E78302E01DB392E00DDAE
:108E900008E06D1C0A2112984843314630394018C9
:108EA0001290F0E700BF002013902E782E2E11D1E3
:108EB0006D1C00BF2E78302E01DB392E00DD08E05E
:108EC0006D1C0A21139848433146303940181390DD
:108ED000F0E700BF2E7800BF6C2E01D0682E02D1C3
:108EE0002E786D1C00E000E0F6E700BF702E63D026
:108EF00008DC252E72D0582E38D0632E09D0642E6F
:108F000071D114E0732E40D0752E1FD0782E6AD107
:108F10002BE02168081D2060086814901498C0B2E6
:108F2000019015A8019900F087FA5DE05FE02168E3
:108F3000081D2060086814901298019700900A227A
:108F400015A8139B149900F061F94DE02168081DE4
:108F50002060086814901298019700900A2215A8C2
:108F6000139B149900F0DAF93EE000BF2168081D58
:108F7000206008681490129801970090102215A89C
:108F8000139B149900F0CAF92EE02168081D206097
:108F90000868019000BF019806780198401C019074
:108FA000002E00D106E0314615A800F045FA1898C9
:108FB0000028F0DA00BF17E02168081D206008686B
:108FC0001490002008210B4610220091019015A852
:108FD000149900F0A3F907E000E004E0252115A8AA
:108FE00000F02AFA00E000BF00BF6D1C03E031462C
:108FF00015A800F021FA1898002800DB15E700BF3B
:10900000189800280BDD1798002804D002A9179A99
:109010001A98FFF795FE1799189840181890189805
:109020001DB0F0BD10B507F0D9FC10BD70B50C48EF
:109030000068002811D00A4800688047044600BF35
:109040002546002D07D000BF064AFF2141312846A2
:1090500000F0DAFB00BF00BF01E003F0D1F970BD02
:10906000C02100209023020010B503F045FA00282B
:1090700005D0074807494860C8130749886103F0CD
:109080001FFA002802D001200449886010BD0000AA
:10909000DFFF07C000050040006C004000060040F4
:1090A00010B50021014804F081FF10BD0090004080
:1090B00010B509E000201C498860084680681B49FB
:1090C0008969C8B201F0BCFE174880680028F1D158
:1090D0001548C069002826D000201349C8611448EB
:1090E00001680068401E124A106000290AD0114829
:1090F000006800780D49C8610E480068401C0D49A1
:10910000086010E001200C49C8600C480078012874
:1091100002D0002009490870094802F0BBFA002873
:1091200001D106F02BF910BD0021004000250040C0
:109130006C210020702100200020004068210020C8
:10914000CC29002010B501200A49496801400029B6
:1091500001D0012100E00021012909D100BF002038
:109160000902054A8918086000BF04480068804762
:1091700010BD00000003014000000140B4210020A8
:1091800010B5124C02202061606111A0A06113494A
:10919000E1610121C90221620021A1626162E162F3
:1091A0000BA0A0640E49E164102121650021A16596
:1091B0006165E1650BA1E01DFFF7F2F80AA1204609
:1091C000FFF7EEF82020A07110BD00004C3A0020FF
:1091D0005465726D696E616C000000003C320020C5
:1091E0003C3A002052545400534547474552000032
:1091F00010B501460A69CB689A4204D88C68641E8F
:10920000E41AA01801E0D41A601E10BDFFB585B0A5
:1092100006460F460F9D0E9C002F01DA784200E0B3
:10922000384603900120049007E007990398FFF760
:1092300083F903900498401C04900799039888428E
:10924000F3DA04990898884201D908980490002C10
:1092500006D0002F03DB04202840042800D1641E20
:1092600002202840002802D00898002815D0E807DE
:10927000C00F002811D1002C0FD008E0641E20215F
:10928000304600F0D9F8F068002800DA04E0002C3D
:1092900002D00498A042F1D300BFF06800283ADB66
:1092A000002F05DA7F422D21304600F0C5F807E097
:1092B00004202840042803D12B21304600F0BCF8BC
:1092C000F068002827DB02202840022818D1E80790
:1092D000C00F002814D10898002811D1002C0FD0FD
:1092E00008E0641E3021304600F0A6F8F06800283F
:1092F00000DA04E0002C02D00498A042F1D300BFB1
:10930000F068002807DB0195009439463046089B39
:10931000079A00F003F809B0F0BD0000FFB585B072
:10932000064617461D460E9C0698029001200390A3
:10933000019007E039460298FFF7F4F8029001988F
:10934000401C01900298B842F4D20198854200D99D
:1093500001950F98C007C00F00281DD1002C1BD00D
:1093600002210F980840022804D1002D02D130209C
:10937000009001E02020009008E0641E3046009933
:1093800000F05AF8F068002800DA04E0002C02D05F
:109390000198A042F1D300BFF068002848DB0FE03D
:1093A000012D01D96D1E08E003990698FFF7BAF860
:1093B00004900498B84200D203E0039878430390E5
:1093C000EEE700BF00BF03990698FFF7ABF80490E3
:1093D0000399049848430699081A0690154A049878
:1093E000115C304600F028F8F068002800DA07E049
:1093F00039460398FFF796F8039003980028E2D1C6
:1094000000BF0F98C007C00F002811D0002C0FD04C
:1094100008E0641E2021304600F00EF8F0680028B5
:1094200000DA04E0002C02D00198A042F1D300BF82
:1094300009B0F0BDE421020070B504460E46A568EF
:10944000681C6168814206D320684655681CA0608C
:10945000E068401CE0606168A06888420DD1A268A5
:1094600021682069FFF76CFCA168884203D00020C6
:10947000C043E06001E00020A06070BDF7B582B09D
:109480000446174600200190E56800BF206900905F
:109490000098A84203D90098401B461E04E0A1682A
:1094A0000098281A401C0E1AA068401BB04201D92F
:1094B000304601E0A068401B0646BE4201D230465D
:1094C00000E0384606466168481932460399FEF7BF
:1094D000AFFF019880190190039880190390BF1B7A
:1094E000AD19A068A84200D10025E560002FCDD1BC
:1094F000019805B0F0BDF7B582B004461546E668A0
:10950000A068871BAF4208D9616888192A46039969
:10951000FEF78EFF7019E06010E00197616888190E
:10952000019A0399FEF784FFE81B0190039AD11971
:109530006068019AFEF77CFF0198E06005B0F0BD1D
:1095400030B47446641E2578641CAB4204D3635D5A
:109550005B00E31830BC18471D46F8E71CB504490A
:1095600003C901910090684604F0C0FA1CBD0000D8
:109570006C210200124A1268002A07D0104B0268C0
:109580001B681B68D21A0F4B9A4205D90C4A126805
:1095900002610B4A10607047094A116800E00969CE
:1095A0000A69002A06D00A6912680368D21A054BB4
:1095B0009A42F4D80A690261086100BFEBE7000033
:1095C0009C210020FFFFFF7FF8B504460F4615469B
:1095D0000026002028702078002809D02A46394625
:1095E000204604F037FA0646002E01D03046F8BD7A
:1095F000A078002808D02946384600F01FFA064611
:10960000002E01D03046F2E7E07800280ED002218B
:109610002A78501C2870B95401212A78501C2870CF
:10962000B954E1782A78501C2870B9546068002831
:109630000BD00020616808562A46394608F010F918
:109640000646002E01D03046D1E7208900280CDDE7
:109650003B460622022120460830009508F0B3F967
:109660000646002E01D03046C1E7208A00280CDDD6
:109670003B460722032120461030009508F0A3F94D
:109680000646002E01D03046B1E7208B00280CDDC5
:109690003B461522142120461830009508F093F916
:1096A0000646002E01D03046A1E7206A002809D0E6
:1096B0002A463946206A01F0D1FC0646002E01D028
:1096C000304694E7606A002809D02A463946606A25
:1096D00003F028FC0646002E01D0304687E72C20F8
:1096E000005D002809DD2A463946204606F0F2F9D9
:1096F0000646002E01D0304679E7304677E701462E
:10970000C87804221040002801D1072070470020AB
:10971000FCE70000014600BF064A50680122D2055E
:109720008243044B9A600122D2050240DA6000BFF6
:10973000704700000005005010B5002407E0E1006C
:10974000064A1268505C012104F016FB641C0448B0
:1097500000788442F3D3002010BD0000D8210020FF
:10976000DC210020FEB506460C461746052F01D227
:109770000720FEBD04F00AFC002806D104F0DEFB41
:109780000546002D01D02846F3E716480660164826
:1097900004701648076000201549086015490860E4
:1097A00015E0E000801901901348006800900198CE
:1097B00080786946487001990878104A694604F033
:1097C00033FB0546002D01D02846D2E700BF2046D6
:1097D000611ECCB20028E4D1094A0021094800F0FA
:1097E00023F8C6E7D8210020DC210020E02100205A
:1097F000E8210020EC210020F421020019B9010029
:1098000095B20100E421002008B504460D46164635
:10981000ABB2A2B2034900200096FFF7E9FA01F0CB
:1098200021FE00004C23020070B503460C46194887
:109830000068002801D1082070BD002A01D107204E
:10984000FAE7002B01D10720F6E700211CE02420D5
:109850004843104D2D68285C002814D10125242090
:1098600048430C4E3668355424204843094D2D6832
:109870004019447024204843064D2D6840198261E8
:1098800019600020D8E7491C034800788142DEDBDC
:109890000420D1E7F4210020F0210020FFB581B0A1
:1098A0000E4617461C4620468107890F002901D124
:1098B000012100E00021002902D1072005B0F0BD00
:1098C000002C01D10720F9E705F000FD26490A9890
:1098D0000860264806702648046000250CE0002138
:1098E00024206843224A1268115424206843204AE5
:1098F0001268801801756D1CB542F0DB242070439E
:10990000041903201B4908701B4804601834002503
:109910000CE0E900184A12688818002101704170B3
:1099200087704460182179430C196D1C032DF0DBFE
:109930000020C043114908600020114908701149F6
:1099400008701420FFF75AF803211420FFF750F98C
:109950001420FFF767F8019805F08EFC05F086FCEF
:10996000094908600020A9E714220020F021002006
:10997000F4210020F8210020FC21002000220020FA
:10998000102200201122002004220020FEB50446EF
:109990000D46164616480068002801D10820FEBD75
:1099A00014480078844201D2052D01D20720F6E741
:1099B000242060430E490968085C012801D0082072
:1099C000EDE7242060430A490968401840780128DF
:1099D00001D1284600E00020074607F0CBFF3B46B8
:1099E0002A4621460096019007F0B8FAD7E7000012
:1099F000F4210020F021002070B504460D480068D5
:109A0000002801D1082070BD0B480078844201D3A2
:109A10000720F8E72420604306490968085C01280C
:109A200001D00820EFE707F0A5FF0546214607F023
:109A3000BFFAE8E7F4210020F0210020F8B5054640
:109A40000C462078001D1F2801DD0C20F8BD68465B
:109A500079DF0646002E01D03046F7E70321227851
:109A6000501C2070A95419212278501C2070A95430
:109A7000207841196846008807F013FF21784018C4
:109A800020700020E2E7000070B550480078002800
:109A900019D10022FF218A314D480068FFF776FF77
:109AA000044600BF2546002D05D000BF49A24C4901
:109AB0002846FFF7A9FE00BF012044490870494924
:109AC0000020FFF795F948480078002815D10022BA
:109AD000464947480068FFF759FF044600BF25463E
:109AE000002D06D000BF3BA23D4909312846FFF7B3
:109AF0008BFE00BF01203C4908703E4800780028DA
:109B000015D100223C493D480068FFF73FFF04465D
:109B100000BF2546002D06D000BF2EA230490F31D0
:109B20002846FFF771FE00BF012032490870344813
:109B30000078002815D10022324933480068FFF729
:109B400025FF044600BF2546002D06D000BF21A2F8
:109B5000234915312846FFF757FE00BF0120284949
:109B600008702A480078002815D100222849294881
:109B70000068FFF70BFF044600BF2546002D06D006
:109B800000BF14A216491B312846FFF73DFE00BF57
:109B900001201E49087020480078002815D10022B5
:109BA0001E491F480068FFF7F1FE044600BF254626
:109BB000002D06D000BF07A2094921312846FFF732
:109BC00023FE00BF01201449087070BD2C20002026
:109BD000282000202E2E5C6D61696E2E630000002F
:109BE000160500000823020044200020A480000085
:109BF0004020002004200020A410000000200020AD
:109C0000242000200A1700002020002034200020FB
:109C10001F450000302000203C2000205C4F000049
:109C20003820002070B5044620780300FFF788FC38
:109C30000504401C343A59000321C9036068884276
:109C400004D3012149076068884209D900BF102563
:109C500000BF25A253211020FFF7D6FD00BF00BF93
:109C60006168A06888473DE00321C90360688842B5
:109C700004D3012149076068884209D900BF102533
:109C800000BF19A25B211020FFF7BEFD00BF00BF7F
:109C90006168A068884725E0237C201D07C806F07E
:109CA000ADFB1FE0E279A179A08802F019F819E074
:109CB0000321C9036068884204D301214907606811
:109CC000884209D900BF102500BF07A278211020C3
:109CD000FFF79AFD00BF00BF6268E168A068904787
:109CE00000E000BF00BF70BD2E2E5C2E2E5C2E2E1D
:109CF0005C7262635F6D6573685C7372635C6576EA
:109D0000656E745F68616E646C65722E630000003E
:109D100070B5044606F07AFF0646204605F028FA9C
:109D20002046FFF727FCEFF31080C507ED0F72B652
:109D300007484068401E06494860002D00D162B6C1
:109D4000304601F05DFD304606F08CF870BD000035
:109D50009C21002070B588B005462E46304603F0A1
:109D60006DFC044600200090002C27D061792279F8
:109D7000090211430846694608F090F800281DD1F1
:109D800068460078002819D0042069460871607977
:109D90002179000208436946088120460830039073
:109DA0002078C01FC1B201A8017306F02FFF0590F3
:109DB00001A804F0E7FF01A803F001F9304603F021
:109DC000F5FC08B070BD10B50446002C06D1152076
:109DD00004F022FA172004F01FFA05E0152004F021
:109DE00013FA172004F010FA10BDF3B593B00D4626
:109DF0000021129111911398002814D01398FFF7A5
:109E00007EFC0446002C02D0204615B0F0BD12AAFC
:109E100009A91398FFF7D8FB0446002C01D020466F
:109E2000F3E709AE00E00026002D13D0284606F027
:109E30003DF90446002C01D02046E6E711AA01A90D
:109E40002846FFF7C1FB0446002C01D02046DCE782
:109E500001AF00E0002710A803793A46017A3046A6
:109E600072DFD2E77FB5044600BF012168468173E7
:109E70005D49818100BF5D4A03A90120A0DF05463D
:109E8000002D02D0284604B070BD208800280DDDCA
:109E900057480090228823463C335648616800F0BA
:109EA00039FF0546002D01D02846ECE7208900281F
:109EB0000EDD51480090228923463C334D48401F17
:109EC000E16800F027FF0546002D01D02846DAE7BB
:109ED000208A00280EDD49480090228A23463C3320
:109EE0004448001F616900F015FF0546002D01D0B0
:109EF0002846C8E7208B00280EDD41480090228BC1
:109F000023463C333B48801EE16900F003FF0546D1
:109F1000002D01D02846B6E7208C00280EDD3948F8
:109F20000090228C23463C333248C01E616A00F008
:109F3000F1FE0546002D01D02846A4E7208D00281B
:109F40000EDD31480090228D23463C332948401EC7
:109F5000E16A00F0DFFE0546002D01D0284692E7B9
:109F6000206B002813D001A8216B06F0BBF927480D
:109F700023463C33082201A900901E48801F00F0B0
:109F8000C9FE0546002D01D028467CE700BF606B66
:109F900000280FD01E480090606B027923463C33A6
:109FA00001681448401C00F0B5FE0546002D01D0A4
:109FB000284668E7A06B002813D001A8A16B04F025
:109FC000C7FA144823463C33072201A900900948E8
:109FD000273000F09FFE0546002D01D0284652E7AD
:109FE00000BF00204FE700000A1800001A220020DE
:109FF0001C220020292A0000242200202C220020DC
:10A00000342200203C220020442200204C22002048
:10A01000542200205C22002070B5044620881038AD
:10A020000300FFF78DFA0906071E0A1E1E1E1D1CDF
:10A030001E0017E00C4873DF14E000BFA088002367
:10A040000A4A19467FDF0546002D06D000BF08A248
:10A0500075212846FFF7D8FB00BF00BF02E001E0F2
:10A0600000E000BF00BF70BD8020002098200020CD
:10A070002E2E5C6E72665F6164765F636F6E6E2E0D
:10A080006300000010B50446208850280BD05128EA
:10A0900002D0522808D100E007E0A08800231A4629
:10A0A0001946A9DF01E000E000BF00BF10BD0000BD
:10A0B000F8B504460D46286820600020C043608241
:10A0C00028792075FF20208200BF01216846817019
:10A0D0000849018000BF221D69460120A0DF064615
:10A0E000002E01D03046F8BD2946204602F0E4FBA0
:10A0F000F9E70000AA55000070B588B004460D4687
:10A100000026208AA84235D0291268460175457577
:10A1100000200690079002216846018300214183B8
:10A1200005A807902582E188608A06AAA4DF064672
:10A13000002E02D0304608B070BD608A0E498842B9
:10A1400017D0207D002814D00020019002900390A9
:10A150000490E1886846818001218171418B0181F1
:10A1600006A8039007980490608A01A9A6DF064616
:10A1700000E008263046DEE7FFFF000070B5044629
:10A180000D462846FEF732F92080656070BD00005C
:10A19000F8B505460E46002432782146641C6A5400
:10A1A00072782146641C6A5400BF022C01D1012040
:10A1B00000E000200746002F05D100BF03A22021A8
:10A1C000FFF722FB00BF00BF2046F8BD2E2E5C2EFD
:10A1D0002E5C2E2E5C2E2E5C2E2E5C2E2E5C636F43
:10A1E0006D706F6E656E74735C626C655C636F6DD1
:10A1F0006D6F6E5C626C655F7372765F636F6D6DC1
:10A200006F6E2E630000000070B588B004460D46E6
:10A210000026208AA84235D0291268460175457566
:10A2200000200690079002216846018300214183A7
:10A2300005A807902582E188608A06AAA4DF064661
:10A24000002E02D0304608B070BD608A0E498842A8
:10A2500017D0207D002814D0002001900290039098
:10A260000490E1886846818001218171418B0181E0
:10A2700006A8039007980490608A01A9A6DF064605
:10A2800000E008263046DEE7FFFF0000F8B5044690
:10A290000D46286820600020C04360822879207520
:10A2A000FF20208200BF012168468170084901809B
:10A2B00000BF221D69460120A0DF0646002E01D006
:10A2C0003046F8BD2946204606F0B6F9F9E7000009
:10A2D00055AA0000F3B581B006460025002400E031
:10A2E000641C042C04D2A00029490858B042F7D1BC
:10A2F000042C42D20298002825D0012802D002283E
:10A300003AD133E06000201822490D5C600020182B
:10A310004018407800280ED01F4800680A22504399
:10A3200001461E4A1E480068FFF730FB0746002F13
:10A3300001D11A480670600020181649401880782C
:10A340001849085518E016480068FFF755FB1548EE
:10A35000005D610061180F4A89188978884204D12C
:10A360006000201811464018857805E0600020182C
:10A3700008494018457800BF00BF002D07D00A48A3
:10A380000068002803D02846074909688847FEBDB1
:10A390007821020010280020A4200020BC200020EA
:10A3A000B8200020BD200020B420002070B5054654
:10A3B0000D2D06D00E2D05D00F2D7DD0102D7CD16A
:10A3C000B1E000BF00205A4908705A4800780128BF
:10A3D00006D159480068FFF70FFB00205549087067
:10A3E0005648007800284CD00020544908700120BD
:10A3F000FFF7E9FC05F0F2FE05F060FE04F0A8FEB0
:10A400004F480078012813D14E480068FFF7F4FA4E
:10A41000044600BF2646002E06D000BF4AA24921AE
:10A4200009013046FFF7F0F900BF002044490870E9
:10A4300043480078002814D100224649414800686A
:10A44000FFF7A4FA044600BF2646002E05D000BF41
:10A450003DA241493046FFF7D7F900BF01203849F6
:10A4600008703EA10020FEF7C3FC4048C0894008A8
:10A470004000401C3D49C8811022012004F00EFE1E
:10A480004FE001202D4908700020FFF79CFC04F0EC
:10A4900067FE2B480078012816D12A480068FFF78C
:10A4A000ABFA044600BF2646002E09D000BF26A204
:10A4B00029491E31304601E034E035E0FFF7A4F9C8
:10A4C00000BF00201E4908701D480078002815D1E3
:10A4D000002220491B480068FFF758FA044600BFD5
:10A4E0002646002E06D000BF17A21B492531304654
:10A4F000FFF78AF900BF01201149087005F06EFED0
:10A5000005F0DCFD1AA10020FEF772FC1748C08997
:10A51000400840001549C8811022012004F0BEFD0A
:10A5200000BF02E001E000E000BF00BF70BD00001E
:10A530007220002054200020502000207C20002089
:10A540000C200020082000202E2E5C6D61696E2EEC
:10A55000630000006626000097040000535749542A
:10A5600043482C4F46462E0D0A000000C82200200A
:10A570005357495443482C4F4E2E0D0A00000000FB
:10A5800030B503460020042B24D2012A07D101292B
:10A5900003D11C460D34E4B200E000242246002919
:10A5A0000FD0012902D0022911D104E05C001C194E
:10A5B000094D2A550DE05C001C19074D64196270A5
:10A5C00007E05C001C19044D6419A27001E007202B
:10A5D00000BF00E0072030BD10280020F7B5054679
:10A5E0000E46002427480660274805602749029840
:10A5F000086002202840002822D0002706E001221F
:10A6000011463846FFF7BCFF04467F1C042F01D2D9
:10A61000002CF4D0002C05D1720804211C48FFF74F
:10A62000A1F80446002C02D1FFF786F80446002C5E
:10A6300005D1184A00211848FFF7F6F8044600BF74
:10A64000E807C00F00280AD000BF0F2040051349BB
:10A6500088600020C86000BF0F2040058861002C82
:10A6600005D10F4A00210F48FFF7DEF80446002C01
:10A6700005D10D4A01210D48FFF7D6F804462046C2
:10A68000FEBD0000A4200020A8200020B42000204F
:10A690008821020011AC0100B82000200005005004
:10A6A00009C80100AC20002015970100B02000204F
:10A6B000F8B50446002500262300FEF741FF180DDB
:10A6C00018195C9FF7F5F4F3F2F1F0EFEEEDECEB17
:10A6D000EAE9E8E7E6E5E4E300BF0B204005FB49D3
:10A6E00088600020C86000BFF94804704FE200BFD6
:10A6F00000BF05208005F54988600020C86000BFC4
:10A70000084640680F214905484001214905084095
:10A7100000280FD000BF0846EC4988600020C860C0
:10A7200000BF022C02D1E120C00001E07D204001E9
:10A7300006460EE000BF01204005E449C860002045
:10A74000886000BF022C01D1C82001E0FF209130B9
:10A750000646DF48047064213046FDF7E3FEDD491C
:10A7600009684843074600223946DB480068FFF77E
:10A770000DF905460BE200BF05208005D34988602E
:10A780000020C86000BF084640680F2149054840C6
:10A7900001214905084000280FD000BF0846CB49D9
:10A7A00088600020C86000BF032C02D1192040013E
:10A7B00001E07D20400106460EE000BF012040057B
:10A7C000C249C8600020886000BF032C01D1C820A6
:10A7D00001E0FF2091300646BD48047064213046F8
:10A7E000FDF7A0FEBB4909684843074600223946E9
:10A7F000B9480068FFF7CAF80546C8E100BF052060
:10A800008005B24988600020C86000BF08464068E3
:10A810000F214905484001214905084000280FD073
:10A8200000BF0846A94988600020C86000BF042C0A
:10A8300002D17D20400101E07D20400106460FE06D
:10A8400000BF01204005A149C8600020886000BF0A
:10A85000042C02D1FF20913001E0FF209130064608
:10A860009B48047064213046FDF75CFE99490968F5
:10A87000484307460022394697480068FFF786F8A4
:10A88000054684E182E176E174E161E14EE13BE17C
:10A890002FE1F4E0F2E0F0E0EEE0ECE0E2E0C9E02D
:10A8A000B2E099E082E06FE042E0FFE700BF052000
:10A8B0008005864988600020C86000BF084640685F
:10A8C0000F214905484001214905084000280ED0C4
:10A8D00000BF08467D4988600020C86000BF052C85
:10A8E00001D1C82001E07D20400106460EE000BFF6
:10A8F000012040057549C8600020886000BF052C14
:10A9000001D1C82001E0FF20913006467048047054
:10A9100064213046FDF706FE6E4909684843074644
:10A92000002239466C480068FFF730F805462EE1F2
:10A9300000BF05208005654988600020C86000BF11
:10A94000084640680F214905484001214905084053
:10A95000002806D000BF08465C4988600020C86017
:10A9600007E000BF012040055849C860002088600A
:10A9700000BF5748047057480022016856480068D5
:10A98000FFF704F8054602E100BF052080054F49A6
:10A9900088600020C86000BF00BF01204005C8607B
:10A9A0000020886000BF4A480470F0E000BF4749BB
:10A9B0004868012189058143444A91600121890544
:10A9C0000140D16000BF434800220168424800684E
:10A9D000FEF7DCFF0546DAE000BF3C49486801218C
:10A9E00089058143394A9160012189050140D1607F
:10A9F00000BF38480068820081180022364800688D
:10AA0000FEF7C4FF0546C2E000BF30494868012197
:10AA1000890581432D4A9160012189050140D1605A
:10AA200000BF2C48002201682B480068FEF7AEFFEB
:10AA30000546ACE000BF25494868012189058143EE
:10AA4000224A9160012189050140D16000BF21485F
:10AA500000688200811800221F480068FEF796FFF8
:10AA6000054694E000BF0F2040051849C86000204B
:10AA7000886000BF8BE000BF00BF00BF00BF174869
:10AA80000068FEF7B9FF05461120061B002E27D0EF
:10AA9000002D25D1012E10D9C8217143084664210B
:10AAA000FDF740FD0B490968484307460022394637
:10AAB0000A480068FEF76AFF054600BF0120C0058E
:10AAC0000249C8600020886012E0000000050050C4
:10AAD000A0200020A4200020AC200020B0200020D6
:10AAE00000BF0120C0052B4988600020C86000BF5E
:10AAF0004DE000BF0F204005264988600020C86057
:10AB000000BF2548047042E000BF072080052149AE
:10AB100088600020C86000BF00BF01204005C860F9
:10AB20000020886000BF1C48047030E000BF0D208A
:10AB30004005184988600020C86000BF00BF0120A0
:10AB40008005C8600020886000BF134804701EE0C4
:10AB500000BF0320C0050F4988600020C86000BF07
:10AB600000BF03204005C8600020886000BF0A487D
:10AB700004700CE000BF00BF0F2040050549C8600D
:10AB80000020886000BF0448047000E000BF00BFE0
:10AB90002846F8BD00050050A02000203EB5002446
:10ABA000092168460170012101727D200001019098
:10ABB0001149684603F0BAFA044600BF2546002D45
:10ABC00005D000BF0DA210492846FEF71DFE00BFAC
:10ABD0000E4803F021FA044600BF2546002D06D09A
:10ABE00000BF06A20849891C2846FEF70DFE00BFDB
:10ABF00003F08AFA3EBD0000CD2002002E2E5C6DCF
:10AC000061696E2E63000000690500007D20002050
:10AC100010B5044620780221FFF75CFB10BD000050
:10AC200070B5094A09490220FFF7D8FC044600BF65
:10AC30002546002D05D000BF05A208492846FEF78D
:10AC4000E3FD00BF70BD0000ADA30100CD0C00000E
:10AC50002E2E5C6D61696E2E6300000045050000BC
:10AC60000022D24383000549CA50042804DB13465E
:10AC7000011F024A5032535470470000E431002053
:10AC800001468A000148805870470000E4310020E6
:10AC9000F7B585B00B460020C0430490002A01D0D0
:10ACA000002000E004200390002A01D0042000E0EE
:10ACB0000C20029003991EE08C0012480059401CA1
:10ACC000002817D10846059C0093019246B20D4D0D
:10ACD00030352E558600303D009BAB51019A002A3D
:10ACE00004D166B2051F074F50377E5500BF48B2EA
:10ACF000049003E0491C02988142DDD300BF049810
:10AD000008B0F0BDE43100200146014840567047CC
:10AD100014320020F0B58FB007460D4614461E468B
:10AD200000BF002D01D0012000E00020009000981D
:10AD3000002805D100BF31A26D21FEF765FD00BFDF
:10AD400000BF00BF002C01DD012000E000200090CA
:10AD50000098002805D100BF28A26E21FEF754FDFF
:10AD600000BF00BF1C2107A8FDF7C1FB6946087F93
:10AD700002218843801C69460877002008900A90C9
:10AD80000B900C900D9000BF012108A881766846B9
:10AD9000078700BF00200190317868460171717803
:10ADA0004171807906218843811C684681718079D0
:10ADB00008218843014668468171807910218843C3
:10ADC0000146684681718079410849006846817171
:10ADD000142102A8FDF78BFB0EA8029001A8039096
:10ADE00068460482002141828482069502AA07A94E
:10ADF00012480088149BA2DF0FB0F0BD2E2E5C2EEF
:10AE00002E5C2E2E5C2E2E5C2E2E5C2E2E5C636F06
:10AE10006D706F6E656E74735C626C655C626C65A0
:10AE20005F73657276696365735C626C655F6469A4
:10AE3000735C626C655F6469732E63001A22002084
:10AE400030B589B005462348006805702148006880
:10AE5000401C20490860084601681F480C1A272C2E
:10AE600006D2012C33D9401E4078401CA0422ED877
:10AE70001949491E194800F08EFC00280FD0032103
:10AE800068460171842141711348401E81786846EB
:10AE90008171862101A8C17004F06EFD0AE00220D4
:10AEA000694608740E4805900021069104A800F038
:10AEB00079FB00BF094800F0F6FB002804D0012010
:10AEC000084908700849486003480249086009B009
:10AED00030BD000078210020442B0020B429002040
:10AEE000A9CF0100682100200020004070B5044671
:10AEF0000D46201DFDF7FDFA281A1A4988422FD861
:10AF0000204606F0B1FB00282AD020460830FDF785
:10AF1000F0FA15490968154A1268514388420AD265
:10AF200020460830FDF7E5FA460021460831304654
:10AF3000FDF7F0FA09E00C4909680C4A1268514320
:10AF4000084621460831FDF7E5FA00202073204627
:10AF50000830FDF7CEFA4619211D3046FDF7DAFA22
:10AF600070BD0000FFFFFF7F4C2100204821002022
:10AF7000FEB51E480068401C002834D01B480068FD
:10AF8000242148431A4909684018456804F06EF9BD
:10AF90000190184804682146019805F031FCC61C50
:10AFA00015480078002801D104F072F9AE4201D2B0
:10AFB000284600E0304604192402240A20460F499E
:10AFC000086000BF04F052F900900199009805F064
:10AFD00017FCC71C2046019905F012FC874201D9D5
:10AFE00006F054F801E004F071F9FEBD00220020E3
:10AFF000F4210020042200201822002040150140E6
:10B0000001460888062808DB08881922D2019042E8
:10B0100005DD0888104A904201D007207047488813
:10B02000062808DB48881922D201904205DD4888AD
:10B03000094A904201D00720F0E70888064A90426A
:10B0400008D04888904205D008884A88904201DD9F
:10B050000720E3E70020E1E7FFFF0000F8B5064620
:10B060000D4614462078801D1F2801D90C20F8BDFC
:10B070003046FFF7C5FF0746002F01D03846F6E7F8
:10B0800005212278501C2070A95412212278501CCE
:10B090002070A95422785119308806F002FC2178DA
:10B0A0004018207022785119708806F0FAFB217838
:10B0B000401820700020DAE710B514484068C10538
:10B0C000C90D002920D00A46103A50B200280DDAE6
:10B0D0000E4B1C330407240F083CA408A4001B5982
:10B0E0008407E40EE3401B069B0F0BE0084B032490
:10B0F00024021B198408A4001B598407E40EE340B2
:10B100001B069B0FD8B210BD0420FCE700ED00E049
:10B1100000E100E010B514484068C105C90D0029E0
:10B1200020D00A46103A50B200280DDA0E4B1C33DC
:10B130000407240F083CA408A4001B598407E40E4C
:10B14000E3401B069B0F0BE0084B032424021B1952
:10B150008408A4001B598407E40EE3401B069B0FE0
:10B16000D8B210BD0420FCE700ED00E000E100E0F3
:10B1700070B53148068815E0142070432F494018F7
:10B18000006900280DD1142171432C4A8818002130
:10B1900006F0AEFA28480088401C27490880B0B263
:10B1A00070BD761C022EE7D3254804680CE000BF72
:10B1B0000A20604323494018C0884404640C00BF3F
:10B1C000032C01D10220EBE70A2060431D494018FF
:10B1D00000890228EBD00A2060434018C088C00BC9
:10B1E0000028E4D10A2060434018058900BF022DE1
:10B1F00001D2012000E000200646002E05D100BF4C
:10B2000011A28E21FEF700FB00BF00BF02210A2021
:10B2100060430C4A8018018114216943074A881849
:10B2200000F026F814216943044A8818002106F02A
:10B230005FFAA8B2B4E7000094210020B8310020E2
:10B2400090210020983100202E2E5C2E2E5C2E2E78
:10B250005C7262635F6D6573685C7372635C686186
:10B260006E646C655F73746F726167652E63000056
:10B2700010B50446002C00D110BD2069002804D070
:10B28000206902F093FA00202061204606F0C9F9F7
:10B2900000BFF1E7F8B5002535E0E8001C49096872
:10B2A000441821780120884006461A48006830403A
:10B2B000002826D017480068B04316490860207857
:10B2C00002F02CFE074621780120884012490968C7
:10B2D0000840227839469140884211D1607801288F
:10B2E00000D100E0002078400121484000906068D3
:10B2F000002804D0009BD9B220786268904700BF34
:10B3000000BF681CC5B2054800788542C5DBF8BDA2
:10B31000D8210020EC210020E8210020DC210020A1
:10B3200010B504460F49104800F004FA002817D160
:10B330000C4840780D4908600A48401C0C490860D8
:10B3400000200C49C86101200B498860084800684A
:10B3500000780A49C86106480068401C0449086032
:10B3600010BD00001C2B0020CC2900206C210020E7
:10B3700070210020002100400020004000250040F6
:10B38000014614480078144A127890421DD01148A2
:10B390000078401C0F4A107010460078022801D136
:10B3A000002010700B48007880000C4A105808608C
:10B3B0000B4A086812688018094A10601046006835
:10B3C0000002000A1060012070470020086000BFE2
:10B3D000FAE700001022002011220020082200209D
:10B3E000042200200121014A11707047272100200A
:10B3F00010B506490968064A1268514308460549CE
:10B40000FDF790F87D21C900401810BD18210020DB
:10B410002C21002040420F000146072912D008DCF1
:10B4200000290DD0022913D0052915D0062917D1DE
:10B430000CE0082908D009290CD0112910D10DE001
:10B44000002070478520FCE78320FAE78220F8E798
:10B450008620F6E78420F4E79020F2E78620F0E7E4
:10B460008020EEE70121002001F0BAF80121084612
:10B4700001F0B6F80121022001F0B2F80121032009
:10B4800001F0AEF872B600E020BFFDE730B585B040
:10B4900004466946204600F04DF90546002D05D1C9
:10B4A0006846FEF7BFFB012005B030BD0020FBE77A
:10B4B000EFF31080C107C90F72B60948026800682F
:10B4C000401C074B1860002A06D11220012282403E
:10B4D000044B1A6000BF00BF002900D162B670475C
:10B4E0008021002080E100E010B5EFF31080C40758
:10B4F000E40F72B606480068401E0549086000283F
:10B5000002D11220FDF784FA002C00D162B610BDE2
:10B510008021002010B514480078002800D010BD0C
:10B5200008201249886012480860142048600020F2
:10B530004861084600F09DF808200E4988600E48D2
:10B5400008601420486000204861084600F091F827
:10B550001220FDF75DFA03211220FDF7D1FA012038
:10B560000149087000BFDAE77C2100206C2B002025
:10B57000842B0020242C00203C2C002010B50748F0
:10B5800000F088F8002804D0054800F083F800286F
:10B5900002D11220FDF764FA10BD00006C2B0020D0
:10B5A000242C002070B50446002C01D10E2070BD63
:10B5B000002620780300FDF7C3FF050907040506F0
:10B5C0000B0000BF00BF00BF0A4E03E00A4E01E0BF
:10B5D0000720ECE700BF2146304600F0DCF80546C6
:10B5E000002D01D02846E2E71220FDF739FA0020AD
:10B5F000DDE700006C2B0020242C0020F0B5034672
:10B60000002426E0164E366824277E43154F3F68F7
:10B61000F01946689E4203D94668F61A46601DE056
:10B6200046689B1B466834190026466006750C4E1A
:10B6300035680B4F066A3E600669002E08D00E1969
:10B640003602360A86600669C660166806621560AC
:10B6500000BF03480068401C0028D3D100BFF0BDE4
:10B6600000220020F421002001460A69C868801ADF
:10B670007047202100BF4B1E19468268DA40D2076E
:10B68000D20F002AF7D001228A4082600022C260D5
:10B69000026170470146CA680869904201D10120E1
:10B6A00070470020FCE701468A6808698018CA686C
:10B6B000904201D1012070470020FCE770B504469C
:10B6C0000D4600222946204600F001F870BDF8B56D
:10B6D00004460D461646002D01D10E20F8BDEFF3AD
:10B6E0001080C707FF0F72B62046FFF7BDFFB042BC
:10B6F00004D8002F00D162B60E20EFE72069801930
:10B70000A168491E084061684843216840180090BC
:10B710006069002804D0626928460099904704E0D7
:10B72000626828460099FCF783FE002F00D162B6BC
:10B730000020D3E7F8B504460D46EFF31080C607A6
:10B74000F60F72B6E1682069884204D1002E00D15C
:10B7500062B60E20F8BD002D15D0A168491E2069E3
:10B76000084061684843216847186069002804D090
:10B77000394628466269904704E03946284662689F
:10B78000FCF756FE00BF2069401C2061002E00D14E
:10B7900062B60020DEE7F8B504460E46002E01D161
:10B7A0000E20F8BDEFF31080C507ED0F72B6A1684B
:10B7B00020694018E168884204D1002D00D162B6AA
:10B7C0000420EEE7A168491EE0680840616848432C
:10B7D000216847186069002804D0314638466269FC
:10B7E000904704E0314638466268FCF721FEE06885
:10B7F000401CE060002D00D162B60020D1E70000BF
:10B8000030B585B005461F484068002801D005B016
:10B8100030BD27E01B480468012069460870606855
:10B820000190E168039102956846FFF7BBFE00288E
:10B8300000D0ECE713492069086000202061A0686F
:10B8400000280ED000BFA16820684018206028465C
:10B8500064302168081A0C498842F4D82046FDF764
:10B8600089FE00BF07480068002808D00548006826
:10B87000016828466430081A03498842CAD800BFC4
:10B88000C5E700009C210020FFFFFF7F10B51520B9
:10B89000182108E0032205231B07072424021B1993
:10B8A00084001A51401C8842F4D900BF002404E0EF
:10B8B0002046153002F0B0FC641C042CF8D316208E
:10B8C00002F0AAFC0D2002F069FC0D2002F09CFCA5
:10B8D0000E2002F063FC0E2002F096FC1A2002F00B
:10B8E0005DFC1A2002F090FC1B2002F057FC1B208C
:10B8F00002F08AFC0B2002F051FC0B2002F084FCC9
:10B900000C210320820005231B07072424021B1996
:10B910008C001A5100BF10BDF8B505460F46012036
:10B92000A840044618480068FEF766F80646002E50
:10B9300000D0F8BD15480068204000281DD12846D9
:10B9400002F0ECFA002805D01148006820431049A5
:10B95000086004E00E480068A0430D4908600B48E9
:10B96000006820430949086000220A480168064827
:10B970000068FEF70BF8064604E004480068A043A0
:10B980000249086000BFD4E7E4210020EC21002038
:10B99000E8210020E021002070B505460E46FFF7A3
:10B9A00087FD002E14D01D480088A84210D11C48E5
:10B9B000008803280CDA1A4800880A2148431949EC
:10B9C000085AA84204D1FFF78FFD1548008870BDC2
:10B9D0001548008884B210E014480068A04203D1E2
:10B9E000FFF782FD0320F2E700BF0A2060430D4904
:10B9F000401880884404640C00BF0A206043094951
:10BA0000085AA842E8D1002E03D004480580044813
:10BA10000480FFF769FD2046D9E700009821002047
:10BA200096210020983100208C21002090210020B8
:10BA300070B5054601212846FFF7AEFF0446032CEA
:10BA400043D18348008884B20CE000BF0A206043E1
:10BA500080494018C0884404640C00BF032C01D105
:10BA6000204670BD0A2060437A494018C088C00B48
:10BA70000028EAD10A2060430D520A206043401892
:10BA800080880121C90388430A216143714A8918CA
:10BA9000888000210A206043801841800A2060438A
:10BAA00011464018008902280FD00A2161438918E5
:10BAB000098914225143684A8818FFF7D9FB0221EB
:10BAC0000A206043634A801801816148006884420B
:10BAD00025D062480068844237D00A2060435D491F
:10BAE000401880884004400C0A21484359494018B6
:10BAF000C088C00BC0030A216143564A8918C9880F
:10BB00004904490C08430A2161438918898849047A
:10BB1000490C0A2251434F4A8918C88015E00A206F
:10BB200060434C494018C0884004400C48490860B4
:10BB30000A206043474940188088C00BC003C01CDE
:10BB40000A216143434A8918888044480068844236
:10BB50005AD00A2060433F494018C0884004400C36
:10BB600003281FD00A2060434018C0884004400CBE
:10BB70000A214843374940188088C00BC0030A2176
:10BB80006143344A891889884904490C08430A21C9
:10BB900061438918C9884904490C0A2251432D4A36
:10BBA000891888800A2060432A494018C088C00B41
:10BBB000C003C01C0A216143264A8918C8800A2094
:10BBC0006043114640188088C00BC0032349098890
:10BBD0004904490C08430A216143891888801F4899
:10BBE00000680A21484311464018C088C00BC003B2
:10BBF0006104490C0843194909680A225143154A4E
:10BC00008918C88015480460144800680A21484310
:10BC100010494018C088C00BC003C01C0F490968F8
:10BC20000A2251430B4A8918C880094800680A2132
:10BC30004843114640188088C00BC003C01C04490B
:10BC400009680A225143034A89188880204608E778
:10BC50009021002098310020B83100208C21002054
:10BC6000F8B507460E461546032E01DB0720F8BD42
:10BC7000002D01D10E20FAE71748874201D110208C
:10BC8000F5E7FFF715FC00213846FFF785FE04466F
:10BC9000032C03D1FFF728FC0520E8E7002E02D093
:10BCA000012E10D107E00A2060430C494018C088DB
:10BCB000C00B28700BE00A206043084940188088B8
:10BCC000C00B287003E0FFF70FFC0720CFE700BF91
:10BCD000FFF70AFC0020CAE7FFFF000098310020B0
:10BCE000F7B582B00E461546032E02DB072005B0DD
:10BCF000F0BD66490298884201D11020F7E7012182
:10BD00000298FFF749FE0446002E04D0012E1FD0F2
:10BD1000022E6ED139E0032C07D10298FFF788FE7E
:10BD20000446032C01D10420E1E70A20604358496E
:10BD30004018C0880121C9038843E9030122D203C6
:10BD4000114008430A216143514A8918C88099E08B
:10BD5000032C07D10298FFF76BFE0446032C01D198
:10BD60000420C4E70A206043494940188088012123
:10BD7000C9038843E9030122D203114008430A2181
:10BD80006143434A891888807CE0002D18D0032C39
:10BD900001D10020ABE70A2060433D4940180089EB
:10BDA000022801D10020A2E70A216143384A8918FC
:10BDB000098914225143374A881805F02FFC5EE0A8
:10BDC0000020019001A801F0F7FB002801D1042018
:10BDD0008DE700200346024600900299019801F089
:10BDE0007DFC0746002F05D0019801F0DFFC3846A6
:10BDF0007DE745E0032C04D1019800F039FF0020D5
:10BE000075E70A20604322494018008902280FD1B3
:10BE1000FFF7AEF90A2161431D4A891808810A20FB
:10BE20006043114640180089022801D104205EE7D2
:10BE30000A206043164940180089142148431549D7
:10BE400040180069002803D0019801F0AFFC0AE017
:10BE50000A2060430E4A80180089142250430D4A7C
:10BE60008018019901610A216143094A89180989E9
:10BE700014225143074A881805F0D3FB00BF01E0A4
:10BE8000072034E700BF002031E70000FFFF00007B
:10BE900098310020B831002070B586B004460E46B7
:10BEA0001546042168460171048101A88671C57197
:10BEB000FFF778FB06B070BD70B506460D46002D45
:10BEC00001D10E2070BD0020286068601D488642A8
:10BED00001D11020F6E7FFF7EBFA00213046FFF71B
:10BEE0005BFD0446032C03D1FFF7FEFA0520E9E7CA
:10BEF0000A20604314494018408828800A20604383
:10BF000040180089022818D00A2161430E4A891876
:10BF10000989142251430D4A8918086901F090FCDF
:10BF200000280AD00A2060430749401800891421DC
:10BF300048430649401800696860FFF7D5FA0020B9
:10BF4000C0E70000FFFF000098310020B83100205A
:10BF5000F8B507460E46002E01D10E20F8BD2A483E
:10BF6000874201D11020F9E701213846FFF714FD7F
:10BF70000446032C07D13846FFF75AFD0446032C2C
:10BF800001D10420EAE70A206043204940180589CE
:10BF9000022D0BD1FFF7ECF80546022D01D104204C
:10BFA000DCE70A20604319494018058104F02EFEA1
:10BFB00014216943164A00908818009905F098FBEF
:10BFC00031880A206043114A801841801420684358
:10BFD0000F4940180069002806D0142169430C4A13
:10BFE0008918086901F0E2FB706801F029FC0A2059
:10BFF0006043064A8018008914225043044A80187E
:10C00000716801610020A9E7FFFF0000983100205E
:10C01000B831002070B50546FFF74AFA284600F00F
:10C02000AFF80446002C03D0FFF75EFA204670BD3F
:10C03000002006E00022142141433E4BC9180A614A
:10C04000401C0228F6D3002046E00022D2430A21F9
:10C050004143394B5A5200220A214143C9184A80B0
:10C060000A2141431A468918C9880122D203914303
:10C070000A224243D218D1800A2141431A46891824
:10C0800089880122D20391430A224243D218918027
:10C0900002220A214143C9180A810A2141431A4652
:10C0A0008918C988C90BC903421E5204520C114396
:10C0B0000A224243D218D1800A2141431A468918E4
:10C0C0008988C90BC903421C5204520C11430A222D
:10C0D0004243D2189180401C0328B6D30020174950
:10C0E0000860022016490860144800680A21484385
:10C0F00011494018C088C00BC003C01C0F49096813
:10C100000A2251430C4A8918C8800D4800680A2148
:10C110004843114640188088C00BC003C01C084922
:10C1200009680A225143044A89188880FFF7DCF91C
:10C1300000207CE7B8310020983100208C210020BD
:10C140009021002030B585B00446002C02D10E208D
:10C1500005B030BD0220694608700294074801907E
:10C16000204601F06DFB6846FFF71CFA0546002DDE
:10C1700002D0204601F01AFB2846E9E771CC010005
:10C1800010B504460748844202D30748844201D9C7
:10C19000072010BD03220121C902204605F092FAB2
:10C1A0000020F6E7881300000087930370B505466A
:10C1B00000260020287000241FE014216143114A4A
:10C1C000881805F051FA002816D0142060430D4954
:10C1D0004018006900280FD02878002806D01420C5
:10C1E00060430858801B0849884205D901202870FF
:10C1F0001420604303490E58641C022CDDD33046E2
:10C2000070BD0000B8310020FFFFFF7FF8B5064683
:10C210000F461048864201D11020F8BD012130465A
:10C22000FFF7BAFB0446032C01D10520F5E70A20ED
:10C230006043094940180589022D01D10520ECE72A
:10C2400014216943054A8818394605F015FA00207B
:10C25000E3E70000FFFF000098310020B831002024
:10C26000F8B506460F461048864201D11020F8BDA9
:10C2700001213046FFF790FB0446032C01D1052035
:10C28000F5E70A206043094940180589022D01D1CC
:10C290000520ECE714216943054A8818394605F062
:10C2A000FFF90020E3E70000FFFF000098310020C5
:10C2B000B8310020F8B506460F461048864201D135
:10C2C0001020F8BD01213046FFF766FB0446032C21
:10C2D00001D10520F5E70A20604309494018058986
:10C2E000022D01D10520ECE714216943054A881885
:10C2F000394605F015FA0020E3E70000FFFF0000D3
:10C3000098310020B8310020F7B582B004461546B8
:10C31000002600275DE004E030480088801E2F4999
:10C3200008802E4800880228F6DA2C48008814215C
:10C3300048432B4940180069002844D02749098800
:10C3400014225143264A881805F08EF900283AD065
:10C35000224800881421484321490858201A2149BD
:10C36000884230D8002101911C4909881422514388
:10C370001B4A8818224601A905F0E8F968460079A9
:10C3800000281FD01549098814225143144A8918DE
:10C39000086901F055FA11480088142148431049F2
:10C3A000401802693046761C810003984250286884
:10C3B000B04207D109480088401C08490880002085
:10C3C00005B0F0BD00BF05480088401C0349088047
:10C3D0007F1C022F9FD32E600020F1E79A210020BE
:10C3E000B8310020FFFFFF7F10B50446002C03D0BA
:10C3F000162001F011FF02E0162001F005FF10BD2C
:10C40000F8B529480078002800D1F8BD2748006811
:10C41000002801D1012000E00020054624480068E2
:10C42000002801D1012000E00020064600BF002DB9
:10C4300014D1684651DF0446052C01D101250CE0DA
:10C44000002C06D000BF1B4A6D212046FDF7DCF909
:10C4500003E0164900980968884700BF002E1AD1EA
:10C4600015480088009069461448006861DF04465A
:10C47000052C01D101260DE0002C06D000BF0D4A8D
:10C4800084212046FDF7C0F904E00C480068084903
:10C490000968884700BF002D02D0002E00D000E0C0
:10C4A000C5E700BF00BFB0E7C4210020D4210020B1
:10C4B000D021002090230200CC210020C8210020A0
:10C4C0000C48008CC0B2012812D10A48808C0007A9
:10C4D000000F00280CD10748806AF021084040284E
:10C4E00006D10448C06A0840002801D101207047E5
:10C4F0000020FCE7C00F00F01948008CC0B20128F2
:10C500002CD11748808C0007000F002826D1144832
:10C51000806AF0210840002806D11148C06A08400E
:10C52000002801D1012070470D48806AF0210840A1
:10C53000102806D10A48C06A0840002801D101200D
:10C54000F1E70748806AF0210840302806D1044806
:10C55000C06A0840002801D10120E4E70020E2E79A
:10C56000C00F00F070B50646304605F0A3F9012073
:10C57000FFF73AFF0D480078002816D100220C4939
:10C580000C480068FDF702FA044600BF2546002D5E
:10C5900006D000BF08A2FF21EA312846FDF734F992
:10C5A00000BF01200149087000BF70BD14200020A9
:10C5B00066060000102000202E2E5C6D61696E2E34
:10C5C0006300000010B504460020FFF70DFF0320B4
:10C5D00005F070F900200149087010BD14200020FA
:10C5E000002906D10246153201239340044A936084
:10C5F00005E00246153201239340014AD36070479B
:10C600000005005010B504461D480078002835D0BC
:10C610001B480078012831D01948007802282DD015
:10C6200017480078032828D115488079002812D0AF
:10C63000134841884088401E114A508000291DD16E
:10C640000020FFF7D1FE00200D498871642088800A
:10C650000120488012E00A4881888088401E084AEC
:10C66000908000290AD10120FFF7BEFE0120044975
:10C67000887148806420888000E000BF10BD000001
:10C680007420002070B506460020FFF7ADFE0020A4
:10C6900023498871032008703C208880012048804D
:10C6A00020480078002818D100221F491F48006840
:10C6B000FDF76CF9044600BF2546002D05D000BFEC
:10C6C0001BA21E492846FDF79FF800BF012015490F
:10C6D00008701BA10020FCF78BFB2848007800287D
:10C6E0001AD10022FF218A3125480068FDF74EF952
:10C6F000044600BF2546002D06D000BF0CA2A32192
:10C7000089002846FDF780F800BF01201B4908700A
:10C710001CA10020FCF76CFB00202A49087070BDAA
:10C7200074200020242000200A1700002020002070
:10C730002E2E5C6D61696E2E630000008302000086
:10C740004553434150452054524947474552204D97
:10C750004F44452C204150505F54494D45525F5342
:10C76000544152545B6D5F7069725F6D65735F74A5
:10C77000696D65725F69645D2E0D0A002C200020D2
:10C7800028200020455343415045205452494747F3
:10C790004552204D4F44452C204150505F54494D47
:10C7A00045525F5354415254205B6D5F736F756EF9
:10C7B000645F6D65735F74696D65725F69645D2E3A
:10C7C0000D0A00001C20002010B500240BE03220D0
:10C7D00001F0A8FA0B48007801F090FC162001F057
:10C7E00023FD601CC4B2142CF1DD152001F00CFDFA
:10C7F000162001F009FD172001F006FD182001F0B8
:10C8000003FD10BD7D20002010B5044605480078CA
:10C81000C007C00F002803D003480078FDF748FF89
:10C8200010BD0000A8200020A020002070B5054603
:10C83000082001F083F91649086008460068154988
:10C840004843134908607D21090111480068FBF73E
:10C8500069FE0F490860084600680F4948800C4887
:10C86000006881B20D48FDF747FC0446002C0DD04E
:10C87000082C0BD00A48844208D00A48844205D0CC
:10C8800000BF09A20B492046FCF7BEFF70BD0000A7
:10C89000642000200F020000C82200207C2200201B
:10C8A00004300000013400002E2E5C6D61696E2E94
:10C8B0006300000075030000F0B591B004460D461A
:10C8C000207D002819D00020099000BF08A8007919
:10C8D00001090901491C08A801710079F021884368
:10C8E000103008A9087100BFA97B08A841718079A0
:10C8F00006218843801C08A988711C210AA8FBF71F
:10C90000F6FD08A8007A02218843811C08A801725C
:10C91000007A10218843217D002901D0012100E007
:10C920000021090110221140084308A908720020C3
:10C930000B900D900E90207D002801D009A800E0FA
:10C9400000200F900020109000BF012168468173E5
:10C950004949818100BF00200290E97B684601724D
:10C96000297C4172807A06218843811C6846817245
:10C97000807A08218843014668468172807A1021B6
:10C980008843014668468172807A410849006846BA
:10C990008172297B0191142104A8FBF7A8FD03A84B
:10C9A000049002A80590022168460183002141837A
:10C9B0000221818301A80890A088A31D04AA0AA9C6
:10C9C000A2DF0646002E02D0304611B0F0BDA868A6
:10C9D00000284DD000BF012168468173274981811D
:10C9E00000BF00200290687C6946087200BF68465C
:10C9F000407A0109090168464172407AF021884372
:10CA00006946487200BF6846807A06218843811CC7
:10CA100068468172807A082188430146684681729F
:10CA2000807A10218843014668468172807A4108E5
:10CA3000490068468172A968FDF7AAFB07461421E0
:10CA400004A8FBF754FD03A8049002A805906846CB
:10CA5000078300214183018B81830890E08822466F
:10CA60000E3204A9A3DF0646002E03D03046ACE701
:10CA70000020E0810020A8E7AB5500000829000055
:10CA8000FEB52B48006801902A480078009040E0ED
:10CA90000098C000284909684418257835E0182016
:10CAA000684361680F18681CC5B2A078A84200D11D
:10CAB00000253878022802D0032823D10EE0242153
:10CAC000786848431D4909684618307D002804D01D
:10CAD000786804F023F80020307514E00CE0144965
:10CAE000096824225143154A1268881800210175EB
:10CAF0000F4A016A116000BF0D480068401C002801
:10CB0000EDD100E000BF00BF00BF6078A842C6D1F1
:10CB100000BF0098411EC9B200910028B8D1044856
:10CB200001680198814201D00120FEBD0020FCE790
:10CB300000220020F8210020FC210020F421002008
:10CB4000FEB50746434800680290434800780190CC
:10CB500071E00198C00041490968451863E0781CFC
:10CB6000002807D03E46242070433D4909684418F8
:10CB7000276A29E02978182359436A6850182978C8
:10CB8000491C29702978AA78914201D10021297085
:10CB9000466824217143324A12688C1801780129B1
:10CBA00002D1217D002900D03DE08168A160C168EB
:10CBB000E160016921614169E1612A49097800293F
:10CBC00001D00021A16000BF2749A0680968401A70
:10CBD0000002000A2549884208D22349A068096852
:10CBE00003F00EFEE1684018606011E01E48A16885
:10CBF000006803F005FE0090E1680098814204D9C6
:10CC0000E1680098081A606001E00020606000BFE1
:10CC10000020A060E06001202075801E2062304668
:10CC200003F00EFF00BF781C002898D1287869789F
:10CC3000884294D100BF0198411EC9B201910028D9
:10CC400087D1044801680298814201D00120FEBDCD
:10CC50000020FCE700220020F8210020FC21002019
:10CC6000F42100201922002004220020FFFF7F0071
:10CC7000FEB505462E46304600F0E0FC0446002C8A
:10CC800029D0E079A179000208436946088001961D
:10CC9000617922790902114308460121FEF77CFEE1
:10CCA0000746032F09D00A2078430D4940184088D1
:10CCB00069460880684604F039FF68460088A0711C
:10CCC000000AE07161792279090211430846694638
:10CCD000FFF73EF900BF304600F068FDFEBD0000E2
:10CCE00098310020F8B50646132460001C49085A04
:10CCF00007B2B74205DD201F6421484305B228462C
:10CD0000F8BD00BF601E04B260001549085AC01982
:10CD100007B2B7421FDDB81B6421484305B260006B
:10CD20000F4A115A2846FBF707FC05B2042C06DB14
:10CD3000201F6421484345196D046D0C09E06420EF
:10CD400060434519FF209130451B0120C003284353
:10CD500005B22846D4E7002CD4D1024D2846CFE7AF
:10CD6000FC2002009081FFFF8EB0FEF78FFDFFF7E1
:10CD70002BFD04F091F9FDF753FFFCF7EFFBFDF7F6
:10CD80000DFF022000231A46194600901846FBF7B3
:10CD900099FF49A34BA24EA10020FCF729F8524865
:10CDA000006882B251A10020FCF722F80020C043A5
:10CDB0004D49086000BF002348225149052003F077
:10CDC0008BF8054600BF2E46002E05D000BF4DA2B1
:10CDD0004F493046FCF718FD00BF00BF4D4803F037
:10CDE0006FF84D4803F0ACF800F0E3F84B480990B9
:10CDF00064200B90262108A8017205200C900021C8
:10CE000008A801750D98009009A80FC802F012F843
:10CE1000044600BF2546002D06D000BF39A23C497C
:10CE200014312846FCF7F0FC00BF3D48007801F0C3
:10CE300065F9002510E0A8B202F010F9044600BF21
:10CE40002646002E06D000BF2EA231491B313046A7
:10CE5000FCF7DAFC00BF6D1C022DECD300F0C4FE21
:10CE600000BF00F0DCF80546002D06D000BF25A26B
:10CE7000274921312846FCF7C7FC00BF02F070FEAD
:10CE8000FCF75AFCFCF700FE02F0A2F813E002A83F
:10CE900001F02CFF002809D102A801F03DFF204835
:10CEA000007801F02BF902A801F0A4FF48DF1C482C
:10CEB000007801F023F9EAE731303A35363A343474
:10CEC000000000004D6179202039203230313700D8
:10CED0004255494C4420444154453A5B2573202532
:10CEE000735D2E0D0A0000000004004052455345BA
:10CEF000545F524541534F4E3A2532780D0A000097
:10CF0000982700202E2E5C6D61696E2E6300000054
:10CF1000D3050000C5F30100A5EF0100D6BE898E40
:10CF20007D200020F8B505460E4614462879801C61
:10CF3000C7B22078801CC0191F2801DD0C20F8BD65
:10CF4000781CC1B22278501C2070B154FF21227885
:10CF5000501C2070B15422789119288804F0A1FC4B
:10CF6000217840182070A88800280EDDA8680028C5
:10CF700001D10720E3E7AA8823789819A968FBF76D
:10CF800057FA20782979401820700020D7E700B59B
:10CF900089B002E001A802F01EFA01A802F0BAFC72
:10CFA0000028F7D109B000BD10B50446FFF7EFFF28
:10CFB00010BD10B5FEF7AEFA02F004FD10BD10B5BD
:10CFC00088B00446207800280ED0012804D002281A
:10CFD00006D0042810D10BE0B520694648700CE05B
:10CFE000B3206946487008E0B4206946487004E000
:10CFF000B6206946487000E000BF00BF207BC01C1F
:10D00000C1B268460170A1884180227B01A8A16855
:10D01000FBF70EFA684602F0AFFC08B010BD00B591
:10D0200089B0042168460171812141710221817119
:10D030003DDF082100980840C10801A8C17002F036
:10D0400093FCC1B201A8017102F096FC002802D144
:10D05000042009B000BD0020FBE7704730B587B061
:10D0600004460D461121684601704470857000F039
:10D0700003F807B030BD000030B587B0044625483E
:10D0800000882549884202D1244807B030BD244891
:10D090008078002802D12148401EF6E706A862DF0A
:10D0A000C5B2002D01D01120EFE76846007E0028B0
:10D0B00002D11A48801CE8E7194881896846018135
:10D0C0000121817200218181207802280FD004DCA7
:10D0D000002807D0012811D108E011280BD0122810
:10D0E0000CD105E0E078001D01900AE000BF00BF10
:10D0F0000520019005E00320019002E0012001904D
:10D1000000BF00BF01A80490059402A9014800884F
:10D11000A6DFBAE75A210020FFFF0000023000001E
:10D12000A0290020F0B585B005460E4617460195AA
:10D130000297684606730121817012490180124AE4
:10D1400069460120A0DF0446002C02D0032005B070
:10D15000F0BD0E490E4863DF0446002C01D0204686
:10D16000F5E701A800F082F90446002C01D0204622
:10D17000EDE700F0D3FB0446002C01D02046E6E7A3
:10D180000020E4E7E4FE0000A02900205821002050
:10D19000B4210200F0B589B00546288850287DD119
:10D1A000E8889B498989884279D12C4620342078A7
:10D1B000002804D0012841D0022871D190E0A17844
:10D1C0006278080210439349884204D12078F22102
:10D1D000FFF744FFECE0E278A3786778190239435F
:10D1E0000846211D04F0E4FC0646002E21D16946C4
:10D1F0000872201D0490E17802A80173A17862787A
:10D200000802104369468881012102A8C18203F007
:10D21000FDFC089002A801F0B5FD002804D020789C
:10D22000F021FFF71BFF03E020788021FFF716FFB6
:10D2300003E02078F021FFF711FFB9E0E078002843
:10D2400002D0012845D118E02279002A01D001221C
:10D2500000E000221146A37866781802304304F0FB
:10D2600011FF002804D02078F221FFF7F7FE35E007
:10D2700020788021FFF7F2FE30E02079002815D0D9
:10D28000A278637811021943084604F061FE002871
:10D2900007D02078F221FFF7E1FE1FE0A8E089E047
:10D2A00081E020788021FFF7D9FE11E0A278637831
:10D2B00011021943084604F02DFE002804D02078FE
:10D2C000F221FFF7CBFE09E020788021FFF7C6FEB0
:10D2D00004E02078F321FFF7C1FE00BF00BF67E044
:10D2E000E078002802D0012856D131E0A178627898
:10D2F000080210434749884204D12078F221FFF701
:10D30000ADFE4EE000200890A27863781102194328
:10D31000084608A904F098FE002804D02078F121DE
:10D32000FFF79CFE3DE0122168460171A17860780C
:10D330000902014368464171090A8171E17801A837
:10D34000C17008A8017801A80171FFF795FE28E0D7
:10D35000A278637811021943084608A904F04EFE2A
:10D36000002804D02078F221FFF778FE19E012217E
:10D3700068460171A17860780902014368464171ED
:10D38000090A8171E17801A8C17008A8017801A893
:10D390000171FFF771FE04E02078F321FFF75EFED4
:10D3A00000BF00BF04E02078F421FFF757FE00BF64
:10D3B00000BF2BE0E88816498988884209D12C46AD
:10D3C0002034217A206803F0ADF8606804F024FC72
:10D3D0001CE0E9880E48008A814217D12020405D78
:10D3E000002801D0012000E00020094988700DE0EC
:10D3F0002888102803D1A8880749088006E02888D3
:10D40000112803D10020C0430349088009B0F0BDB2
:10D41000A0290020FFFF00005A21002070B588B02D
:10D4200005460E461446172C02DD092008B070BDD3
:10D430000B4800880B49884210D0002168460171D2
:10D440004571290A817101A8C4702246314602A89B
:10D45000FAF7EEFF01A8FFF70FFEE7E70248E5E75E
:10D460005A210020FFFF00000230000030B593B0C9
:10D4700004460020129000BF10A8007A010909019B
:10D48000491C10A80172007AF0218843103010A9BD
:10D49000087200BF00BF10A8407A01090901491CA9
:10D4A00010A84172407AF0218843103010A94872C8
:10D4B00000BF10A8807A06218843811C10A88172C1
:10D4C0001C210BA8FBF713F808A8007B0221884356
:10D4D000811C08A80173007B10218843411808A80B
:10D4E000017300200E9012A8109000200C900F9055
:10D4F0000A9008A8007AF02188430146103108A854
:10D500000172007A01090901491C08A80172407AD8
:10D51000F02188430146103108A84172407A010980
:10D520000901491C08A84172807A082188430146F4
:10D5300008A88172807A10218843014608A8817268
:10D54000807A4108490008A88172807A06218843C0
:10D55000811C08A881721648017808A881710421ED
:10D56000684681842068069060680790217A08A840
:10D570000170142101A8FAF7BAFF092168468181D8
:10D580000021C1810921018209A8019006A8059006
:10D590000AA80290074908880B1D01AA0BA9A2DF5F
:10D5A0000546002D02D0032013B030BD0020FBE75C
:10D5B00058210020A029002070B50546002119E05F
:10D5C000EFF31080C407E40F72B61148405C0028E6
:10D5D0000CD101200E4A5054282048430D4A80188F
:10D5E0002860002C00D162B6012070BD002C00D153
:10D5F00062B6491C1D29E3D300BF042600BF06A262
:10D6000044210420FCF700F900BF00BF0020ECE734
:10D6100078310020F02C00202E2E5C2E2E5C2E2E39
:10D620005C7262635F6D6573685C7372635C6D6589
:10D6300073685F7061636B65742E63000246002A35
:10D6400000D17047114609315078062802DD507824
:10D65000252801DD0020F4E70FE00B7810460930A3
:10D66000081A1B185078801F834201D90020E8E770
:10D670000878401C4301181A091848781628ECD17C
:10D68000C8788B7800021843024B9842E5D10846CF
:10D69000D7E70000E4FE000030B504462046FFF75F
:10D6A000CDFF0546002D01D10B2030BD20460930AD
:10D6B00085420ED02878401CC1B2002004E02B5CCB
:10D6C000224609321354401C8842F8D325460935B6
:10D6D00000BF2878C01D60700020E6E7FFB581B06C
:10D6E00005461F460A9E002D02D10E2005B0F0BD52
:10D6F0002C460934172E01DD0920F7E7284600F0F3
:10D70000E3F830460E306870287800090001801C6C
:10D710002870F01D2070162060700D48A070000A5F
:10D72000E07002982071000A60710398A071000AED
:10D73000E071002E09DD002F07D0172E05DC3246E0
:10D74000394620460830FAF773FE0020CEE7000085
:10D75000E4FE000002461146093110E04878162820
:10D7600006D1C8788B7800021843094B984201D043
:10D77000012070470878401C4301181A0918507896
:10D78000C01F13460933C0188842E7D80020F0E7CD
:10D79000E4FE0000002003E00021034A1154401C75
:10D7A0001D28F9D37047000078310020F8B50646EF
:10D7B0001849701A2821FAF7B5FE04461D2C01D32A
:10D7C0000020F8BDEFF31080C507ED0F72B61248C8
:10D7D000005D00280ED100BF082700BF0FA27621F0
:10D7E0000820FCF711F800BF00BF002D00D162B681
:10D7F0000020E6E70848005D401E07490855002D57
:10D8000000D162B60448005D002801DD0120D8E7A0
:10D810000020D6E7F02C0020783100202E2E5C2E40
:10D820002E5C2E2E5C7262635F6D6573685C737232
:10D83000635C6D6573685F7061636B65742E630014
:10D84000F8B505461549681A2821FAF76BFE044613
:10D850001D2C01D30020F8BDEFF31080C607F60F92
:10D8600072B60F48005D002803D00D48005DFF2808
:10D8700009D100BF042700BF0AA262210420FBF7E0
:10D88000C3FF00BF00BF0648005D401C04490855A7
:10D89000002E00D162B60120DDE70000F02C002050
:10D8A000783100202E2E5C2E2E5C2E2E5C72626350
:10D8B0005F6D6573685C7372635C6D6573685F70E0
:10D8C00061636B65742E63007CB50446684671DF46
:10D8D0000546002D01D028467CBD20784021884394
:10D8E00069460978890140221140084320700622C8
:10D8F00000A90131E01CFAF79BFD0020ECE710B510
:10D9000004462046FFF726FF002802D02046FFF7F6
:10D91000C3FE2046FFF7D8FF10BD000010B590B041
:10D920001C2109A8FAF7E3FD08A80079042188431F
:10D93000011D08A80171007910218843411808A829
:10D94000017100200E900F900A900D90089008A889
:10D950004078F02188430146103108A84170407892
:10D9600001090901491C08A84170807806218843F3
:10D97000811C08A88170807808218843014608A886
:10D980008170807810218843014608A881708078D2
:10D9900041084900491C08A881701448017868466C
:10D9A00081770521818300210191142102A8FAF7D2
:10D9B0009EFD012168460182002141821B21818256
:10D9C00008A8039007A8029001A8069008490888B3
:10D9D0000B460C3302AA09A9A2DF0446002C02D090
:10D9E000032010B010BD0020FBE7000058210020EC
:10D9F000A029002070B50646304603F05BFF0120E9
:10DA0000FEF7F2FC0D480078002816D100220C49E0
:10DA10000C480068FBF7BAFF044600BF2546002DFE
:10DA200006D000BF08A2FF21F6312846FBF7ECFE26
:10DA300000BF01200149087000BF70BD1C200020FC
:10DA400048E10100182000202E2E5C6D61696E2EC9
:10DA500063000000F7B584B004460F4606980678C8
:10DA6000B01C1F2803DC6078801C1F2802DD0C20FE
:10DA700007B0F0BD1F20801B801E85B20295B11C2F
:10DA8000781802A97DDF03900398002801D003983D
:10DA9000EEE72078022808D168460089A84204DC15
:10DAA00009200190684605890BE008200190607804
:10DAB000002804D06078A84201DC657801E068465F
:10DAC0000589681CC2B23046711CCEB23A54304649
:10DAD000721CD6B20199395406980178A81C08180E
