:020000040001F9
:10800000803E00206DC101007FC10100018201009E
:108010000000000000000000000000000000000060
:1080200000000000000000000000000083C101000B
:10803000000000000000000085C1010087C10100B0
:1080400089C1010089C10100BDC4010089C10100CD
:1080500089C1010000000000F1CE010089C10100CA
:1080600089C1010089C1010089C1010089C10100E4
:1080700089C1010089C1010089C1010089C10100D4
:1080800089C1010089C10100F5A7010089C1010072
:1080900089C1010089C10100E3C2010089C1010059
:1080A00089C1010089C1010000000000000000003A
:1080B00000000000000000000000000000000000C0
:1080C0000348854605F0F4F900480047C7820100DF
:1080D000803E002010B5A0B000BFBA49684605F048
:1080E00071FA6C4603E02078641C04F048FB2078A9
:1080F0000028F8D100BF20B010BD70B5A0B0064672
:108100000D46012D01D820B070BD304605F04AF96A
:10811000AD49088008460088002813D1AB48807913
:10812000401CAA49887100BFA9A1684605F04AFA17
:108130006C4603E02078641C04F021FB20780028C2
:10814000F8D11FE0A1488079401CA049887117220E
:108150009D48008800F0E9FA01219B48008800F062
:10816000BEFA00BF984802889EA1684605F02AFA28
:108170006C4603E02078641C04F001FB20780028A2
:10818000F8D100BF00BFBEE71620012181409C4A04
:10819000D16000BF172000F010F972B601E004F0C2
:1081A0008DF9FCE7A0B00D46164600BF2B463246BF
:1081B00094A1684605F006FA6C4603E02078641C3A
:1081C00004F0DDFA20780028F8D100BFFFF7DCFFCB
:1081D000A2B005460E46174600BF33463A468EA16A
:1081E00002A8009505F0EEF902AC03E02078641CCB
:1081F00004F0C5FA20780028F8D100BFFFF7C4FFCB
:10820000A0B000BF8BA1684605F0DCF96C4603E026
:108210002078641C04F0B3FA20780028F8D100BF5D
:10822000FFF7B2FF30B5A1B004462078002805D092
:10823000012802D0022842D101E000BF00BFA0887F
:1082400061490988884203D05F480088002835D1F9
:108250001520012383401946694B5B68C340DA0748
:10826000D20F002A02D1664B996001E0644BD960BD
:1082700000BF55480088002817D1A0880122534923
:1082800000F053FA00BFA38820786D490A5C6DA105
:1082900001A805F097F901AD03E028786D1C04F002
:1082A0006EFA28780028F8D108E048488079401C08
:1082B00046498871A088172200F037FA00E000BF15
:1082C00000BF21B030BDAEB000BF002348226049DE
:1082D000052003F0BEFF054600BF2E46002E05D048
:1082E00000BF5CA2A7213046FFF772FF00BF00BFAE
:1082F0005B4803F0E4FF5B4803F0EAFF5A4829902B
:1083000064202B90262128A8017205202C900021A2
:1083100028A801752D98009029A80FC800F038F9F9
:10832000044600BF2546002D05D000BF49A2B52157
:108330002846FFF74DFF00BF27A871DF062227A9B7
:108340000131224804F0EAFF0020202108E0032246
:1083500005231B0707252D025B1985005A51401C78
:108360008842F4D900BF152503E0284600F025F81F
:108370006D1C182DF9D93D4800F0BEF800BF3CA196
:10838000684605F01FF96D4603E028786D1C04F07F
:10839000F6F928780028F8D100BFFFF79BFE0BE024
:1083A00020A800F075FA002805D120A8FFF73AFFB1
:1083B00020A800F095FA48DFF2E701218140104A39
:1083C00091607047DCD90100002000200C210020C2
:1083D000526573706F6E64696E6720746F20616C94
:1083E0006C0D0A00526573706F6E64696E6720745D
:1083F0006F2068616E646C652025640D0A000000C2
:10840000000500505344204552524F523A202573E4
:108410003A4C25640D0A0000415050204552524FFD
:10842000523A2025733A4C2564202D20453A255890
:108430000D0A0000484152444641554C540D0A0073
:1084400016D9010025635B25645D200D0A0000003C
:10845000242100202E2E5C6D61696E2E63000000C9
:10846000058801001D88010001EFCDABFB800100F4
:1084700053544152540D0A0070B504460D2C0AD0D5
:108480000A2C08D038480068047037480068401C3F
:108490003549086008E0002033490968087032480F
:1084A0000068401C304908602F4800682F49451A71
:1084B000202D03D20D2C01D00A2C09D1002D04D07F
:1084C00029462A482A4A12689047284826490860BF
:1084D00070BD38B50446207800280AD103E068460C
:1084E0000078FFF7C9FF684604F042F90028F6D08B
:1084F00000E000BF00BF38BD70B58AB005461D481A
:1085000009900A216846C177082181770B210177FC
:1085100009214177002108A80170417000BF0020A7
:1085200006901548029008200390144804900120FA
:108530004002059006A80323114A02A9009007A84B
:1085400004F035F8044600BF00BF2646002E06D0D2
:1085500000BF0CA25F213046FFF73AFE00BF00BF0C
:10856000034805600AB070BD082000206C2100207F
:108570000420002000705F070C2000208C210020C8
:10858000D38401002E2E5C636D645F69662E6300E8
:108590000FB4FEB50021029102A812DF6846007AEE
:1085A000002804D10220FEBC08BC04B01847DF48F4
:1085B0000078002801D00820F5E70A98052803D3A1
:1085C000DB490A98884201D90720ECE700F013FF45
:1085D00002F026F902F072FD08AD2979089801F041
:1085E000DFFE2B7C2A797D26F6000A9D75432846FE
:1085F000089902F0D9FA0446002C01D02046D2E7AF
:10860000002000900190019069460870684660DF84
:108610000446002C03D0082C01D02046C3E708AB49
:1086200019790A9A089801F063FC0446002C01D0DD
:108630002046B8E70B9801F0CFF8BE4908980860CB
:1086400008A80079BC490870BC490A980860012054
:10865000B64908700820BA498860BA4808601C20EA
:10866000486000204861084601F08CFF01F06DF978
:10867000002098E7AD480078704710B5AB48007807
:10868000022801D0082010BD01F05FF90120A749A0
:1086900008700020F7E710B5A4480078012801D041
:1086A000082010BD01F0DAF80220A049087000206F
:1086B000F7E710B50446A448844201DD102010BD40
:1086C000204602F077FCFAE710B504469E48844243
:1086D00001DD102010BD204602F081FCFAE770B5E4
:1086E00004460D4691480078002801D1082070BD4D
:1086F0009548844201DD1020F9E72946204602F022
:10870000A8FCF4E770B504460D46884800780028B8
:1087100001D1082070BD8C48844201DD1020F9E7AA
:108720002946204602F012FCF4E770B505460E46D5
:1087300014467E480078002801D1082070BD824888
:10874000854201DD1020F9E7E2B23146284601F00A
:10875000FFFBE2B23146284602F085FBEEE770B53A
:1087600004460D4616467848844201DD102070BD4F
:1087700032462946204602F0AFFBF8E701466B4837
:108780000078002801D1082070476A480068086016
:108790000020F9E7014665480078002801D108204B
:1087A00070476548007808700020F9E701465F4887
:1087B0000078002801D108207047604800680860F0
:1087C0000020F9E770B504460D465F48844201DD9C
:1087D000102070BD2946204602F051FCF9E770B523
:1087E00004460D465848844201DD102070BD2946DC
:1087F000204602F0C5FBF9E710B50446204602F01A
:1088000002FA10BD10B5044648480078002800D18F
:1088100010BD204601F0BEFB00BFF9E710B50446CD
:10882000204600F0CBFE10BD70B504463F480078EE
:10883000002801D1082070BD002C01D10E20FAE7DC
:1088400021463F4801F0AFFE0546002D1ED1A0682D
:1088500000281BD02078002807D0012806D0022845
:1088600002D0042810D108E000BF00BFA068002893
:1088700002D0A06802F068FC07E0A068002802D0DF
:10888000A06802F061FC00E000BF00BF2846D2E70C
:1088900010B5044625480078002801D1082010BDF5
:1088A0002146274801F0B3FE002801D00520F6E755
:1088B0000020F4E710B504461C480078002801D1D8
:1088C000082010BD002C01D10E20FAE721461C48DB
:1088D00001F006FF002801D00520F2E70020F0E7B4
:1088E00010B504462078002806D0012806D00228BA
:1088F00003D0042810D108E000BF00BFA068002802
:1089000002D0A06802F04DFC07E0A068002802D069
:10891000A06802F046FC00E000BF00BF10BD10B52B
:108920000446204601F005FE10BD00001420002082
:1089300060EA0000182000201C20002020200020D9
:108940008C230020A4230020EFFF00000020D34947
:108950000860401ED24988600120D2490861022087
:10896000D149087000BF00BF70477CB5CF4801F007
:108970007FFE044622E06946CC4801F0B1FE0028A3
:108980001AD168464079022816D10021C74801F063
:108990003EFEFFF7DBFF00BFC54800690028FBD1A2
:1089A000C449C86064230022D2430021C24D00980C
:1089B0002D68A847641E00E002E000BF012CDAD851
:1089C00000BF7CBD0EB50A2805DC4100091DB84A70
:1089D000403A916015E0242805DC4100891DB44A25
:1089E000403A91600DE0B54B0ECB0293019200919D
:1089F0000146253989006A465158AD4A403A91608E
:108A000000BF4106490EAA4A51610EBD10B5044689
:108A10001320A2490860A079FFF7D4FFA449403988
:108A20002068486008209E4948600020A149C8602D
:108A3000A3480068000E9E4940398862A04800683B
:108A40000002000A00020862607900280BD100BF12
:108A500000BF2079C862E079C860012091490860B0
:108A60009149087015E000BF00BF9548006895491E
:108A7000884204D003208E494039086303E0012076
:108A80008B494039086301208649486000208649A7
:108A9000087010BD70B504460D46164600208A4980
:108AA000C8630120C863002081494039C8600320A1
:108AB00008610220886025207D4948618E207C491C
:108AC000403948628148C8617D480068000E88626C
:108AD0007B4800680002000A000208620020C862A9
:108AE000012008637A4848617A4888617A48886337
:108AF000FF20043048637948C86394206C4948607B
:108B00006948007803280BD10820684988607448B8
:108B100008600820486000204861084601F032FDE6
:108B200002206149087000206249C86001200121CB
:108B300081406C4A116000BF00BF012181406A4A38
:108B4000116000BF694804605B48056068480660C2
:108B5000564801F0D1FD002803D0644800688047E2
:108B600006E000F0EFFE002802D0012000F08DF8B2
:108B700070BD53490860704770B50446002C01D1A0
:108B80000E2070BD6079002804D12079012801DD14
:108B90001020F6E72146454801F005FD002801D0E8
:108BA0000420EEE7EFF31080C507ED0F72B600F07A
:108BB000C9FE002802D0012000F067F8002D00D186
:108BC00062B60020DDE7FEB53A48C068002843D011
:108BD00048480068002801D0012000E000200290F1
:108BE0004448C56864263348C069002805D0002081
:108BF0003049C8612E488068C6B200202D49C8603F
:108C000069462A4801F003FD044600BF2746002FAD
:108C100007D000BF38A2FF2149313846FFF7D8FA04
:108C200000BF00BF68464079012803D068464079FC
:108C3000022807D133462A461F4F029900983F6801
:108C4000B84703E02A4900980968884700BF00BF79
:108C500002201549087001E0FFF787FE12480078EE
:108C6000022803D01048007803280DD101A90F482D
:108C700001F036FD002803D101A8FFF7C7FE02E08E
:108C80001A480068804700BFFEBDC206D20E01210F
:108C90009140144A803A1160704700000012004071
:108CA00000130040001000402420002084240020F5
:108CB00040150040001100402C2000201CD901006C
:108CC00034200020D6BE898EC01F004000D6BE8949
:108CD00006010200250003025B0600005555550001
:108CE0009C24002080E200E000E100E02820002039
:108CF00030200020001400402E2E5C2E2E5C2E2EE4
:108D00005C7262635F6D6573685C7372635C7261F1
:108D100064696F5F636F6E74726F6C2E6300000026
:108D200070B504460D4600BF022C01DA012000E0B8
:108D300000200646002E05D100BFF6A24421FFF711
:108D400047FA00BF00BF2046103001218140F9489A
:108D50004160F948152189014018A10045500021C2
:108D6000F648A2008150A100405870BD10B500F037
:108D700035FA0024F248007800280DD00021EF4891
:108D8000C1600121EC48C164152189014018C06807
:108D9000EC490968441801E0EB48046800F026FA41
:108DA000204610BDF0B585B0002441E0E348A100A5
:108DB000405800283BD0A000E4490D5800BF002DCA
:108DC00001D0012000E000200746002F05D100BFA0
:108DD000D0A26221FFF7FCF900BF00BF0020A10074
:108DE000DA4A50502046103001218140D14881603C
:108DF000FFF7BCFF0646D648005D02210840002868
:108E000002D03046A84708E0002069460870019566
:108E10000296684601F02EFD00BF0021C748A2005F
:108E20008150A1004058002C00D103E000BF641C19
:108E3000032CBBD300BF05B0F0BDF8B504460D460A
:108E400017461E46032C01DB0720F8BDB007800F34
:108E5000B04201D00A20F8E700F0C0F9A000BB49F9
:108E60000F50A000BB490D50B94806550020A10085
:108E7000B94A5050B2480078002810D0B148006874
:108E8000281AB64A904203D9AE480068401B02E057
:108E9000AC480068281A01462046FFF741FF00F061
:108EA000A5F90020D1E7FFB581B004460D461E4666
:108EB0000A9F032C02DB072005B0F0BDB807800F26
:108EC000B84201D00A20F7E700F088F9A1009F4AD4
:108ED00003985050A0009F490D50A0009E490E508D
:108EE0009B4807559648007800282AD09548006886
:108EF000281A9A4A904203D992480068401B02E01F
:108F000090480068281A01462046FFF709FF8B4861
:108F1000A1004118924851221201821820460830BF
:108F2000C00011508E4851210901411820460830D7
:108F3000C000081846602046083001218140894859
:108F4000416000F053F90020B6E7F8B504460F463B
:108F500016461D46032C01DB0720F8BDE807C00FAD
:108F6000A84201D00A20F8E700F038F9A0007949BA
:108F70000F50A00078490E5075480555704800788C
:108F8000002819D06D48A1004118754851221201DE
:108F9000821820460830C000115071485121090143
:108FA000411820460830C0000818466020460830A6
:108FB000012181406B48416000F018F90020CCE7A6
:108FC00010B50446032C01DB072010BDA000624948
:108FD0000858002806D1A0005C490858002801D193
:108FE0000520F2E700F0FAF8032C15DA0020A100C2
:108FF000564A5050564908555148007800280BD021
:1090000020461030012181404A48816020460830C6
:10901000012181405348816000F0E8F80020D4E746
:1090200070B586B005460024A7E00020424915220D
:1090300092018918A200885000214048A200815066
:10904000A1004058A000434908583E490968401A09
:109050004249884206D9A0003E4908583949096862
:10906000081A05E0A0003B49085836490968401A2B
:1090700029467831334A1268891A384A914204D90C
:1090800030490968491B783104E0294678312D4A76
:109090001268891A88422BD2A0002C49085800284F
:1090A00018D0A0000E580020A100284A505028488F
:1090B000005D02210840002802D02846B04708E0A1
:1090C0000020694608710296039501A801F0D2FBC1
:1090D00000BF00BFA0002049085800284CD0012044
:1090E000A1001D4A515808600020A100505043E0E3
:1090F000A0001649085800283ED0A200154B9A58E7
:10910000521B164B9A422FD9A200124B9A58AA1AF8
:109110002EE000002E2E5C2E2E5C2E2E5C726263E2
:109120005F6D6573685C7372635C74696D65722EE4
:109130006300000000830040008000404081004048
:10914000442000203C20002040200020DC2400207F
:1091500038200020F4240020E8240020FFFFFF7FB7
:1091600000F0014000F50140A200234B9A58521B29
:109170001146E0B2FFF7D4FD641C032C00D254E783
:109180001E480068002806D10820012181401C4AA1
:10919000116000BF00BF1B48056001201A4908701C
:1091A00006B070BD10B5014600200FE0174A125CF2
:1091B000D207D20F002A08D00022144B1A54830081
:1091C000134CE2508300134CE250401C0328EDD3B3
:1091D0001148016000200C4A107010BDEFF31080A0
:1091E000C007C00F72B605490860704703480068A1
:1091F000002800D162B67047F424002048200020E7
:1092000000E100E03C200020442000203820002025
:10921000DC240020E8240020402000209D4A126821
:10922000002A07D09B4B02681B681B68D21A9A4B16
:109230009A4205D9974A12680261964A10607047AF
:10924000944A116800E009690A69002A06D00A698F
:1092500012680368D21A904B9A42F4D80A690261E4
:10926000086100BFEBE701468A480068884205D1E3
:10927000884B0869186000200861704785480268BB
:1092800008E01069884204D1086910610020086173
:10929000F3E71269002A09D01069002806D008688F
:1092A00013691B68C01A7C4B9842EAD90520E4E791
:1092B00030B585B0054677484068002801D005B034
:1092C00030BD27E073480468012069460870606873
:1092D0000190E16803910295684601F0CBFA0028FD
:1092E00000D0ECE76B492069086000202061A0688D
:1092F00000280ED000BFA1682068401820602846D2
:1093000064302168081A64498842F4D82046FFF77F
:1093100085FF00BF5F480068002808D05D480068EE
:10932000016828466430081A5B498842CAD800BFE1
:10933000C5E710B504462046FFF7BAFF204600F007
:1093400001F810BD10B5044652480068002816D038
:10935000504800680068201A4F49884208D94D4893
:10936000006800234D4A01680120FFF766FD06E012
:1093700000234A4A214664310120FFF75EFD10BDFB
:1093800070B504462546FFF7F1FC06462846FFF770
:1093900045FF3046FFF78CFF3046FFF7D3FF70BD27
:1093A00070B50446FFF7E2FC05462046FFF75BFF79
:1093B0002846FFF7C7FF70BD70B50446FFF7D6FC1F
:1093C00006462046FFF74FFF2046FFF727FFEFF343
:1093D0001080C507ED0F72B62E484068401E2D491B
:1093E0004860002D00D162B63046FFF761FF30467D
:1093F000FFF7A8FF70BD002026490860704710B530
:1094000086B00446002C02D10E2006B010BD00200C
:10941000206102206946087121480290039401A846
:1094200001F028FAF1E710B586B00446002C02D10D
:109430000E2006B010BD022069460871194802903E
:10944000039401A801F016FAF3E7F0B585B00446DD
:109450000E46002C02D10E2005B0F0BD0220694658
:109460000870114801900294EFF31080C707FF0FB6
:1094700072B6684601F0FEF90546002D05D1054893
:109480004068401C034948602660002F00D162B646
:109490002846E1E74C200020FFFFFF7F33930100C7
:1094A00081930100A1930100B993010010B5FC491B
:1094B0000968FC4A126851430846FB4903F0DBFE89
:1094C0007D21C900401810BD10B50446F74800784A
:1094D000002807D0F64884600320F6490870F44855
:1094E000486001E0F24850DFED48046010BDEF49EC
:1094F000097800290DD0EA4909680918EE4A914215
:1095000002D9E7490968501A0121EA4A1170114647
:1095100048607047F0B585B0E84844680025E848E1
:109520000068002801D1E74830C0E64903C92A464F
:10953000201A8A410AD2E348E349036842680020BE
:10954000C91A90410E1907466F4105E02846DD4AC9
:1095500006CA661A90410746D34900206A4683C26C
:10956000039630463946009B019A03F09AFE49045F
:10957000C00B0843D54909684018D4490860D14850
:1095800030C005B0F0BDD2480078002800D1704747
:10959000C3480068CD4909684018F8E710B5FFF7DF
:1095A000D5F9FFF7F0FF0446FFF7FCFD0020C8499E
:1095B0000870BE490870C749087010BD70B50446F0
:1095C000201F030004F012F8050D1C11040C2000EC
:1095D000C1480078012802D0C048FFF775FF14E0A9
:1095E00013E0BF48FFF770FF0FE000BF002500BF8A
:1095F000BCA2E0210020FEF7EBFD00BF00BF04E0AD
:10960000B648FFF761FF00E000BF00BF70BD012159
:10961000B04A11707047AD480068704770B5044695
:109620000120A2490870AC480078012802D0022825
:1096300014D109E002209F4908700020A049086069
:10964000FFF7ACFF9B4870BDA448FFF73DFFFFF755
:10965000A5FF0020A04908709648F4E700BF00BFAE
:10966000002094490870230003F0C0FF05043A3736
:109670007E3D8E00012096490870002095490870B3
:10968000A1490860FFF746FF01F020F98F48006804
:10969000FFF7C6FC00F08FFE90489C490860FFF77A
:1096A000BAFF7F4909684618FFF700FF351A032300
:1096B000974A29460020FFF7C0FB94480068FFF74F
:1096C00016FF7F480068401C7D490860002803D1D0
:1096D00008460068401C086062E0FFF774FA5FE02B
:1096E000FFF760FB5CE06E4800688A490968401833
:1096F0006B49086000208749086083480068401C67
:10970000814908600020FFF75BFCFFF784FF644994
:1097100009684618FFF7CAFE351A03237C4A294612
:109720000020FFF78AFB0020624908706448006847
:1097300001280CD15A4800687449096840186749E3
:10974000884210D271480068FFF7D1FE0BE0544800
:1097500000686E49096840185749884203D26B482F
:109760000068FFF7C4FE1BE06848006840086749CE
:109770000860084600687D21C900884203D9634813
:109780000068FFF7B4FE0BE000BF002500BF55A244
:10979000FF215F310020FEF71BFD00BF00BF00BFAF
:1097A00000BF4C480078002805D04C48FFF78CFEDD
:1097B000FFF7F4FE0BE03F480078012804D13D4854
:1097C00040685449086002E00020524908600020C7
:1097D00036490870374836E700B501464E480078EC
:1097E000002801D0082000BD0B0003F0FFFE092770
:1097F0001A120A06231F160E27006420294A106039
:1098000020E09620274A10601CE01420254A1060B2
:1098100018E0FA20234A106014E01E20214A10604C
:1098200010E0FF20F5301F4A10600BE032201D4A87
:10983000106007E04B201B4A106003E0FA20194A31
:10984000106000BF00BF0020184A10700120324A8B
:1098500010702248124A10600020C4E770B500BFA3
:109860004FDF0546002D07D000BF1EA2FF21CF31DC
:109870002846FEF7ADFC00BF00BF01201649087066
:10988000EFF31080C407E40F72B611480078002887
:1098900002D0012000F09AF8002C00D162B670BD11
:1098A000702000208420002040420F007C200020F7
:1098B00058200020682000208096980000B50040C5
:1098C0008820002090200020FFFFFF00742000204F
:1098D0007D2000207F200020802000201027000015
:1098E000701700002E2E5C2E2E5C2E2E5C72626392
:1098F0005F6D6573685C7372635C74696D65736CCE
:109900006F742E63000000009C200020782000204F
:109910000F960100982000207E20002010B5022024
:109920002E490870EFF31080C407E40F72B62C487C
:109930000078002802D0012000F048F8002C00D167
:1099400062B610BD26480078704710B500BF2548A4
:109950004EDF0446002C07D000BF234AFF21ED3123
:109960002046FEF735FC00BF00BF00201B490870F1
:10997000FFF7E8FF002801D0082010BD1B48FFF7C3
:10998000A3FD0020F9E710B515480078002800D1A4
:1099900010BDFFF7EBF916490968164A12688918D5
:1099A000081A1549884208D9FFF7E0F910490968F3
:1099B000104A12688918401AEAE7FFF7D7F90C49EC
:1099C00009680C4A12688918081AE1E7C206D20E23
:1099D00001219140094A1160704700008020002059
:1099E0007D2000201D960100E49801001027000052
:1099F0007020002074200020FFFFFF7F00E200E0C5
:109A00000146087BFF2801D0012070470020FCE7B9
:109A100070B504462046FFF7F3FF00280ED0002063
:109A20002073201D03F0ABFC06462046083003F0EF
:109A3000A6FC3518211D284603F0ABFC70BDFEB511
:109A400004460D4672480068281A7249884201D9B6
:109A50006F4805686E4805606F4801F0EDFC0190A5
:109A60002046083003F08BFC4608201D03F087FCDD
:109A700087193146019803F0FEFB781821460090C3
:109A800003F087FCFEBD70B504460D46201D03F0B3
:109A900076FC281A5F4988422FD82046FFF7B0FF8E
:109AA00000282AD02046083003F069FC5B49096889
:109AB0005B4A1268514388420AD22046083003F0BC
:109AC0005EFC460021460831304603F062FC09E0A6
:109AD00052490968524A12685143084621460831E2
:109AE00003F057FC002020732046083003F047FCA9
:109AF0004619211D304603F04CFC70BD70B506467A
:109B00000C461546464806604448046045480570C2
:109B1000414801F0D1FC70BD70B504460D462046A9
:109B2000FFF76EFF00280AD029462046FFF7ABFF5B
:109B3000207B401CFF2802D0207B401C207370BD7E
:109B400070B504460D46211D284603F022FC21462F
:109B500008313348006803F01CFC29462046FFF713
:109B60006EFF2046FFF754FF70BD70B504460D46EA
:109B70002046083003F003FC29490968884203D9CC
:109B800029462046FFF7DCFF70BD70B505460C4640
:109B9000281D03F0F4FB001B1E49884203D9291D30
:109BA000204603F0F6FB21462846FFF748FF70BD2C
:109BB00070B505460C4616462846FFF721FF0028DB
:109BC00001D1207013E0287B16490978884201DA18
:109BD000012000E00020207031462846FFF753FFA7
:109BE0002078002803D131462846FFF728FF70BDB2
:109BF000FF210173704710B50446207BFF2805D173
:109C00000020207300212046FFF79AFF10BD0000BE
:109C1000AC200020FFFFFF7F00250020A4200020B3
:109C2000A0200020A820002030B587B00446FE48C0
:109C30000088FE49884202D1FD4807B030BDFD488A
:109C40008078002802D1FA48401EF6E706A862DFB5
:109C5000C5B2002D01D01120EFE76846007E002834
:109C600002D1F348801CE8E7F24881896846018107
:109C70000121817200218181207802280FD004DC2B
:109C8000002807D0012811D108E011280BD0122894
:109C90000CD105E0E078001D01900AE000BF00BF94
:109CA0000520019005E00320019002E001200190D1
:109CB00000BF00BF01A80490059402A9DA480088FB
:109CC000A6DFBAE730B587B004460D4611216846D5
:109CD000017044708570FFF7A7FF07B030BD30B545
:109CE00093B004460020129000BF10A8007A01092A
:109CF0000901491C10A80172007AF0218843103034
:109D000010A9087200BF00BF10A8407A010909011C
:109D1000491C10A84172407AF0218843103010A9E4
:109D2000487200BF10A8807A06218843811C10A8C1
:109D300081721C210BA803F00AFB08A8007B0221FA
:109D40008843811C08A80173007B102188434118B7
:109D500008A8017300200E9012A8109000200C900B
:109D60000F900A9008A8007AF0218843014610312C
:109D700008A80172007A01090901491C08A80172AA
:109D8000407AF02188430146103108A84172407A98
:109D900001090901491C08A84172807A08218843F9
:109DA000014608A88172807A10218843014608A8DC
:109DB0008172807A4108490008A88172807A062160
:109DC0008843811C08A881729B48017808A881718A
:109DD0000421684681842068069060680790217A93
:109DE00008A80170142101A803F0B1FA09216846FE
:109DF00081810021C1810921018209A8019006A861
:109E000005900AA802908B4908880B1D01AA0BA98E
:109E1000A2DF0546002D02D0032013B030BD002084
:109E2000FBE710B590B01C2109A803F090FA08A830
:109E3000007904218843011D08A8017100791021CF
:109E40008843411808A8017100200E900F900A90D5
:109E50000D90089008A84078F02188430146103101
:109E600008A84170407801090901491C08A84170FF
:109E7000807806218843811C08A881708078082199
:109E80008843014608A881708078102188430146E4
:109E900008A88170807841084900491C08A8817091
:109EA0006548017868468177052181830021019109
:109EB000142102A803F04BFA012168460182002117
:109EC00041821B21818208A8039007A8029001A863
:109ED0000690584908880B460C3302AA09A9A2DF4C
:109EE0000446002C02D0032010B010BD0020FBE778
:109EF000F0B585B005460E461746019502976846AF
:109F00000673012181704D4901804A4A694601204A
:109F1000A0DF0446002C02D0032005B0F0BD464966
:109F2000474863DF0446002C01D02046F5E701A82E
:109F3000FFF7D5FE0446002C01D02046EDE7FFF7E1
:109F400070FF0446002C01D02046E6E70020E4E73D
:109F500070B588B005460E461446172C02DD092060
:109F600008B070BD304800883049884210D00021C8
:109F7000684601714571290A817101A8C4702246A1
:109F8000314602A803F0CAF901A8FFF74DFEE7E742
:109F90002748E5E7F0B589B005462888502875D1EF
:109FA000E88824498989884271D12C462034207858
:109FB000002804D001284FD0022869D19EE0A17862
:109FC0006278080210431949884204D12078F221AE
:109FD000FFF778FEFAE0E278A37867781902394350
:109FE0000846211D00F03FFF0646002E2FD169468E
:109FF0000872201D0490E17802A80173A1786278AC
:10A000000802104369468881012102A8C182FEF737
:10A01000ADFE089002A8FEF707FC002812D02078B9
:10A02000F021FFF74FFE11E0B2200020FFFF0000FB
:10A030000230000010250020B0200020E4FE0000C7
:10A0400028D9010020788021FFF73CFE03E020782A
:10A05000F021FFF737FEB9E0E078002802D00128B0
:10A0600045D11BE02279002A01D0012200E0002224
:10A070001146A37866781802304300F0EAFF002802
:10A0800007D02078F221FFF71DFE35E0BEE09FE00B
:10A0900097E020788021FFF715FE2DE02079002839
:10A0A00012D0A278637811021943084600F082FFAB
:10A0B000002804D02078F221FFF704FE1CE020786D
:10A0C0008021FFF7FFFD11E0A278637811021943A8
:10A0D000084600F084FF002804D02078F221FFF722
:10A0E000F1FD09E020788021FFF7ECFD04E0207805
:10A0F000F321FFF7E7FD00BF00BF67E0E07800282D
:10A1000002D0012856D131E0A178627808021043CC
:10A110004649884204D12078F221FFF7D3FD4EE072
:10A1200000200890A278637811021943084608A914
:10A1300000F0A5FF002804D02078F121FFF7C2FD30
:10A140003DE0122168460171A1786078090201435F
:10A1500068464171090A8171E17801A8C17008A8B7
:10A16000017801A80171FFF75FFD28E0A27863780C
:10A1700011021943084608A900F04AFF002804D03C
:10A180002078F221FFF79EFD19E012216846017147
:10A19000A17860780902014368464171090A81711A
:10A1A000E17801A8C17008A8017801A80171FFF742
:10A1B0003BFD04E02078F321FFF784FD00BF00BFE2
:10A1C00004E02078F421FFF77DFD00BF00BF2BE005
:10A1D000E88817498988884209D12C462034217A99
:10A1E000206800F0CFF8606800F007FD1CE0E98807
:10A1F0000F48008A814217D12020405D002801D0FD
:10A20000012000E000200A4988700DE0288810280D
:10A2100003D1A8880749088006E02888112803D1BF
:10A220000020C0430349088009B0F0BDFFFF0000D3
:10A2300010250020B22000201CB502216846417183
:10A24000BD4801796846817100F041FF002800D1C6
:10A250001CBD6846FEF790FC002802D0009800F074
:10A26000A0FF00BFF4E7F0B585B004460E461546E2
:10A270001F46002E26D06078252823DC032069465F
:10A28000087001940295FEF771FD0390684607740B
:10A29000204600F059FF684600F0ECFA00280BD089
:10A2A000204600F07EFF0120A3494871A3480068C2
:10A2B000401CA249086004E0A0484068401C9F4937
:10A2C000486008E001200006854204D29B4880686F
:10A2D000401C9A498860204600F063FF05B0F0BD3D
:10A2E00070B588B005462E46304600F0F1FF0446B2
:10A2F00000200090002C24D06179227909021143BA
:10A300000846694600F03CFE00281AD168460078ED
:10A31000002816D00420694608716079217900026E
:10A320000843694608812046083003902078C01F02
:10A33000C1B201A80173FEF719FD059001A8FEF74F
:10A3400073FA304600F02DFF08B070BD10B586B02E
:10A35000044614227A4901A802F0E0FF039401A800
:10A3600000F088FA002802D0204600F01AFF06B05C
:10A3700010BD10B570484079002801D1FFF75CFF8F
:10A3800010BD704770B505460C46282C07DA6A48A0
:10A39000056004712846FEF7ECFBFFF7BFFA70BDBD
:10A3A00070B504460D4600206649086029462046DF
:10A3B000FFF7E8FF70BD10B5634A64496448FEF7D3
:10A3C00069FB10BD7CB504460D460020009001904D
:10A3D00020783021884320702078802188432070A5
:10A3E0000020A07000942978684601716978817115
:10A3F00000214171E978C17100261EE0A878012191
:10A40000B140084000280CD0204600F09DFE684670
:10A41000FEF7B2FB002809D0204600F0C2FE04205F
:10A420007CBDA8783041002800D108E068468079DA
:10A43000401CC1B268468171761C202EDED300BF5D
:10A440000020EDE7FFB58BB00646154600BF002E95
:10A4500001D0012000E0002007900798002806D1D5
:10A4600000BF3CA2FF215331FDF7B2FE00BF00BF89
:10A4700034466078252804DD204600F092FE0FB0B7
:10A48000F0BD30480068002823D069460E98087255
:10A490002046093003906078801FC1B2684641723F
:10A4A0000622E11C401C02F039FF20784006C10F53
:10A4B000684601700C98049020780107090F6846DF
:10A4C000C17100200695079068461E4909688847B3
:10A4D00000BF0622E11C08A8013002F01FFF20780F
:10A4E0004006C00F08A90870204600F0F1FE07469C
:10A4F000002F10D07879397900020843204988422A
:10A5000005DC294620460E9A00F080FB03E0294630
:10A510003846FFF736FF204600F043FE06484079F4
:10A52000002804D0FFF788FE00200349487100BFCF
:10A53000A5E7044908607047B420002024250020C6
:10A5400038D90100BC2000204DA3010067A2010002
:10A5500073A301002E2E5C2E2E5C2E2E5C72626385
:10A560005F6D6573685C7372635C7472616E737047
:10A570006F72745F636F6E74726F6C2E6300000095
:10A58000EFFF0000202100BF4B1E19468268DA4011
:10A59000D207D20F002AF7D001228A40826000221F
:10A5A000C26002617047F8B504460E46002E01D124
:10A5B0000E20F8BDEFF31080C507ED0F72B6A1684D
:10A5C00020694018E168884204D1002D00D162B6AC
:10A5D0000420EEE7A168491EE0680840616848432E
:10A5E000216847186069002804D0314638466269FE
:10A5F000904704E031463846626802F08FFEE0681A
:10A60000401CE060002D00D162B60020D1E7F8B513
:10A6100004460D46EFF31080C607F60F72B6E168E8
:10A620002069884204D1002E00D162B60E20F8BD08
:10A63000002D15D0A168491E206908406168484373
:10A64000216847186069002804D0394628466269A5
:10A65000904704E039462846626802F05FFE00BF7A
:10A660002069401C2061002E00D162B60020DEE788
:10A6700001460A69C868801A7047F8B504460D4655
:10A680001646002D01D10E20F8BDEFF31080C7074C
:10A69000FF0F72B62046FFF7EBFFB04204D8002F41
:10A6A00000D162B60E20EFE720698019A168491E2B
:10A6B000084061684843216840180090606900289C
:10A6C00004D0626928460099904704E062682846F1
:10A6D000009902F023FE002F00D162B60020D3E7DC
:10A6E00070B504460D46002229462046FFF7C5FFF7
:10A6F00070BDC168016170470146CA68086990422F
:10A7000001D1012070470020FCE7000070B504462D
:10A710002078030002F06AFF0504401C343A590017
:10A720000321C9036068884204D301214907606896
:10A73000884209D900BF102500BFA6A253211020CE
:10A74000FDF746FD00BF00BF6168A06888473DE097
:10A750000321C9036068884204D301214907606866
:10A76000884209D900BF102500BF9AA25B211020A2
:10A77000FDF72EFD00BF00BF6168A068884725E097
:10A78000237C201D07C8FFF75DFE1FE0E279A17959
:10A79000A08801F03EFA19E00321C90360688842ED
:10A7A00004D3012149076068884209D900BF1025F8
:10A7B00000BF88A278211020FDF70AFD00BF00BF6E
:10A7C0006268E168A068904700E000BF00BF70BD0C
:10A7D00030B585B0044669462046FFF718FF0546A8
:10A7E000002D05D16846FFF791FF012005B030BD6F
:10A7F0000020FBE710B510E000248048FFF7E8FFD9
:10A800000443FFF79FF8002803D07D48FFF7E0FFDF
:10A810000443002C00D101E000BFEDE700BF10BDF4
:10A8200010B578480078002800D010BD0820734982
:10A830008860754808601420486000204861084618
:10A84000FFF7A0FE08206E49886070480860142059
:10A850004860002048610846FFF794FE122000F08F
:10A8600070F80321122000F07CF80120654908707F
:10A8700000BFDAE770B50446002C01D10E2070BD90
:10A8800000262078030002F0B1FE05090704050642
:10A890000B0000BF00BF00BF584E03E0584E01E060
:10A8A0000720ECE700BF21463046FFF77CFE054657
:10A8B000002D01D02846E2E7122000F04AF80020DF
:10A8C000DDE710B54E48FFF714FF10BD10B54B483B
:10A8D000FFF712FF002804D04948FFF70DFF0028BA
:10A8E00002D1122000F035F810BDEFF31080C1073F
:10A8F000C90F72B6464802680068401C444B186095
:10A90000002A06D1122001228240424B1A6000BF69
:10A9100000BF002900D162B6704710B5EFF3108078
:10A92000C407E40F72B63A480068401E3849086010
:10A93000002802D1122000F004F8002C00D162B6E9
:10A9400010BDC206D20E01219140324A803A1160F8
:10A950007047C206D20E012191402E4A803211600A
:10A96000704710B5002819DA2B4A03071B0F083B64
:10A970009B089B00D2588307DC0EFF23A3409A4319
:10A980008B071B0E8407E40EA3401A43224B0407D7
:10A99000240F083CA408A4001A511AE01D4A803A6A
:10A9A00003231B02D21883089B00D2588307DC0EB6
:10A9B000FF23A3409A438B071B0E8407E40EA3409A
:10A9C0001A43144B803B032424021B198408A4005F
:10A9D0001A5110BD2E2E5C2E2E5C2E2E5C726263E0
:10A9E0005F6D6573685C7372635C6576656E745FDA
:10A9F00068616E646C65722E630000003025002073
:10AA0000E8250020C0200020482500200026002046
:10AA1000C420002080E100E01CED00E00246C82ACE
:10AA200008DAFE481018884201DD881A00E0FB4869
:10AA300000B27047C82909DAF8480818904201DDC9
:10AA4000881A01E0F548C04300B2F2E7914201DB09
:10AA5000881A00E0501A0346F048834208D98A4217
:10AA600003DD1046C83082B202E00846C83081B229
:10AA7000881A00B2DDE770B504460D46002C05D0FB
:10AA8000002D03D020782978884201D0012070BDA4
:10AA90002078C21F294608312046083002F062FCA7
:10AAA000002801D00120F2E70020F0E7F0B589B0DE
:10AAB00005460720019001AA02A9284601F04BFA99
:10AAC0000646002E3CD1002437E0A10002AA5058CF
:10AAD000D349FFF777FC0646002E28D1A10002AA31
:10AAE000505800F0F5FB00900098002814D000BFEB
:10AAF00000994A790B79110219430846294601F059
:10AB000094FA0746002F06D000BFC6A2A2213846FD
:10AB1000FDF75EFB00BF09E000BF0B2700BFC1A22D
:10AB2000A6210B20FDF754FB00BF00BF00BFA10012
:10AB300002AA505800F035FB641C01988442C4D32B
:10AB4000284600F012F809B0F0BD10B586B00446F2
:10AB5000012069460871BD480290039400210491C8
:10AB600001A8FFF787FE06B010BD38B50546684658
:10AB700001F0C6F9044668460078002800D138BDC7
:10AB80007D20C0002818844203D22046FFF7DDFF55
:10AB900008E02146AE48FEF758FC002802D02046C7
:10ABA000FFF7D3FF00BFEAE7FFB581B00C461546BB
:10ABB0001E46019800F03CFF0746002F02D03846A1
:10ABC00005B0F0BD0020A2490861A04848600020FF
:10ABD0008860C8609F48844201D0012000E00020C6
:10ABE0008F49087008464570012088700846C67075
:10ABF0000120994908700020E2E710B5044620467C
:10AC000000F004FF10BD8649C8707047F7B58CB0DE
:10AC10000746384600F05CFB0446002C02D10B20AE
:10AC20000FB0F0BD617922790902114308460AA9E3
:10AC300000F08EFF0546E279A37912021A4311460D
:10AC40006A46108DFFF7EAFE064603A8C6823878EA
:10AC50004006C10F03A881730622F91C0F3002F0D1
:10AC60005DFB0E98404241B203A841732046083074
:10AC700005902078C01FC1B203A8017360792179C3
:10AC8000000208436A4610820D980990052D49D1AB
:10AC900002206946087303A8C682617922790902F5
:10ACA000114308460AA900F0FAFD0546002D04D01C
:10ACB0000B9800F076FA2846B2E7384600F082FB9F
:10ACC000E079A1790002084369468880029703A8C9
:10ACD000FDF7AAFD002821D100BF61792279090280
:10ACE0001143084601A900F0DAFD00900098002801
:10ACF00007D000BF4BA2FF2107310098FDF768FA8B
:10AD000000BF00BF2178C91FCAB261792379090247
:10AD10001943084621460831FFF71AF90D98FFF745
:10AD200014FF7AE0002E0BDA6179227909021143CF
:10AD300008460D9901F0C1F80D98FFF706FF6CE089
:10AD4000002E20D1002002900B98002803D00B98F1
:10AD500000F0BEFA0290029800280BD0214602981B
:10AD6000FFF789FE002805D001206946087303A873
:10AD7000FDF75AFD617922790902114308460D99C0
:10AD800001F078F849E000206946087303A8C682FC
:10AD9000617922790902114308460AA900F07FFD72
:10ADA0000546002D04D00B9800F0FBF9284637E744
:10ADB000384600F007FBE079A179000208436946B4
:10ADC0008880029703A8FDF72FFD002821D100BF3E
:10ADD0006179227909021143084601A900F05FFD5B
:10ADE00000900098002807D000BF0EA2FF21453137
:10ADF0000098FDF7EDF900BF00BF2178C91FCAB266
:10AE00006179237909021943084621460831FFF781
:10AE10009FF80D98FFF799FE00BF1FE0FF7F00002D
:10AE2000C92000202E2E5C2E2E5C2E2E5C726263BA
:10AE30005F6D6573685C7372635C76657273696F6E
:10AE40006E5F68616E646C65722E6300ADAA01006E
:10AE5000A0260020D6BE898EC82000200B9800F0C6
:10AE6000A0F90020DCE6FEB505460E4617469148DF
:10AE70000078002801D10820FEBD0020019001A823
:10AE800000F025F9002801D10420F5E7334601221E
:10AE900029460097019800F0E2F90446002C04D0FE
:10AEA000019800F07EF92046E6E7019800F095FE53
:10AEB0000446002C04D1FDF759FF0090FFF745FE32
:10AEC000019800F06EF92046D6E710B5FDF74EFF69
:10AED0000446FFF73AFE10BDF7B582B01646754836
:10AEE0000078002802D1082005B0F0BD694602981C
:10AEF00000F02EFE0746002F01D03846F4E70198F7
:10AF0000002801D10520EFE7019800F0E1F904469F
:10AF1000002C04D1019800F044F90520E4E72078E2
:10AF2000C01F85B23088A84204DA019800F039F9D0
:10AF30000920D9E72A4621460831039802F0EEF9A4
:10AF40003580019800F02DF90020CDE770B504465A
:10AF50000D4658480078002801D1082070BD564899
:10AF6000844201D11020F9E7FFF7BFFC2A460121F6
:10AF7000204600F033FF0646FFF7CFFC3046EDE7F2
:10AF800070B504460D464B480078002801D10820D2
:10AF900070BD4948844201D11020F9E7FFF7A5FCB4
:10AFA0002A460121204600F029FF0646FFF7B5FC9E
:10AFB0003046EDE770B504463E480078002801D1E0
:10AFC000082070BD3C48844201D11020F9E70022DE
:10AFD0000221204600F002FF05462846F1E770B541
:10AFE000044634480078002801D1082070BD32485A
:10AFF000844201D11020F9E7FFF777FC01220221FA
:10B00000204600F0EBFE0546FFF787FC2846EDE7FB
:10B0100070B505460C4627480078002801D1082065
:10B0200070BD2548854201D11020F9E7FFF75DFC8E
:10B0300022460221284600F0E1FE0646207800283C
:10B0400001D1012000E000202070FFF766FC3046AF
:10B05000E6E770B504460D4616480078002801D191
:10B06000082070BD1448844201D11020F9E72A4617
:10B070000021204600F0B2FE06463046F1E770B5EA
:10B0800004460D460B480078002801D1082070BD09
:10B090000948844201D11020F9E7FFF726FC2A462F
:10B0A0000021204600F0AAFE0646FFF736FC304697
:10B0B000EDE70000C8200020FFFF0000002003E0B3
:10B0C0000021D04A1154401C4328F9D3704770B571
:10B0D0000546002119E0EFF31080C407E40F72B6B3
:10B0E000C848405C00280CD10120C64A5054282092
:10B0F0004843C54A80182860002C00D162B6012060
:10B1000070BD002C00D162B6491C4329E3D300BFB7
:10B11000042600BFBDA244210420FDF759F800BF5A
:10B1200000BF0020ECE770B50446B749601A28213B
:10B1300002F0A1F80546432D04D228206843B24905
:10B14000401870BD0020FCE7F8B50546AE49681A06
:10B15000282102F090F80446432C01D30020F8BDCA
:10B16000EFF31080C607F60F72B6A648005D002800
:10B1700003D0A448005DFF2809D100BF042700BF09
:10B18000A2A262210420FDF723F800BF00BF9D4862
:10B19000005D401C9B490855002E00D162B601207D
:10B1A000DDE7F8B506469849701A282102F063F8E1
:10B1B0000446432C01D30020F8BDEFF31080C507EF
:10B1C000ED0F72B68F48005D00280ED100BF082732
:10B1D00000BF8EA276210820FCF7FAFF00BF00BF57
:10B1E000002D00D162B60020E6E78648005D401ED3
:10B1F00084490855002D00D162B68248005D0028C0
:10B2000001DD0120D8E70020D6E770B504467E496D
:10B21000601A282102F02FF80546432D01D30020A3
:10B2200070BD7848405DFBE77CB50446684671DF39
:10B230000546002D01D028467CBD2078402188435A
:10B24000694609788901402211400843207006228E
:10B2500000A90131E01C02F061F80020ECE7FFB525
:10B2600081B005461F460A9E002D02D10E2005B072
:10B27000F0BD2C460934172E01DD0920F7E72846DA
:10B28000FFF7D2FF30460E306870287800090001C1
:10B29000801C2870F01D2070162060706448A0701B
:10B2A000000AE07002982071000A60710398A07192
:10B2B000000AE071002E09DD002F07D0172E05DCF3
:10B2C000324639462046083002F028F80020CEE702
:10B2D0000246002A00D170471146093150780628ED
:10B2E00002DD5078252801DD0020F4E70FE00B781F
:10B2F00010460930081A1B185078801F834201D964
:10B300000020E8E70878401C4301181A091848781B
:10B310001628ECD1C8788B7800021843444B984229
:10B32000E5D10846D7E730B504462046FFF7D0FF01
:10B330000546002D01D10B2030BD20460930854245
:10B340000ED02878401CC1B2002004E02B5C2246BD
:10B3500009321354401C8842F8D32546093500BFF2
:10B360002878C01D60700020E6E730B50546284605
:10B37000FFF7AEFF0446002C01D12E4830BD6079A6
:10B38000217900020843F9E702461146093110E02D
:10B390004878162806D1C8788B7800021843244BC9
:10B3A000984201D0012070470878401C4301181AC8
:10B3B00009185078C01F13460933C0188842E7D8CF
:10B3C0000020F0E710B504462046FFF7DDFF002817
:10B3D00002D02046FFF7A7FF2046FFF725FF10BD4C
:10B3E00070B504460849601A282101F044FF05465B
:10B3F000432D04D2282068430349401870BD002023
:10B40000FCE700002C310020B42600202E2E5C2EFC
:10B410002E5C2E2E5C7262635F6D6573685C737266
:10B42000635C6D6573685F7061636B65742E630048
:10B43000E4FE0000FFFF000001460879C0064B68EB
:10B440005B0918430B681A1A088940048B68DB0BE8
:10B4500018434B6858400860CB688868C01848603B
:10B46000C8688018886008688018C860C868704715
:10B47000F8B507460D4600241AE000BF684639DFDC
:10B48000684600780028F9D0281B69460978884268
:10B4900002D2281BC0B200903819694609783ADFF9
:10B4A0000646002E01D00320F8BD68460078241817
:10B4B000AC42E2D30020F7E7F8B504460020009044
:10B4C00004216846FFF7D4FF0546002D01D0284629
:10B4D000F8BD09482060009860600098A06000985E
:10B4E000E060002603E02046FFF7A6FF761C142E3E
:10B4F000F9D30020ECE70000ED5EEAF10188FC4A98
:10B50000914202D1C821018002E00188491C0180DA
:10B51000704710B50446002C00D110BD20690028EA
:10B5200004D02069FFF73DFE002020612046FEF791
:10B5300062FB00BFF1E770B5EE48068815E0142005
:10B540007043ED494018006900280DD11421714362
:10B55000E94A88180021FEF7F3FAE6480088401C03
:10B56000E4490880B0B270BD761C282EE7D3E348CA
:10B5700004680CE000BF0A206043E1494018C0881D
:10B580004404640C00BF282C01D12820EBE70A20DA
:10B590006043DB49401800892828EBD00A2060432B
:10B5A0004018C088C00B0028E4D10A20604340182E
:10B5B000058900BF282D01D2012000E000200646A9
:10B5C000002E05D100BFCFA28E21FCF701FE00BFE7
:10B5D00000BF28210A206043C94A80180181142134
:10B5E0006943C54A8818FFF794FF14216943C24A8A
:10B5F00088180021FEF7A4FAA8B2B4E770B5054692
:10B600000E46FFF772F9002E14D0C8480088A842F1
:10B6100010D1C748008828280CDAC54800880A21BC
:10B620004843B749085AA84204D1FFF776F9C04801
:10B63000008870BDBF48008884B210E0AF48006841
:10B64000A04203D1FFF769F92820F2E700BF0A20E2
:10B650006043AB49401880884404640C00BF0A2052
:10B660006043A749085AA842E8D1002E03D0AF484A
:10B670000580AF480480FFF750F92046D9E770B540
:10B68000054601212846FFF7B9FF0446282C43D17F
:10B690009A48008884B20CE000BF0A2060439849B1
:10B6A0004018C0884404640C00BF282C01D12046F7
:10B6B00070BD0A20604392494018C088C00B002822
:10B6C000EAD10A2060430D520A2060434018808866
:10B6D0000121C90388430A216143894A8918888066
:10B6E00000210A206043801841800A2060431146EF
:10B6F0004018008928280FD00A2161438918098938
:10B70000142251437C4A8818FFF703FF28210A209E
:10B7100060437B4A8018018178480068844225D0C4
:10B7200084480068844237D00A2060437449401836
:10B7300080884004400C0A21484371494018C08861
:10B74000C00BC0030A2161436D4A8918C9884904A6
:10B75000490C08430A216143891889884904490C26
:10B760000A225143664A8918C88015E00A206043BE
:10B7700063494018C0884004400C604908600A20B2
:10B7800060435F4940188088C00BC00328300A21FD
:10B7900061435B4A891888806648006884425AD0B1
:10B7A0000A20604356494018C0884004400C2828AD
:10B7B0001FD00A2060434018C0884004400C0A2172
:10B7C00048434F4940188088C00BC0030A21614399
:10B7D0004B4A891889884904490C08430A21614366
:10B7E0008918C9884904490C0A225143444A8918D6
:10B7F00088800A20604342494018C088C00BC003BB
:10B8000028300A2161433E4A8918C8800A206043D3
:10B81000114640188088C00BC00346490988490476
:10B82000490C08430A21614389188880414800680F
:10B830000A21484311464018C088C00BC003610468
:10B84000490C08433B4909680A2251432C4A89188C
:10B85000C88038480460374800680A2148432849AE
:10B860004018C088C00BC0032830324909680A223A
:10B870005143234A8918C880204800680A21484358
:10B88000114640188088C00BC00328301B49096846
:10B890000A2251431A4A89188880204608E7F8B5D9
:10B8A00007460E46002E01D10E20F8BD10488742F3
:10B8B00001D11020F9E701213846FFF79FFE044629
:10B8C000282C07D13846FFF7DAFE0446282C01D190
:10B8D0000420EAE70A206043094940180589282D19
:10B8E0002FD1FFF728FE0546282D25D10420DCE7BF
:10B8F000FFFF0000D820002000330020D4200020CB
:10B90000703100202E2E5C2E2E5C2E2E5C72626317
:10B910005F6D6573685C7372635C68616E646C65AF
:10B920005F73746F726167652E630000DC20002016
:10B93000DA200020D02000200A206043F949401876
:10B940000581FDF713FA14216943F74A009088181E
:10B950000099FEF7F5F831880A206043F14A801813
:10B96000418014206843F04940180069002806D03F
:10B9700014216943EC4A89180869FFF712FC7068C2
:10B98000FFF7E2FB0A206043E64A80180089142290
:10B990005043E54A801871680161002085E7FEB5D3
:10B9A00005462E463046FFF793FC0446002C29D06E
:10B9B000E079A1790002084369460880019661791F
:10B9C00022790902114308460121FFF717FE0746B5
:10B9D000282F09D00A207843D24940184088694668
:10B9E00008806846FFF78AFD68460088A071000A53
:10B9F000E071617922790902114308466946FFF72F
:10BA00004EFF00BF3046FFF7CCFBFEBD10B504462D
:10BA1000C648844202D3C648844201D9072010BDDB
:10BA200003220121C9022046FEF768F80020F6E74C
:10BA300070B50546FEF759FF2846FFF7E7FF0446B5
:10BA4000002C03D0FEF769FF204670BD002006E001
:10BA5000002214214143B44BC9180A61401C282814
:10BA6000F6D3002046E00022D2430A214143AD4BE9
:10BA70005A5200220A214143C9184A800A214143EF
:10BA80001A468918C9880122D20391430A224243E7
:10BA9000D218D1800A2141431A4689188988012287
:10BAA000D20391430A224243D218918028220A21CC
:10BAB0004143C9180A810A2141431A468918C98895
:10BAC000C90BC903421E5204520C11430A224243BD
:10BAD000D218D1800A2141431A4689188988C90B96
:10BAE000C903421C5204520C11430A224243D21889
:10BAF0009180401C2828B6D300208E49086027205A
:10BB00008D4908608B4800680A21484385494018E0
:10BB1000C088C00BC0032830864909680A225143F7
:10BB2000804A8918C880844800680A214843114621
:10BB300040188088C00BC00328307F4909680A225A
:10BB40005143784A89188880FEF7E7FE00207CE799
:10BB500070B506460D46002D01D10E2070BD0020A7
:10BB6000286068607548864201D11020F6E7FEF72C
:10BB7000BCFE00213046FFF741FD0446282C03D1CE
:10BB8000FEF7CBFE0520E9E70A206043654940182F
:10BB9000408828800A20604340180089282818D04F
:10BBA0000A2161435F4A89180989142251435E4A78
:10BBB00089180869FFF7C8FA00280AD00A206043EC
:10BBC00058494018008914214843574940180069D2
:10BBD0006860FEF7A2FE0020C0E730B585B00446DD
:10BBE000002C02D10E2005B030BD0220694608703D
:10BBF0000294534801902046FFF7A6FA6846FEF7E4
:10BC000039FE0546002D02D02046FFF7CAFA284625
:10BC1000E9E7F7B582B00E461546032E02DB072092
:10BC200005B0F0BD45490298884201D11020F7E7E0
:10BC300001210298FFF7E2FC0446002E04D0012EF9
:10BC40001FD0022E7ED139E0282C07D10298FFF7B1
:10BC500016FD0446282C01D10420E1E70A206043A8
:10BC600030494018C0880121C9038843E9030122F3
:10BC7000D203114008430A2161432A4A8918C88027
:10BC8000A9E0282C07D10298FFF7F9FC0446282CDC
:10BC900001D10420C4E70A2060432249401880886B
:10BCA0000121C9038843E9030122D203114008435B
:10BCB0000A2161431B4A891888808CE0002D18D026
:10BCC000282C01D10020ABE70A2060431549401819
:10BCD0000089282801D10020A2E70A216143114AE6
:10BCE00089180989142251430F4A8818FDF780FFEB
:10BCF0006EE00020019001A8FFF7E9F9002801D1CA
:10BD000004208DE700200346024600900299019826
:10BD1000FFF7A5FA0746002F15D00198FFF741FA63
:10BD200038467DE770310020003300208813000082
:10BD300000879303D0200020D4200020FFFF0000C4
:10BD40009FB9010045E0282C04D10198FFF727FE98
:10BD5000002065E70A206043C5494018008928286B
:10BD60000FD1FFF7E8FB0A216143C14A8918088116
:10BD70000A206043114640180089282801D1042078
:10BD80004EE70A206043BA4940180089142148430D
:10BD9000B84940180069002803D00198FFF701FA5C
:10BDA0000AE00A206043B24A8018008914225043F6
:10BDB000B04A8018019901610A216143AC4A89188F
:10BDC000098914225143AB4A8818FDF714FF00BFBC
:10BDD00001E0072024E700BF002021E770B586B00E
:10BDE00004460E461546042168460171048101A8E7
:10BDF0008671C571FEF73EFD06B070BDF8B5074609
:10BE00000E461546032E01DB0720F8BD002D01D19B
:10BE10000E20FAE79848874201D11020F5E7FEF797
:10BE200064FD00213846FFF7E9FB0446282C03D1C6
:10BE3000FEF773FD0520E8E7002E02D0012E10D199
:10BE400007E00A2060438A494018C088C00B287068
:10BE50000BE00A206043864940188088C00B287098
:10BE600003E0FEF75AFD0720CFE700BFFEF755FDC0
:10BE70000020CAE7F8B506460F467F48864201D142
:10BE80001020F8BD01213046FFF7B8FB0446282CEE
:10BE900001D10520F5E70A2060437549401805895E
:10BEA000282D01D10520ECE714216943714A881837
:10BEB0003946FDF731FE0020E3E7F8B506460F46A8
:10BEC0006D48864201D11020F8BD01213046FFF7B0
:10BED00095FB0446282C01D10520F5E70A20604394
:10BEE000634940180589282D01D10520ECE714216C
:10BEF0006943604A88183946FDF737FE0020E3E7BA
:10BF000070B5054600260020287000241FE014218B
:10BF10006143584A8818FDF773FD002816D0142095
:10BF2000604354494018006900280FD02878002841
:10BF300006D0142060430858801B5049884205D918
:10BF400001202870142060434A490E58641C282C94
:10BF5000DDD3304670BDF7B582B0044615460026E5
:10BF600000275DE004E046480088283844490880FE
:10BF7000434800882828F6DA4148008814214843BD
:10BF80003C4940180069002844D03D4909881422E2
:10BF90005143384A8818FDF733FD00283AD0384815
:10BFA00000881421484333490858201A33498842ED
:10BFB00030D80021019132490988142251432D4A79
:10BFC0008818224601A9FDF7F3FD6846007900288C
:10BFD0001FD02B49098814225143264A8918086921
:10BFE000FFF7B2F826480088142148432149401839
:10BFF00002693046761C8100039842502868B0429E
:10C0000007D11F480088401C1D490880002005B04A
:10C01000F0BD00BF1A480088401C194908807F1CE9
:10C02000282F9FD32E600020F1E7F8B506460F4673
:10C030001148864201D11020F8BD01213046FFF79A
:10C04000DDFA0446282C01D10520F5E70A206043DB
:10C05000074940180589282D01D10520ECE7142156
:10C060006943044A88183946FDF78FFD0020E3E74D
:10C070007031002000330020FFFF0000FFFFFF7F32
:10C08000DE20002032483349086070473248008C77
:10C09000C0B2012812D13048808C0007000F002860
:10C0A0000CD12D48806AF0210840402806D12A484A
:10C0B000C06A0840002801D1012070470020FCE739
:10C0C0002548008CC0B201282CD12348808C000761
:10C0D000000F002826D12048806AF021084000285F
:10C0E00006D11D48C06A0840002801D101207047D0
:10C0F0001948806AF0210840102806D11648C06A05
:10C100000840002801D10120F1E71348806AF0219E
:10C110000840302806D11048C06A0840002801D1E4
:10C120000120E4E70020E2E710B5FFF7C9FF00288F
:10C1300005D00A480A494860C8130A498861FFF7D0
:10C14000A5FF002802D001200749886010BD00002B
:10C150000024F400E0200020C00F00F0DFFF07C043
:10C1600000050040006C00400006004007480268DF
:10C1700003210A4302600648804706480047FEE75D
:10C18000FEE7FEE7FEE7FEE7FEE7000024050040CD
:10C1900029C10100C180010070B506460C46154654
:10C1A00029462046C046C04670BDF8B55A480078BA
:10C1B000002800D1F8BD59480068002801D10120AD
:10C1C00000E00020054656480068002801D1012003
:10C1D00000E00020064600BF002D14D1684651DF64
:10C1E0000446052C01D101250CE0002C06D000BF2F
:10C1F0004C4A65212046FBF7EBFF03E047490098D6
:10C200000968884700BF002E1AD14748008800906F
:10C2100069464648006861DF0446052C01D10126C5
:10C220000DE0002C06D000BF3E4A7C212046FBF7E3
:10C23000CFFF04E03D48006839490968884700BFDE
:10C24000002D02D0002E00D000E0C5E700BF00BFE7
:10C25000B0E7FFB581B00C4616461F46002C02D150
:10C26000072005B0F0BD20468107890F002901D1C4
:10C27000012100E00021002901D10720F1E72B482E
:10C280000460294806802A4807602A49019810DF7F
:10C290000546002D01D02846E3E701201E4908701D
:10C2A00016202EDFDDE710B511DF0446002C01D08B
:10C2B000012000E0002018490870204610BD01460A
:10C2C000002901D10E207047154801600020FAE7CF
:10C2D0000146002901D10E2070471048016000205E
:10C2E000FAE770B512480068002811D010480068BD
:10C2F0008047044600BF2546002D07D000BF094AED
:10C30000FF212A312846FBF763FF00BF00BF01E091
:10C31000FFF74BFF70BD0000E8200020F820002050
:10C32000F420002044DA0100F0200020EC2000205E
:10C33000E420002099C101000020FE49087001207E
:10C34000FD49C86048600020FC49086070471CB582
:10C350000120F949C860F749087003206946087050
:10C360006846F749096888471CBD08B5F148007858
:10C37000022802D00120F04988606946F14800F0A7
:10C380005BFF002802D0FFF7E2FF08BD8020EE49E6
:10C39000886068460078E949C8610220E54908706C
:10C3A0008020E949486000BFEFE710B5E54800F09C
:10C3B00059FA002802D0FFF7D8FF01E0FFF7C7FFC6
:10C3C00010BD10B5DB480078012802D0022807D143
:10C3D00002E0FFF7B1FF04E00320D649087000E057
:10C3E00000BF00BF10BD10B5D2480078002802D0B1
:10C3F000032816D111E00420D04908600120CE495D
:10C400000860D04800F02EFA002802D0FFF7ADFFF8
:10C4100002E00120C749087004E00220C549087005
:10C4200000E000BF00BF10BD10B5C2480078012871
:10C4300007D0022804D0032806D1FFF77DFF04E0CF
:10C4400000BFFFF7B2FF00E000BF00BF10BD10B596
:10C45000B8480078012801D1FFF787FF10BD10B55B
:10C46000FFF76AFF10BD10B50446230001F0BEF8C7
:10C470000504070D0A101300FFF7A3FF0CE0FFF7F8
:10C48000B2FF09E0FFF7D0FF06E0FFF7E0FF03E0AF
:10C49000FFF7E5FF00E000BF00BF10BD70B5044628
:10C4A0000D46204600F00AFD002803D00020FFF7CB
:10C4B000DAFF02E00120FFF7D6FF70BD1CB5A348EC
:10C4C0008068002822D00020A04988609B488069AD
:10C4D000C1B29F4800F09BFE0446002C08D001200A
:10C4E00069460870019468469549096888470CE0D8
:10C4F000974800F0B7F9012807D100206946087075
:10C5000068468F490968884700BF00BF8F48C069E7
:10C51000002805D000208D49C8610320FFF7A3FF44
:10C520008A48406A00280FD0002088494862834822
:10C5300080380468046002206946087001946846E7
:10C540007F490968884700BF1CBD04207B490860FB
:10C5500000207E498860C86178484030C06A400841
:10C56000400076494031C8620020C043734988606A
:10C5700008610120704988600860704704216F4A93
:10C5800011600021714A9160D1616C494031C96AE2
:10C5900001221143694A4032D162C178674A116170
:10C5A000817891600121644A916011607047FFB504
:10C5B00083B004460E4600205E4908706049059825
:10C5C0000860002E02D1072007B0F0BDB08882B20B
:10C5D0005F48316800F006FE0546002D01D0284670
:10C5E000F2E7B08982B25748B16800F0FBFD05461A
:10C5F000002D01D02846E7E76078032205210907CE
:10C6000007231B02C9188300CA5000BF20780021ED
:10C610008A0005231B0707273F02DB198700DA5131
:10C6200000BF60784549C86020784861A0684862CA
:10C630006079002804D00E2040494031C86203E0F0
:10C6400000203E494031C8622079022843D100F0E1
:10C65000BBF9002806D100F08FF90546002D01D066
:10C660002846B1E73B4800680290A07802A900F094
:10C6700047FA0546002D01D02846A5E70020C04313
:10C680002E490861A07888602C484030C06A01219A
:10C6900008432A494031C8622E48001D00680190B5
:10C6A000E0782D4A01A900F044FB0546002D01D099
:10C6B000284689E7E078012100F0ACFBE07800F043
:10C6C000FDFB002803D00020FFF7CDFE02E0012093
:10C6D000FFF7C9FE0EE02079012806D12046FFF7BA
:10C6E0004DFF01201349087004E0FFF72EFF0120E1
:10C6F000104908700C980088002808D11748017864
:10C700000C98018015480078401C144908700020DE
:10C71000C0430D498860A1208000486002200121AB
:10C7200081400F4A116000BF069900F064F80220B2
:10C73000012117E0042100200020004000250040D6
:10C74000002100203036002000230040002100405E
:10C75000203600204CD901009DC40100FC2000209F
:10C7600080E200E08140424A116000BF00202BE7D8
:10C7700010B5044621463F4800F05EFD10BD70B57F
:10C78000044621463C4800F042FD05460220FFF7E2
:10C790006AFE284670BD10B5364800F062FD0446BA
:10C7A000002C01D0204610BD334800F05AFD04464D
:10C7B000002C01D02046F6E70020F4E701462F4880
:10C7C0000078002801D0012000E00020087000203F
:10C7D000704710B50446FF2C04DA0420FFF743FE2F
:10C7E000002010BD0420FFF73EFE2549086900F037
:10C7F0002EF90020F5E710B5002819DA214A0307C1
:10C800001B0F083B9B089B00D2588307DC0EFF23BD
:10C81000A3409A438B071B0E8407E40EA3401A43E0
:10C82000184B0407240F083CA408A4001A5118E070
:10C830000F4A03231B02D21883089B00D258830798
:10C84000DC0EFF23A3409A438B071B0E8407E40EE4
:10C85000A3401A43064B032424021B198408A40096
:10C860001A5110BD01468A68C868801A70470000D6
:10C8700000E100E0203600203036002004210020B6
:10C88000002500401CED00E010B50522120707232B
:10C890001B02D2188300D25803231B049A4305239A
:10C8A0001B07072424021B1984001A5105221207B2
:10C8B00007231B02D2188300D2580B041A43052306
:10C8C0001B07072424021B1984001A5110BD0146BE
:10C8D000FE484056002805DBFC484056042801DA93
:10C8E000012070470020FCE7F7B585B00B4600201B
:10C8F000C0430490002A01D0002000E004200390EF
:10C90000002A01D0042000E00520029003991EE0D7
:10C910008C00EE4814380059401C002816D10846F7
:10C92000059C0093019246B2E84D2E558600143DB9
:10C93000009BAB51019A002A04D166B2051FE34F58
:10C9400020377E5500BF48B2049003E0491C02988E
:10C950008142DDD300BF049808B0F0BD0022D2436D
:10C960008300DA491439CA50042804DB1346011F36
:10C97000D64A20325354704710B5D448183800783E
:10C98000002801D0082010BD002404E0204600F05B
:10C99000BCFB601CC4B2202CF8DB002404E0204661
:10C9A000FFF7DCFF601CC4B2052CF8DB0121062078
:10C9B00000F0C2FB0120C00700F06FFB0120C3495B
:10C9C000183908700020DEE7C048183800780028C1
:10C9D00001D0012070470020FCE770B504462046D6
:10C9E00000F071FB002812D000BFA100B84A8918DE
:10C9F00009680222914308460221014305221207D9
:10CA000007231B02D218A300D15000BF1EE020460E
:10CA1000FFF75DFF002819D0204600F07BFB05469C
:10CA20002846AC49512212018918820089584908C8
:10CA30004900A84A51231B01D2188300D15000BFDE
:10CA40000120A840A449886000BF00BF70BD70B538
:10CA500005462846FFF7C1FF2846FFF738FF0028A4
:10CA60000CD0284600F056FB04460020994951227C
:10CA700012018918A200885000BF00BF284600F0AC
:10CA80000FFB284600F046FBC4B22046FFF766FFC6
:10CA9000284600F03AFB70BD10B504462046FFF76B
:10CAA00016FF002803D08949085DFFF757FF20468D
:10CAB00000F02BFB204600F0F3FA10BD10B5002467
:10CAC00017E0204681490956891C002901D101211E
:10CAD00000E00021002903D02046FFF7DDFF07E03A
:10CAE000204600F007FB002802D02046FFF7AFFFEA
:10CAF000641C202CE5D3002074491839087010BD3F
:10CB0000FEB504460E460020019020466F490956A6
:10CB1000491C002901D0012100E00021002902D098
:10CB2000082001905BE0B07800283AD00122002173
:10CB30002046FFF7D9FE0546681C00282ED037781E
:10CB4000727800926348512109014018A9004058A9
:10CB5000624908405F49512212018918AA00885091
:10CB60005C48512109014018A900415820021F22A8
:10CB7000120210403A0403231B041A401043009A87
:10CB8000120501231B051A4010430143514851224D
:10CB900012018018AA00815000BF01E0042001901A
:10CBA00006E000BF0121C9434848015500BF00BF4E
:10CBB0000198002813D100BF03200521090707228F
:10CBC00012028918A200885000BF7078012803D192
:10CBD000204600F06EFA02E0204600F06FFA01985D
:10CBE000FEBD10B50446204600F063FA10BD10B536
:10CBF0000446204600F062FA10BD10B5014601243B
:10CC00008C402246364C6468CC40E307DB0F002B97
:10CC100002D1334CA26001E0314CE26000BF10BD94
:10CC200030B50146294A505683002E4C1B191B690A
:10CC3000032423431A461F231B021343254C51256B
:10CC40002D0164198500635100BF00BF00BF214B57
:10CC5000512424011B1984001A5100BF30BD10B5A6
:10CC600001461A4A50561B4A51231B01D218830011
:10CC7000D25892089200174B512424011B198400AA
:10CC80001A5100BF10BD70B50546284600F042FAA3
:10CC90008006040E20460F494118084670BD70B545
:10CCA00002460B46002B01D0012000E00020014687
:10CCB000064CA056074C51252D0164198500645976
:10CCC00001252D05AC43034D51260DE058360020BB
:10CCD000000700500060004000630040FFE0ECFFF0
:10CCE00000050050006500403601AD198600AC51CA
:10CCF000F94C51252D016419850064590D05012653
:10CD0000360535402C43F44D51263601AD198600C9
:10CD1000AC5100BF70BD70B50446204600F0FAF972
:10CD20008006050E00BF0120EB496918086000BFAE
:10CD300070BDF7B582B004460E4600200190204633
:10CD400000F0D8F9002802D0082001905FE0F278C6
:10CD500020460499FFF7C8FD0546681C002853D0FB
:10CD6000B078002810D000BFA100DC4A89180968FB
:10CD70000222914308460521090707221202891859
:10CD8000A200885000BF0AE07078810005221207D7
:10CD900007231B02D218A300D15000BF00BFF078B8
:10CDA000002826D03778CC48512109014018A90025
:10CDB0004058CB490840C849512212018918AA009D
:10CDC0008850C548512109014018A9004158200246
:10CDD0001F22120210403A0403231B041A4010437E
:10CDE0000143BD48512212018018AA00815000BFA2
:10CDF0000CE0281FBB49085C31788901084342B226
:10CE0000281FB8490A5401E00420019000BF01988E
:10CE100005B0F0BDFEB505460E46284600F053F9B4
:10CE2000002822D0284600F075F9001F009000F07D
:10CE300075F90746BC11032C0CD100BFAA48006944
:10CE40000121A9400840002801D0032000E0022071
:10CE5000019005E0012C01D1022000E003200190A7
:10CE600028460199FFF710FD27E02846FFF72FFD20
:10CE7000002822D0284600F04DF90446A000FF30DB
:10CE8000013087B22046944951221201891882004C
:10CE9000895801221143904A51231B01D218830063
:10CEA000D15000BF384600F0F0F8002E04D0012128
:10CEB000A140084600F0F1F800BFFEBD014600BFEA
:10CEC00089480069C840C007C00F002801D0012070
:10CED00070470020FCE770B50446204600F01AF9C0
:10CEE0008000FF30013085B2284600F0BFF870BDE9
:10CEF000F0B587B0002600200690FF200130059095
:10CF00000125002417E0059800F0B4F800280CD0A3
:10CF10000120A040754949680140002905D00598C5
:10CF200000F0B3F83046284306466D000598001D12
:10CF300080B20590641C042CE5D3FF207D3000F006
:10CF400099F800280AD0FF207D3000F09EF80120DB
:10CF5000C007064300BF6448006906903007000F11
:10CF600000282AD00125002425E02846304000284A
:10CF70001FD000BF5848512109014018A100405856
:10CF80001F2109020840000A049000BF52485121A5
:10CF900009014018A1004058032109040840000C71
:10CFA0000390204600F0BFF8074603990498B8475D
:10CFB00000BF6D00641C042CD7D3F00FC0070028FD
:10CFC00052D000244EE0204600F0A8F80490C02182
:10CFD0000498884307460498084080110390012074
:10CFE000B8400546384600F06EF8002839D038467B
:10CFF00000F090F8019000F096F802900298002856
:10D000002ED000BF05200007072109024018B900F3
:10D010004058032109040840000C0190069828405C
:10D02000002802D00198022806D00698284000283F
:10D0300015D10198032812D1039803280BD1019828
:10D04000022801D1032000E0022000903846009918
:10D05000FFF71AFC00BF3846029A0399904700BFB9
:10D0600000BF641C002CAED007B0F0BD01461A48CA
:10D070000818704710B504462046FFF7F7FF006810
:10D08000012800D110BD0020FCE710B50446204661
:10D09000FFF7ECFF0021016010BD144948607047A4
:10D0A00002210522120707231B02D2188300D15048
:10D0B0007047012181400C4A9160704701218140F5
:10D0C000094AD16070470146064820384056042876
:10D0D0000EDB012070470000006000400007005098
:10D0E000FFE0FCFF783600200005005000630040A0
:10D0F0000020EFE701460F484056C017401C0028AB
:10D1000001D0012070470020FCE70022D2430949EA
:10D110000A54704701460748405670470146054883
:10D120002030405C704701468A000248143880581D
:10D13000704700005836002070B504460D46294659
:10D14000204600F011F800BFE106C90E012088401A
:10D150002149086000BF00BFE106C90E01208840D8
:10D160001E49086000BF70BD10B5002819DA1C4ABE
:10D1700003071B0F083B9B089B00D2588307DC0E5C
:10D18000FF23A3409A438B071B0E8407E40EA340A2
:10D190001A43134B0407240F083CA408A4001A5197
:10D1A00018E00E4A03231B02D21883089B00D258B2
:10D1B0008307DC0EFF23A3409A438B071B0E8407D3
:10D1C000E40EA3401A43054B032424021B198408D0
:10D1D000A4001A5110BD000080E200E000E100E070
:10D1E0001CED00E00346002901D10E207047002A03
:10D1F00003D0501E1040002801D00920F6E7196026
:10D20000501E988000209860D86000BFEEE770B58F
:10D2100004460D46204600F029F8A188884209D826
:10D22000E068A188084021680D54E068401CE06077
:10D23000002070BD0420FCE770B504460D46204672
:10D2400000F014F800280AD0A068A18808402168DE
:10D25000085C2870A068401CA060002070BD0520FC
:10D26000FCE70146C86888600020704701468A686C
:10D27000C868801A704730B50B460146002020224E
:10D28000012409E00D46D5409D4205D31D46954039
:10D29000491B2546954040191546521E002DF1DCCC
:10D2A00030BDF0B51FB486B0002000900190029010
:10D2B0000698069980B204900798090C020400149D
:10D2C000114307900027089D099806913E463C4669
:10D2D00003900398A9B20204000C039004982D0C4B
:10D2E000154348430021224600F099F8C7197141BF
:10D2F00010340E46402CECDB3846029A00F08FF8D2
:10D30000009A019B801800905941029801911030B9
:10D3100002904028CCDB00980BB0F0BD03460B43D5
:10D320009B0703D009E008C9121F08C0042AFAD2DB
:10D3300003E00B780370401C491C521EF9D2704761
:10D34000D2B201E00270401C491EFBD2704700229D
:10D35000F6E710B513460A4604461946FFF7F0FFF4
:10D36000204610BD30B504460020034600E05B1C9B
:10D37000934203D2E05CCD5C401BF8D030BD03216A
:10D38000001D401E037812021A43491EF9D51046AB
:10D390007047034603220870000A491C521EFAD542
:10D3A0001846704770B5064600F02EF90468054629
:10D3B0000A220021304600F043F82C6070BDF0B521
:10D3C0001FB40646002082B005464024019100901B
:10D3D0001BE0019922460F46304600F07BF8049A84
:10D3E000059B801A994110D310461946224600F039
:10D3F00016F8361A8F410197224601200021009F1E
:10D4000000F00DF838184D4100902046641E0028A9
:10D41000DFDC019B00982946324607B0F0BD10B50D
:10D42000202A04DB0146203A9140002010BD9140A3
:10D4300020239C1A0346E3401943904010BD00008E
:10D44000F7B5009C0F4600262578641C002D05D0FA
:10D4500000F052F80068405DC007F5D12B2D02D0D6
:10D460002D2D18D0641E39462046029A00F048F847
:10D47000002F04D03968A14201D1009939607105AB
:10D48000022400290BDA4042002803DD00F0BCF83A
:10D490000460A007FEBD012080020643E3E70028E8
:10D4A000F8DA00F0B1F804600048FEBDFFFFFF7F2E
:10D4B000064C0125064E05E0E36807CC2B430C3CE7
:10D4C00098471034B442F7D3FAF7FEFD9CDA010016
:10D4D000BCDA010010B5202A04DB0846203AD0400F
:10D4E000002110BD0B46D340D0402024A21A914009
:10D4F0000843194610BD000000487047D8D9010004
:10D50000F7B582B0029C00272078641C154601976D
:10D51000302802D0002D15D015E020780127641C9A
:10D52000782804D0582802D0002D09D00BE0002D17
:10D5300001D0102D07D1002710252078641C02E0AF
:10D54000082500E00A250026009610E00099012732
:10D5500069430818020C294680B2714300908E1866
:10D560003804864201D3012001902078641C2946AA
:10D5700000F019F80028E9DA0398002805D0002FF8
:10D5800001D0641E00E0029C04600198002806D0CF
:10D5900000F03AF802210160C81E05B0F0BD009904
:10D5A00030040843F9E73A2800D2303820230246F5
:10D5B0009A43412A01D310463738884201D30020CC
:10D5C000C04370470FB410B504A9074B02AA0398D3
:10D5D00000F02EF8044602A9002000F097F920463A
:10D5E00010BC08BC04B018470DD9010030B4744613
:10D5F000641E2578641CAB4204D3635D5B00E318B2
:10D6000030BC18471D46F8E7004870470821002045
:10D6100002E008C8121F08C1002AFAD170477047FB
:10D62000002001E001C1121F002AFBD17047000059
:10D63000FFB58FB00F460446002606E025280AD025
:10D64000129A11999047641C761C20780028F5D115
:10D65000304613B0F0BD00250121A14A009500E03D
:10D660000543641C23780846203B98401042F7D1BC
:10D6700020782E2815D1042005436078641C2A28C0
:10D680000AD101CF641C00900BE000990A2251439B
:10D6900030394018641C009020780146303909293F
:10D6A000F3D920786C280ED004DC4C2813D06A28DB
:10D6B00012D104E074280ED07A280DD10BE001209D
:10D6C0004005054307E00121090562780D438242C8
:10D6D00001D16D18641C641C2078864669284AD0E4
:10D6E00008DC0028B4D058286DD0632810D06428F6
:10D6F00008D140E070286BD0732812D0752860D014
:10D70000782860D0129A704611999047761CE5E00F
:10D710003878694608720020487202A801900120FA
:10D7200003E0386801900020C0433F1D69070CD515
:10D73000002500E06D1C00998D420FDA8542F9DB6F
:10D740000199495D0029F5D108E0002500E06D1C34
:10D750008542FCDB0199495D0029F8D1761907E083
:10D76000019801990078491C0191129A11999047EA
:10D770006D1EF5D2B2E00A20029000216802400F2F
:10D78000039102280CD001CFC117844600290DDA7D
:10D790006246084652420021814194462D2008E00D
:10D7A000FF1DFF08FF0003CF8446EFE7280504D5DF
:10D7B0002B206A46107401203CE0E8073AD0202074
:10D7C000F7E70A2000E0102000210391029007E013
:10D7D00010200290002104200543082003910090AE
:10D7E0006802400F022810D001CF0021844600209B
:10D7F0000D9028071FD5704670280CD0029A102073
:10D80000039B42401A430CD015E0FF1DFF08FF00A8
:10D8100003CF8446EBE740206A46107401200D9048
:10D820000CE06046084306D030206A46107470460B
:10D83000507402200D907046582804D029A0019001
:10D840000DA80E900DE02CA0F9E76046039B029A0C
:10D85000FFF7B5FD019B84469B5C0E9A521E0E920B
:10D86000137060460843F0D10E9805A9081A2030BD
:10D870000190680701D5009801E00120009001990E
:10D88000884203DD01460198081A00E000200025C7
:10D89000009006E004A8129A405D119990476D1C13
:10D8A000761C0D988542F5DB04E0129A3020119920
:10D8B0009047761C0099481E00900029F5DC08E08E
:10D8C0000E980E990078491C0E91129A1199904762
:10D8D000761C0199481E01900029F1DC641CB4E615
:10D8E0000928010030313233343536373839616236
:10D8F00063646566000000003031323334353637FA
:10D900003839414243444546000000000A68531C30
:10D910000B601070704755434E49540002000000E0
:10D920001A000000500000001ECD00008CB9A88B2A
:10D9300082D851FDA1771E2A02000000E1A2010059
:10D9400000000000000000000000000000010000D6
:10D950000300000000404040404040404040414102
:10D9600041414140404040404040404040404040B4
:10D97000404040404005020202020202020202024E
:10D98000020202020220202020202020202020024B
:10D9900002020202020290909090909010101010DB
:10D9A0001010101010101010101010101010101077
:10D9B000020202020202888888888888080808080B
:10D9C00008080808080808080808080808080808D7
:10D9D000020202024000000055D90100546F20638A
:10D9E0006F6E6669677572653A207472616E736DE9
:10D9F0006974207468652068616E646C65206E755A
:10DA00006D62657220746869732064657669636508
:10DA100020726573706F6E647320746F2C200D0A12
:10DA20006F72203020746F20726573706F6E642087
:10DA3000746F20616C6C2068616E646C65732E0D70
:10DA40000A0000002E2E5C2E2E5C2E2E5C2E2E5CEC
:10DA50002E2E5C2E2E5C636F6D706F6E656E747310
:10DA60005C736F66746465766963655C636F6D6D26
:10DA70006F6E5C736F66746465766963655F686119
:10DA80006E646C65725C736F6674646576696365F9
:10DA90005F68616E646C65722E630000BCDA010021
:10DAA000002000200C01000010D60100C8DB01009E
:10DAB0000C210020741D000020D60100FFFF000093
:10DAC000000000006C2100200000000000000000A9
:10DAD0000000000000000000000000000000000046
